{
	"referralSystem.sol": {
		"ReferralRewards": {
			"abi": [
				{
					"inputs": [],
					"stateMutability": "nonpayable",
					"type": "constructor"
				},
				{
					"inputs": [
						{
							"internalType": "address",
							"name": "owner",
							"type": "address"
						}
					],
					"name": "OwnableInvalidOwner",
					"type": "error"
				},
				{
					"inputs": [
						{
							"internalType": "address",
							"name": "account",
							"type": "address"
						}
					],
					"name": "OwnableUnauthorizedAccount",
					"type": "error"
				},
				{
					"anonymous": false,
					"inputs": [
						{
							"indexed": true,
							"internalType": "address",
							"name": "previousBackend",
							"type": "address"
						},
						{
							"indexed": true,
							"internalType": "address",
							"name": "newBackend",
							"type": "address"
						}
					],
					"name": "AuthorizedAddressChanged",
					"type": "event"
				},
				{
					"anonymous": false,
					"inputs": [
						{
							"indexed": true,
							"internalType": "address",
							"name": "previousOwner",
							"type": "address"
						},
						{
							"indexed": true,
							"internalType": "address",
							"name": "newOwner",
							"type": "address"
						}
					],
					"name": "OwnershipTransferred",
					"type": "event"
				},
				{
					"anonymous": false,
					"inputs": [
						{
							"indexed": true,
							"internalType": "address",
							"name": "referrer",
							"type": "address"
						},
						{
							"indexed": true,
							"internalType": "address",
							"name": "referee",
							"type": "address"
						},
						{
							"indexed": false,
							"internalType": "uint256",
							"name": "timestamp",
							"type": "uint256"
						}
					],
					"name": "ReferralRegistered",
					"type": "event"
				},
				{
					"anonymous": false,
					"inputs": [
						{
							"indexed": false,
							"internalType": "uint256",
							"name": "newReferrerReward",
							"type": "uint256"
						},
						{
							"indexed": false,
							"internalType": "uint256",
							"name": "newRefereeReward",
							"type": "uint256"
						}
					],
					"name": "RewardAmountsChanged",
					"type": "event"
				},
				{
					"anonymous": false,
					"inputs": [
						{
							"indexed": true,
							"internalType": "address",
							"name": "referrer",
							"type": "address"
						},
						{
							"indexed": true,
							"internalType": "address",
							"name": "referee",
							"type": "address"
						},
						{
							"indexed": false,
							"internalType": "uint256",
							"name": "referrerAmount",
							"type": "uint256"
						},
						{
							"indexed": false,
							"internalType": "uint256",
							"name": "refereeAmount",
							"type": "uint256"
						}
					],
					"name": "RewardsDistributed",
					"type": "event"
				},
				{
					"inputs": [],
					"name": "authorizedAddress",
					"outputs": [
						{
							"internalType": "address",
							"name": "",
							"type": "address"
						}
					],
					"stateMutability": "view",
					"type": "function"
				},
				{
					"inputs": [
						{
							"internalType": "address",
							"name": "_referrer",
							"type": "address"
						}
					],
					"name": "getRefereeCount",
					"outputs": [
						{
							"internalType": "uint256",
							"name": "",
							"type": "uint256"
						}
					],
					"stateMutability": "view",
					"type": "function"
				},
				{
					"inputs": [
						{
							"internalType": "address",
							"name": "_referrer",
							"type": "address"
						}
					],
					"name": "getReferees",
					"outputs": [
						{
							"internalType": "address[]",
							"name": "",
							"type": "address[]"
						}
					],
					"stateMutability": "view",
					"type": "function"
				},
				{
					"inputs": [
						{
							"internalType": "address",
							"name": "",
							"type": "address"
						}
					],
					"name": "hasBeenReferred",
					"outputs": [
						{
							"internalType": "bool",
							"name": "",
							"type": "bool"
						}
					],
					"stateMutability": "view",
					"type": "function"
				},
				{
					"inputs": [],
					"name": "owner",
					"outputs": [
						{
							"internalType": "address",
							"name": "",
							"type": "address"
						}
					],
					"stateMutability": "view",
					"type": "function"
				},
				{
					"inputs": [
						{
							"internalType": "address",
							"name": "_referrer",
							"type": "address"
						},
						{
							"internalType": "address",
							"name": "_referee",
							"type": "address"
						}
					],
					"name": "processReferral",
					"outputs": [],
					"stateMutability": "nonpayable",
					"type": "function"
				},
				{
					"inputs": [],
					"name": "refereeReward",
					"outputs": [
						{
							"internalType": "uint256",
							"name": "",
							"type": "uint256"
						}
					],
					"stateMutability": "view",
					"type": "function"
				},
				{
					"inputs": [
						{
							"internalType": "address",
							"name": "",
							"type": "address"
						},
						{
							"internalType": "uint256",
							"name": "",
							"type": "uint256"
						}
					],
					"name": "refereesOf",
					"outputs": [
						{
							"internalType": "address",
							"name": "",
							"type": "address"
						}
					],
					"stateMutability": "view",
					"type": "function"
				},
				{
					"inputs": [
						{
							"internalType": "address",
							"name": "",
							"type": "address"
						}
					],
					"name": "referrerOf",
					"outputs": [
						{
							"internalType": "address",
							"name": "",
							"type": "address"
						}
					],
					"stateMutability": "view",
					"type": "function"
				},
				{
					"inputs": [],
					"name": "referrerReward",
					"outputs": [
						{
							"internalType": "uint256",
							"name": "",
							"type": "uint256"
						}
					],
					"stateMutability": "view",
					"type": "function"
				},
				{
					"inputs": [],
					"name": "renounceOwnership",
					"outputs": [],
					"stateMutability": "nonpayable",
					"type": "function"
				},
				{
					"inputs": [],
					"name": "rewardToken",
					"outputs": [
						{
							"internalType": "contract RewardToken",
							"name": "",
							"type": "address"
						}
					],
					"stateMutability": "view",
					"type": "function"
				},
				{
					"inputs": [
						{
							"internalType": "address",
							"name": "_newAddress",
							"type": "address"
						}
					],
					"name": "setAuthorizedAddres",
					"outputs": [],
					"stateMutability": "nonpayable",
					"type": "function"
				},
				{
					"inputs": [
						{
							"internalType": "uint256",
							"name": "_referrerReward",
							"type": "uint256"
						},
						{
							"internalType": "uint256",
							"name": "_refereeReward",
							"type": "uint256"
						}
					],
					"name": "setRewardAmounts",
					"outputs": [],
					"stateMutability": "nonpayable",
					"type": "function"
				},
				{
					"inputs": [
						{
							"internalType": "address",
							"name": "newOwner",
							"type": "address"
						}
					],
					"name": "transferOwnership",
					"outputs": [],
					"stateMutability": "nonpayable",
					"type": "function"
				}
			],
			"devdoc": {
				"errors": {
					"OwnableInvalidOwner(address)": [
						{
							"details": "The owner is not a valid owner account. (eg. `address(0)`)"
						}
					],
					"OwnableUnauthorizedAccount(address)": [
						{
							"details": "The caller account is not authorized to perform an operation."
						}
					]
				},
				"kind": "dev",
				"methods": {
					"owner()": {
						"details": "Returns the address of the current owner."
					},
					"renounceOwnership()": {
						"details": "Leaves the contract without owner. It will not be possible to call `onlyOwner` functions. Can only be called by the current owner. NOTE: Renouncing ownership will leave the contract without an owner, thereby disabling any functionality that is only available to the owner."
					},
					"transferOwnership(address)": {
						"details": "Transfers ownership of the contract to a new account (`newOwner`). Can only be called by the current owner."
					}
				},
				"version": 1
			},
			"evm": {
				"assembly": "    /* \"referralSystem.sol\":174:3837  contract ReferralRewards is Ownable {... */\n  mstore(0x40, 0x80)\n    /* \"referralSystem.sol\":498:509  50 * 10**18 */\n  0x02b5e3af16b1880000\n    /* \"referralSystem.sol\":466:509  uint256 public referrerReward = 50 * 10**18 */\n  0x03\n  sstore\n    /* \"referralSystem.sol\":560:571  25 * 10**18 */\n  0x015af1d78b58c40000\n    /* \"referralSystem.sol\":529:571  uint256 public refereeReward = 25 * 10**18 */\n  0x04\n  sstore\n    /* \"referralSystem.sol\":1387:1568  constructor() Ownable(msg.sender) {... */\n  callvalue\n  dup1\n  iszero\n  tag_1\n  jumpi\n  revert(0x00, 0x00)\ntag_1:\n  pop\n    /* \"referralSystem.sol\":1409:1419  msg.sender */\n  caller\n  dup1\n    /* \"@openzeppelin/contracts/access/Ownable.sol\":1269:1364  if (initialOwner == address(0)) {... */\n  tag_5\n  jumpi\n    /* \"@openzeppelin/contracts/access/Ownable.sol\":1322:1353  OwnableInvalidOwner(address(0)) */\n  mload(0x40)\n  shl(0xe0, 0x1e4fbdf7)\n  dup2\n  mstore\n    /* \"@openzeppelin/contracts/access/Ownable.sol\":1350:1351  0 */\n  0x00\n    /* \"@openzeppelin/contracts/access/Ownable.sol\":1322:1353  OwnableInvalidOwner(address(0)) */\n  0x04\n  dup3\n  add\n    /* \"#utility.yul\":160:211   */\n  mstore\n    /* \"#utility.yul\":133:151   */\n  0x24\n  add\n    /* \"@openzeppelin/contracts/access/Ownable.sol\":1322:1353  OwnableInvalidOwner(address(0)) */\n  mload(0x40)\n  dup1\n  swap2\n  sub\n  swap1\n  revert\n    /* \"@openzeppelin/contracts/access/Ownable.sol\":1269:1364  if (initialOwner == address(0)) {... */\ntag_5:\n    /* \"@openzeppelin/contracts/access/Ownable.sol\":1373:1405  _transferOwnership(initialOwner) */\n  tag_8\n    /* \"@openzeppelin/contracts/access/Ownable.sol\":1392:1404  initialOwner */\n  dup2\n    /* \"@openzeppelin/contracts/access/Ownable.sol\":1373:1391  _transferOwnership */\n  tag_9\n    /* \"@openzeppelin/contracts/access/Ownable.sol\":1373:1405  _transferOwnership(initialOwner) */\n  jump\t// in\ntag_8:\n    /* \"@openzeppelin/contracts/access/Ownable.sol\":1225:1412  constructor(address initialOwner) {... */\n  pop\n    /* \"referralSystem.sol\":1446:1463  new RewardToken() */\n  mload(0x40)\n  tag_11\n  swap1\n  tag_12\n  jump\t// in\ntag_11:\n  mload(0x40)\n  dup1\n  swap2\n  sub\n  swap1\n  0x00\n  create\n  dup1\n  iszero\n  dup1\n  iszero\n  tag_13\n  jumpi\n  returndatacopy(0x00, 0x00, returndatasize)\n  revert(0x00, returndatasize)\ntag_13:\n  pop\n    /* \"referralSystem.sol\":1432:1443  rewardToken */\n  0x01\n    /* \"referralSystem.sol\":1432:1463  rewardToken = new RewardToken() */\n  dup1\n  sload\n  sub(shl(0xa0, 0x01), 0x01)\n  swap3\n  swap1\n  swap3\n  and\n  not(sub(shl(0xa0, 0x01), 0x01))\n  swap3\n  dup4\n  and\n  or\n  swap1\n  sstore\n    /* \"referralSystem.sol\":1474:1491  authorizedAddress */\n  0x02\n    /* \"referralSystem.sol\":1474:1504  authorizedAddress = msg.sender */\n  dup1\n  sload\n  swap1\n  swap2\n  and\n    /* \"referralSystem.sol\":1494:1504  msg.sender */\n  caller\n    /* \"referralSystem.sol\":1474:1504  authorizedAddress = msg.sender */\n  or\n  swap1\n  sstore\n    /* \"referralSystem.sol\":174:3837  contract ReferralRewards is Ownable {... */\n  jump(tag_16)\n    /* \"@openzeppelin/contracts/access/Ownable.sol\":2912:3099  function _transferOwnership(address newOwner) internal virtual {... */\ntag_9:\n    /* \"@openzeppelin/contracts/access/Ownable.sol\":2985:3001  address oldOwner */\n  0x00\n    /* \"@openzeppelin/contracts/access/Ownable.sol\":3004:3010  _owner */\n  dup1\n  sload\n  sub(shl(0xa0, 0x01), 0x01)\n    /* \"@openzeppelin/contracts/access/Ownable.sol\":3020:3037  _owner = newOwner */\n  dup4\n  dup2\n  and\n  not(sub(shl(0xa0, 0x01), 0x01))\n  dup4\n  and\n  dup2\n  or\n  dup5\n  sstore\n    /* \"@openzeppelin/contracts/access/Ownable.sol\":3052:3092  OwnershipTransferred(oldOwner, newOwner) */\n  mload(0x40)\n    /* \"@openzeppelin/contracts/access/Ownable.sol\":3004:3010  _owner */\n  swap2\n  swap1\n  swap3\n  and\n  swap3\n  dup4\n  swap2\n    /* \"@openzeppelin/contracts/access/Ownable.sol\":3052:3092  OwnershipTransferred(oldOwner, newOwner) */\n  0x8be0079c531659141344cd1fd0a4f28419497f9722a3daafe3b4186f6b6457e0\n  swap2\n    /* \"@openzeppelin/contracts/access/Ownable.sol\":2985:3001  address oldOwner */\n  swap1\n    /* \"@openzeppelin/contracts/access/Ownable.sol\":3052:3092  OwnershipTransferred(oldOwner, newOwner) */\n  log3\n    /* \"@openzeppelin/contracts/access/Ownable.sol\":2975:3099  {... */\n  pop\n    /* \"@openzeppelin/contracts/access/Ownable.sol\":2912:3099  function _transferOwnership(address newOwner) internal virtual {... */\n  pop\n  jump\t// out\n    /* \"referralSystem.sol\":174:3837  contract ReferralRewards is Ownable {... */\ntag_12:\n  dataSize(sub_1)\n  dup1\n  dataOffset(sub_1)\n  dup4\n  codecopy\n  add\n  swap1\n  jump\t// out\n    /* \"#utility.yul\":14:217   */\ntag_16:\n    /* \"referralSystem.sol\":174:3837  contract ReferralRewards is Ownable {... */\n  dataSize(sub_0)\n  dup1\n  dataOffset(sub_0)\n  0x00\n  codecopy\n  0x00\n  return\nstop\n\nsub_0: assembly {\n        /* \"referralSystem.sol\":174:3837  contract ReferralRewards is Ownable {... */\n      mstore(0x40, 0x80)\n      callvalue\n      dup1\n      iszero\n      tag_1\n      jumpi\n      revert(0x00, 0x00)\n    tag_1:\n      pop\n      jumpi(tag_2, lt(calldatasize, 0x04))\n      shr(0xe0, calldataload(0x00))\n      dup1\n      0x865aa800\n      gt\n      tag_18\n      jumpi\n      dup1\n      0xd499bc85\n      gt\n      tag_19\n      jumpi\n      dup1\n      0xd499bc85\n      eq\n      tag_14\n      jumpi\n      dup1\n      0xd62c1164\n      eq\n      tag_15\n      jumpi\n      dup1\n      0xf2fde38b\n      eq\n      tag_16\n      jumpi\n      dup1\n      0xf7c618c1\n      eq\n      tag_17\n      jumpi\n      revert(0x00, 0x00)\n    tag_19:\n      dup1\n      0x865aa800\n      eq\n      tag_10\n      jumpi\n      dup1\n      0x8da5cb5b\n      eq\n      tag_11\n      jumpi\n      dup1\n      0xd113ef7c\n      eq\n      tag_12\n      jumpi\n      dup1\n      0xd21cacdf\n      eq\n      tag_13\n      jumpi\n      revert(0x00, 0x00)\n    tag_18:\n      dup1\n      0x544ef43e\n      gt\n      tag_20\n      jumpi\n      dup1\n      0x544ef43e\n      eq\n      tag_6\n      jumpi\n      dup1\n      0x5539d400\n      eq\n      tag_7\n      jumpi\n      dup1\n      0x55bf73be\n      eq\n      tag_8\n      jumpi\n      dup1\n      0x715018a6\n      eq\n      tag_9\n      jumpi\n      revert(0x00, 0x00)\n    tag_20:\n      dup1\n      0x0763f34e\n      eq\n      tag_3\n      jumpi\n      dup1\n      0x27b692f2\n      eq\n      tag_4\n      jumpi\n      dup1\n      0x2c070d7d\n      eq\n      tag_5\n      jumpi\n    tag_2:\n      revert(0x00, 0x00)\n        /* \"referralSystem.sol\":466:509  uint256 public referrerReward = 50 * 10**18 */\n    tag_3:\n      tag_21\n      sload(0x03)\n      dup2\n      jump\n    tag_21:\n      mload(0x40)\n        /* \"#utility.yul\":160:185   */\n      swap1\n      dup2\n      mstore\n        /* \"#utility.yul\":148:150   */\n      0x20\n        /* \"#utility.yul\":133:151   */\n      add\n        /* \"referralSystem.sol\":466:509  uint256 public referrerReward = 50 * 10**18 */\n    tag_23:\n      mload(0x40)\n      dup1\n      swap2\n      sub\n      swap1\n      return\n        /* \"referralSystem.sol\":886:933  mapping(address => address[]) public refereesOf */\n    tag_4:\n      tag_25\n      tag_26\n      calldatasize\n      0x04\n      tag_27\n      jump\t// in\n    tag_26:\n      tag_28\n      jump\t// in\n    tag_25:\n      mload(0x40)\n      sub(shl(0xa0, 0x01), 0x01)\n        /* \"#utility.yul\":843:875   */\n      swap1\n      swap2\n      and\n        /* \"#utility.yul\":825:876   */\n      dup2\n      mstore\n        /* \"#utility.yul\":813:815   */\n      0x20\n        /* \"#utility.yul\":798:816   */\n      add\n        /* \"referralSystem.sol\":886:933  mapping(address => address[]) public refereesOf */\n      tag_23\n        /* \"#utility.yul\":679:882   */\n      jump\n        /* \"referralSystem.sol\":3704:3834  function getRefereeCount(address _referrer) external view returns (uint256) {... */\n    tag_5:\n      tag_21\n      tag_32\n      calldatasize\n      0x04\n      tag_33\n      jump\t// in\n    tag_32:\n      sub(shl(0xa0, 0x01), 0x01)\n        /* \"referralSystem.sol\":3798:3819  refereesOf[_referrer] */\n      and\n        /* \"referralSystem.sol\":3771:3778  uint256 */\n      0x00\n        /* \"referralSystem.sol\":3798:3819  refereesOf[_referrer] */\n      swap1\n      dup2\n      mstore\n        /* \"referralSystem.sol\":3798:3808  refereesOf */\n      0x07\n        /* \"referralSystem.sol\":3798:3819  refereesOf[_referrer] */\n      0x20\n      mstore\n      0x40\n      swap1\n      keccak256\n        /* \"referralSystem.sol\":3798:3826  refereesOf[_referrer].length */\n      sload\n      swap1\n        /* \"referralSystem.sol\":3704:3834  function getRefereeCount(address _referrer) external view returns (uint256) {... */\n      jump\n        /* \"referralSystem.sol\":529:571  uint256 public refereeReward = 25 * 10**18 */\n    tag_6:\n      tag_21\n      sload(0x04)\n      dup2\n      jump\n        /* \"referralSystem.sol\":371:403  address public authorizedAddress */\n    tag_7:\n      sload(0x02)\n      tag_25\n      swap1\n      sub(shl(0xa0, 0x01), 0x01)\n      and\n      dup2\n      jump\n        /* \"referralSystem.sol\":2262:3551  function processReferral(address _referrer,address _referee) external onlyAuthorizedAddress {... */\n    tag_8:\n      tag_42\n      tag_43\n      calldatasize\n      0x04\n      tag_44\n      jump\t// in\n    tag_43:\n      tag_45\n      jump\t// in\n    tag_42:\n      stop\n        /* \"@openzeppelin/contracts/access/Ownable.sol\":2293:2394  function renounceOwnership() public virtual onlyOwner {... */\n    tag_9:\n      tag_42\n      tag_47\n      jump\t// in\n        /* \"referralSystem.sol\":1720:1975  function setAuthorizedAddres(address _newAddress) external onlyOwner {... */\n    tag_10:\n      tag_42\n      tag_49\n      calldatasize\n      0x04\n      tag_33\n      jump\t// in\n    tag_49:\n      tag_50\n      jump\t// in\n        /* \"@openzeppelin/contracts/access/Ownable.sol\":1638:1723  function owner() public view virtual returns (address) {... */\n    tag_11:\n        /* \"@openzeppelin/contracts/access/Ownable.sol\":1684:1691  address */\n      0x00\n        /* \"@openzeppelin/contracts/access/Ownable.sol\":1710:1716  _owner */\n      sload\n      sub(shl(0xa0, 0x01), 0x01)\n      and\n        /* \"@openzeppelin/contracts/access/Ownable.sol\":1638:1723  function owner() public view virtual returns (address) {... */\n      jump(tag_25)\n        /* \"referralSystem.sol\":1993:2248  function setRewardAmounts(uint256 _referrerReward, uint256 _refereeReward) external onlyOwner {... */\n    tag_12:\n      tag_42\n      tag_55\n      calldatasize\n      0x04\n      tag_56\n      jump\t// in\n    tag_55:\n      tag_57\n      jump\t// in\n        /* \"referralSystem.sol\":769:814  mapping(address => address) public referrerOf */\n    tag_13:\n      tag_25\n      tag_59\n      calldatasize\n      0x04\n      tag_33\n      jump\t// in\n    tag_59:\n      mstore(0x20, 0x06)\n      0x00\n      swap1\n      dup2\n      mstore\n      0x40\n      swap1\n      keccak256\n      sload\n      sub(shl(0xa0, 0x01), 0x01)\n      and\n      dup2\n      jump\n        /* \"referralSystem.sol\":3562:3690  function getReferees(address _referrer) external view returns (address[] memory) {... */\n    tag_14:\n      tag_62\n      tag_63\n      calldatasize\n      0x04\n      tag_33\n      jump\t// in\n    tag_63:\n      tag_64\n      jump\t// in\n    tag_62:\n      mload(0x40)\n      tag_23\n      swap2\n      swap1\n      tag_66\n      jump\t// in\n        /* \"referralSystem.sol\":662:709  mapping(address => bool) public hasBeenReferred */\n    tag_15:\n      tag_67\n      tag_68\n      calldatasize\n      0x04\n      tag_33\n      jump\t// in\n    tag_68:\n      mstore(0x20, 0x05)\n      0x00\n      swap1\n      dup2\n      mstore\n      0x40\n      swap1\n      keccak256\n      sload\n      0xff\n      and\n      dup2\n      jump\n    tag_67:\n      mload(0x40)\n        /* \"#utility.yul\":2501:2515   */\n      swap1\n      iszero\n        /* \"#utility.yul\":2494:2516   */\n      iszero\n        /* \"#utility.yul\":2476:2517   */\n      dup2\n      mstore\n        /* \"#utility.yul\":2464:2466   */\n      0x20\n        /* \"#utility.yul\":2449:2467   */\n      add\n        /* \"referralSystem.sol\":662:709  mapping(address => bool) public hasBeenReferred */\n      tag_23\n        /* \"#utility.yul\":2336:2523   */\n      jump\n        /* \"@openzeppelin/contracts/access/Ownable.sol\":2543:2758  function transferOwnership(address newOwner) public virtual onlyOwner {... */\n    tag_16:\n      tag_42\n      tag_73\n      calldatasize\n      0x04\n      tag_33\n      jump\t// in\n    tag_73:\n      tag_74\n      jump\t// in\n        /* \"referralSystem.sol\":256:286  RewardToken public rewardToken */\n    tag_17:\n      sload(0x01)\n      tag_25\n      swap1\n      sub(shl(0xa0, 0x01), 0x01)\n      and\n      dup2\n      jump\n        /* \"referralSystem.sol\":886:933  mapping(address => address[]) public refereesOf */\n    tag_28:\n      mstore(0x20, 0x07)\n      dup2\n      0x00\n      mstore\n      keccak256(0x00, 0x40)\n      dup2\n      dup2\n      sload\n      dup2\n      lt\n      tag_79\n      jumpi\n      0x00\n      dup1\n      revert\n    tag_79:\n      0x00\n      swap2\n      dup3\n      mstore\n      0x20\n      swap1\n      swap2\n      keccak256\n      add\n      sload\n      sub(shl(0xa0, 0x01), 0x01)\n      and\n      swap2\n      pop\n      dup3\n      swap1\n      pop\n      jump\t// out\n        /* \"referralSystem.sol\":2262:3551  function processReferral(address _referrer,address _referee) external onlyAuthorizedAddress {... */\n    tag_45:\n        /* \"referralSystem.sol\":1650:1667  authorizedAddress */\n      and(sub(shl(0xa0, 0x01), 0x01), sload(0x02))\n        /* \"referralSystem.sol\":1636:1646  msg.sender */\n      caller\n        /* \"referralSystem.sol\":1636:1667  msg.sender == authorizedAddress */\n      eq\n        /* \"referralSystem.sol\":1628:1686  require(msg.sender == authorizedAddress, \"Not authorized\") */\n      tag_83\n      jumpi\n      mload(0x40)\n      shl(0xe5, 0x461bcd)\n      dup2\n      mstore\n        /* \"#utility.yul\":2958:2960   */\n      0x20\n        /* \"referralSystem.sol\":1628:1686  require(msg.sender == authorizedAddress, \"Not authorized\") */\n      0x04\n      dup3\n      add\n        /* \"#utility.yul\":2940:2961   */\n      mstore\n        /* \"#utility.yul\":2997:2999   */\n      0x0e\n        /* \"#utility.yul\":2977:2995   */\n      0x24\n      dup3\n      add\n        /* \"#utility.yul\":2970:3000   */\n      mstore\n      shl(0x92, 0x139bdd08185d5d1a1bdc9a5e9959)\n        /* \"#utility.yul\":3016:3034   */\n      0x44\n      dup3\n      add\n        /* \"#utility.yul\":3009:3053   */\n      mstore\n        /* \"#utility.yul\":3070:3088   */\n      0x64\n      add\n        /* \"referralSystem.sol\":1628:1686  require(msg.sender == authorizedAddress, \"Not authorized\") */\n    tag_84:\n      mload(0x40)\n      dup1\n      swap2\n      sub\n      swap1\n      revert\n    tag_83:\n      sub(shl(0xa0, 0x01), 0x01)\n        /* \"referralSystem.sol\":2404:2426  _referee != address(0) */\n      dup2\n      and\n      iszero\n      dup1\n      iszero\n      swap1\n        /* \"referralSystem.sol\":2404:2453  _referee != address(0) && _referrer != address(0) */\n      tag_87\n      jumpi\n      pop\n      sub(shl(0xa0, 0x01), 0x01)\n        /* \"referralSystem.sol\":2430:2453  _referrer != address(0) */\n      dup3\n      and\n      iszero\n      iszero\n        /* \"referralSystem.sol\":2404:2453  _referee != address(0) && _referrer != address(0) */\n    tag_87:\n        /* \"referralSystem.sol\":2396:2473  require(_referee != address(0) && _referrer != address(0), \"Invalid address\") */\n      tag_88\n      jumpi\n      mload(0x40)\n      shl(0xe5, 0x461bcd)\n      dup2\n      mstore\n        /* \"#utility.yul\":3301:3303   */\n      0x20\n        /* \"referralSystem.sol\":2396:2473  require(_referee != address(0) && _referrer != address(0), \"Invalid address\") */\n      0x04\n      dup3\n      add\n        /* \"#utility.yul\":3283:3304   */\n      mstore\n        /* \"#utility.yul\":3340:3342   */\n      0x0f\n        /* \"#utility.yul\":3320:3338   */\n      0x24\n      dup3\n      add\n        /* \"#utility.yul\":3313:3343   */\n      mstore\n      shl(0x88, 0x496e76616c69642061646472657373)\n        /* \"#utility.yul\":3359:3377   */\n      0x44\n      dup3\n      add\n        /* \"#utility.yul\":3352:3397   */\n      mstore\n        /* \"#utility.yul\":3414:3432   */\n      0x64\n      add\n        /* \"referralSystem.sol\":2396:2473  require(_referee != address(0) && _referrer != address(0), \"Invalid address\") */\n      tag_84\n        /* \"#utility.yul\":3099:3438   */\n      jump\n        /* \"referralSystem.sol\":2396:2473  require(_referee != address(0) && _referrer != address(0), \"Invalid address\") */\n    tag_88:\n        /* \"referralSystem.sol\":2549:2558  _referrer */\n      dup2\n      sub(shl(0xa0, 0x01), 0x01)\n        /* \"referralSystem.sol\":2537:2558  _referee != _referrer */\n      and\n        /* \"referralSystem.sol\":2537:2545  _referee */\n      dup2\n      sub(shl(0xa0, 0x01), 0x01)\n        /* \"referralSystem.sol\":2537:2558  _referee != _referrer */\n      and\n      sub\n        /* \"referralSystem.sol\":2529:2588  require(_referee != _referrer, \"Self-referral not allowed\") */\n      tag_91\n      jumpi\n      mload(0x40)\n      shl(0xe5, 0x461bcd)\n      dup2\n      mstore\n        /* \"#utility.yul\":3645:3647   */\n      0x20\n        /* \"referralSystem.sol\":2529:2588  require(_referee != _referrer, \"Self-referral not allowed\") */\n      0x04\n      dup3\n      add\n        /* \"#utility.yul\":3627:3648   */\n      mstore\n        /* \"#utility.yul\":3684:3686   */\n      0x19\n        /* \"#utility.yul\":3664:3682   */\n      0x24\n      dup3\n      add\n        /* \"#utility.yul\":3657:3687   */\n      mstore\n        /* \"#utility.yul\":3723:3750   */\n      0x53656c662d726566657272616c206e6f7420616c6c6f77656400000000000000\n        /* \"#utility.yul\":3703:3721   */\n      0x44\n      dup3\n      add\n        /* \"#utility.yul\":3696:3751   */\n      mstore\n        /* \"#utility.yul\":3768:3786   */\n      0x64\n      add\n        /* \"referralSystem.sol\":2529:2588  require(_referee != _referrer, \"Self-referral not allowed\") */\n      tag_84\n        /* \"#utility.yul\":3443:3792   */\n      jump\n        /* \"referralSystem.sol\":2529:2588  require(_referee != _referrer, \"Self-referral not allowed\") */\n    tag_91:\n      sub(shl(0xa0, 0x01), 0x01)\n        /* \"referralSystem.sol\":2678:2703  hasBeenReferred[_referee] */\n      dup2\n      and\n      0x00\n      swap1\n      dup2\n      mstore\n        /* \"referralSystem.sol\":2678:2693  hasBeenReferred */\n      0x05\n        /* \"referralSystem.sol\":2678:2703  hasBeenReferred[_referee] */\n      0x20\n      mstore\n      0x40\n      swap1\n      keccak256\n      sload\n      0xff\n      and\n        /* \"referralSystem.sol\":2677:2703  !hasBeenReferred[_referee] */\n      iszero\n        /* \"referralSystem.sol\":2669:2729  require(!hasBeenReferred[_referee], \"User already referred\") */\n      tag_94\n      jumpi\n      mload(0x40)\n      shl(0xe5, 0x461bcd)\n      dup2\n      mstore\n        /* \"#utility.yul\":3999:4001   */\n      0x20\n        /* \"referralSystem.sol\":2669:2729  require(!hasBeenReferred[_referee], \"User already referred\") */\n      0x04\n      dup3\n      add\n        /* \"#utility.yul\":3981:4002   */\n      mstore\n        /* \"#utility.yul\":4038:4040   */\n      0x15\n        /* \"#utility.yul\":4018:4036   */\n      0x24\n      dup3\n      add\n        /* \"#utility.yul\":4011:4041   */\n      mstore\n      shl(0x5a, 0x155cd95c88185b1c9958591e481c9959995c9c9959)\n        /* \"#utility.yul\":4057:4075   */\n      0x44\n      dup3\n      add\n        /* \"#utility.yul\":4050:4101   */\n      mstore\n        /* \"#utility.yul\":4118:4136   */\n      0x64\n      add\n        /* \"referralSystem.sol\":2669:2729  require(!hasBeenReferred[_referee], \"User already referred\") */\n      tag_84\n        /* \"#utility.yul\":3797:4142   */\n      jump\n        /* \"referralSystem.sol\":2669:2729  require(!hasBeenReferred[_referee], \"User already referred\") */\n    tag_94:\n        /* \"referralSystem.sol\":2831:2840  _referrer */\n      dup2\n        /* \"referralSystem.sol\":2851:3042  while (currentReferrer != address(0)) {... */\n    tag_97:\n      sub(shl(0xa0, 0x01), 0x01)\n        /* \"referralSystem.sol\":2858:2887  currentReferrer != address(0) */\n      dup2\n      and\n      iszero\n        /* \"referralSystem.sol\":2851:3042  while (currentReferrer != address(0)) {... */\n      tag_98\n      jumpi\n        /* \"referralSystem.sol\":2931:2939  _referee */\n      dup2\n      sub(shl(0xa0, 0x01), 0x01)\n        /* \"referralSystem.sol\":2912:2939  currentReferrer != _referee */\n      and\n        /* \"referralSystem.sol\":2912:2927  currentReferrer */\n      dup2\n      sub(shl(0xa0, 0x01), 0x01)\n        /* \"referralSystem.sol\":2912:2939  currentReferrer != _referee */\n      and\n      sub\n        /* \"referralSystem.sol\":2904:2970  require(currentReferrer != _referee, \"Circular referral detected\") */\n      tag_99\n      jumpi\n      mload(0x40)\n      shl(0xe5, 0x461bcd)\n      dup2\n      mstore\n        /* \"#utility.yul\":4349:4351   */\n      0x20\n        /* \"referralSystem.sol\":2904:2970  require(currentReferrer != _referee, \"Circular referral detected\") */\n      0x04\n      dup3\n      add\n        /* \"#utility.yul\":4331:4352   */\n      mstore\n        /* \"#utility.yul\":4388:4390   */\n      0x1a\n        /* \"#utility.yul\":4368:4386   */\n      0x24\n      dup3\n      add\n        /* \"#utility.yul\":4361:4391   */\n      mstore\n        /* \"#utility.yul\":4427:4455   */\n      0x43697263756c617220726566657272616c206465746563746564000000000000\n        /* \"#utility.yul\":4407:4425   */\n      0x44\n      dup3\n      add\n        /* \"#utility.yul\":4400:4456   */\n      mstore\n        /* \"#utility.yul\":4473:4491   */\n      0x64\n      add\n        /* \"referralSystem.sol\":2904:2970  require(currentReferrer != _referee, \"Circular referral detected\") */\n      tag_84\n        /* \"#utility.yul\":4147:4497   */\n      jump\n        /* \"referralSystem.sol\":2904:2970  require(currentReferrer != _referee, \"Circular referral detected\") */\n    tag_99:\n      sub(shl(0xa0, 0x01), 0x01)\n        /* \"referralSystem.sol\":3003:3030  referrerOf[currentReferrer] */\n      swap1\n      dup2\n      and\n      0x00\n      swap1\n      dup2\n      mstore\n        /* \"referralSystem.sol\":3003:3013  referrerOf */\n      0x06\n        /* \"referralSystem.sol\":3003:3030  referrerOf[currentReferrer] */\n      0x20\n      mstore\n      0x40\n      swap1\n      keccak256\n      sload\n      and\n        /* \"referralSystem.sol\":2851:3042  while (currentReferrer != address(0)) {... */\n      jump(tag_97)\n    tag_98:\n      sub(shl(0xa0, 0x01), 0x01)\n        /* \"referralSystem.sol\":3096:3121  hasBeenReferred[_referee] */\n      dup3\n      dup2\n      and\n      0x00\n      dup2\n      dup2\n      mstore\n        /* \"referralSystem.sol\":3096:3111  hasBeenReferred */\n      0x05\n        /* \"referralSystem.sol\":3096:3121  hasBeenReferred[_referee] */\n      0x20\n      swap1\n      dup2\n      mstore\n      0x40\n      dup1\n      dup4\n      keccak256\n        /* \"referralSystem.sol\":3096:3128  hasBeenReferred[_referee] = true */\n      dup1\n      sload\n      not(0xff)\n      and\n        /* \"referralSystem.sol\":3124:3128  true */\n      0x01\n        /* \"referralSystem.sol\":3096:3128  hasBeenReferred[_referee] = true */\n      swap1\n      dup2\n      or\n      swap1\n      swap2\n      sstore\n        /* \"referralSystem.sol\":3139:3149  referrerOf */\n      0x06\n        /* \"referralSystem.sol\":3139:3159  referrerOf[_referee] */\n      dup4\n      mstore\n      dup2\n      dup5\n      keccak256\n        /* \"referralSystem.sol\":3139:3171  referrerOf[_referee] = _referrer */\n      dup1\n      sload\n      swap7\n      dup11\n      and\n      not(sub(shl(0xa0, 0x01), 0x01))\n      swap8\n      dup9\n      and\n      dup2\n      or\n      swap1\n      swap2\n      sstore\n        /* \"referralSystem.sol\":3182:3203  refereesOf[_referrer] */\n      dup1\n      dup6\n      mstore\n        /* \"referralSystem.sol\":3182:3192  refereesOf */\n      0x07\n        /* \"referralSystem.sol\":3182:3203  refereesOf[_referrer] */\n      dup5\n      mstore\n      dup3\n      dup6\n      keccak256\n        /* \"referralSystem.sol\":3182:3218  refereesOf[_referrer].push(_referee) */\n      dup1\n      sload\n      swap3\n      dup4\n      add\n      dup2\n      sstore\n      dup6\n      mstore\n      swap4\n      dup4\n      swap1\n      keccak256\n      add\n      dup1\n      sload\n      swap1\n      swap6\n      and\n      dup5\n      or\n      swap1\n      swap5\n      sstore\n        /* \"referralSystem.sol\":3244:3300  ReferralRegistered(_referrer, _referee, block.timestamp) */\n      swap3\n      mload\n        /* \"referralSystem.sol\":3284:3299  block.timestamp */\n      timestamp\n        /* \"#utility.yul\":160:185   */\n      dup2\n      mstore\n        /* \"referralSystem.sol\":3096:3121  hasBeenReferred[_referee] */\n      swap2\n      swap3\n        /* \"referralSystem.sol\":3139:3171  referrerOf[_referee] = _referrer */\n      swap1\n      swap2\n        /* \"referralSystem.sol\":3244:3300  ReferralRegistered(_referrer, _referee, block.timestamp) */\n      0x90eab5d1df713df401d810f26aa9718d2b9e6894af1eb4890a332d3b185dc0e5\n      swap2\n        /* \"#utility.yul\":133:151   */\n      add\n        /* \"referralSystem.sol\":3244:3300  ReferralRegistered(_referrer, _referee, block.timestamp) */\n      mload(0x40)\n      dup1\n      swap2\n      sub\n      swap1\n      log3\n        /* \"referralSystem.sol\":3352:3363  rewardToken */\n      sload(0x01)\n        /* \"referralSystem.sol\":3380:3394  referrerReward */\n      sload(0x03)\n        /* \"referralSystem.sol\":3352:3395  rewardToken.mint(_referrer, referrerReward) */\n      mload(0x40)\n      shl(0xe0, 0x40c10f19)\n      dup2\n      mstore\n      sub(shl(0xa0, 0x01), 0x01)\n        /* \"#utility.yul\":4694:4726   */\n      dup7\n      dup2\n      and\n        /* \"referralSystem.sol\":3352:3395  rewardToken.mint(_referrer, referrerReward) */\n      0x04\n      dup4\n      add\n        /* \"#utility.yul\":4676:4727   */\n      mstore\n        /* \"#utility.yul\":4743:4761   */\n      0x24\n      dup3\n      add\n        /* \"#utility.yul\":4736:4770   */\n      swap3\n      swap1\n      swap3\n      mstore\n        /* \"referralSystem.sol\":3352:3363  rewardToken */\n      swap2\n      and\n      swap1\n        /* \"referralSystem.sol\":3352:3368  rewardToken.mint */\n      0x40c10f19\n      swap1\n        /* \"#utility.yul\":4649:4667   */\n      0x44\n      add\n        /* \"referralSystem.sol\":3352:3395  rewardToken.mint(_referrer, referrerReward) */\n      0x00\n      mload(0x40)\n      dup1\n      dup4\n      sub\n      dup2\n      0x00\n      dup8\n      dup1\n      extcodesize\n      iszero\n      dup1\n      iszero\n      tag_106\n      jumpi\n      revert(0x00, 0x00)\n    tag_106:\n      pop\n      gas\n      call\n      iszero\n      dup1\n      iszero\n      tag_108\n      jumpi\n      returndatacopy(0x00, 0x00, returndatasize)\n      revert(0x00, returndatasize)\n    tag_108:\n      pop\n      pop\n        /* \"referralSystem.sol\":3406:3417  rewardToken */\n      sload(0x01)\n        /* \"referralSystem.sol\":3433:3446  refereeReward */\n      0x04\n      dup1\n      sload\n        /* \"referralSystem.sol\":3406:3447  rewardToken.mint(_referee, refereeReward) */\n      mload(0x40)\n      shl(0xe0, 0x40c10f19)\n      dup2\n      mstore\n      sub(shl(0xa0, 0x01), 0x01)\n        /* \"referralSystem.sol\":3406:3417  rewardToken */\n      swap1\n      swap4\n      and\n      swap5\n      pop\n        /* \"referralSystem.sol\":3406:3422  rewardToken.mint */\n      0x40c10f19\n      swap4\n      pop\n        /* \"referralSystem.sol\":3406:3447  rewardToken.mint(_referee, refereeReward) */\n      tag_109\n      swap3\n        /* \"referralSystem.sol\":3423:3431  _referee */\n      dup8\n      swap3\n        /* \"referralSystem.sol\":3406:3447  rewardToken.mint(_referee, refereeReward) */\n      add\n      sub(shl(0xa0, 0x01), 0x01)\n        /* \"#utility.yul\":4694:4726   */\n      swap3\n      swap1\n      swap3\n      and\n        /* \"#utility.yul\":4676:4727   */\n      dup3\n      mstore\n        /* \"#utility.yul\":4758:4760   */\n      0x20\n        /* \"#utility.yul\":4743:4761   */\n      dup3\n      add\n        /* \"#utility.yul\":4736:4770   */\n      mstore\n        /* \"#utility.yul\":4664:4666   */\n      0x40\n        /* \"#utility.yul\":4649:4667   */\n      add\n      swap1\n        /* \"#utility.yul\":4502:4776   */\n      jump\n        /* \"referralSystem.sol\":3406:3447  rewardToken.mint(_referee, refereeReward) */\n    tag_109:\n      0x00\n      mload(0x40)\n      dup1\n      dup4\n      sub\n      dup2\n      0x00\n      dup8\n      dup1\n      extcodesize\n      iszero\n      dup1\n      iszero\n      tag_110\n      jumpi\n      revert(0x00, 0x00)\n    tag_110:\n      pop\n      gas\n      call\n      iszero\n      dup1\n      iszero\n      tag_112\n      jumpi\n      returndatacopy(0x00, 0x00, returndatasize)\n      revert(0x00, returndatasize)\n    tag_112:\n      pop\n      pop\n      pop\n      pop\n        /* \"referralSystem.sol\":3503:3511  _referee */\n      dup2\n      sub(shl(0xa0, 0x01), 0x01)\n        /* \"referralSystem.sol\":3473:3543  RewardsDistributed(_referrer, _referee, referrerReward, refereeReward) */\n      and\n        /* \"referralSystem.sol\":3492:3501  _referrer */\n      dup4\n      sub(shl(0xa0, 0x01), 0x01)\n        /* \"referralSystem.sol\":3473:3543  RewardsDistributed(_referrer, _referee, referrerReward, refereeReward) */\n      and\n      0x1a4dfb075362880d700ede1cc31d284b1c3b2811e9f0b2ddde7bdb270042c13f\n        /* \"referralSystem.sol\":3513:3527  referrerReward */\n      sload(0x03)\n        /* \"referralSystem.sol\":3529:3542  refereeReward */\n      sload(0x04)\n        /* \"referralSystem.sol\":3473:3543  RewardsDistributed(_referrer, _referee, referrerReward, refereeReward) */\n      mload(0x40)\n      tag_113\n      swap3\n      swap2\n      swap1\n        /* \"#utility.yul\":4955:4980   */\n      swap2\n      dup3\n      mstore\n        /* \"#utility.yul\":5011:5013   */\n      0x20\n        /* \"#utility.yul\":4996:5014   */\n      dup3\n      add\n        /* \"#utility.yul\":4989:5023   */\n      mstore\n        /* \"#utility.yul\":4943:4945   */\n      0x40\n        /* \"#utility.yul\":4928:4946   */\n      add\n      swap1\n        /* \"#utility.yul\":4781:5029   */\n      jump\n        /* \"referralSystem.sol\":3473:3543  RewardsDistributed(_referrer, _referee, referrerReward, refereeReward) */\n    tag_113:\n      mload(0x40)\n      dup1\n      swap2\n      sub\n      swap1\n      log3\n        /* \"referralSystem.sol\":2354:3551  {... */\n      pop\n        /* \"referralSystem.sol\":2262:3551  function processReferral(address _referrer,address _referee) external onlyAuthorizedAddress {... */\n      pop\n      pop\n      jump\t// out\n        /* \"@openzeppelin/contracts/access/Ownable.sol\":2293:2394  function renounceOwnership() public virtual onlyOwner {... */\n    tag_47:\n        /* \"@openzeppelin/contracts/access/Ownable.sol\":1531:1544  _checkOwner() */\n      tag_116\n        /* \"@openzeppelin/contracts/access/Ownable.sol\":1531:1542  _checkOwner */\n      tag_117\n        /* \"@openzeppelin/contracts/access/Ownable.sol\":1531:1544  _checkOwner() */\n      jump\t// in\n    tag_116:\n        /* \"@openzeppelin/contracts/access/Ownable.sol\":2357:2387  _transferOwnership(address(0)) */\n      tag_119\n        /* \"@openzeppelin/contracts/access/Ownable.sol\":2384:2385  0 */\n      0x00\n        /* \"@openzeppelin/contracts/access/Ownable.sol\":2357:2375  _transferOwnership */\n      tag_120\n        /* \"@openzeppelin/contracts/access/Ownable.sol\":2357:2387  _transferOwnership(address(0)) */\n      jump\t// in\n    tag_119:\n        /* \"@openzeppelin/contracts/access/Ownable.sol\":2293:2394  function renounceOwnership() public virtual onlyOwner {... */\n      jump\t// out\n        /* \"referralSystem.sol\":1720:1975  function setAuthorizedAddres(address _newAddress) external onlyOwner {... */\n    tag_50:\n        /* \"@openzeppelin/contracts/access/Ownable.sol\":1531:1544  _checkOwner() */\n      tag_122\n        /* \"@openzeppelin/contracts/access/Ownable.sol\":1531:1542  _checkOwner */\n      tag_117\n        /* \"@openzeppelin/contracts/access/Ownable.sol\":1531:1544  _checkOwner() */\n      jump\t// in\n    tag_122:\n      sub(shl(0xa0, 0x01), 0x01)\n        /* \"referralSystem.sol\":1808:1833  _newAddress != address(0) */\n      dup2\n      and\n        /* \"referralSystem.sol\":1800:1853  require(_newAddress != address(0), \"Invalid address\") */\n      tag_124\n      jumpi\n      mload(0x40)\n      shl(0xe5, 0x461bcd)\n      dup2\n      mstore\n        /* \"#utility.yul\":3301:3303   */\n      0x20\n        /* \"referralSystem.sol\":1800:1853  require(_newAddress != address(0), \"Invalid address\") */\n      0x04\n      dup3\n      add\n        /* \"#utility.yul\":3283:3304   */\n      mstore\n        /* \"#utility.yul\":3340:3342   */\n      0x0f\n        /* \"#utility.yul\":3320:3338   */\n      0x24\n      dup3\n      add\n        /* \"#utility.yul\":3313:3343   */\n      mstore\n      shl(0x88, 0x496e76616c69642061646472657373)\n        /* \"#utility.yul\":3359:3377   */\n      0x44\n      dup3\n      add\n        /* \"#utility.yul\":3352:3397   */\n      mstore\n        /* \"#utility.yul\":3414:3432   */\n      0x64\n      add\n        /* \"referralSystem.sol\":1800:1853  require(_newAddress != address(0), \"Invalid address\") */\n      tag_84\n        /* \"#utility.yul\":3099:3438   */\n      jump\n        /* \"referralSystem.sol\":1800:1853  require(_newAddress != address(0), \"Invalid address\") */\n    tag_124:\n        /* \"referralSystem.sol\":1894:1911  authorizedAddress */\n      sload(0x02)\n        /* \"referralSystem.sol\":1869:1925  AuthorizedAddressChanged(authorizedAddress, _newAddress) */\n      mload(0x40)\n      sub(shl(0xa0, 0x01), 0x01)\n      dup1\n      dup5\n      and\n      swap3\n        /* \"referralSystem.sol\":1894:1911  authorizedAddress */\n      and\n      swap1\n        /* \"referralSystem.sol\":1869:1925  AuthorizedAddressChanged(authorizedAddress, _newAddress) */\n      0x86c40840b13041fdf3b73496c0f80da8bef6a34805cb1ca99e01fd3e13d4b196\n      swap1\n        /* \"referralSystem.sol\":1894:1911  authorizedAddress */\n      0x00\n      swap1\n        /* \"referralSystem.sol\":1869:1925  AuthorizedAddressChanged(authorizedAddress, _newAddress) */\n      log3\n        /* \"referralSystem.sol\":1936:1953  authorizedAddress */\n      0x02\n        /* \"referralSystem.sol\":1936:1967  authorizedAddress = _newAddress */\n      dup1\n      sload\n      not(sub(shl(0xa0, 0x01), 0x01))\n      and\n      sub(shl(0xa0, 0x01), 0x01)\n      swap3\n      swap1\n      swap3\n      and\n      swap2\n      swap1\n      swap2\n      or\n      swap1\n      sstore\n        /* \"referralSystem.sol\":1720:1975  function setAuthorizedAddres(address _newAddress) external onlyOwner {... */\n      jump\t// out\n        /* \"referralSystem.sol\":1993:2248  function setRewardAmounts(uint256 _referrerReward, uint256 _refereeReward) external onlyOwner {... */\n    tag_57:\n        /* \"@openzeppelin/contracts/access/Ownable.sol\":1531:1544  _checkOwner() */\n      tag_128\n        /* \"@openzeppelin/contracts/access/Ownable.sol\":1531:1542  _checkOwner */\n      tag_117\n        /* \"@openzeppelin/contracts/access/Ownable.sol\":1531:1544  _checkOwner() */\n      jump\t// in\n    tag_128:\n        /* \"referralSystem.sol\":2098:2112  referrerReward */\n      0x03\n        /* \"referralSystem.sol\":2098:2130  referrerReward = _referrerReward */\n      dup3\n      swap1\n      sstore\n        /* \"referralSystem.sol\":2141:2154  refereeReward */\n      0x04\n        /* \"referralSystem.sol\":2141:2171  refereeReward = _refereeReward */\n      dup2\n      swap1\n      sstore\n        /* \"referralSystem.sol\":2187:2240  RewardAmountsChanged(_referrerReward, _refereeReward) */\n      0x40\n      dup1\n      mload\n        /* \"#utility.yul\":4955:4980   */\n      dup4\n      dup2\n      mstore\n        /* \"#utility.yul\":5011:5013   */\n      0x20\n        /* \"#utility.yul\":4996:5014   */\n      dup2\n      add\n        /* \"#utility.yul\":4989:5023   */\n      dup4\n      swap1\n      mstore\n        /* \"referralSystem.sol\":2187:2240  RewardAmountsChanged(_referrerReward, _refereeReward) */\n      0x457ddc8afba479da2edda90d1b2c537cee16f285d7eb06529b28aabe56a0e974\n      swap2\n        /* \"#utility.yul\":4928:4946   */\n      add\n        /* \"referralSystem.sol\":2187:2240  RewardAmountsChanged(_referrerReward, _refereeReward) */\n      mload(0x40)\n      dup1\n      swap2\n      sub\n      swap1\n      log1\n        /* \"referralSystem.sol\":1993:2248  function setRewardAmounts(uint256 _referrerReward, uint256 _refereeReward) external onlyOwner {... */\n      pop\n      pop\n      jump\t// out\n        /* \"referralSystem.sol\":3562:3690  function getReferees(address _referrer) external view returns (address[] memory) {... */\n    tag_64:\n      sub(shl(0xa0, 0x01), 0x01)\n        /* \"referralSystem.sol\":3661:3682  refereesOf[_referrer] */\n      dup2\n      and\n      0x00\n      swap1\n      dup2\n      mstore\n        /* \"referralSystem.sol\":3661:3671  refereesOf */\n      0x07\n        /* \"referralSystem.sol\":3661:3682  refereesOf[_referrer] */\n      0x20\n      swap1\n      dup2\n      mstore\n      0x40\n      swap2\n      dup3\n      swap1\n      keccak256\n        /* \"referralSystem.sol\":3654:3682  return refereesOf[_referrer] */\n      dup1\n      sload\n      dup4\n      mload\n      dup2\n      dup5\n      mul\n      dup2\n      add\n      dup5\n      add\n      swap1\n      swap5\n      mstore\n      dup1\n      dup5\n      mstore\n        /* \"referralSystem.sol\":3625:3641  address[] memory */\n      0x60\n      swap4\n        /* \"referralSystem.sol\":3654:3682  return refereesOf[_referrer] */\n      swap3\n      dup4\n      add\n        /* \"referralSystem.sol\":3661:3682  refereesOf[_referrer] */\n      dup3\n        /* \"referralSystem.sol\":3654:3682  return refereesOf[_referrer] */\n      dup3\n      dup1\n      iszero\n      tag_132\n      jumpi\n      0x20\n      mul\n      dup3\n      add\n      swap2\n      swap1\n      0x00\n      mstore\n      keccak256(0x00, 0x20)\n      swap1\n    tag_133:\n      dup2\n      sload\n      sub(shl(0xa0, 0x01), 0x01)\n      and\n      dup2\n      mstore\n      0x01\n      swap1\n      swap2\n      add\n      swap1\n      0x20\n      add\n      dup1\n      dup4\n      gt\n      tag_133\n      jumpi\n    tag_132:\n      pop\n      pop\n      pop\n      pop\n      pop\n      swap1\n      pop\n        /* \"referralSystem.sol\":3562:3690  function getReferees(address _referrer) external view returns (address[] memory) {... */\n      swap2\n      swap1\n      pop\n      jump\t// out\n        /* \"@openzeppelin/contracts/access/Ownable.sol\":2543:2758  function transferOwnership(address newOwner) public virtual onlyOwner {... */\n    tag_74:\n        /* \"@openzeppelin/contracts/access/Ownable.sol\":1531:1544  _checkOwner() */\n      tag_135\n        /* \"@openzeppelin/contracts/access/Ownable.sol\":1531:1542  _checkOwner */\n      tag_117\n        /* \"@openzeppelin/contracts/access/Ownable.sol\":1531:1544  _checkOwner() */\n      jump\t// in\n    tag_135:\n      sub(shl(0xa0, 0x01), 0x01)\n        /* \"@openzeppelin/contracts/access/Ownable.sol\":2627:2649  newOwner == address(0) */\n      dup2\n      and\n        /* \"@openzeppelin/contracts/access/Ownable.sol\":2623:2714  if (newOwner == address(0)) {... */\n      tag_137\n      jumpi\n        /* \"@openzeppelin/contracts/access/Ownable.sol\":2672:2703  OwnableInvalidOwner(address(0)) */\n      mload(0x40)\n      shl(0xe0, 0x1e4fbdf7)\n      dup2\n      mstore\n        /* \"@openzeppelin/contracts/access/Ownable.sol\":2700:2701  0 */\n      0x00\n        /* \"@openzeppelin/contracts/access/Ownable.sol\":2672:2703  OwnableInvalidOwner(address(0)) */\n      0x04\n      dup3\n      add\n        /* \"#utility.yul\":825:876   */\n      mstore\n        /* \"#utility.yul\":798:816   */\n      0x24\n      add\n        /* \"@openzeppelin/contracts/access/Ownable.sol\":2672:2703  OwnableInvalidOwner(address(0)) */\n      tag_84\n        /* \"#utility.yul\":679:882   */\n      jump\n        /* \"@openzeppelin/contracts/access/Ownable.sol\":2623:2714  if (newOwner == address(0)) {... */\n    tag_137:\n        /* \"@openzeppelin/contracts/access/Ownable.sol\":2723:2751  _transferOwnership(newOwner) */\n      tag_139\n        /* \"@openzeppelin/contracts/access/Ownable.sol\":2742:2750  newOwner */\n      dup2\n        /* \"@openzeppelin/contracts/access/Ownable.sol\":2723:2741  _transferOwnership */\n      tag_120\n        /* \"@openzeppelin/contracts/access/Ownable.sol\":2723:2751  _transferOwnership(newOwner) */\n      jump\t// in\n    tag_139:\n        /* \"@openzeppelin/contracts/access/Ownable.sol\":2543:2758  function transferOwnership(address newOwner) public virtual onlyOwner {... */\n      pop\n      jump\t// out\n        /* \"@openzeppelin/contracts/access/Ownable.sol\":1796:1958  function _checkOwner() internal view virtual {... */\n    tag_117:\n        /* \"@openzeppelin/contracts/access/Ownable.sol\":1684:1691  address */\n      0x00\n        /* \"@openzeppelin/contracts/access/Ownable.sol\":1710:1716  _owner */\n      sload\n      sub(shl(0xa0, 0x01), 0x01)\n      and\n        /* \"@openzeppelin/contracts/utils/Context.sol\":735:745  msg.sender */\n      caller\n        /* \"@openzeppelin/contracts/access/Ownable.sol\":1855:1878  owner() != _msgSender() */\n      eq\n        /* \"@openzeppelin/contracts/access/Ownable.sol\":1851:1952  if (owner() != _msgSender()) {... */\n      tag_119\n      jumpi\n        /* \"@openzeppelin/contracts/access/Ownable.sol\":1901:1941  OwnableUnauthorizedAccount(_msgSender()) */\n      mload(0x40)\n      shl(0xe0, 0x118cdaa7)\n      dup2\n      mstore\n        /* \"@openzeppelin/contracts/utils/Context.sol\":735:745  msg.sender */\n      caller\n        /* \"@openzeppelin/contracts/access/Ownable.sol\":1901:1941  OwnableUnauthorizedAccount(_msgSender()) */\n      0x04\n      dup3\n      add\n        /* \"#utility.yul\":825:876   */\n      mstore\n        /* \"#utility.yul\":798:816   */\n      0x24\n      add\n        /* \"@openzeppelin/contracts/access/Ownable.sol\":1901:1941  OwnableUnauthorizedAccount(_msgSender()) */\n      tag_84\n        /* \"#utility.yul\":679:882   */\n      jump\n        /* \"@openzeppelin/contracts/access/Ownable.sol\":2912:3099  function _transferOwnership(address newOwner) internal virtual {... */\n    tag_120:\n        /* \"@openzeppelin/contracts/access/Ownable.sol\":2985:3001  address oldOwner */\n      0x00\n        /* \"@openzeppelin/contracts/access/Ownable.sol\":3004:3010  _owner */\n      dup1\n      sload\n      sub(shl(0xa0, 0x01), 0x01)\n        /* \"@openzeppelin/contracts/access/Ownable.sol\":3020:3037  _owner = newOwner */\n      dup4\n      dup2\n      and\n      not(sub(shl(0xa0, 0x01), 0x01))\n      dup4\n      and\n      dup2\n      or\n      dup5\n      sstore\n        /* \"@openzeppelin/contracts/access/Ownable.sol\":3052:3092  OwnershipTransferred(oldOwner, newOwner) */\n      mload(0x40)\n        /* \"@openzeppelin/contracts/access/Ownable.sol\":3004:3010  _owner */\n      swap2\n      swap1\n      swap3\n      and\n      swap3\n      dup4\n      swap2\n        /* \"@openzeppelin/contracts/access/Ownable.sol\":3052:3092  OwnershipTransferred(oldOwner, newOwner) */\n      0x8be0079c531659141344cd1fd0a4f28419497f9722a3daafe3b4186f6b6457e0\n      swap2\n        /* \"@openzeppelin/contracts/access/Ownable.sol\":2985:3001  address oldOwner */\n      swap1\n        /* \"@openzeppelin/contracts/access/Ownable.sol\":3052:3092  OwnershipTransferred(oldOwner, newOwner) */\n      log3\n        /* \"@openzeppelin/contracts/access/Ownable.sol\":2975:3099  {... */\n      pop\n        /* \"@openzeppelin/contracts/access/Ownable.sol\":2912:3099  function _transferOwnership(address newOwner) internal virtual {... */\n      pop\n      jump\t// out\n        /* \"#utility.yul\":196:369   */\n    tag_149:\n        /* \"#utility.yul\":264:284   */\n      dup1\n      calldataload\n      sub(shl(0xa0, 0x01), 0x01)\n        /* \"#utility.yul\":313:344   */\n      dup2\n      and\n        /* \"#utility.yul\":303:345   */\n      dup2\n      eq\n        /* \"#utility.yul\":293:363   */\n      tag_153\n      jumpi\n        /* \"#utility.yul\":359:360   */\n      0x00\n        /* \"#utility.yul\":356:357   */\n      0x00\n        /* \"#utility.yul\":349:361   */\n      revert\n        /* \"#utility.yul\":293:363   */\n    tag_153:\n        /* \"#utility.yul\":196:369   */\n      swap2\n      swap1\n      pop\n      jump\t// out\n        /* \"#utility.yul\":374:674   */\n    tag_27:\n        /* \"#utility.yul\":442:448   */\n      0x00\n        /* \"#utility.yul\":450:456   */\n      0x00\n        /* \"#utility.yul\":503:505   */\n      0x40\n        /* \"#utility.yul\":491:500   */\n      dup4\n        /* \"#utility.yul\":482:489   */\n      dup6\n        /* \"#utility.yul\":478:501   */\n      sub\n        /* \"#utility.yul\":474:506   */\n      slt\n        /* \"#utility.yul\":471:523   */\n      iszero\n      tag_155\n      jumpi\n        /* \"#utility.yul\":519:520   */\n      0x00\n        /* \"#utility.yul\":516:517   */\n      0x00\n        /* \"#utility.yul\":509:521   */\n      revert\n        /* \"#utility.yul\":471:523   */\n    tag_155:\n        /* \"#utility.yul\":542:571   */\n      tag_156\n        /* \"#utility.yul\":561:570   */\n      dup4\n        /* \"#utility.yul\":542:571   */\n      tag_149\n      jump\t// in\n    tag_156:\n        /* \"#utility.yul\":532:571   */\n      swap5\n        /* \"#utility.yul\":640:642   */\n      0x20\n        /* \"#utility.yul\":625:643   */\n      swap4\n      swap1\n      swap4\n      add\n        /* \"#utility.yul\":612:644   */\n      calldataload\n      swap4\n      pop\n      pop\n      pop\n        /* \"#utility.yul\":374:674   */\n      jump\t// out\n        /* \"#utility.yul\":887:1073   */\n    tag_33:\n        /* \"#utility.yul\":946:952   */\n      0x00\n        /* \"#utility.yul\":999:1001   */\n      0x20\n        /* \"#utility.yul\":987:996   */\n      dup3\n        /* \"#utility.yul\":978:985   */\n      dup5\n        /* \"#utility.yul\":974:997   */\n      sub\n        /* \"#utility.yul\":970:1002   */\n      slt\n        /* \"#utility.yul\":967:1019   */\n      iszero\n      tag_159\n      jumpi\n        /* \"#utility.yul\":1015:1016   */\n      0x00\n        /* \"#utility.yul\":1012:1013   */\n      0x00\n        /* \"#utility.yul\":1005:1017   */\n      revert\n        /* \"#utility.yul\":967:1019   */\n    tag_159:\n        /* \"#utility.yul\":1038:1067   */\n      tag_160\n        /* \"#utility.yul\":1057:1066   */\n      dup3\n        /* \"#utility.yul\":1038:1067   */\n      tag_149\n      jump\t// in\n    tag_160:\n        /* \"#utility.yul\":1028:1067   */\n      swap4\n        /* \"#utility.yul\":887:1073   */\n      swap3\n      pop\n      pop\n      pop\n      jump\t// out\n        /* \"#utility.yul\":1078:1338   */\n    tag_44:\n        /* \"#utility.yul\":1146:1152   */\n      0x00\n        /* \"#utility.yul\":1154:1160   */\n      0x00\n        /* \"#utility.yul\":1207:1209   */\n      0x40\n        /* \"#utility.yul\":1195:1204   */\n      dup4\n        /* \"#utility.yul\":1186:1193   */\n      dup6\n        /* \"#utility.yul\":1182:1205   */\n      sub\n        /* \"#utility.yul\":1178:1210   */\n      slt\n        /* \"#utility.yul\":1175:1227   */\n      iszero\n      tag_162\n      jumpi\n        /* \"#utility.yul\":1223:1224   */\n      0x00\n        /* \"#utility.yul\":1220:1221   */\n      0x00\n        /* \"#utility.yul\":1213:1225   */\n      revert\n        /* \"#utility.yul\":1175:1227   */\n    tag_162:\n        /* \"#utility.yul\":1246:1275   */\n      tag_163\n        /* \"#utility.yul\":1265:1274   */\n      dup4\n        /* \"#utility.yul\":1246:1275   */\n      tag_149\n      jump\t// in\n    tag_163:\n        /* \"#utility.yul\":1236:1275   */\n      swap2\n      pop\n        /* \"#utility.yul\":1294:1332   */\n      tag_164\n        /* \"#utility.yul\":1328:1330   */\n      0x20\n        /* \"#utility.yul\":1317:1326   */\n      dup5\n        /* \"#utility.yul\":1313:1331   */\n      add\n        /* \"#utility.yul\":1294:1332   */\n      tag_149\n      jump\t// in\n    tag_164:\n        /* \"#utility.yul\":1284:1332   */\n      swap1\n      pop\n        /* \"#utility.yul\":1078:1338   */\n      swap3\n      pop\n      swap3\n      swap1\n      pop\n      jump\t// out\n        /* \"#utility.yul\":1343:1689   */\n    tag_56:\n        /* \"#utility.yul\":1411:1417   */\n      0x00\n        /* \"#utility.yul\":1419:1425   */\n      0x00\n        /* \"#utility.yul\":1472:1474   */\n      0x40\n        /* \"#utility.yul\":1460:1469   */\n      dup4\n        /* \"#utility.yul\":1451:1458   */\n      dup6\n        /* \"#utility.yul\":1447:1470   */\n      sub\n        /* \"#utility.yul\":1443:1475   */\n      slt\n        /* \"#utility.yul\":1440:1492   */\n      iszero\n      tag_166\n      jumpi\n        /* \"#utility.yul\":1488:1489   */\n      0x00\n        /* \"#utility.yul\":1485:1486   */\n      0x00\n        /* \"#utility.yul\":1478:1490   */\n      revert\n        /* \"#utility.yul\":1440:1492   */\n    tag_166:\n      pop\n      pop\n        /* \"#utility.yul\":1533:1556   */\n      dup1\n      calldataload\n      swap3\n        /* \"#utility.yul\":1653:1655   */\n      0x20\n        /* \"#utility.yul\":1638:1656   */\n      swap1\n      swap2\n      add\n        /* \"#utility.yul\":1625:1657   */\n      calldataload\n      swap2\n      pop\n        /* \"#utility.yul\":1343:1689   */\n      jump\t// out\n        /* \"#utility.yul\":1694:2331   */\n    tag_66:\n        /* \"#utility.yul\":1884:1886   */\n      0x20\n        /* \"#utility.yul\":1896:1917   */\n      dup1\n      dup3\n      mstore\n        /* \"#utility.yul\":1966:1979   */\n      dup3\n      mload\n        /* \"#utility.yul\":1869:1887   */\n      dup3\n      dup3\n      add\n        /* \"#utility.yul\":1988:2010   */\n      dup2\n      swap1\n      mstore\n        /* \"#utility.yul\":1836:1840   */\n      0x00\n      swap2\n        /* \"#utility.yul\":2067:2082   */\n      dup5\n      add\n      swap1\n        /* \"#utility.yul\":2041:2043   */\n      0x40\n        /* \"#utility.yul\":2026:2044   */\n      dup5\n      add\n      swap1\n        /* \"#utility.yul\":1836:1840   */\n      dup4\n        /* \"#utility.yul\":2110:2305   */\n    tag_168:\n        /* \"#utility.yul\":2124:2130   */\n      dup2\n        /* \"#utility.yul\":2121:2122   */\n      dup2\n        /* \"#utility.yul\":2118:2131   */\n      lt\n        /* \"#utility.yul\":2110:2305   */\n      iszero\n      tag_170\n      jumpi\n        /* \"#utility.yul\":2189:2202   */\n      dup4\n      mload\n      sub(shl(0xa0, 0x01), 0x01)\n        /* \"#utility.yul\":2185:2224   */\n      and\n        /* \"#utility.yul\":2173:2225   */\n      dup4\n      mstore\n        /* \"#utility.yul\":2254:2256   */\n      0x20\n        /* \"#utility.yul\":2280:2295   */\n      swap4\n      dup5\n      add\n      swap4\n        /* \"#utility.yul\":2245:2257   */\n      swap1\n      swap3\n      add\n      swap2\n        /* \"#utility.yul\":2221:2222   */\n      0x01\n        /* \"#utility.yul\":2139:2148   */\n      add\n        /* \"#utility.yul\":2110:2305   */\n      jump(tag_168)\n    tag_170:\n      pop\n        /* \"#utility.yul\":2322:2325   */\n      swap1\n      swap6\n        /* \"#utility.yul\":1694:2331   */\n      swap5\n      pop\n      pop\n      pop\n      pop\n      pop\n      jump\t// out\n\n    auxdata: 0xa2646970667358221220186cff24bf81d2c40266c4870451e9671490c61cbf4e6dbec2cc81c750c4f1c364736f6c634300081d0033\n}\n\nsub_1: assembly {\n        /* \"referralSystem.sol\":3843:4542  contract RewardToken is ERC20, Ownable {... */\n      mstore(0x40, 0x80)\n        /* \"referralSystem.sol\":4000:4137  constructor() ERC20(\"Referral Reward\", \"RFR\") Ownable(msg.sender) {... */\n      callvalue\n      dup1\n      iszero\n      tag_1\n      jumpi\n      revert(0x00, 0x00)\n    tag_1:\n      pop\n        /* \"referralSystem.sol\":4054:4064  msg.sender */\n      caller\n        /* \"@openzeppelin/contracts/token/ERC20/ERC20.sol\":1582:1695  constructor(string memory name_, string memory symbol_) {... */\n      mload(0x40)\n      dup1\n      0x40\n      add\n      0x40\n      mstore\n      dup1\n      0x0f\n      dup2\n      mstore\n      0x20\n      add\n      shl(0x8a, 0x149959995c9c985b0814995dd85c99)\n      dup2\n      mstore\n      pop\n      mload(0x40)\n      dup1\n      0x40\n      add\n      0x40\n      mstore\n      dup1\n      0x03\n      dup2\n      mstore\n      0x20\n      add\n      shl(0xe9, 0x292329)\n      dup2\n      mstore\n      pop\n        /* \"@openzeppelin/contracts/token/ERC20/ERC20.sol\":1656:1661  name_ */\n      dup2\n        /* \"@openzeppelin/contracts/token/ERC20/ERC20.sol\":1648:1653  _name */\n      0x03\n        /* \"@openzeppelin/contracts/token/ERC20/ERC20.sol\":1648:1661  _name = name_ */\n      swap1\n      dup2\n      tag_6\n      swap2\n      swap1\n      tag_7\n      jump\t// in\n    tag_6:\n      pop\n        /* \"@openzeppelin/contracts/token/ERC20/ERC20.sol\":1671:1678  _symbol */\n      0x04\n        /* \"@openzeppelin/contracts/token/ERC20/ERC20.sol\":1671:1688  _symbol = symbol_ */\n      tag_8\n        /* \"@openzeppelin/contracts/token/ERC20/ERC20.sol\":1681:1688  symbol_ */\n      dup3\n        /* \"@openzeppelin/contracts/token/ERC20/ERC20.sol\":1671:1678  _symbol */\n      dup3\n        /* \"@openzeppelin/contracts/token/ERC20/ERC20.sol\":1671:1688  _symbol = symbol_ */\n      tag_7\n      jump\t// in\n    tag_8:\n      pop\n      pop\n      pop\n      sub(shl(0xa0, 0x01), 0x01)\n        /* \"@openzeppelin/contracts/access/Ownable.sol\":1273:1299  initialOwner == address(0) */\n      dup2\n      and\n        /* \"@openzeppelin/contracts/access/Ownable.sol\":1269:1364  if (initialOwner == address(0)) {... */\n      tag_10\n      jumpi\n        /* \"@openzeppelin/contracts/access/Ownable.sol\":1322:1353  OwnableInvalidOwner(address(0)) */\n      mload(0x40)\n      shl(0xe0, 0x1e4fbdf7)\n      dup2\n      mstore\n        /* \"@openzeppelin/contracts/access/Ownable.sol\":1350:1351  0 */\n      0x00\n        /* \"@openzeppelin/contracts/access/Ownable.sol\":1322:1353  OwnableInvalidOwner(address(0)) */\n      0x04\n      dup3\n      add\n        /* \"#utility.yul\":2801:2852   */\n      mstore\n        /* \"#utility.yul\":2774:2792   */\n      0x24\n      add\n        /* \"@openzeppelin/contracts/access/Ownable.sol\":1322:1353  OwnableInvalidOwner(address(0)) */\n      mload(0x40)\n      dup1\n      swap2\n      sub\n      swap1\n      revert\n        /* \"@openzeppelin/contracts/access/Ownable.sol\":1269:1364  if (initialOwner == address(0)) {... */\n    tag_10:\n        /* \"@openzeppelin/contracts/access/Ownable.sol\":1373:1405  _transferOwnership(initialOwner) */\n      tag_13\n        /* \"@openzeppelin/contracts/access/Ownable.sol\":1392:1404  initialOwner */\n      dup2\n        /* \"@openzeppelin/contracts/access/Ownable.sol\":1373:1391  _transferOwnership */\n      tag_14\n        /* \"@openzeppelin/contracts/access/Ownable.sol\":1373:1405  _transferOwnership(initialOwner) */\n      jump\t// in\n    tag_13:\n      pop\n        /* \"referralSystem.sol\":4077:4083  minter */\n      0x06\n        /* \"referralSystem.sol\":4077:4096  minter = msg.sender */\n      dup1\n      sload\n      not(sub(shl(0xa0, 0x01), 0x01))\n      and\n        /* \"referralSystem.sol\":4086:4096  msg.sender */\n      caller\n        /* \"referralSystem.sol\":4077:4096  minter = msg.sender */\n      or\n      swap1\n      sstore\n        /* \"referralSystem.sol\":3843:4542  contract RewardToken is ERC20, Ownable {... */\n      jump(tag_23)\n        /* \"@openzeppelin/contracts/access/Ownable.sol\":2912:3099  function _transferOwnership(address newOwner) internal virtual {... */\n    tag_14:\n        /* \"@openzeppelin/contracts/access/Ownable.sol\":3004:3010  _owner */\n      0x05\n      dup1\n      sload\n      sub(shl(0xa0, 0x01), 0x01)\n        /* \"@openzeppelin/contracts/access/Ownable.sol\":3020:3037  _owner = newOwner */\n      dup4\n      dup2\n      and\n      not(sub(shl(0xa0, 0x01), 0x01))\n      dup4\n      and\n      dup2\n      or\n      swap1\n      swap4\n      sstore\n        /* \"@openzeppelin/contracts/access/Ownable.sol\":3052:3092  OwnershipTransferred(oldOwner, newOwner) */\n      mload(0x40)\n        /* \"@openzeppelin/contracts/access/Ownable.sol\":3004:3010  _owner */\n      swap2\n      and\n      swap2\n        /* \"@openzeppelin/contracts/access/Ownable.sol\":3020:3037  _owner = newOwner */\n      swap1\n        /* \"@openzeppelin/contracts/access/Ownable.sol\":3004:3010  _owner */\n      dup3\n      swap1\n        /* \"@openzeppelin/contracts/access/Ownable.sol\":3052:3092  OwnershipTransferred(oldOwner, newOwner) */\n      0x8be0079c531659141344cd1fd0a4f28419497f9722a3daafe3b4186f6b6457e0\n      swap1\n        /* \"@openzeppelin/contracts/access/Ownable.sol\":2985:3001  address oldOwner */\n      0x00\n      swap1\n        /* \"@openzeppelin/contracts/access/Ownable.sol\":3052:3092  OwnershipTransferred(oldOwner, newOwner) */\n      log3\n        /* \"@openzeppelin/contracts/access/Ownable.sol\":2975:3099  {... */\n      pop\n        /* \"@openzeppelin/contracts/access/Ownable.sol\":2912:3099  function _transferOwnership(address newOwner) internal virtual {... */\n      pop\n      jump\t// out\n        /* \"#utility.yul\":14:141   */\n    tag_18:\n        /* \"#utility.yul\":75:85   */\n      0x4e487b71\n        /* \"#utility.yul\":70:73   */\n      0xe0\n        /* \"#utility.yul\":66:86   */\n      shl\n        /* \"#utility.yul\":63:64   */\n      0x00\n        /* \"#utility.yul\":56:87   */\n      mstore\n        /* \"#utility.yul\":106:110   */\n      0x41\n        /* \"#utility.yul\":103:104   */\n      0x04\n        /* \"#utility.yul\":96:111   */\n      mstore\n        /* \"#utility.yul\":130:134   */\n      0x24\n        /* \"#utility.yul\":127:128   */\n      0x00\n        /* \"#utility.yul\":120:135   */\n      revert\n        /* \"#utility.yul\":146:526   */\n    tag_19:\n        /* \"#utility.yul\":225:226   */\n      0x01\n        /* \"#utility.yul\":221:233   */\n      dup2\n      dup2\n      shr\n      swap1\n        /* \"#utility.yul\":268:280   */\n      dup3\n      and\n      dup1\n        /* \"#utility.yul\":289:350   */\n      tag_26\n      jumpi\n        /* \"#utility.yul\":343:347   */\n      0x7f\n        /* \"#utility.yul\":335:341   */\n      dup3\n        /* \"#utility.yul\":331:348   */\n      and\n        /* \"#utility.yul\":321:348   */\n      swap2\n      pop\n        /* \"#utility.yul\":289:350   */\n    tag_26:\n        /* \"#utility.yul\":396:398   */\n      0x20\n        /* \"#utility.yul\":388:394   */\n      dup3\n        /* \"#utility.yul\":385:399   */\n      lt\n        /* \"#utility.yul\":365:383   */\n      dup2\n        /* \"#utility.yul\":362:400   */\n      sub\n        /* \"#utility.yul\":359:520   */\n      tag_27\n      jumpi\n        /* \"#utility.yul\":442:452   */\n      0x4e487b71\n        /* \"#utility.yul\":437:440   */\n      0xe0\n        /* \"#utility.yul\":433:453   */\n      shl\n        /* \"#utility.yul\":430:431   */\n      0x00\n        /* \"#utility.yul\":423:454   */\n      mstore\n        /* \"#utility.yul\":477:481   */\n      0x22\n        /* \"#utility.yul\":474:475   */\n      0x04\n        /* \"#utility.yul\":467:482   */\n      mstore\n        /* \"#utility.yul\":505:509   */\n      0x24\n        /* \"#utility.yul\":502:503   */\n      0x00\n        /* \"#utility.yul\":495:510   */\n      revert\n        /* \"#utility.yul\":359:520   */\n    tag_27:\n      pop\n        /* \"#utility.yul\":146:526   */\n      swap2\n      swap1\n      pop\n      jump\t// out\n        /* \"#utility.yul\":657:1175   */\n    tag_21:\n        /* \"#utility.yul\":759:761   */\n      0x1f\n        /* \"#utility.yul\":754:757   */\n      dup3\n        /* \"#utility.yul\":751:762   */\n      gt\n        /* \"#utility.yul\":748:1169   */\n      iszero\n      tag_30\n      jumpi\n        /* \"#utility.yul\":795:800   */\n      dup1\n        /* \"#utility.yul\":792:793   */\n      0x00\n        /* \"#utility.yul\":785:801   */\n      mstore\n        /* \"#utility.yul\":839:843   */\n      0x20\n        /* \"#utility.yul\":836:837   */\n      0x00\n        /* \"#utility.yul\":826:844   */\n      keccak256\n        /* \"#utility.yul\":909:911   */\n      0x1f\n        /* \"#utility.yul\":897:907   */\n      dup5\n        /* \"#utility.yul\":893:912   */\n      add\n        /* \"#utility.yul\":890:891   */\n      0x05\n        /* \"#utility.yul\":886:913   */\n      shr\n        /* \"#utility.yul\":880:884   */\n      dup2\n        /* \"#utility.yul\":876:914   */\n      add\n        /* \"#utility.yul\":945:949   */\n      0x20\n        /* \"#utility.yul\":933:943   */\n      dup6\n        /* \"#utility.yul\":930:950   */\n      lt\n        /* \"#utility.yul\":927:974   */\n      iszero\n      tag_31\n      jumpi\n      pop\n        /* \"#utility.yul\":968:972   */\n      dup1\n        /* \"#utility.yul\":927:974   */\n    tag_31:\n        /* \"#utility.yul\":1023:1025   */\n      0x1f\n        /* \"#utility.yul\":1018:1021   */\n      dup5\n        /* \"#utility.yul\":1014:1026   */\n      add\n        /* \"#utility.yul\":1011:1012   */\n      0x05\n        /* \"#utility.yul\":1007:1027   */\n      shr\n        /* \"#utility.yul\":1001:1005   */\n      dup3\n        /* \"#utility.yul\":997:1028   */\n      add\n        /* \"#utility.yul\":987:1028   */\n      swap2\n      pop\n        /* \"#utility.yul\":1078:1159   */\n    tag_32:\n        /* \"#utility.yul\":1096:1098   */\n      dup2\n        /* \"#utility.yul\":1089:1094   */\n      dup2\n        /* \"#utility.yul\":1086:1099   */\n      lt\n        /* \"#utility.yul\":1078:1159   */\n      iszero\n      tag_34\n      jumpi\n        /* \"#utility.yul\":1155:1156   */\n      0x00\n        /* \"#utility.yul\":1141:1157   */\n      dup2\n      sstore\n        /* \"#utility.yul\":1122:1123   */\n      0x01\n        /* \"#utility.yul\":1111:1124   */\n      add\n        /* \"#utility.yul\":1078:1159   */\n      jump(tag_32)\n    tag_34:\n        /* \"#utility.yul\":1082:1085   */\n      pop\n      pop\n        /* \"#utility.yul\":748:1169   */\n    tag_30:\n        /* \"#utility.yul\":657:1175   */\n      pop\n      pop\n      pop\n      jump\t// out\n        /* \"#utility.yul\":1351:2650   */\n    tag_7:\n        /* \"#utility.yul\":1471:1481   */\n      dup2\n      mload\n      sub(shl(0x40, 0x01), 0x01)\n        /* \"#utility.yul\":1493:1523   */\n      dup2\n      gt\n        /* \"#utility.yul\":1490:1546   */\n      iszero\n      tag_38\n      jumpi\n        /* \"#utility.yul\":1526:1544   */\n      tag_38\n      tag_18\n      jump\t// in\n    tag_38:\n        /* \"#utility.yul\":1555:1652   */\n      tag_39\n        /* \"#utility.yul\":1645:1651   */\n      dup2\n        /* \"#utility.yul\":1605:1643   */\n      tag_40\n        /* \"#utility.yul\":1637:1641   */\n      dup5\n        /* \"#utility.yul\":1631:1642   */\n      sload\n        /* \"#utility.yul\":1605:1643   */\n      tag_19\n      jump\t// in\n    tag_40:\n        /* \"#utility.yul\":1599:1603   */\n      dup5\n        /* \"#utility.yul\":1555:1652   */\n      tag_21\n      jump\t// in\n    tag_39:\n        /* \"#utility.yul\":1701:1705   */\n      0x20\n        /* \"#utility.yul\":1732:1734   */\n      0x1f\n        /* \"#utility.yul\":1721:1735   */\n      dup3\n      gt\n        /* \"#utility.yul\":1749:1750   */\n      0x01\n        /* \"#utility.yul\":1744:2393   */\n      dup2\n      eq\n      tag_42\n      jumpi\n        /* \"#utility.yul\":2437:2438   */\n      0x00\n        /* \"#utility.yul\":2454:2460   */\n      dup4\n        /* \"#utility.yul\":2451:2540   */\n      iszero\n      tag_43\n      jumpi\n      pop\n        /* \"#utility.yul\":2506:2525   */\n      dup5\n      dup3\n      add\n        /* \"#utility.yul\":2500:2526   */\n      mload\n        /* \"#utility.yul\":2451:2540   */\n    tag_43:\n      not(0x00)\n        /* \"#utility.yul\":1308:1309   */\n      0x03\n        /* \"#utility.yul\":1304:1315   */\n      dup6\n      swap1\n      shl\n        /* \"#utility.yul\":1300:1324   */\n      shr\n        /* \"#utility.yul\":1296:1325   */\n      not\n        /* \"#utility.yul\":1286:1326   */\n      and\n        /* \"#utility.yul\":1332:1333   */\n      0x01\n        /* \"#utility.yul\":1328:1339   */\n      dup5\n      swap1\n      shl\n        /* \"#utility.yul\":1283:1340   */\n      or\n        /* \"#utility.yul\":2553:2634   */\n      dup5\n      sstore\n        /* \"#utility.yul\":1714:2644   */\n      jump(tag_34)\n        /* \"#utility.yul\":1744:2393   */\n    tag_42:\n        /* \"#utility.yul\":604:605   */\n      0x00\n        /* \"#utility.yul\":597:611   */\n      dup5\n      dup2\n      mstore\n        /* \"#utility.yul\":641:645   */\n      0x20\n        /* \"#utility.yul\":628:646   */\n      dup2\n      keccak256\n      not(0x1f)\n        /* \"#utility.yul\":1780:1800   */\n      dup6\n      and\n      swap2\n        /* \"#utility.yul\":1898:2120   */\n    tag_46:\n        /* \"#utility.yul\":1912:1919   */\n      dup3\n        /* \"#utility.yul\":1909:1910   */\n      dup2\n        /* \"#utility.yul\":1906:1920   */\n      lt\n        /* \"#utility.yul\":1898:2120   */\n      iszero\n      tag_48\n      jumpi\n        /* \"#utility.yul\":1994:2013   */\n      dup8\n      dup6\n      add\n        /* \"#utility.yul\":1988:2014   */\n      mload\n        /* \"#utility.yul\":1973:2015   */\n      dup3\n      sstore\n        /* \"#utility.yul\":2101:2105   */\n      0x20\n        /* \"#utility.yul\":2086:2106   */\n      swap5\n      dup6\n      add\n      swap5\n        /* \"#utility.yul\":2054:2055   */\n      0x01\n        /* \"#utility.yul\":2042:2056   */\n      swap1\n      swap3\n      add\n      swap2\n        /* \"#utility.yul\":1928:1940   */\n      add\n        /* \"#utility.yul\":1898:2120   */\n      jump(tag_46)\n    tag_48:\n        /* \"#utility.yul\":1902:1905   */\n      pop\n        /* \"#utility.yul\":2148:2154   */\n      dup5\n        /* \"#utility.yul\":2139:2146   */\n      dup3\n        /* \"#utility.yul\":2136:2155   */\n      lt\n        /* \"#utility.yul\":2133:2334   */\n      iszero\n      tag_49\n      jumpi\n        /* \"#utility.yul\":2209:2228   */\n      dup7\n      dup5\n      add\n        /* \"#utility.yul\":2203:2229   */\n      mload\n      not(0x00)\n        /* \"#utility.yul\":2292:2293   */\n      0x03\n        /* \"#utility.yul\":2288:2302   */\n      dup8\n      swap1\n      shl\n        /* \"#utility.yul\":2304:2307   */\n      0xf8\n        /* \"#utility.yul\":2284:2308   */\n      and\n        /* \"#utility.yul\":2280:2317   */\n      shr\n        /* \"#utility.yul\":2276:2318   */\n      not\n        /* \"#utility.yul\":2261:2319   */\n      and\n        /* \"#utility.yul\":2246:2320   */\n      dup2\n      sstore\n        /* \"#utility.yul\":2133:2334   */\n    tag_49:\n      pop\n      pop\n      pop\n      pop\n        /* \"#utility.yul\":2380:2381   */\n      0x01\n        /* \"#utility.yul\":2364:2378   */\n      swap1\n      dup2\n      shl\n        /* \"#utility.yul\":2360:2382   */\n      add\n        /* \"#utility.yul\":2347:2383   */\n      swap1\n      sstore\n      pop\n        /* \"#utility.yul\":1351:2650   */\n      jump\t// out\n        /* \"#utility.yul\":2655:2858   */\n    tag_23:\n        /* \"referralSystem.sol\":3843:4542  contract RewardToken is ERC20, Ownable {... */\n      dataSize(sub_0)\n      dup1\n      dataOffset(sub_0)\n      0x00\n      codecopy\n      0x00\n      return\n    stop\n\n    sub_0: assembly {\n            /* \"referralSystem.sol\":3843:4542  contract RewardToken is ERC20, Ownable {... */\n          mstore(0x40, 0x80)\n          callvalue\n          dup1\n          iszero\n          tag_1\n          jumpi\n          revert(0x00, 0x00)\n        tag_1:\n          pop\n          jumpi(tag_2, lt(calldatasize, 0x04))\n          shr(0xe0, calldataload(0x00))\n          dup1\n          0x70a08231\n          gt\n          tag_18\n          jumpi\n          dup1\n          0xa9059cbb\n          gt\n          tag_19\n          jumpi\n          dup1\n          0xa9059cbb\n          eq\n          tag_14\n          jumpi\n          dup1\n          0xdd62ed3e\n          eq\n          tag_15\n          jumpi\n          dup1\n          0xf2fde38b\n          eq\n          tag_16\n          jumpi\n          dup1\n          0xfca3b5aa\n          eq\n          tag_17\n          jumpi\n          revert(0x00, 0x00)\n        tag_19:\n          dup1\n          0x70a08231\n          eq\n          tag_10\n          jumpi\n          dup1\n          0x715018a6\n          eq\n          tag_11\n          jumpi\n          dup1\n          0x8da5cb5b\n          eq\n          tag_12\n          jumpi\n          dup1\n          0x95d89b41\n          eq\n          tag_13\n          jumpi\n          revert(0x00, 0x00)\n        tag_18:\n          dup1\n          0x18160ddd\n          gt\n          tag_20\n          jumpi\n          dup1\n          0x18160ddd\n          eq\n          tag_6\n          jumpi\n          dup1\n          0x23b872dd\n          eq\n          tag_7\n          jumpi\n          dup1\n          0x313ce567\n          eq\n          tag_8\n          jumpi\n          dup1\n          0x40c10f19\n          eq\n          tag_9\n          jumpi\n          revert(0x00, 0x00)\n        tag_20:\n          dup1\n          0x06fdde03\n          eq\n          tag_3\n          jumpi\n          dup1\n          0x07546172\n          eq\n          tag_4\n          jumpi\n          dup1\n          0x095ea7b3\n          eq\n          tag_5\n          jumpi\n        tag_2:\n          revert(0x00, 0x00)\n            /* \"@openzeppelin/contracts/token/ERC20/ERC20.sol\":1760:1849  function name() public view virtual returns (string memory) {... */\n        tag_3:\n          tag_21\n          tag_22\n          jump\t// in\n        tag_21:\n          mload(0x40)\n          tag_23\n          swap2\n          swap1\n          tag_24\n          jump\t// in\n        tag_23:\n          mload(0x40)\n          dup1\n          swap2\n          sub\n          swap1\n          return\n            /* \"referralSystem.sol\":3960:3981  address public minter */\n        tag_4:\n          sload(0x06)\n          tag_25\n          swap1\n          sub(shl(0xa0, 0x01), 0x01)\n          and\n          dup2\n          jump\n        tag_25:\n          mload(0x40)\n          sub(shl(0xa0, 0x01), 0x01)\n            /* \"#utility.yul\":601:633   */\n          swap1\n          swap2\n          and\n            /* \"#utility.yul\":583:634   */\n          dup2\n          mstore\n            /* \"#utility.yul\":571:573   */\n          0x20\n            /* \"#utility.yul\":556:574   */\n          add\n            /* \"referralSystem.sol\":3960:3981  address public minter */\n          tag_23\n            /* \"#utility.yul\":437:640   */\n          jump\n            /* \"@openzeppelin/contracts/token/ERC20/ERC20.sol\":3979:4165  function approve(address spender, uint256 value) public virtual returns (bool) {... */\n        tag_5:\n          tag_29\n          tag_30\n          calldatasize\n          0x04\n          tag_31\n          jump\t// in\n        tag_30:\n          tag_32\n          jump\t// in\n        tag_29:\n          mload(0x40)\n            /* \"#utility.yul\":1293:1307   */\n          swap1\n          iszero\n            /* \"#utility.yul\":1286:1308   */\n          iszero\n            /* \"#utility.yul\":1268:1309   */\n          dup2\n          mstore\n            /* \"#utility.yul\":1256:1258   */\n          0x20\n            /* \"#utility.yul\":1241:1259   */\n          add\n            /* \"@openzeppelin/contracts/token/ERC20/ERC20.sol\":3979:4165  function approve(address spender, uint256 value) public virtual returns (bool) {... */\n          tag_23\n            /* \"#utility.yul\":1128:1315   */\n          jump\n            /* \"@openzeppelin/contracts/token/ERC20/ERC20.sol\":2830:2927  function totalSupply() public view virtual returns (uint256) {... */\n        tag_6:\n            /* \"@openzeppelin/contracts/token/ERC20/ERC20.sol\":2908:2920  _totalSupply */\n          sload(0x02)\n            /* \"@openzeppelin/contracts/token/ERC20/ERC20.sol\":2830:2927  function totalSupply() public view virtual returns (uint256) {... */\n        tag_35:\n          mload(0x40)\n            /* \"#utility.yul\":1466:1491   */\n          swap1\n          dup2\n          mstore\n            /* \"#utility.yul\":1454:1456   */\n          0x20\n            /* \"#utility.yul\":1439:1457   */\n          add\n            /* \"@openzeppelin/contracts/token/ERC20/ERC20.sol\":2830:2927  function totalSupply() public view virtual returns (uint256) {... */\n          tag_23\n            /* \"#utility.yul\":1320:1497   */\n          jump\n            /* \"@openzeppelin/contracts/token/ERC20/ERC20.sol\":4757:5001  function transferFrom(address from, address to, uint256 value) public virtual returns (bool) {... */\n        tag_7:\n          tag_29\n          tag_40\n          calldatasize\n          0x04\n          tag_41\n          jump\t// in\n        tag_40:\n          tag_42\n          jump\t// in\n            /* \"@openzeppelin/contracts/token/ERC20/ERC20.sol\":2688:2770  function decimals() public view virtual returns (uint8) {... */\n        tag_8:\n          mload(0x40)\n            /* \"@openzeppelin/contracts/token/ERC20/ERC20.sol\":2761:2763  18 */\n          0x12\n            /* \"#utility.yul\":2023:2059   */\n          dup2\n          mstore\n            /* \"#utility.yul\":2011:2013   */\n          0x20\n            /* \"#utility.yul\":1996:2014   */\n          add\n            /* \"@openzeppelin/contracts/token/ERC20/ERC20.sol\":2688:2770  function decimals() public view virtual returns (uint8) {... */\n          tag_23\n            /* \"#utility.yul\":1881:2065   */\n          jump\n            /* \"referralSystem.sol\":4437:4539  function mint(address _to, uint256 _amount) external onlyMinter {... */\n        tag_9:\n          tag_48\n          tag_49\n          calldatasize\n          0x04\n          tag_31\n          jump\t// in\n        tag_49:\n          tag_50\n          jump\t// in\n        tag_48:\n          stop\n            /* \"@openzeppelin/contracts/token/ERC20/ERC20.sol\":2985:3101  function balanceOf(address account) public view virtual returns (uint256) {... */\n        tag_10:\n          tag_35\n          tag_52\n          calldatasize\n          0x04\n          tag_53\n          jump\t// in\n        tag_52:\n          sub(shl(0xa0, 0x01), 0x01)\n            /* \"@openzeppelin/contracts/token/ERC20/ERC20.sol\":3076:3094  _balances[account] */\n          and\n            /* \"@openzeppelin/contracts/token/ERC20/ERC20.sol\":3050:3057  uint256 */\n          0x00\n            /* \"@openzeppelin/contracts/token/ERC20/ERC20.sol\":3076:3094  _balances[account] */\n          swap1\n          dup2\n          mstore\n          0x20\n          dup2\n          swap1\n          mstore\n          0x40\n          swap1\n          keccak256\n          sload\n          swap1\n            /* \"@openzeppelin/contracts/token/ERC20/ERC20.sol\":2985:3101  function balanceOf(address account) public view virtual returns (uint256) {... */\n          jump\n            /* \"@openzeppelin/contracts/access/Ownable.sol\":2293:2394  function renounceOwnership() public virtual onlyOwner {... */\n        tag_11:\n          tag_48\n          tag_57\n          jump\t// in\n            /* \"@openzeppelin/contracts/access/Ownable.sol\":1638:1723  function owner() public view virtual returns (address) {... */\n        tag_12:\n            /* \"@openzeppelin/contracts/access/Ownable.sol\":1710:1716  _owner */\n          and(sub(shl(0xa0, 0x01), 0x01), sload(0x05))\n            /* \"@openzeppelin/contracts/access/Ownable.sol\":1638:1723  function owner() public view virtual returns (address) {... */\n          jump(tag_25)\n            /* \"@openzeppelin/contracts/token/ERC20/ERC20.sol\":1962:2055  function symbol() public view virtual returns (string memory) {... */\n        tag_13:\n          tag_21\n          tag_62\n          jump\t// in\n            /* \"@openzeppelin/contracts/token/ERC20/ERC20.sol\":3296:3474  function transfer(address to, uint256 value) public virtual returns (bool) {... */\n        tag_14:\n          tag_29\n          tag_65\n          calldatasize\n          0x04\n          tag_31\n          jump\t// in\n        tag_65:\n          tag_66\n          jump\t// in\n            /* \"@openzeppelin/contracts/token/ERC20/ERC20.sol\":3532:3672  function allowance(address owner, address spender) public view virtual returns (uint256) {... */\n        tag_15:\n          tag_35\n          tag_69\n          calldatasize\n          0x04\n          tag_70\n          jump\t// in\n        tag_69:\n          sub(shl(0xa0, 0x01), 0x01)\n            /* \"@openzeppelin/contracts/token/ERC20/ERC20.sol\":3638:3656  _allowances[owner] */\n          swap2\n          dup3\n          and\n            /* \"@openzeppelin/contracts/token/ERC20/ERC20.sol\":3612:3619  uint256 */\n          0x00\n            /* \"@openzeppelin/contracts/token/ERC20/ERC20.sol\":3638:3656  _allowances[owner] */\n          swap1\n          dup2\n          mstore\n            /* \"@openzeppelin/contracts/token/ERC20/ERC20.sol\":3638:3649  _allowances */\n          0x01\n            /* \"@openzeppelin/contracts/token/ERC20/ERC20.sol\":3638:3656  _allowances[owner] */\n          0x20\n          swap1\n          dup2\n          mstore\n          0x40\n          dup1\n          dup4\n          keccak256\n            /* \"@openzeppelin/contracts/token/ERC20/ERC20.sol\":3638:3665  _allowances[owner][spender] */\n          swap4\n          swap1\n          swap5\n          and\n          dup3\n          mstore\n          swap2\n          swap1\n          swap2\n          mstore\n          keccak256\n          sload\n          swap1\n            /* \"@openzeppelin/contracts/token/ERC20/ERC20.sol\":3532:3672  function allowance(address owner, address spender) public view virtual returns (uint256) {... */\n          jump\n            /* \"@openzeppelin/contracts/access/Ownable.sol\":2543:2758  function transferOwnership(address newOwner) public virtual onlyOwner {... */\n        tag_16:\n          tag_48\n          tag_74\n          calldatasize\n          0x04\n          tag_53\n          jump\t// in\n        tag_74:\n          tag_75\n          jump\t// in\n            /* \"referralSystem.sol\":4269:4426  function setMinter(address _minter) external onlyOwner {... */\n        tag_17:\n          tag_48\n          tag_77\n          calldatasize\n          0x04\n          tag_53\n          jump\t// in\n        tag_77:\n          tag_78\n          jump\t// in\n            /* \"@openzeppelin/contracts/token/ERC20/ERC20.sol\":1760:1849  function name() public view virtual returns (string memory) {... */\n        tag_22:\n            /* \"@openzeppelin/contracts/token/ERC20/ERC20.sol\":1805:1818  string memory */\n          0x60\n            /* \"@openzeppelin/contracts/token/ERC20/ERC20.sol\":1837:1842  _name */\n          0x03\n            /* \"@openzeppelin/contracts/token/ERC20/ERC20.sol\":1830:1842  return _name */\n          dup1\n          sload\n          tag_80\n          swap1\n          tag_81\n          jump\t// in\n        tag_80:\n          dup1\n          0x1f\n          add\n          0x20\n          dup1\n          swap2\n          div\n          mul\n          0x20\n          add\n          mload(0x40)\n          swap1\n          dup2\n          add\n          0x40\n          mstore\n          dup1\n          swap3\n          swap2\n          swap1\n          dup2\n          dup2\n          mstore\n          0x20\n          add\n          dup3\n          dup1\n          sload\n          tag_82\n          swap1\n          tag_81\n          jump\t// in\n        tag_82:\n          dup1\n          iszero\n          tag_83\n          jumpi\n          dup1\n          0x1f\n          lt\n          tag_84\n          jumpi\n          0x0100\n          dup1\n          dup4\n          sload\n          div\n          mul\n          dup4\n          mstore\n          swap2\n          0x20\n          add\n          swap2\n          jump(tag_83)\n        tag_84:\n          dup3\n          add\n          swap2\n          swap1\n          0x00\n          mstore\n          keccak256(0x00, 0x20)\n          swap1\n        tag_85:\n          dup2\n          sload\n          dup2\n          mstore\n          swap1\n          0x01\n          add\n          swap1\n          0x20\n          add\n          dup1\n          dup4\n          gt\n          tag_85\n          jumpi\n          dup3\n          swap1\n          sub\n          0x1f\n          and\n          dup3\n          add\n          swap2\n        tag_83:\n          pop\n          pop\n          pop\n          pop\n          pop\n          swap1\n          pop\n            /* \"@openzeppelin/contracts/token/ERC20/ERC20.sol\":1760:1849  function name() public view virtual returns (string memory) {... */\n          swap1\n          jump\t// out\n            /* \"@openzeppelin/contracts/token/ERC20/ERC20.sol\":3979:4165  function approve(address spender, uint256 value) public virtual returns (bool) {... */\n        tag_32:\n            /* \"@openzeppelin/contracts/token/ERC20/ERC20.sol\":4052:4056  bool */\n          0x00\n            /* \"@openzeppelin/contracts/utils/Context.sol\":735:745  msg.sender */\n          caller\n            /* \"@openzeppelin/contracts/token/ERC20/ERC20.sol\":4106:4137  _approve(owner, spender, value) */\n          tag_89\n            /* \"@openzeppelin/contracts/utils/Context.sol\":735:745  msg.sender */\n          dup2\n            /* \"@openzeppelin/contracts/token/ERC20/ERC20.sol\":4122:4129  spender */\n          dup6\n            /* \"@openzeppelin/contracts/token/ERC20/ERC20.sol\":4131:4136  value */\n          dup6\n            /* \"@openzeppelin/contracts/token/ERC20/ERC20.sol\":4106:4114  _approve */\n          tag_90\n            /* \"@openzeppelin/contracts/token/ERC20/ERC20.sol\":4106:4137  _approve(owner, spender, value) */\n          jump\t// in\n        tag_89:\n            /* \"@openzeppelin/contracts/token/ERC20/ERC20.sol\":4154:4158  true */\n          0x01\n            /* \"@openzeppelin/contracts/token/ERC20/ERC20.sol\":4147:4158  return true */\n          swap2\n          pop\n          pop\n            /* \"@openzeppelin/contracts/token/ERC20/ERC20.sol\":3979:4165  function approve(address spender, uint256 value) public virtual returns (bool) {... */\n        tag_86:\n          swap3\n          swap2\n          pop\n          pop\n          jump\t// out\n            /* \"@openzeppelin/contracts/token/ERC20/ERC20.sol\":4757:5001  function transferFrom(address from, address to, uint256 value) public virtual returns (bool) {... */\n        tag_42:\n            /* \"@openzeppelin/contracts/token/ERC20/ERC20.sol\":4844:4848  bool */\n          0x00\n            /* \"@openzeppelin/contracts/utils/Context.sol\":735:745  msg.sender */\n          caller\n            /* \"@openzeppelin/contracts/token/ERC20/ERC20.sol\":4900:4937  _spendAllowance(from, spender, value) */\n          tag_94\n            /* \"@openzeppelin/contracts/token/ERC20/ERC20.sol\":4916:4920  from */\n          dup6\n            /* \"@openzeppelin/contracts/utils/Context.sol\":735:745  msg.sender */\n          dup3\n            /* \"@openzeppelin/contracts/token/ERC20/ERC20.sol\":4931:4936  value */\n          dup6\n            /* \"@openzeppelin/contracts/token/ERC20/ERC20.sol\":4900:4915  _spendAllowance */\n          tag_95\n            /* \"@openzeppelin/contracts/token/ERC20/ERC20.sol\":4900:4937  _spendAllowance(from, spender, value) */\n          jump\t// in\n        tag_94:\n            /* \"@openzeppelin/contracts/token/ERC20/ERC20.sol\":4947:4973  _transfer(from, to, value) */\n          tag_96\n            /* \"@openzeppelin/contracts/token/ERC20/ERC20.sol\":4957:4961  from */\n          dup6\n            /* \"@openzeppelin/contracts/token/ERC20/ERC20.sol\":4963:4965  to */\n          dup6\n            /* \"@openzeppelin/contracts/token/ERC20/ERC20.sol\":4967:4972  value */\n          dup6\n            /* \"@openzeppelin/contracts/token/ERC20/ERC20.sol\":4947:4956  _transfer */\n          tag_97\n            /* \"@openzeppelin/contracts/token/ERC20/ERC20.sol\":4947:4973  _transfer(from, to, value) */\n          jump\t// in\n        tag_96:\n          pop\n            /* \"@openzeppelin/contracts/token/ERC20/ERC20.sol\":4990:4994  true */\n          0x01\n          swap5\n            /* \"@openzeppelin/contracts/token/ERC20/ERC20.sol\":4757:5001  function transferFrom(address from, address to, uint256 value) public virtual returns (bool) {... */\n          swap4\n          pop\n          pop\n          pop\n          pop\n          jump\t// out\n            /* \"referralSystem.sol\":4437:4539  function mint(address _to, uint256 _amount) external onlyMinter {... */\n        tag_50:\n            /* \"referralSystem.sol\":4202:4208  minter */\n          and(sub(shl(0xa0, 0x01), 0x01), sload(0x06))\n            /* \"referralSystem.sol\":4188:4198  msg.sender */\n          caller\n            /* \"referralSystem.sol\":4188:4208  msg.sender == minter */\n          eq\n            /* \"referralSystem.sol\":4180:4235  require(msg.sender == minter, \"Not authorized to mint\") */\n          tag_100\n          jumpi\n          mload(0x40)\n          shl(0xe5, 0x461bcd)\n          dup2\n          mstore\n            /* \"#utility.yul\":3113:3115   */\n          0x20\n            /* \"referralSystem.sol\":4180:4235  require(msg.sender == minter, \"Not authorized to mint\") */\n          0x04\n          dup3\n          add\n            /* \"#utility.yul\":3095:3116   */\n          mstore\n            /* \"#utility.yul\":3152:3154   */\n          0x16\n            /* \"#utility.yul\":3132:3150   */\n          0x24\n          dup3\n          add\n            /* \"#utility.yul\":3125:3155   */\n          mstore\n          shl(0x52, 0x139bdd08185d5d1a1bdc9a5e9959081d1bc81b5a5b9d)\n            /* \"#utility.yul\":3171:3189   */\n          0x44\n          dup3\n          add\n            /* \"#utility.yul\":3164:3216   */\n          mstore\n            /* \"#utility.yul\":3233:3251   */\n          0x64\n          add\n            /* \"referralSystem.sol\":4180:4235  require(msg.sender == minter, \"Not authorized to mint\") */\n        tag_101:\n          mload(0x40)\n          dup1\n          swap2\n          sub\n          swap1\n          revert\n        tag_100:\n            /* \"referralSystem.sol\":4512:4531  _mint(_to, _amount) */\n          tag_104\n            /* \"referralSystem.sol\":4518:4521  _to */\n          dup3\n            /* \"referralSystem.sol\":4523:4530  _amount */\n          dup3\n            /* \"referralSystem.sol\":4512:4517  _mint */\n          tag_105\n            /* \"referralSystem.sol\":4512:4531  _mint(_to, _amount) */\n          jump\t// in\n        tag_104:\n            /* \"referralSystem.sol\":4437:4539  function mint(address _to, uint256 _amount) external onlyMinter {... */\n          pop\n          pop\n          jump\t// out\n            /* \"@openzeppelin/contracts/access/Ownable.sol\":2293:2394  function renounceOwnership() public virtual onlyOwner {... */\n        tag_57:\n            /* \"@openzeppelin/contracts/access/Ownable.sol\":1531:1544  _checkOwner() */\n          tag_108\n            /* \"@openzeppelin/contracts/access/Ownable.sol\":1531:1542  _checkOwner */\n          tag_109\n            /* \"@openzeppelin/contracts/access/Ownable.sol\":1531:1544  _checkOwner() */\n          jump\t// in\n        tag_108:\n            /* \"@openzeppelin/contracts/access/Ownable.sol\":2357:2387  _transferOwnership(address(0)) */\n          tag_111\n            /* \"@openzeppelin/contracts/access/Ownable.sol\":2384:2385  0 */\n          0x00\n            /* \"@openzeppelin/contracts/access/Ownable.sol\":2357:2375  _transferOwnership */\n          tag_112\n            /* \"@openzeppelin/contracts/access/Ownable.sol\":2357:2387  _transferOwnership(address(0)) */\n          jump\t// in\n        tag_111:\n            /* \"@openzeppelin/contracts/access/Ownable.sol\":2293:2394  function renounceOwnership() public virtual onlyOwner {... */\n          jump\t// out\n            /* \"@openzeppelin/contracts/token/ERC20/ERC20.sol\":1962:2055  function symbol() public view virtual returns (string memory) {... */\n        tag_62:\n            /* \"@openzeppelin/contracts/token/ERC20/ERC20.sol\":2009:2022  string memory */\n          0x60\n            /* \"@openzeppelin/contracts/token/ERC20/ERC20.sol\":2041:2048  _symbol */\n          0x04\n            /* \"@openzeppelin/contracts/token/ERC20/ERC20.sol\":2034:2048  return _symbol */\n          dup1\n          sload\n          tag_80\n          swap1\n          tag_81\n          jump\t// in\n            /* \"@openzeppelin/contracts/token/ERC20/ERC20.sol\":3296:3474  function transfer(address to, uint256 value) public virtual returns (bool) {... */\n        tag_66:\n            /* \"@openzeppelin/contracts/token/ERC20/ERC20.sol\":3365:3369  bool */\n          0x00\n            /* \"@openzeppelin/contracts/utils/Context.sol\":735:745  msg.sender */\n          caller\n            /* \"@openzeppelin/contracts/token/ERC20/ERC20.sol\":3419:3446  _transfer(owner, to, value) */\n          tag_89\n            /* \"@openzeppelin/contracts/utils/Context.sol\":735:745  msg.sender */\n          dup2\n            /* \"@openzeppelin/contracts/token/ERC20/ERC20.sol\":3436:3438  to */\n          dup6\n            /* \"@openzeppelin/contracts/token/ERC20/ERC20.sol\":3440:3445  value */\n          dup6\n            /* \"@openzeppelin/contracts/token/ERC20/ERC20.sol\":3419:3428  _transfer */\n          tag_97\n            /* \"@openzeppelin/contracts/token/ERC20/ERC20.sol\":3419:3446  _transfer(owner, to, value) */\n          jump\t// in\n            /* \"@openzeppelin/contracts/access/Ownable.sol\":2543:2758  function transferOwnership(address newOwner) public virtual onlyOwner {... */\n        tag_75:\n            /* \"@openzeppelin/contracts/access/Ownable.sol\":1531:1544  _checkOwner() */\n          tag_125\n            /* \"@openzeppelin/contracts/access/Ownable.sol\":1531:1542  _checkOwner */\n          tag_109\n            /* \"@openzeppelin/contracts/access/Ownable.sol\":1531:1544  _checkOwner() */\n          jump\t// in\n        tag_125:\n          sub(shl(0xa0, 0x01), 0x01)\n            /* \"@openzeppelin/contracts/access/Ownable.sol\":2627:2649  newOwner == address(0) */\n          dup2\n          and\n            /* \"@openzeppelin/contracts/access/Ownable.sol\":2623:2714  if (newOwner == address(0)) {... */\n          tag_127\n          jumpi\n            /* \"@openzeppelin/contracts/access/Ownable.sol\":2672:2703  OwnableInvalidOwner(address(0)) */\n          mload(0x40)\n          shl(0xe0, 0x1e4fbdf7)\n          dup2\n          mstore\n            /* \"@openzeppelin/contracts/access/Ownable.sol\":2700:2701  0 */\n          0x00\n            /* \"@openzeppelin/contracts/access/Ownable.sol\":2672:2703  OwnableInvalidOwner(address(0)) */\n          0x04\n          dup3\n          add\n            /* \"#utility.yul\":583:634   */\n          mstore\n            /* \"#utility.yul\":556:574   */\n          0x24\n          add\n            /* \"@openzeppelin/contracts/access/Ownable.sol\":2672:2703  OwnableInvalidOwner(address(0)) */\n          tag_101\n            /* \"#utility.yul\":437:640   */\n          jump\n            /* \"@openzeppelin/contracts/access/Ownable.sol\":2623:2714  if (newOwner == address(0)) {... */\n        tag_127:\n            /* \"@openzeppelin/contracts/access/Ownable.sol\":2723:2751  _transferOwnership(newOwner) */\n          tag_129\n            /* \"@openzeppelin/contracts/access/Ownable.sol\":2742:2750  newOwner */\n          dup2\n            /* \"@openzeppelin/contracts/access/Ownable.sol\":2723:2741  _transferOwnership */\n          tag_112\n            /* \"@openzeppelin/contracts/access/Ownable.sol\":2723:2751  _transferOwnership(newOwner) */\n          jump\t// in\n        tag_129:\n            /* \"@openzeppelin/contracts/access/Ownable.sol\":2543:2758  function transferOwnership(address newOwner) public virtual onlyOwner {... */\n          pop\n          jump\t// out\n            /* \"referralSystem.sol\":4269:4426  function setMinter(address _minter) external onlyOwner {... */\n        tag_78:\n            /* \"@openzeppelin/contracts/access/Ownable.sol\":1531:1544  _checkOwner() */\n          tag_131\n            /* \"@openzeppelin/contracts/access/Ownable.sol\":1531:1542  _checkOwner */\n          tag_109\n            /* \"@openzeppelin/contracts/access/Ownable.sol\":1531:1544  _checkOwner() */\n          jump\t// in\n        tag_131:\n          sub(shl(0xa0, 0x01), 0x01)\n            /* \"referralSystem.sol\":4343:4364  _minter != address(0) */\n          dup2\n          and\n            /* \"referralSystem.sol\":4335:4391  require(_minter != address(0), \"Invalid minter address\") */\n          tag_133\n          jumpi\n          mload(0x40)\n          shl(0xe5, 0x461bcd)\n          dup2\n          mstore\n            /* \"#utility.yul\":3464:3466   */\n          0x20\n            /* \"referralSystem.sol\":4335:4391  require(_minter != address(0), \"Invalid minter address\") */\n          0x04\n          dup3\n          add\n            /* \"#utility.yul\":3446:3467   */\n          mstore\n            /* \"#utility.yul\":3503:3505   */\n          0x16\n            /* \"#utility.yul\":3483:3501   */\n          0x24\n          dup3\n          add\n            /* \"#utility.yul\":3476:3506   */\n          mstore\n          shl(0x50, 0x496e76616c6964206d696e7465722061646472657373)\n            /* \"#utility.yul\":3522:3540   */\n          0x44\n          dup3\n          add\n            /* \"#utility.yul\":3515:3567   */\n          mstore\n            /* \"#utility.yul\":3584:3602   */\n          0x64\n          add\n            /* \"referralSystem.sol\":4335:4391  require(_minter != address(0), \"Invalid minter address\") */\n          tag_101\n            /* \"#utility.yul\":3262:3608   */\n          jump\n            /* \"referralSystem.sol\":4335:4391  require(_minter != address(0), \"Invalid minter address\") */\n        tag_133:\n            /* \"referralSystem.sol\":4402:4408  minter */\n          0x06\n            /* \"referralSystem.sol\":4402:4418  minter = _minter */\n          dup1\n          sload\n          not(sub(shl(0xa0, 0x01), 0x01))\n          and\n          sub(shl(0xa0, 0x01), 0x01)\n          swap3\n          swap1\n          swap3\n          and\n          swap2\n          swap1\n          swap2\n          or\n          swap1\n          sstore\n            /* \"referralSystem.sol\":4269:4426  function setMinter(address _minter) external onlyOwner {... */\n          jump\t// out\n            /* \"@openzeppelin/contracts/token/ERC20/ERC20.sol\":8707:8835  function _approve(address owner, address spender, uint256 value) internal {... */\n        tag_90:\n            /* \"@openzeppelin/contracts/token/ERC20/ERC20.sol\":8791:8828  _approve(owner, spender, value, true) */\n          tag_138\n            /* \"@openzeppelin/contracts/token/ERC20/ERC20.sol\":8800:8805  owner */\n          dup4\n            /* \"@openzeppelin/contracts/token/ERC20/ERC20.sol\":8807:8814  spender */\n          dup4\n            /* \"@openzeppelin/contracts/token/ERC20/ERC20.sol\":8816:8821  value */\n          dup4\n            /* \"@openzeppelin/contracts/token/ERC20/ERC20.sol\":8823:8827  true */\n          0x01\n            /* \"@openzeppelin/contracts/token/ERC20/ERC20.sol\":8791:8799  _approve */\n          tag_139\n            /* \"@openzeppelin/contracts/token/ERC20/ERC20.sol\":8791:8828  _approve(owner, spender, value, true) */\n          jump\t// in\n        tag_138:\n            /* \"@openzeppelin/contracts/token/ERC20/ERC20.sol\":8707:8835  function _approve(address owner, address spender, uint256 value) internal {... */\n          pop\n          pop\n          pop\n          jump\t// out\n            /* \"@openzeppelin/contracts/token/ERC20/ERC20.sol\":10396:10872  function _spendAllowance(address owner, address spender, uint256 value) internal virtual {... */\n        tag_95:\n          sub(shl(0xa0, 0x01), 0x01)\n            /* \"@openzeppelin/contracts/token/ERC20/ERC20.sol\":3638:3656  _allowances[owner] */\n          dup4\n          dup2\n          and\n            /* \"@openzeppelin/contracts/token/ERC20/ERC20.sol\":10495:10519  uint256 currentAllowance */\n          0x00\n            /* \"@openzeppelin/contracts/token/ERC20/ERC20.sol\":3638:3656  _allowances[owner] */\n          swap1\n          dup2\n          mstore\n            /* \"@openzeppelin/contracts/token/ERC20/ERC20.sol\":3638:3649  _allowances */\n          0x01\n            /* \"@openzeppelin/contracts/token/ERC20/ERC20.sol\":3638:3656  _allowances[owner] */\n          0x20\n          swap1\n          dup2\n          mstore\n          0x40\n          dup1\n          dup4\n          keccak256\n            /* \"@openzeppelin/contracts/token/ERC20/ERC20.sol\":3638:3665  _allowances[owner][spender] */\n          swap4\n          dup7\n          and\n          dup4\n          mstore\n          swap3\n          swap1\n          mstore\n          keccak256\n          sload\n          not(0x00)\n            /* \"@openzeppelin/contracts/token/ERC20/ERC20.sol\":10561:10597  currentAllowance < type(uint256).max */\n          dup2\n          lt\n            /* \"@openzeppelin/contracts/token/ERC20/ERC20.sol\":10557:10866  if (currentAllowance < type(uint256).max) {... */\n          iszero\n          tag_146\n          jumpi\n            /* \"@openzeppelin/contracts/token/ERC20/ERC20.sol\":10636:10641  value */\n          dup2\n            /* \"@openzeppelin/contracts/token/ERC20/ERC20.sol\":10617:10633  currentAllowance */\n          dup2\n            /* \"@openzeppelin/contracts/token/ERC20/ERC20.sol\":10617:10641  currentAllowance < value */\n          lt\n            /* \"@openzeppelin/contracts/token/ERC20/ERC20.sol\":10613:10743  if (currentAllowance < value) {... */\n          iszero\n          tag_143\n          jumpi\n            /* \"@openzeppelin/contracts/token/ERC20/ERC20.sol\":10668:10728  ERC20InsufficientAllowance(spender, currentAllowance, value) */\n          mload(0x40)\n          shl(0xe1, 0x7dc7a0d9)\n          dup2\n          mstore\n          sub(shl(0xa0, 0x01), 0x01)\n            /* \"#utility.yul\":3833:3865   */\n          dup5\n          and\n            /* \"@openzeppelin/contracts/token/ERC20/ERC20.sol\":10668:10728  ERC20InsufficientAllowance(spender, currentAllowance, value) */\n          0x04\n          dup3\n          add\n            /* \"#utility.yul\":3815:3866   */\n          mstore\n            /* \"#utility.yul\":3882:3900   */\n          0x24\n          dup2\n          add\n            /* \"#utility.yul\":3875:3909   */\n          dup3\n          swap1\n          mstore\n            /* \"#utility.yul\":3925:3943   */\n          0x44\n          dup2\n          add\n            /* \"#utility.yul\":3918:3952   */\n          dup4\n          swap1\n          mstore\n            /* \"#utility.yul\":3788:3806   */\n          0x64\n          add\n            /* \"@openzeppelin/contracts/token/ERC20/ERC20.sol\":10668:10728  ERC20InsufficientAllowance(spender, currentAllowance, value) */\n          tag_101\n            /* \"#utility.yul\":3613:3958   */\n          jump\n            /* \"@openzeppelin/contracts/token/ERC20/ERC20.sol\":10613:10743  if (currentAllowance < value) {... */\n        tag_143:\n            /* \"@openzeppelin/contracts/token/ERC20/ERC20.sol\":10784:10841  _approve(owner, spender, currentAllowance - value, false) */\n          tag_146\n            /* \"@openzeppelin/contracts/token/ERC20/ERC20.sol\":10793:10798  owner */\n          dup5\n            /* \"@openzeppelin/contracts/token/ERC20/ERC20.sol\":10800:10807  spender */\n          dup5\n            /* \"@openzeppelin/contracts/token/ERC20/ERC20.sol\":10828:10833  value */\n          dup5\n            /* \"@openzeppelin/contracts/token/ERC20/ERC20.sol\":10809:10825  currentAllowance */\n          dup5\n            /* \"@openzeppelin/contracts/token/ERC20/ERC20.sol\":10809:10833  currentAllowance - value */\n          sub\n            /* \"@openzeppelin/contracts/token/ERC20/ERC20.sol\":10835:10840  false */\n          0x00\n            /* \"@openzeppelin/contracts/token/ERC20/ERC20.sol\":10784:10792  _approve */\n          tag_139\n            /* \"@openzeppelin/contracts/token/ERC20/ERC20.sol\":10784:10841  _approve(owner, spender, currentAllowance - value, false) */\n          jump\t// in\n        tag_146:\n            /* \"@openzeppelin/contracts/token/ERC20/ERC20.sol\":10485:10872  {... */\n          pop\n            /* \"@openzeppelin/contracts/token/ERC20/ERC20.sol\":10396:10872  function _spendAllowance(address owner, address spender, uint256 value) internal virtual {... */\n          pop\n          pop\n          pop\n          jump\t// out\n            /* \"@openzeppelin/contracts/token/ERC20/ERC20.sol\":5374:5674  function _transfer(address from, address to, uint256 value) internal {... */\n        tag_97:\n          sub(shl(0xa0, 0x01), 0x01)\n            /* \"@openzeppelin/contracts/token/ERC20/ERC20.sol\":5457:5475  from == address(0) */\n          dup4\n          and\n            /* \"@openzeppelin/contracts/token/ERC20/ERC20.sol\":5453:5539  if (from == address(0)) {... */\n          tag_148\n          jumpi\n            /* \"@openzeppelin/contracts/token/ERC20/ERC20.sol\":5498:5528  ERC20InvalidSender(address(0)) */\n          mload(0x40)\n          shl(0xe1, 0x4b637e8f)\n          dup2\n          mstore\n            /* \"@openzeppelin/contracts/token/ERC20/ERC20.sol\":5525:5526  0 */\n          0x00\n            /* \"@openzeppelin/contracts/token/ERC20/ERC20.sol\":5498:5528  ERC20InvalidSender(address(0)) */\n          0x04\n          dup3\n          add\n            /* \"#utility.yul\":583:634   */\n          mstore\n            /* \"#utility.yul\":556:574   */\n          0x24\n          add\n            /* \"@openzeppelin/contracts/token/ERC20/ERC20.sol\":5498:5528  ERC20InvalidSender(address(0)) */\n          tag_101\n            /* \"#utility.yul\":437:640   */\n          jump\n            /* \"@openzeppelin/contracts/token/ERC20/ERC20.sol\":5453:5539  if (from == address(0)) {... */\n        tag_148:\n          sub(shl(0xa0, 0x01), 0x01)\n            /* \"@openzeppelin/contracts/token/ERC20/ERC20.sol\":5552:5568  to == address(0) */\n          dup3\n          and\n            /* \"@openzeppelin/contracts/token/ERC20/ERC20.sol\":5548:5634  if (to == address(0)) {... */\n          tag_150\n          jumpi\n            /* \"@openzeppelin/contracts/token/ERC20/ERC20.sol\":5591:5623  ERC20InvalidReceiver(address(0)) */\n          mload(0x40)\n          shl(0xe0, 0xec442f05)\n          dup2\n          mstore\n            /* \"@openzeppelin/contracts/token/ERC20/ERC20.sol\":5620:5621  0 */\n          0x00\n            /* \"@openzeppelin/contracts/token/ERC20/ERC20.sol\":5591:5623  ERC20InvalidReceiver(address(0)) */\n          0x04\n          dup3\n          add\n            /* \"#utility.yul\":583:634   */\n          mstore\n            /* \"#utility.yul\":556:574   */\n          0x24\n          add\n            /* \"@openzeppelin/contracts/token/ERC20/ERC20.sol\":5591:5623  ERC20InvalidReceiver(address(0)) */\n          tag_101\n            /* \"#utility.yul\":437:640   */\n          jump\n            /* \"@openzeppelin/contracts/token/ERC20/ERC20.sol\":5548:5634  if (to == address(0)) {... */\n        tag_150:\n            /* \"@openzeppelin/contracts/token/ERC20/ERC20.sol\":5643:5667  _update(from, to, value) */\n          tag_138\n            /* \"@openzeppelin/contracts/token/ERC20/ERC20.sol\":5651:5655  from */\n          dup4\n            /* \"@openzeppelin/contracts/token/ERC20/ERC20.sol\":5657:5659  to */\n          dup4\n            /* \"@openzeppelin/contracts/token/ERC20/ERC20.sol\":5661:5666  value */\n          dup4\n            /* \"@openzeppelin/contracts/token/ERC20/ERC20.sol\":5643:5650  _update */\n          tag_153\n            /* \"@openzeppelin/contracts/token/ERC20/ERC20.sol\":5643:5667  _update(from, to, value) */\n          jump\t// in\n            /* \"@openzeppelin/contracts/token/ERC20/ERC20.sol\":7439:7647  function _mint(address account, uint256 value) internal {... */\n        tag_105:\n          sub(shl(0xa0, 0x01), 0x01)\n            /* \"@openzeppelin/contracts/token/ERC20/ERC20.sol\":7509:7530  account == address(0) */\n          dup3\n          and\n            /* \"@openzeppelin/contracts/token/ERC20/ERC20.sol\":7505:7596  if (account == address(0)) {... */\n          tag_155\n          jumpi\n            /* \"@openzeppelin/contracts/token/ERC20/ERC20.sol\":7553:7585  ERC20InvalidReceiver(address(0)) */\n          mload(0x40)\n          shl(0xe0, 0xec442f05)\n          dup2\n          mstore\n            /* \"@openzeppelin/contracts/token/ERC20/ERC20.sol\":7582:7583  0 */\n          0x00\n            /* \"@openzeppelin/contracts/token/ERC20/ERC20.sol\":7553:7585  ERC20InvalidReceiver(address(0)) */\n          0x04\n          dup3\n          add\n            /* \"#utility.yul\":583:634   */\n          mstore\n            /* \"#utility.yul\":556:574   */\n          0x24\n          add\n            /* \"@openzeppelin/contracts/token/ERC20/ERC20.sol\":7553:7585  ERC20InvalidReceiver(address(0)) */\n          tag_101\n            /* \"#utility.yul\":437:640   */\n          jump\n            /* \"@openzeppelin/contracts/token/ERC20/ERC20.sol\":7505:7596  if (account == address(0)) {... */\n        tag_155:\n            /* \"@openzeppelin/contracts/token/ERC20/ERC20.sol\":7605:7640  _update(address(0), account, value) */\n          tag_104\n            /* \"@openzeppelin/contracts/token/ERC20/ERC20.sol\":7621:7622  0 */\n          0x00\n            /* \"@openzeppelin/contracts/token/ERC20/ERC20.sol\":7625:7632  account */\n          dup4\n            /* \"@openzeppelin/contracts/token/ERC20/ERC20.sol\":7634:7639  value */\n          dup4\n            /* \"@openzeppelin/contracts/token/ERC20/ERC20.sol\":7605:7612  _update */\n          tag_153\n            /* \"@openzeppelin/contracts/token/ERC20/ERC20.sol\":7605:7640  _update(address(0), account, value) */\n          jump\t// in\n            /* \"@openzeppelin/contracts/access/Ownable.sol\":1796:1958  function _checkOwner() internal view virtual {... */\n        tag_109:\n            /* \"@openzeppelin/contracts/access/Ownable.sol\":1710:1716  _owner */\n          and(sub(shl(0xa0, 0x01), 0x01), sload(0x05))\n            /* \"@openzeppelin/contracts/utils/Context.sol\":735:745  msg.sender */\n          caller\n            /* \"@openzeppelin/contracts/access/Ownable.sol\":1855:1878  owner() != _msgSender() */\n          eq\n            /* \"@openzeppelin/contracts/access/Ownable.sol\":1851:1952  if (owner() != _msgSender()) {... */\n          tag_111\n          jumpi\n            /* \"@openzeppelin/contracts/access/Ownable.sol\":1901:1941  OwnableUnauthorizedAccount(_msgSender()) */\n          mload(0x40)\n          shl(0xe0, 0x118cdaa7)\n          dup2\n          mstore\n            /* \"@openzeppelin/contracts/utils/Context.sol\":735:745  msg.sender */\n          caller\n            /* \"@openzeppelin/contracts/access/Ownable.sol\":1901:1941  OwnableUnauthorizedAccount(_msgSender()) */\n          0x04\n          dup3\n          add\n            /* \"#utility.yul\":583:634   */\n          mstore\n            /* \"#utility.yul\":556:574   */\n          0x24\n          add\n            /* \"@openzeppelin/contracts/access/Ownable.sol\":1901:1941  OwnableUnauthorizedAccount(_msgSender()) */\n          tag_101\n            /* \"#utility.yul\":437:640   */\n          jump\n            /* \"@openzeppelin/contracts/access/Ownable.sol\":2912:3099  function _transferOwnership(address newOwner) internal virtual {... */\n        tag_112:\n            /* \"@openzeppelin/contracts/access/Ownable.sol\":3004:3010  _owner */\n          0x05\n          dup1\n          sload\n          sub(shl(0xa0, 0x01), 0x01)\n            /* \"@openzeppelin/contracts/access/Ownable.sol\":3020:3037  _owner = newOwner */\n          dup4\n          dup2\n          and\n          not(sub(shl(0xa0, 0x01), 0x01))\n          dup4\n          and\n          dup2\n          or\n          swap1\n          swap4\n          sstore\n            /* \"@openzeppelin/contracts/access/Ownable.sol\":3052:3092  OwnershipTransferred(oldOwner, newOwner) */\n          mload(0x40)\n            /* \"@openzeppelin/contracts/access/Ownable.sol\":3004:3010  _owner */\n          swap2\n          and\n          swap2\n            /* \"@openzeppelin/contracts/access/Ownable.sol\":3020:3037  _owner = newOwner */\n          swap1\n            /* \"@openzeppelin/contracts/access/Ownable.sol\":3004:3010  _owner */\n          dup3\n          swap1\n            /* \"@openzeppelin/contracts/access/Ownable.sol\":3052:3092  OwnershipTransferred(oldOwner, newOwner) */\n          0x8be0079c531659141344cd1fd0a4f28419497f9722a3daafe3b4186f6b6457e0\n          swap1\n            /* \"@openzeppelin/contracts/access/Ownable.sol\":2985:3001  address oldOwner */\n          0x00\n          swap1\n            /* \"@openzeppelin/contracts/access/Ownable.sol\":3052:3092  OwnershipTransferred(oldOwner, newOwner) */\n          log3\n            /* \"@openzeppelin/contracts/access/Ownable.sol\":2975:3099  {... */\n          pop\n            /* \"@openzeppelin/contracts/access/Ownable.sol\":2912:3099  function _transferOwnership(address newOwner) internal virtual {... */\n          pop\n          jump\t// out\n            /* \"@openzeppelin/contracts/token/ERC20/ERC20.sol\":9682:10114  function _approve(address owner, address spender, uint256 value, bool emitEvent) internal virtual {... */\n        tag_139:\n          sub(shl(0xa0, 0x01), 0x01)\n            /* \"@openzeppelin/contracts/token/ERC20/ERC20.sol\":9794:9813  owner == address(0) */\n          dup5\n          and\n            /* \"@openzeppelin/contracts/token/ERC20/ERC20.sol\":9790:9879  if (owner == address(0)) {... */\n          tag_166\n          jumpi\n            /* \"@openzeppelin/contracts/token/ERC20/ERC20.sol\":9836:9868  ERC20InvalidApprover(address(0)) */\n          mload(0x40)\n          shl(0xe0, 0xe602df05)\n          dup2\n          mstore\n            /* \"@openzeppelin/contracts/token/ERC20/ERC20.sol\":9865:9866  0 */\n          0x00\n            /* \"@openzeppelin/contracts/token/ERC20/ERC20.sol\":9836:9868  ERC20InvalidApprover(address(0)) */\n          0x04\n          dup3\n          add\n            /* \"#utility.yul\":583:634   */\n          mstore\n            /* \"#utility.yul\":556:574   */\n          0x24\n          add\n            /* \"@openzeppelin/contracts/token/ERC20/ERC20.sol\":9836:9868  ERC20InvalidApprover(address(0)) */\n          tag_101\n            /* \"#utility.yul\":437:640   */\n          jump\n            /* \"@openzeppelin/contracts/token/ERC20/ERC20.sol\":9790:9879  if (owner == address(0)) {... */\n        tag_166:\n          sub(shl(0xa0, 0x01), 0x01)\n            /* \"@openzeppelin/contracts/token/ERC20/ERC20.sol\":9892:9913  spender == address(0) */\n          dup4\n          and\n            /* \"@openzeppelin/contracts/token/ERC20/ERC20.sol\":9888:9978  if (spender == address(0)) {... */\n          tag_168\n          jumpi\n            /* \"@openzeppelin/contracts/token/ERC20/ERC20.sol\":9936:9967  ERC20InvalidSpender(address(0)) */\n          mload(0x40)\n          shl(0xe1, 0x4a1406b1)\n          dup2\n          mstore\n            /* \"@openzeppelin/contracts/token/ERC20/ERC20.sol\":9964:9965  0 */\n          0x00\n            /* \"@openzeppelin/contracts/token/ERC20/ERC20.sol\":9936:9967  ERC20InvalidSpender(address(0)) */\n          0x04\n          dup3\n          add\n            /* \"#utility.yul\":583:634   */\n          mstore\n            /* \"#utility.yul\":556:574   */\n          0x24\n          add\n            /* \"@openzeppelin/contracts/token/ERC20/ERC20.sol\":9936:9967  ERC20InvalidSpender(address(0)) */\n          tag_101\n            /* \"#utility.yul\":437:640   */\n          jump\n            /* \"@openzeppelin/contracts/token/ERC20/ERC20.sol\":9888:9978  if (spender == address(0)) {... */\n        tag_168:\n          sub(shl(0xa0, 0x01), 0x01)\n            /* \"@openzeppelin/contracts/token/ERC20/ERC20.sol\":9987:10005  _allowances[owner] */\n          dup1\n          dup6\n          and\n          0x00\n          swap1\n          dup2\n          mstore\n            /* \"@openzeppelin/contracts/token/ERC20/ERC20.sol\":9987:9998  _allowances */\n          0x01\n            /* \"@openzeppelin/contracts/token/ERC20/ERC20.sol\":9987:10005  _allowances[owner] */\n          0x20\n          swap1\n          dup2\n          mstore\n          0x40\n          dup1\n          dup4\n          keccak256\n            /* \"@openzeppelin/contracts/token/ERC20/ERC20.sol\":9987:10014  _allowances[owner][spender] */\n          swap4\n          dup8\n          and\n          dup4\n          mstore\n          swap3\n          swap1\n          mstore\n          keccak256\n            /* \"@openzeppelin/contracts/token/ERC20/ERC20.sol\":9987:10022  _allowances[owner][spender] = value */\n          dup3\n          swap1\n          sstore\n            /* \"@openzeppelin/contracts/token/ERC20/ERC20.sol\":10032:10108  if (emitEvent) {... */\n          dup1\n          iszero\n          tag_146\n          jumpi\n            /* \"@openzeppelin/contracts/token/ERC20/ERC20.sol\":10082:10089  spender */\n          dup3\n          sub(shl(0xa0, 0x01), 0x01)\n            /* \"@openzeppelin/contracts/token/ERC20/ERC20.sol\":10066:10097  Approval(owner, spender, value) */\n          and\n            /* \"@openzeppelin/contracts/token/ERC20/ERC20.sol\":10075:10080  owner */\n          dup5\n          sub(shl(0xa0, 0x01), 0x01)\n            /* \"@openzeppelin/contracts/token/ERC20/ERC20.sol\":10066:10097  Approval(owner, spender, value) */\n          and\n          0x8c5be1e5ebec7d5bd14f71427d1e84f3dd0314c0f7b2291e5b200ac8c7c3b925\n            /* \"@openzeppelin/contracts/token/ERC20/ERC20.sol\":10091:10096  value */\n          dup5\n            /* \"@openzeppelin/contracts/token/ERC20/ERC20.sol\":10066:10097  Approval(owner, spender, value) */\n          mload(0x40)\n          tag_171\n          swap2\n            /* \"#utility.yul\":1466:1491   */\n          dup2\n          mstore\n            /* \"#utility.yul\":1454:1456   */\n          0x20\n            /* \"#utility.yul\":1439:1457   */\n          add\n          swap1\n            /* \"#utility.yul\":1320:1497   */\n          jump\n            /* \"@openzeppelin/contracts/token/ERC20/ERC20.sol\":10066:10097  Approval(owner, spender, value) */\n        tag_171:\n          mload(0x40)\n          dup1\n          swap2\n          sub\n          swap1\n          log3\n            /* \"@openzeppelin/contracts/token/ERC20/ERC20.sol\":9682:10114  function _approve(address owner, address spender, uint256 value, bool emitEvent) internal virtual {... */\n          pop\n          pop\n          pop\n          pop\n          jump\t// out\n            /* \"@openzeppelin/contracts/token/ERC20/ERC20.sol\":5989:7096  function _update(address from, address to, uint256 value) internal virtual {... */\n        tag_153:\n          sub(shl(0xa0, 0x01), 0x01)\n            /* \"@openzeppelin/contracts/token/ERC20/ERC20.sol\":6078:6096  from == address(0) */\n          dup4\n          and\n            /* \"@openzeppelin/contracts/token/ERC20/ERC20.sol\":6074:6614  if (from == address(0)) {... */\n          tag_173\n          jumpi\n            /* \"@openzeppelin/contracts/token/ERC20/ERC20.sol\":6230:6235  value */\n          dup1\n            /* \"@openzeppelin/contracts/token/ERC20/ERC20.sol\":6214:6226  _totalSupply */\n          0x02\n          0x00\n            /* \"@openzeppelin/contracts/token/ERC20/ERC20.sol\":6214:6235  _totalSupply += value */\n          dup3\n          dup3\n          sload\n          tag_174\n          swap2\n          swap1\n          tag_175\n          jump\t// in\n        tag_174:\n          swap1\n          swap2\n          sstore\n          pop\n            /* \"@openzeppelin/contracts/token/ERC20/ERC20.sol\":6074:6614  if (from == address(0)) {... */\n          tag_176\n          swap1\n          pop\n          jump\n        tag_173:\n          sub(shl(0xa0, 0x01), 0x01)\n            /* \"@openzeppelin/contracts/token/ERC20/ERC20.sol\":6288:6303  _balances[from] */\n          dup4\n          and\n            /* \"@openzeppelin/contracts/token/ERC20/ERC20.sol\":6266:6285  uint256 fromBalance */\n          0x00\n            /* \"@openzeppelin/contracts/token/ERC20/ERC20.sol\":6288:6303  _balances[from] */\n          swap1\n          dup2\n          mstore\n          0x20\n          dup2\n          swap1\n          mstore\n          0x40\n          swap1\n          keccak256\n          sload\n            /* \"@openzeppelin/contracts/token/ERC20/ERC20.sol\":6321:6340  fromBalance < value */\n          dup2\n          dup2\n          lt\n            /* \"@openzeppelin/contracts/token/ERC20/ERC20.sol\":6317:6432  if (fromBalance < value) {... */\n          iszero\n          tag_177\n          jumpi\n            /* \"@openzeppelin/contracts/token/ERC20/ERC20.sol\":6367:6417  ERC20InsufficientBalance(from, fromBalance, value) */\n          mload(0x40)\n          shl(0xe2, 0x391434e3)\n          dup2\n          mstore\n          sub(shl(0xa0, 0x01), 0x01)\n            /* \"#utility.yul\":3833:3865   */\n          dup6\n          and\n            /* \"@openzeppelin/contracts/token/ERC20/ERC20.sol\":6367:6417  ERC20InsufficientBalance(from, fromBalance, value) */\n          0x04\n          dup3\n          add\n            /* \"#utility.yul\":3815:3866   */\n          mstore\n            /* \"#utility.yul\":3882:3900   */\n          0x24\n          dup2\n          add\n            /* \"#utility.yul\":3875:3909   */\n          dup3\n          swap1\n          mstore\n            /* \"#utility.yul\":3925:3943   */\n          0x44\n          dup2\n          add\n            /* \"#utility.yul\":3918:3952   */\n          dup4\n          swap1\n          mstore\n            /* \"#utility.yul\":3788:3806   */\n          0x64\n          add\n            /* \"@openzeppelin/contracts/token/ERC20/ERC20.sol\":6367:6417  ERC20InsufficientBalance(from, fromBalance, value) */\n          tag_101\n            /* \"#utility.yul\":3613:3958   */\n          jump\n            /* \"@openzeppelin/contracts/token/ERC20/ERC20.sol\":6317:6432  if (fromBalance < value) {... */\n        tag_177:\n          sub(shl(0xa0, 0x01), 0x01)\n            /* \"@openzeppelin/contracts/token/ERC20/ERC20.sol\":6552:6567  _balances[from] */\n          dup5\n          and\n            /* \"@openzeppelin/contracts/token/ERC20/ERC20.sol\":6552:6561  _balances */\n          0x00\n            /* \"@openzeppelin/contracts/token/ERC20/ERC20.sol\":6552:6567  _balances[from] */\n          swap1\n          dup2\n          mstore\n          0x20\n          dup2\n          swap1\n          mstore\n          0x40\n          swap1\n          keccak256\n            /* \"@openzeppelin/contracts/token/ERC20/ERC20.sol\":6570:6589  fromBalance - value */\n          swap1\n          dup3\n          swap1\n          sub\n            /* \"@openzeppelin/contracts/token/ERC20/ERC20.sol\":6552:6589  _balances[from] = fromBalance - value */\n          swap1\n          sstore\n            /* \"@openzeppelin/contracts/token/ERC20/ERC20.sol\":6074:6614  if (from == address(0)) {... */\n        tag_176:\n          sub(shl(0xa0, 0x01), 0x01)\n            /* \"@openzeppelin/contracts/token/ERC20/ERC20.sol\":6628:6644  to == address(0) */\n          dup3\n          and\n            /* \"@openzeppelin/contracts/token/ERC20/ERC20.sol\":6624:7049  if (to == address(0)) {... */\n          tag_179\n          jumpi\n            /* \"@openzeppelin/contracts/token/ERC20/ERC20.sol\":6791:6803  _totalSupply */\n          0x02\n            /* \"@openzeppelin/contracts/token/ERC20/ERC20.sol\":6791:6812  _totalSupply -= value */\n          dup1\n          sload\n          dup3\n          swap1\n          sub\n          swap1\n          sstore\n            /* \"@openzeppelin/contracts/token/ERC20/ERC20.sol\":6624:7049  if (to == address(0)) {... */\n          jump(tag_180)\n        tag_179:\n          sub(shl(0xa0, 0x01), 0x01)\n            /* \"@openzeppelin/contracts/token/ERC20/ERC20.sol\":7002:7015  _balances[to] */\n          dup3\n          and\n            /* \"@openzeppelin/contracts/token/ERC20/ERC20.sol\":7002:7011  _balances */\n          0x00\n            /* \"@openzeppelin/contracts/token/ERC20/ERC20.sol\":7002:7015  _balances[to] */\n          swap1\n          dup2\n          mstore\n          0x20\n          dup2\n          swap1\n          mstore\n          0x40\n          swap1\n          keccak256\n            /* \"@openzeppelin/contracts/token/ERC20/ERC20.sol\":7002:7024  _balances[to] += value */\n          dup1\n          sload\n          dup3\n          add\n          swap1\n          sstore\n            /* \"@openzeppelin/contracts/token/ERC20/ERC20.sol\":6624:7049  if (to == address(0)) {... */\n        tag_180:\n            /* \"@openzeppelin/contracts/token/ERC20/ERC20.sol\":7079:7081  to */\n          dup2\n          sub(shl(0xa0, 0x01), 0x01)\n            /* \"@openzeppelin/contracts/token/ERC20/ERC20.sol\":7064:7089  Transfer(from, to, value) */\n          and\n            /* \"@openzeppelin/contracts/token/ERC20/ERC20.sol\":7073:7077  from */\n          dup4\n          sub(shl(0xa0, 0x01), 0x01)\n            /* \"@openzeppelin/contracts/token/ERC20/ERC20.sol\":7064:7089  Transfer(from, to, value) */\n          and\n          0xddf252ad1be2c89b69c2b068fc378daa952ba7f163c4a11628f55a4df523b3ef\n            /* \"@openzeppelin/contracts/token/ERC20/ERC20.sol\":7083:7088  value */\n          dup4\n            /* \"@openzeppelin/contracts/token/ERC20/ERC20.sol\":7064:7089  Transfer(from, to, value) */\n          mload(0x40)\n          tag_181\n          swap2\n            /* \"#utility.yul\":1466:1491   */\n          dup2\n          mstore\n            /* \"#utility.yul\":1454:1456   */\n          0x20\n            /* \"#utility.yul\":1439:1457   */\n          add\n          swap1\n            /* \"#utility.yul\":1320:1497   */\n          jump\n            /* \"@openzeppelin/contracts/token/ERC20/ERC20.sol\":7064:7089  Transfer(from, to, value) */\n        tag_181:\n          mload(0x40)\n          dup1\n          swap2\n          sub\n          swap1\n          log3\n            /* \"@openzeppelin/contracts/token/ERC20/ERC20.sol\":5989:7096  function _update(address from, address to, uint256 value) internal virtual {... */\n          pop\n          pop\n          pop\n          jump\t// out\n            /* \"#utility.yul\":14:432   */\n        tag_24:\n            /* \"#utility.yul\":163:165   */\n          0x20\n            /* \"#utility.yul\":152:161   */\n          dup2\n            /* \"#utility.yul\":145:166   */\n          mstore\n            /* \"#utility.yul\":126:130   */\n          0x00\n            /* \"#utility.yul\":195:201   */\n          dup3\n            /* \"#utility.yul\":189:202   */\n          mload\n            /* \"#utility.yul\":238:244   */\n          dup1\n            /* \"#utility.yul\":233:235   */\n          0x20\n            /* \"#utility.yul\":222:231   */\n          dup5\n            /* \"#utility.yul\":218:236   */\n          add\n            /* \"#utility.yul\":211:245   */\n          mstore\n            /* \"#utility.yul\":297:303   */\n          dup1\n            /* \"#utility.yul\":292:294   */\n          0x20\n            /* \"#utility.yul\":284:290   */\n          dup6\n            /* \"#utility.yul\":280:295   */\n          add\n            /* \"#utility.yul\":275:277   */\n          0x40\n            /* \"#utility.yul\":264:273   */\n          dup6\n            /* \"#utility.yul\":260:278   */\n          add\n            /* \"#utility.yul\":254:304   */\n          mcopy\n            /* \"#utility.yul\":353:354   */\n          0x00\n            /* \"#utility.yul\":348:350   */\n          0x40\n            /* \"#utility.yul\":339:345   */\n          dup3\n            /* \"#utility.yul\":328:337   */\n          dup6\n            /* \"#utility.yul\":324:346   */\n          add\n            /* \"#utility.yul\":320:351   */\n          add\n            /* \"#utility.yul\":313:355   */\n          mstore\n            /* \"#utility.yul\":423:425   */\n          0x40\n            /* \"#utility.yul\":416:418   */\n          0x1f\n            /* \"#utility.yul\":412:419   */\n          not\n            /* \"#utility.yul\":407:409   */\n          0x1f\n            /* \"#utility.yul\":399:405   */\n          dup4\n            /* \"#utility.yul\":395:410   */\n          add\n            /* \"#utility.yul\":391:420   */\n          and\n            /* \"#utility.yul\":380:389   */\n          dup5\n            /* \"#utility.yul\":376:421   */\n          add\n            /* \"#utility.yul\":372:426   */\n          add\n            /* \"#utility.yul\":364:426   */\n          swap2\n          pop\n          pop\n            /* \"#utility.yul\":14:432   */\n          swap3\n          swap2\n          pop\n          pop\n          jump\t// out\n            /* \"#utility.yul\":645:818   */\n        tag_182:\n            /* \"#utility.yul\":713:733   */\n          dup1\n          calldataload\n          sub(shl(0xa0, 0x01), 0x01)\n            /* \"#utility.yul\":762:793   */\n          dup2\n          and\n            /* \"#utility.yul\":752:794   */\n          dup2\n          eq\n            /* \"#utility.yul\":742:812   */\n          tag_187\n          jumpi\n            /* \"#utility.yul\":808:809   */\n          0x00\n            /* \"#utility.yul\":805:806   */\n          0x00\n            /* \"#utility.yul\":798:810   */\n          revert\n            /* \"#utility.yul\":742:812   */\n        tag_187:\n            /* \"#utility.yul\":645:818   */\n          swap2\n          swap1\n          pop\n          jump\t// out\n            /* \"#utility.yul\":823:1123   */\n        tag_31:\n            /* \"#utility.yul\":891:897   */\n          0x00\n            /* \"#utility.yul\":899:905   */\n          0x00\n            /* \"#utility.yul\":952:954   */\n          0x40\n            /* \"#utility.yul\":940:949   */\n          dup4\n            /* \"#utility.yul\":931:938   */\n          dup6\n            /* \"#utility.yul\":927:950   */\n          sub\n            /* \"#utility.yul\":923:955   */\n          slt\n            /* \"#utility.yul\":920:972   */\n          iszero\n          tag_189\n          jumpi\n            /* \"#utility.yul\":968:969   */\n          0x00\n            /* \"#utility.yul\":965:966   */\n          0x00\n            /* \"#utility.yul\":958:970   */\n          revert\n            /* \"#utility.yul\":920:972   */\n        tag_189:\n            /* \"#utility.yul\":991:1020   */\n          tag_190\n            /* \"#utility.yul\":1010:1019   */\n          dup4\n            /* \"#utility.yul\":991:1020   */\n          tag_182\n          jump\t// in\n        tag_190:\n            /* \"#utility.yul\":981:1020   */\n          swap5\n            /* \"#utility.yul\":1089:1091   */\n          0x20\n            /* \"#utility.yul\":1074:1092   */\n          swap4\n          swap1\n          swap4\n          add\n            /* \"#utility.yul\":1061:1093   */\n          calldataload\n          swap4\n          pop\n          pop\n          pop\n            /* \"#utility.yul\":823:1123   */\n          jump\t// out\n            /* \"#utility.yul\":1502:1876   */\n        tag_41:\n            /* \"#utility.yul\":1579:1585   */\n          0x00\n            /* \"#utility.yul\":1587:1593   */\n          0x00\n            /* \"#utility.yul\":1595:1601   */\n          0x00\n            /* \"#utility.yul\":1648:1650   */\n          0x60\n            /* \"#utility.yul\":1636:1645   */\n          dup5\n            /* \"#utility.yul\":1627:1634   */\n          dup7\n            /* \"#utility.yul\":1623:1646   */\n          sub\n            /* \"#utility.yul\":1619:1651   */\n          slt\n            /* \"#utility.yul\":1616:1668   */\n          iszero\n          tag_194\n          jumpi\n            /* \"#utility.yul\":1664:1665   */\n          0x00\n            /* \"#utility.yul\":1661:1662   */\n          0x00\n            /* \"#utility.yul\":1654:1666   */\n          revert\n            /* \"#utility.yul\":1616:1668   */\n        tag_194:\n            /* \"#utility.yul\":1687:1716   */\n          tag_195\n            /* \"#utility.yul\":1706:1715   */\n          dup5\n            /* \"#utility.yul\":1687:1716   */\n          tag_182\n          jump\t// in\n        tag_195:\n            /* \"#utility.yul\":1677:1716   */\n          swap3\n          pop\n            /* \"#utility.yul\":1735:1773   */\n          tag_196\n            /* \"#utility.yul\":1769:1771   */\n          0x20\n            /* \"#utility.yul\":1758:1767   */\n          dup6\n            /* \"#utility.yul\":1754:1772   */\n          add\n            /* \"#utility.yul\":1735:1773   */\n          tag_182\n          jump\t// in\n        tag_196:\n            /* \"#utility.yul\":1502:1876   */\n          swap3\n          swap6\n            /* \"#utility.yul\":1725:1773   */\n          swap3\n          swap5\n          pop\n          pop\n          pop\n            /* \"#utility.yul\":1842:1844   */\n          0x40\n            /* \"#utility.yul\":1827:1845   */\n          swap2\n          swap1\n          swap2\n          add\n            /* \"#utility.yul\":1814:1846   */\n          calldataload\n          swap1\n            /* \"#utility.yul\":1502:1876   */\n          jump\t// out\n            /* \"#utility.yul\":2070:2256   */\n        tag_53:\n            /* \"#utility.yul\":2129:2135   */\n          0x00\n            /* \"#utility.yul\":2182:2184   */\n          0x20\n            /* \"#utility.yul\":2170:2179   */\n          dup3\n            /* \"#utility.yul\":2161:2168   */\n          dup5\n            /* \"#utility.yul\":2157:2180   */\n          sub\n            /* \"#utility.yul\":2153:2185   */\n          slt\n            /* \"#utility.yul\":2150:2202   */\n          iszero\n          tag_199\n          jumpi\n            /* \"#utility.yul\":2198:2199   */\n          0x00\n            /* \"#utility.yul\":2195:2196   */\n          0x00\n            /* \"#utility.yul\":2188:2200   */\n          revert\n            /* \"#utility.yul\":2150:2202   */\n        tag_199:\n            /* \"#utility.yul\":2221:2250   */\n          tag_200\n            /* \"#utility.yul\":2240:2249   */\n          dup3\n            /* \"#utility.yul\":2221:2250   */\n          tag_182\n          jump\t// in\n        tag_200:\n            /* \"#utility.yul\":2211:2250   */\n          swap4\n            /* \"#utility.yul\":2070:2256   */\n          swap3\n          pop\n          pop\n          pop\n          jump\t// out\n            /* \"#utility.yul\":2261:2521   */\n        tag_70:\n            /* \"#utility.yul\":2329:2335   */\n          0x00\n            /* \"#utility.yul\":2337:2343   */\n          0x00\n            /* \"#utility.yul\":2390:2392   */\n          0x40\n            /* \"#utility.yul\":2378:2387   */\n          dup4\n            /* \"#utility.yul\":2369:2376   */\n          dup6\n            /* \"#utility.yul\":2365:2388   */\n          sub\n            /* \"#utility.yul\":2361:2393   */\n          slt\n            /* \"#utility.yul\":2358:2410   */\n          iszero\n          tag_202\n          jumpi\n            /* \"#utility.yul\":2406:2407   */\n          0x00\n            /* \"#utility.yul\":2403:2404   */\n          0x00\n            /* \"#utility.yul\":2396:2408   */\n          revert\n            /* \"#utility.yul\":2358:2410   */\n        tag_202:\n            /* \"#utility.yul\":2429:2458   */\n          tag_203\n            /* \"#utility.yul\":2448:2457   */\n          dup4\n            /* \"#utility.yul\":2429:2458   */\n          tag_182\n          jump\t// in\n        tag_203:\n            /* \"#utility.yul\":2419:2458   */\n          swap2\n          pop\n            /* \"#utility.yul\":2477:2515   */\n          tag_204\n            /* \"#utility.yul\":2511:2513   */\n          0x20\n            /* \"#utility.yul\":2500:2509   */\n          dup5\n            /* \"#utility.yul\":2496:2514   */\n          add\n            /* \"#utility.yul\":2477:2515   */\n          tag_182\n          jump\t// in\n        tag_204:\n            /* \"#utility.yul\":2467:2515   */\n          swap1\n          pop\n            /* \"#utility.yul\":2261:2521   */\n          swap3\n          pop\n          swap3\n          swap1\n          pop\n          jump\t// out\n            /* \"#utility.yul\":2526:2906   */\n        tag_81:\n            /* \"#utility.yul\":2605:2606   */\n          0x01\n            /* \"#utility.yul\":2601:2613   */\n          dup2\n          dup2\n          shr\n          swap1\n            /* \"#utility.yul\":2648:2660   */\n          dup3\n          and\n          dup1\n            /* \"#utility.yul\":2669:2730   */\n          tag_206\n          jumpi\n            /* \"#utility.yul\":2723:2727   */\n          0x7f\n            /* \"#utility.yul\":2715:2721   */\n          dup3\n            /* \"#utility.yul\":2711:2728   */\n          and\n            /* \"#utility.yul\":2701:2728   */\n          swap2\n          pop\n            /* \"#utility.yul\":2669:2730   */\n        tag_206:\n            /* \"#utility.yul\":2776:2778   */\n          0x20\n            /* \"#utility.yul\":2768:2774   */\n          dup3\n            /* \"#utility.yul\":2765:2779   */\n          lt\n            /* \"#utility.yul\":2745:2763   */\n          dup2\n            /* \"#utility.yul\":2742:2780   */\n          sub\n            /* \"#utility.yul\":2739:2900   */\n          tag_207\n          jumpi\n            /* \"#utility.yul\":2822:2832   */\n          0x4e487b71\n            /* \"#utility.yul\":2817:2820   */\n          0xe0\n            /* \"#utility.yul\":2813:2833   */\n          shl\n            /* \"#utility.yul\":2810:2811   */\n          0x00\n            /* \"#utility.yul\":2803:2834   */\n          mstore\n            /* \"#utility.yul\":2857:2861   */\n          0x22\n            /* \"#utility.yul\":2854:2855   */\n          0x04\n            /* \"#utility.yul\":2847:2862   */\n          mstore\n            /* \"#utility.yul\":2885:2889   */\n          0x24\n            /* \"#utility.yul\":2882:2883   */\n          0x00\n            /* \"#utility.yul\":2875:2890   */\n          revert\n            /* \"#utility.yul\":2739:2900   */\n        tag_207:\n          pop\n            /* \"#utility.yul\":2526:2906   */\n          swap2\n          swap1\n          pop\n          jump\t// out\n            /* \"#utility.yul\":3963:4185   */\n        tag_175:\n            /* \"#utility.yul\":4028:4037   */\n          dup1\n          dup3\n          add\n            /* \"#utility.yul\":4049:4059   */\n          dup1\n          dup3\n          gt\n            /* \"#utility.yul\":4046:4179   */\n          iszero\n          tag_86\n          jumpi\n            /* \"#utility.yul\":4101:4111   */\n          0x4e487b71\n            /* \"#utility.yul\":4096:4099   */\n          0xe0\n            /* \"#utility.yul\":4092:4112   */\n          shl\n            /* \"#utility.yul\":4089:4090   */\n          0x00\n            /* \"#utility.yul\":4082:4113   */\n          mstore\n            /* \"#utility.yul\":4136:4140   */\n          0x11\n            /* \"#utility.yul\":4133:4134   */\n          0x04\n            /* \"#utility.yul\":4126:4141   */\n          mstore\n            /* \"#utility.yul\":4164:4168   */\n          0x24\n            /* \"#utility.yul\":4161:4162   */\n          0x00\n            /* \"#utility.yul\":4154:4169   */\n          revert\n\n        auxdata: 0xa2646970667358221220e2aafadfd04e319f9b991851472f1f64f08f4e8600013ba58c5ad6d19267756064736f6c634300081d0033\n    }\n}\n",
				"bytecode": {
					"linkReferences": {},
					"object": "60806040526802b5e3af16b188000060035568015af1d78b58c40000600455348015610029575f5ffd5b50338061004f57604051631e4fbdf760e01b81525f600482015260240160405180910390fd5b610058816100ae565b50604051610065906100fd565b604051809103905ff08015801561007e573d5f5f3e3d5ffd5b50600180546001600160a01b03929092166001600160a01b0319928316179055600280549091163317905561010a565b5f80546001600160a01b038381166001600160a01b0319831681178455604051919092169283917f8be0079c531659141344cd1fd0a4f28419497f9722a3daafe3b4186f6b6457e09190a35050565b610c1180610afc83390190565b6109e5806101175f395ff3fe608060405234801561000f575f5ffd5b50600436106100f0575f3560e01c8063865aa80011610093578063d499bc8511610063578063d499bc85146101fa578063d62c11641461021a578063f2fde38b1461024c578063f7c618c11461025f575f5ffd5b8063865aa8001461019c5780638da5cb5b146101af578063d113ef7c146101bf578063d21cacdf146101d2575f5ffd5b8063544ef43e116100ce578063544ef43e146101635780635539d4001461016c57806355bf73be1461017f578063715018a614610194575f5ffd5b80630763f34e146100f457806327b692f2146101105780632c070d7d1461013b575b5f5ffd5b6100fd60035481565b6040519081526020015b60405180910390f35b61012361011e3660046108cb565b610272565b6040516001600160a01b039091168152602001610107565b6100fd6101493660046108f3565b6001600160a01b03165f9081526007602052604090205490565b6100fd60045481565b600254610123906001600160a01b031681565b61019261018d366004610913565b6102a6565b005b610192610678565b6101926101aa3660046108f3565b61068b565b5f546001600160a01b0316610123565b6101926101cd366004610944565b610736565b6101236101e03660046108f3565b60066020525f90815260409020546001600160a01b031681565b61020d6102083660046108f3565b610785565b6040516101079190610964565b61023c6102283660046108f3565b60056020525f908152604090205460ff1681565b6040519015158152602001610107565b61019261025a3660046108f3565b6107f8565b600154610123906001600160a01b031681565b6007602052815f5260405f20818154811061028b575f80fd5b5f918252602090912001546001600160a01b03169150829050565b6002546001600160a01b031633146102f65760405162461bcd60e51b815260206004820152600e60248201526d139bdd08185d5d1a1bdc9a5e995960921b60448201526064015b60405180910390fd5b6001600160a01b0381161580159061031657506001600160a01b03821615155b6103545760405162461bcd60e51b815260206004820152600f60248201526e496e76616c6964206164647265737360881b60448201526064016102ed565b816001600160a01b0316816001600160a01b0316036103b55760405162461bcd60e51b815260206004820152601960248201527f53656c662d726566657272616c206e6f7420616c6c6f7765640000000000000060448201526064016102ed565b6001600160a01b0381165f9081526005602052604090205460ff16156104155760405162461bcd60e51b8152602060048201526015602482015274155cd95c88185b1c9958591e481c9959995c9c9959605a1b60448201526064016102ed565b815b6001600160a01b038116156104a657816001600160a01b0316816001600160a01b0316036104875760405162461bcd60e51b815260206004820152601a60248201527f43697263756c617220726566657272616c20646574656374656400000000000060448201526064016102ed565b6001600160a01b039081165f9081526006602052604090205416610417565b6001600160a01b038281165f818152600560209081526040808320805460ff19166001908117909155600683528184208054968a166001600160a01b03199788168117909155808552600784528285208054928301815585529383902001805490951684179094559251428152919290917f90eab5d1df713df401d810f26aa9718d2b9e6894af1eb4890a332d3b185dc0e5910160405180910390a36001546003546040516340c10f1960e01b81526001600160a01b03868116600483015260248201929092529116906340c10f19906044015f604051808303815f87803b158015610590575f5ffd5b505af11580156105a2573d5f5f3e3d5ffd5b5050600154600480546040516340c10f1960e01b81526001600160a01b0390931694506340c10f1993506105ec928792016001600160a01b03929092168252602082015260400190565b5f604051808303815f87803b158015610603575f5ffd5b505af1158015610615573d5f5f3e3d5ffd5b50505050816001600160a01b0316836001600160a01b03167f1a4dfb075362880d700ede1cc31d284b1c3b2811e9f0b2ddde7bdb270042c13f60035460045460405161066b929190918252602082015260400190565b60405180910390a3505050565b610680610835565b6106895f610861565b565b610693610835565b6001600160a01b0381166106db5760405162461bcd60e51b815260206004820152600f60248201526e496e76616c6964206164647265737360881b60448201526064016102ed565b6002546040516001600160a01b038084169216907f86c40840b13041fdf3b73496c0f80da8bef6a34805cb1ca99e01fd3e13d4b196905f90a3600280546001600160a01b0319166001600160a01b0392909216919091179055565b61073e610835565b6003829055600481905560408051838152602081018390527f457ddc8afba479da2edda90d1b2c537cee16f285d7eb06529b28aabe56a0e974910160405180910390a15050565b6001600160a01b0381165f908152600760209081526040918290208054835181840281018401909452808452606093928301828280156107ec57602002820191905f5260205f20905b81546001600160a01b031681526001909101906020018083116107ce575b50505050509050919050565b610800610835565b6001600160a01b03811661082957604051631e4fbdf760e01b81525f60048201526024016102ed565b61083281610861565b50565b5f546001600160a01b031633146106895760405163118cdaa760e01b81523360048201526024016102ed565b5f80546001600160a01b038381166001600160a01b0319831681178455604051919092169283917f8be0079c531659141344cd1fd0a4f28419497f9722a3daafe3b4186f6b6457e09190a35050565b80356001600160a01b03811681146108c6575f5ffd5b919050565b5f5f604083850312156108dc575f5ffd5b6108e5836108b0565b946020939093013593505050565b5f60208284031215610903575f5ffd5b61090c826108b0565b9392505050565b5f5f60408385031215610924575f5ffd5b61092d836108b0565b915061093b602084016108b0565b90509250929050565b5f5f60408385031215610955575f5ffd5b50508035926020909101359150565b602080825282518282018190525f918401906040840190835b818110156109a45783516001600160a01b031683526020938401939092019160010161097d565b50909594505050505056fea2646970667358221220186cff24bf81d2c40266c4870451e9671490c61cbf4e6dbec2cc81c750c4f1c364736f6c634300081d0033608060405234801561000f575f5ffd5b50336040518060400160405280600f81526020016e149959995c9c985b0814995dd85c99608a1b8152506040518060400160405280600381526020016229232960e91b815250816003908161006491906101ab565b50600461007182826101ab565b5050506001600160a01b0381166100a157604051631e4fbdf760e01b81525f600482015260240160405180910390fd5b6100aa816100c2565b50600680546001600160a01b03191633179055610265565b600580546001600160a01b038381166001600160a01b0319831681179093556040519116919082907f8be0079c531659141344cd1fd0a4f28419497f9722a3daafe3b4186f6b6457e0905f90a35050565b634e487b7160e01b5f52604160045260245ffd5b600181811c9082168061013b57607f821691505b60208210810361015957634e487b7160e01b5f52602260045260245ffd5b50919050565b601f8211156101a657805f5260205f20601f840160051c810160208510156101845750805b601f840160051c820191505b818110156101a3575f8155600101610190565b50505b505050565b81516001600160401b038111156101c4576101c4610113565b6101d8816101d28454610127565b8461015f565b6020601f82116001811461020a575f83156101f35750848201515b5f19600385901b1c1916600184901b1784556101a3565b5f84815260208120601f198516915b828110156102395787850151825560209485019460019092019101610219565b508482101561025657868401515f19600387901b60f8161c191681555b50505050600190811b01905550565b61099f806102725f395ff3fe608060405234801561000f575f5ffd5b50600436106100f0575f3560e01c806370a0823111610093578063a9059cbb11610063578063a9059cbb146101f2578063dd62ed3e14610205578063f2fde38b1461023d578063fca3b5aa14610250575f5ffd5b806370a08231146101a9578063715018a6146101d15780638da5cb5b146101d957806395d89b41146101ea575f5ffd5b806318160ddd116100ce57806318160ddd1461016057806323b872dd14610172578063313ce5671461018557806340c10f1914610194575f5ffd5b806306fdde03146100f45780630754617214610112578063095ea7b31461013d575b5f5ffd5b6100fc610263565b604051610109919061080f565b60405180910390f35b600654610125906001600160a01b031681565b6040516001600160a01b039091168152602001610109565b61015061014b36600461085f565b6102f3565b6040519015158152602001610109565b6002545b604051908152602001610109565b610150610180366004610887565b61030c565b60405160128152602001610109565b6101a76101a236600461085f565b61032f565b005b6101646101b73660046108c1565b6001600160a01b03165f9081526020819052604090205490565b6101a7610395565b6005546001600160a01b0316610125565b6100fc6103a8565b61015061020036600461085f565b6103b7565b6101646102133660046108e1565b6001600160a01b039182165f90815260016020908152604080832093909416825291909152205490565b6101a761024b3660046108c1565b6103c4565b6101a761025e3660046108c1565b610401565b60606003805461027290610912565b80601f016020809104026020016040519081016040528092919081815260200182805461029e90610912565b80156102e95780601f106102c0576101008083540402835291602001916102e9565b820191905f5260205f20905b8154815290600101906020018083116102cc57829003601f168201915b5050505050905090565b5f3361030081858561047a565b60019150505b92915050565b5f3361031985828561048c565b610324858585610508565b506001949350505050565b6006546001600160a01b031633146103875760405162461bcd60e51b8152602060048201526016602482015275139bdd08185d5d1a1bdc9a5e9959081d1bc81b5a5b9d60521b60448201526064015b60405180910390fd5b6103918282610565565b5050565b61039d610599565b6103a65f6105c6565b565b60606004805461027290610912565b5f33610300818585610508565b6103cc610599565b6001600160a01b0381166103f557604051631e4fbdf760e01b81525f600482015260240161037e565b6103fe816105c6565b50565b610409610599565b6001600160a01b0381166104585760405162461bcd60e51b8152602060048201526016602482015275496e76616c6964206d696e746572206164647265737360501b604482015260640161037e565b600680546001600160a01b0319166001600160a01b0392909216919091179055565b6104878383836001610617565b505050565b6001600160a01b038381165f908152600160209081526040808320938616835292905220545f1981101561050257818110156104f457604051637dc7a0d960e11b81526001600160a01b0384166004820152602481018290526044810183905260640161037e565b61050284848484035f610617565b50505050565b6001600160a01b03831661053157604051634b637e8f60e11b81525f600482015260240161037e565b6001600160a01b03821661055a5760405163ec442f0560e01b81525f600482015260240161037e565b6104878383836106e9565b6001600160a01b03821661058e5760405163ec442f0560e01b81525f600482015260240161037e565b6103915f83836106e9565b6005546001600160a01b031633146103a65760405163118cdaa760e01b815233600482015260240161037e565b600580546001600160a01b038381166001600160a01b0319831681179093556040519116919082907f8be0079c531659141344cd1fd0a4f28419497f9722a3daafe3b4186f6b6457e0905f90a35050565b6001600160a01b0384166106405760405163e602df0560e01b81525f600482015260240161037e565b6001600160a01b03831661066957604051634a1406b160e11b81525f600482015260240161037e565b6001600160a01b038085165f908152600160209081526040808320938716835292905220829055801561050257826001600160a01b0316846001600160a01b03167f8c5be1e5ebec7d5bd14f71427d1e84f3dd0314c0f7b2291e5b200ac8c7c3b925846040516106db91815260200190565b60405180910390a350505050565b6001600160a01b038316610713578060025f828254610708919061094a565b909155506107839050565b6001600160a01b0383165f90815260208190526040902054818110156107655760405163391434e360e21b81526001600160a01b0385166004820152602481018290526044810183905260640161037e565b6001600160a01b0384165f9081526020819052604090209082900390555b6001600160a01b03821661079f576002805482900390556107bd565b6001600160a01b0382165f9081526020819052604090208054820190555b816001600160a01b0316836001600160a01b03167fddf252ad1be2c89b69c2b068fc378daa952ba7f163c4a11628f55a4df523b3ef8360405161080291815260200190565b60405180910390a3505050565b602081525f82518060208401528060208501604085015e5f604082850101526040601f19601f83011684010191505092915050565b80356001600160a01b038116811461085a575f5ffd5b919050565b5f5f60408385031215610870575f5ffd5b61087983610844565b946020939093013593505050565b5f5f5f60608486031215610899575f5ffd5b6108a284610844565b92506108b060208501610844565b929592945050506040919091013590565b5f602082840312156108d1575f5ffd5b6108da82610844565b9392505050565b5f5f604083850312156108f2575f5ffd5b6108fb83610844565b915061090960208401610844565b90509250929050565b600181811c9082168061092657607f821691505b60208210810361094457634e487b7160e01b5f52602260045260245ffd5b50919050565b8082018082111561030657634e487b7160e01b5f52601160045260245ffdfea2646970667358221220e2aafadfd04e319f9b991851472f1f64f08f4e8600013ba58c5ad6d19267756064736f6c634300081d0033",
					"opcodes": "PUSH1 0x80 PUSH1 0x40 MSTORE PUSH9 0x2B5E3AF16B1880000 PUSH1 0x3 SSTORE PUSH9 0x15AF1D78B58C40000 PUSH1 0x4 SSTORE CALLVALUE DUP1 ISZERO PUSH2 0x29 JUMPI PUSH0 PUSH0 REVERT JUMPDEST POP CALLER DUP1 PUSH2 0x4F JUMPI PUSH1 0x40 MLOAD PUSH4 0x1E4FBDF7 PUSH1 0xE0 SHL DUP2 MSTORE PUSH0 PUSH1 0x4 DUP3 ADD MSTORE PUSH1 0x24 ADD PUSH1 0x40 MLOAD DUP1 SWAP2 SUB SWAP1 REVERT JUMPDEST PUSH2 0x58 DUP2 PUSH2 0xAE JUMP JUMPDEST POP PUSH1 0x40 MLOAD PUSH2 0x65 SWAP1 PUSH2 0xFD JUMP JUMPDEST PUSH1 0x40 MLOAD DUP1 SWAP2 SUB SWAP1 PUSH0 CREATE DUP1 ISZERO DUP1 ISZERO PUSH2 0x7E JUMPI RETURNDATASIZE PUSH0 PUSH0 RETURNDATACOPY RETURNDATASIZE PUSH0 REVERT JUMPDEST POP PUSH1 0x1 DUP1 SLOAD PUSH1 0x1 PUSH1 0x1 PUSH1 0xA0 SHL SUB SWAP3 SWAP1 SWAP3 AND PUSH1 0x1 PUSH1 0x1 PUSH1 0xA0 SHL SUB NOT SWAP3 DUP4 AND OR SWAP1 SSTORE PUSH1 0x2 DUP1 SLOAD SWAP1 SWAP2 AND CALLER OR SWAP1 SSTORE PUSH2 0x10A JUMP JUMPDEST PUSH0 DUP1 SLOAD PUSH1 0x1 PUSH1 0x1 PUSH1 0xA0 SHL SUB DUP4 DUP2 AND PUSH1 0x1 PUSH1 0x1 PUSH1 0xA0 SHL SUB NOT DUP4 AND DUP2 OR DUP5 SSTORE PUSH1 0x40 MLOAD SWAP2 SWAP1 SWAP3 AND SWAP3 DUP4 SWAP2 PUSH32 0x8BE0079C531659141344CD1FD0A4F28419497F9722A3DAAFE3B4186F6B6457E0 SWAP2 SWAP1 LOG3 POP POP JUMP JUMPDEST PUSH2 0xC11 DUP1 PUSH2 0xAFC DUP4 CODECOPY ADD SWAP1 JUMP JUMPDEST PUSH2 0x9E5 DUP1 PUSH2 0x117 PUSH0 CODECOPY PUSH0 RETURN INVALID PUSH1 0x80 PUSH1 0x40 MSTORE CALLVALUE DUP1 ISZERO PUSH2 0xF JUMPI PUSH0 PUSH0 REVERT JUMPDEST POP PUSH1 0x4 CALLDATASIZE LT PUSH2 0xF0 JUMPI PUSH0 CALLDATALOAD PUSH1 0xE0 SHR DUP1 PUSH4 0x865AA800 GT PUSH2 0x93 JUMPI DUP1 PUSH4 0xD499BC85 GT PUSH2 0x63 JUMPI DUP1 PUSH4 0xD499BC85 EQ PUSH2 0x1FA JUMPI DUP1 PUSH4 0xD62C1164 EQ PUSH2 0x21A JUMPI DUP1 PUSH4 0xF2FDE38B EQ PUSH2 0x24C JUMPI DUP1 PUSH4 0xF7C618C1 EQ PUSH2 0x25F JUMPI PUSH0 PUSH0 REVERT JUMPDEST DUP1 PUSH4 0x865AA800 EQ PUSH2 0x19C JUMPI DUP1 PUSH4 0x8DA5CB5B EQ PUSH2 0x1AF JUMPI DUP1 PUSH4 0xD113EF7C EQ PUSH2 0x1BF JUMPI DUP1 PUSH4 0xD21CACDF EQ PUSH2 0x1D2 JUMPI PUSH0 PUSH0 REVERT JUMPDEST DUP1 PUSH4 0x544EF43E GT PUSH2 0xCE JUMPI DUP1 PUSH4 0x544EF43E EQ PUSH2 0x163 JUMPI DUP1 PUSH4 0x5539D400 EQ PUSH2 0x16C JUMPI DUP1 PUSH4 0x55BF73BE EQ PUSH2 0x17F JUMPI DUP1 PUSH4 0x715018A6 EQ PUSH2 0x194 JUMPI PUSH0 PUSH0 REVERT JUMPDEST DUP1 PUSH4 0x763F34E EQ PUSH2 0xF4 JUMPI DUP1 PUSH4 0x27B692F2 EQ PUSH2 0x110 JUMPI DUP1 PUSH4 0x2C070D7D EQ PUSH2 0x13B JUMPI JUMPDEST PUSH0 PUSH0 REVERT JUMPDEST PUSH2 0xFD PUSH1 0x3 SLOAD DUP2 JUMP JUMPDEST PUSH1 0x40 MLOAD SWAP1 DUP2 MSTORE PUSH1 0x20 ADD JUMPDEST PUSH1 0x40 MLOAD DUP1 SWAP2 SUB SWAP1 RETURN JUMPDEST PUSH2 0x123 PUSH2 0x11E CALLDATASIZE PUSH1 0x4 PUSH2 0x8CB JUMP JUMPDEST PUSH2 0x272 JUMP JUMPDEST PUSH1 0x40 MLOAD PUSH1 0x1 PUSH1 0x1 PUSH1 0xA0 SHL SUB SWAP1 SWAP2 AND DUP2 MSTORE PUSH1 0x20 ADD PUSH2 0x107 JUMP JUMPDEST PUSH2 0xFD PUSH2 0x149 CALLDATASIZE PUSH1 0x4 PUSH2 0x8F3 JUMP JUMPDEST PUSH1 0x1 PUSH1 0x1 PUSH1 0xA0 SHL SUB AND PUSH0 SWAP1 DUP2 MSTORE PUSH1 0x7 PUSH1 0x20 MSTORE PUSH1 0x40 SWAP1 KECCAK256 SLOAD SWAP1 JUMP JUMPDEST PUSH2 0xFD PUSH1 0x4 SLOAD DUP2 JUMP JUMPDEST PUSH1 0x2 SLOAD PUSH2 0x123 SWAP1 PUSH1 0x1 PUSH1 0x1 PUSH1 0xA0 SHL SUB AND DUP2 JUMP JUMPDEST PUSH2 0x192 PUSH2 0x18D CALLDATASIZE PUSH1 0x4 PUSH2 0x913 JUMP JUMPDEST PUSH2 0x2A6 JUMP JUMPDEST STOP JUMPDEST PUSH2 0x192 PUSH2 0x678 JUMP JUMPDEST PUSH2 0x192 PUSH2 0x1AA CALLDATASIZE PUSH1 0x4 PUSH2 0x8F3 JUMP JUMPDEST PUSH2 0x68B JUMP JUMPDEST PUSH0 SLOAD PUSH1 0x1 PUSH1 0x1 PUSH1 0xA0 SHL SUB AND PUSH2 0x123 JUMP JUMPDEST PUSH2 0x192 PUSH2 0x1CD CALLDATASIZE PUSH1 0x4 PUSH2 0x944 JUMP JUMPDEST PUSH2 0x736 JUMP JUMPDEST PUSH2 0x123 PUSH2 0x1E0 CALLDATASIZE PUSH1 0x4 PUSH2 0x8F3 JUMP JUMPDEST PUSH1 0x6 PUSH1 0x20 MSTORE PUSH0 SWAP1 DUP2 MSTORE PUSH1 0x40 SWAP1 KECCAK256 SLOAD PUSH1 0x1 PUSH1 0x1 PUSH1 0xA0 SHL SUB AND DUP2 JUMP JUMPDEST PUSH2 0x20D PUSH2 0x208 CALLDATASIZE PUSH1 0x4 PUSH2 0x8F3 JUMP JUMPDEST PUSH2 0x785 JUMP JUMPDEST PUSH1 0x40 MLOAD PUSH2 0x107 SWAP2 SWAP1 PUSH2 0x964 JUMP JUMPDEST PUSH2 0x23C PUSH2 0x228 CALLDATASIZE PUSH1 0x4 PUSH2 0x8F3 JUMP JUMPDEST PUSH1 0x5 PUSH1 0x20 MSTORE PUSH0 SWAP1 DUP2 MSTORE PUSH1 0x40 SWAP1 KECCAK256 SLOAD PUSH1 0xFF AND DUP2 JUMP JUMPDEST PUSH1 0x40 MLOAD SWAP1 ISZERO ISZERO DUP2 MSTORE PUSH1 0x20 ADD PUSH2 0x107 JUMP JUMPDEST PUSH2 0x192 PUSH2 0x25A CALLDATASIZE PUSH1 0x4 PUSH2 0x8F3 JUMP JUMPDEST PUSH2 0x7F8 JUMP JUMPDEST PUSH1 0x1 SLOAD PUSH2 0x123 SWAP1 PUSH1 0x1 PUSH1 0x1 PUSH1 0xA0 SHL SUB AND DUP2 JUMP JUMPDEST PUSH1 0x7 PUSH1 0x20 MSTORE DUP2 PUSH0 MSTORE PUSH1 0x40 PUSH0 KECCAK256 DUP2 DUP2 SLOAD DUP2 LT PUSH2 0x28B JUMPI PUSH0 DUP1 REVERT JUMPDEST PUSH0 SWAP2 DUP3 MSTORE PUSH1 0x20 SWAP1 SWAP2 KECCAK256 ADD SLOAD PUSH1 0x1 PUSH1 0x1 PUSH1 0xA0 SHL SUB AND SWAP2 POP DUP3 SWAP1 POP JUMP JUMPDEST PUSH1 0x2 SLOAD PUSH1 0x1 PUSH1 0x1 PUSH1 0xA0 SHL SUB AND CALLER EQ PUSH2 0x2F6 JUMPI PUSH1 0x40 MLOAD PUSH3 0x461BCD PUSH1 0xE5 SHL DUP2 MSTORE PUSH1 0x20 PUSH1 0x4 DUP3 ADD MSTORE PUSH1 0xE PUSH1 0x24 DUP3 ADD MSTORE PUSH14 0x139BDD08185D5D1A1BDC9A5E9959 PUSH1 0x92 SHL PUSH1 0x44 DUP3 ADD MSTORE PUSH1 0x64 ADD JUMPDEST PUSH1 0x40 MLOAD DUP1 SWAP2 SUB SWAP1 REVERT JUMPDEST PUSH1 0x1 PUSH1 0x1 PUSH1 0xA0 SHL SUB DUP2 AND ISZERO DUP1 ISZERO SWAP1 PUSH2 0x316 JUMPI POP PUSH1 0x1 PUSH1 0x1 PUSH1 0xA0 SHL SUB DUP3 AND ISZERO ISZERO JUMPDEST PUSH2 0x354 JUMPI PUSH1 0x40 MLOAD PUSH3 0x461BCD PUSH1 0xE5 SHL DUP2 MSTORE PUSH1 0x20 PUSH1 0x4 DUP3 ADD MSTORE PUSH1 0xF PUSH1 0x24 DUP3 ADD MSTORE PUSH15 0x496E76616C69642061646472657373 PUSH1 0x88 SHL PUSH1 0x44 DUP3 ADD MSTORE PUSH1 0x64 ADD PUSH2 0x2ED JUMP JUMPDEST DUP2 PUSH1 0x1 PUSH1 0x1 PUSH1 0xA0 SHL SUB AND DUP2 PUSH1 0x1 PUSH1 0x1 PUSH1 0xA0 SHL SUB AND SUB PUSH2 0x3B5 JUMPI PUSH1 0x40 MLOAD PUSH3 0x461BCD PUSH1 0xE5 SHL DUP2 MSTORE PUSH1 0x20 PUSH1 0x4 DUP3 ADD MSTORE PUSH1 0x19 PUSH1 0x24 DUP3 ADD MSTORE PUSH32 0x53656C662D726566657272616C206E6F7420616C6C6F77656400000000000000 PUSH1 0x44 DUP3 ADD MSTORE PUSH1 0x64 ADD PUSH2 0x2ED JUMP JUMPDEST PUSH1 0x1 PUSH1 0x1 PUSH1 0xA0 SHL SUB DUP2 AND PUSH0 SWAP1 DUP2 MSTORE PUSH1 0x5 PUSH1 0x20 MSTORE PUSH1 0x40 SWAP1 KECCAK256 SLOAD PUSH1 0xFF AND ISZERO PUSH2 0x415 JUMPI PUSH1 0x40 MLOAD PUSH3 0x461BCD PUSH1 0xE5 SHL DUP2 MSTORE PUSH1 0x20 PUSH1 0x4 DUP3 ADD MSTORE PUSH1 0x15 PUSH1 0x24 DUP3 ADD MSTORE PUSH21 0x155CD95C88185B1C9958591E481C9959995C9C9959 PUSH1 0x5A SHL PUSH1 0x44 DUP3 ADD MSTORE PUSH1 0x64 ADD PUSH2 0x2ED JUMP JUMPDEST DUP2 JUMPDEST PUSH1 0x1 PUSH1 0x1 PUSH1 0xA0 SHL SUB DUP2 AND ISZERO PUSH2 0x4A6 JUMPI DUP2 PUSH1 0x1 PUSH1 0x1 PUSH1 0xA0 SHL SUB AND DUP2 PUSH1 0x1 PUSH1 0x1 PUSH1 0xA0 SHL SUB AND SUB PUSH2 0x487 JUMPI PUSH1 0x40 MLOAD PUSH3 0x461BCD PUSH1 0xE5 SHL DUP2 MSTORE PUSH1 0x20 PUSH1 0x4 DUP3 ADD MSTORE PUSH1 0x1A PUSH1 0x24 DUP3 ADD MSTORE PUSH32 0x43697263756C617220726566657272616C206465746563746564000000000000 PUSH1 0x44 DUP3 ADD MSTORE PUSH1 0x64 ADD PUSH2 0x2ED JUMP JUMPDEST PUSH1 0x1 PUSH1 0x1 PUSH1 0xA0 SHL SUB SWAP1 DUP2 AND PUSH0 SWAP1 DUP2 MSTORE PUSH1 0x6 PUSH1 0x20 MSTORE PUSH1 0x40 SWAP1 KECCAK256 SLOAD AND PUSH2 0x417 JUMP JUMPDEST PUSH1 0x1 PUSH1 0x1 PUSH1 0xA0 SHL SUB DUP3 DUP2 AND PUSH0 DUP2 DUP2 MSTORE PUSH1 0x5 PUSH1 0x20 SWAP1 DUP2 MSTORE PUSH1 0x40 DUP1 DUP4 KECCAK256 DUP1 SLOAD PUSH1 0xFF NOT AND PUSH1 0x1 SWAP1 DUP2 OR SWAP1 SWAP2 SSTORE PUSH1 0x6 DUP4 MSTORE DUP2 DUP5 KECCAK256 DUP1 SLOAD SWAP7 DUP11 AND PUSH1 0x1 PUSH1 0x1 PUSH1 0xA0 SHL SUB NOT SWAP8 DUP9 AND DUP2 OR SWAP1 SWAP2 SSTORE DUP1 DUP6 MSTORE PUSH1 0x7 DUP5 MSTORE DUP3 DUP6 KECCAK256 DUP1 SLOAD SWAP3 DUP4 ADD DUP2 SSTORE DUP6 MSTORE SWAP4 DUP4 SWAP1 KECCAK256 ADD DUP1 SLOAD SWAP1 SWAP6 AND DUP5 OR SWAP1 SWAP5 SSTORE SWAP3 MLOAD TIMESTAMP DUP2 MSTORE SWAP2 SWAP3 SWAP1 SWAP2 PUSH32 0x90EAB5D1DF713DF401D810F26AA9718D2B9E6894AF1EB4890A332D3B185DC0E5 SWAP2 ADD PUSH1 0x40 MLOAD DUP1 SWAP2 SUB SWAP1 LOG3 PUSH1 0x1 SLOAD PUSH1 0x3 SLOAD PUSH1 0x40 MLOAD PUSH4 0x40C10F19 PUSH1 0xE0 SHL DUP2 MSTORE PUSH1 0x1 PUSH1 0x1 PUSH1 0xA0 SHL SUB DUP7 DUP2 AND PUSH1 0x4 DUP4 ADD MSTORE PUSH1 0x24 DUP3 ADD SWAP3 SWAP1 SWAP3 MSTORE SWAP2 AND SWAP1 PUSH4 0x40C10F19 SWAP1 PUSH1 0x44 ADD PUSH0 PUSH1 0x40 MLOAD DUP1 DUP4 SUB DUP2 PUSH0 DUP8 DUP1 EXTCODESIZE ISZERO DUP1 ISZERO PUSH2 0x590 JUMPI PUSH0 PUSH0 REVERT JUMPDEST POP GAS CALL ISZERO DUP1 ISZERO PUSH2 0x5A2 JUMPI RETURNDATASIZE PUSH0 PUSH0 RETURNDATACOPY RETURNDATASIZE PUSH0 REVERT JUMPDEST POP POP PUSH1 0x1 SLOAD PUSH1 0x4 DUP1 SLOAD PUSH1 0x40 MLOAD PUSH4 0x40C10F19 PUSH1 0xE0 SHL DUP2 MSTORE PUSH1 0x1 PUSH1 0x1 PUSH1 0xA0 SHL SUB SWAP1 SWAP4 AND SWAP5 POP PUSH4 0x40C10F19 SWAP4 POP PUSH2 0x5EC SWAP3 DUP8 SWAP3 ADD PUSH1 0x1 PUSH1 0x1 PUSH1 0xA0 SHL SUB SWAP3 SWAP1 SWAP3 AND DUP3 MSTORE PUSH1 0x20 DUP3 ADD MSTORE PUSH1 0x40 ADD SWAP1 JUMP JUMPDEST PUSH0 PUSH1 0x40 MLOAD DUP1 DUP4 SUB DUP2 PUSH0 DUP8 DUP1 EXTCODESIZE ISZERO DUP1 ISZERO PUSH2 0x603 JUMPI PUSH0 PUSH0 REVERT JUMPDEST POP GAS CALL ISZERO DUP1 ISZERO PUSH2 0x615 JUMPI RETURNDATASIZE PUSH0 PUSH0 RETURNDATACOPY RETURNDATASIZE PUSH0 REVERT JUMPDEST POP POP POP POP DUP2 PUSH1 0x1 PUSH1 0x1 PUSH1 0xA0 SHL SUB AND DUP4 PUSH1 0x1 PUSH1 0x1 PUSH1 0xA0 SHL SUB AND PUSH32 0x1A4DFB075362880D700EDE1CC31D284B1C3B2811E9F0B2DDDE7BDB270042C13F PUSH1 0x3 SLOAD PUSH1 0x4 SLOAD PUSH1 0x40 MLOAD PUSH2 0x66B SWAP3 SWAP2 SWAP1 SWAP2 DUP3 MSTORE PUSH1 0x20 DUP3 ADD MSTORE PUSH1 0x40 ADD SWAP1 JUMP JUMPDEST PUSH1 0x40 MLOAD DUP1 SWAP2 SUB SWAP1 LOG3 POP POP POP JUMP JUMPDEST PUSH2 0x680 PUSH2 0x835 JUMP JUMPDEST PUSH2 0x689 PUSH0 PUSH2 0x861 JUMP JUMPDEST JUMP JUMPDEST PUSH2 0x693 PUSH2 0x835 JUMP JUMPDEST PUSH1 0x1 PUSH1 0x1 PUSH1 0xA0 SHL SUB DUP2 AND PUSH2 0x6DB JUMPI PUSH1 0x40 MLOAD PUSH3 0x461BCD PUSH1 0xE5 SHL DUP2 MSTORE PUSH1 0x20 PUSH1 0x4 DUP3 ADD MSTORE PUSH1 0xF PUSH1 0x24 DUP3 ADD MSTORE PUSH15 0x496E76616C69642061646472657373 PUSH1 0x88 SHL PUSH1 0x44 DUP3 ADD MSTORE PUSH1 0x64 ADD PUSH2 0x2ED JUMP JUMPDEST PUSH1 0x2 SLOAD PUSH1 0x40 MLOAD PUSH1 0x1 PUSH1 0x1 PUSH1 0xA0 SHL SUB DUP1 DUP5 AND SWAP3 AND SWAP1 PUSH32 0x86C40840B13041FDF3B73496C0F80DA8BEF6A34805CB1CA99E01FD3E13D4B196 SWAP1 PUSH0 SWAP1 LOG3 PUSH1 0x2 DUP1 SLOAD PUSH1 0x1 PUSH1 0x1 PUSH1 0xA0 SHL SUB NOT AND PUSH1 0x1 PUSH1 0x1 PUSH1 0xA0 SHL SUB SWAP3 SWAP1 SWAP3 AND SWAP2 SWAP1 SWAP2 OR SWAP1 SSTORE JUMP JUMPDEST PUSH2 0x73E PUSH2 0x835 JUMP JUMPDEST PUSH1 0x3 DUP3 SWAP1 SSTORE PUSH1 0x4 DUP2 SWAP1 SSTORE PUSH1 0x40 DUP1 MLOAD DUP4 DUP2 MSTORE PUSH1 0x20 DUP2 ADD DUP4 SWAP1 MSTORE PUSH32 0x457DDC8AFBA479DA2EDDA90D1B2C537CEE16F285D7EB06529B28AABE56A0E974 SWAP2 ADD PUSH1 0x40 MLOAD DUP1 SWAP2 SUB SWAP1 LOG1 POP POP JUMP JUMPDEST PUSH1 0x1 PUSH1 0x1 PUSH1 0xA0 SHL SUB DUP2 AND PUSH0 SWAP1 DUP2 MSTORE PUSH1 0x7 PUSH1 0x20 SWAP1 DUP2 MSTORE PUSH1 0x40 SWAP2 DUP3 SWAP1 KECCAK256 DUP1 SLOAD DUP4 MLOAD DUP2 DUP5 MUL DUP2 ADD DUP5 ADD SWAP1 SWAP5 MSTORE DUP1 DUP5 MSTORE PUSH1 0x60 SWAP4 SWAP3 DUP4 ADD DUP3 DUP3 DUP1 ISZERO PUSH2 0x7EC JUMPI PUSH1 0x20 MUL DUP3 ADD SWAP2 SWAP1 PUSH0 MSTORE PUSH1 0x20 PUSH0 KECCAK256 SWAP1 JUMPDEST DUP2 SLOAD PUSH1 0x1 PUSH1 0x1 PUSH1 0xA0 SHL SUB AND DUP2 MSTORE PUSH1 0x1 SWAP1 SWAP2 ADD SWAP1 PUSH1 0x20 ADD DUP1 DUP4 GT PUSH2 0x7CE JUMPI JUMPDEST POP POP POP POP POP SWAP1 POP SWAP2 SWAP1 POP JUMP JUMPDEST PUSH2 0x800 PUSH2 0x835 JUMP JUMPDEST PUSH1 0x1 PUSH1 0x1 PUSH1 0xA0 SHL SUB DUP2 AND PUSH2 0x829 JUMPI PUSH1 0x40 MLOAD PUSH4 0x1E4FBDF7 PUSH1 0xE0 SHL DUP2 MSTORE PUSH0 PUSH1 0x4 DUP3 ADD MSTORE PUSH1 0x24 ADD PUSH2 0x2ED JUMP JUMPDEST PUSH2 0x832 DUP2 PUSH2 0x861 JUMP JUMPDEST POP JUMP JUMPDEST PUSH0 SLOAD PUSH1 0x1 PUSH1 0x1 PUSH1 0xA0 SHL SUB AND CALLER EQ PUSH2 0x689 JUMPI PUSH1 0x40 MLOAD PUSH4 0x118CDAA7 PUSH1 0xE0 SHL DUP2 MSTORE CALLER PUSH1 0x4 DUP3 ADD MSTORE PUSH1 0x24 ADD PUSH2 0x2ED JUMP JUMPDEST PUSH0 DUP1 SLOAD PUSH1 0x1 PUSH1 0x1 PUSH1 0xA0 SHL SUB DUP4 DUP2 AND PUSH1 0x1 PUSH1 0x1 PUSH1 0xA0 SHL SUB NOT DUP4 AND DUP2 OR DUP5 SSTORE PUSH1 0x40 MLOAD SWAP2 SWAP1 SWAP3 AND SWAP3 DUP4 SWAP2 PUSH32 0x8BE0079C531659141344CD1FD0A4F28419497F9722A3DAAFE3B4186F6B6457E0 SWAP2 SWAP1 LOG3 POP POP JUMP JUMPDEST DUP1 CALLDATALOAD PUSH1 0x1 PUSH1 0x1 PUSH1 0xA0 SHL SUB DUP2 AND DUP2 EQ PUSH2 0x8C6 JUMPI PUSH0 PUSH0 REVERT JUMPDEST SWAP2 SWAP1 POP JUMP JUMPDEST PUSH0 PUSH0 PUSH1 0x40 DUP4 DUP6 SUB SLT ISZERO PUSH2 0x8DC JUMPI PUSH0 PUSH0 REVERT JUMPDEST PUSH2 0x8E5 DUP4 PUSH2 0x8B0 JUMP JUMPDEST SWAP5 PUSH1 0x20 SWAP4 SWAP1 SWAP4 ADD CALLDATALOAD SWAP4 POP POP POP JUMP JUMPDEST PUSH0 PUSH1 0x20 DUP3 DUP5 SUB SLT ISZERO PUSH2 0x903 JUMPI PUSH0 PUSH0 REVERT JUMPDEST PUSH2 0x90C DUP3 PUSH2 0x8B0 JUMP JUMPDEST SWAP4 SWAP3 POP POP POP JUMP JUMPDEST PUSH0 PUSH0 PUSH1 0x40 DUP4 DUP6 SUB SLT ISZERO PUSH2 0x924 JUMPI PUSH0 PUSH0 REVERT JUMPDEST PUSH2 0x92D DUP4 PUSH2 0x8B0 JUMP JUMPDEST SWAP2 POP PUSH2 0x93B PUSH1 0x20 DUP5 ADD PUSH2 0x8B0 JUMP JUMPDEST SWAP1 POP SWAP3 POP SWAP3 SWAP1 POP JUMP JUMPDEST PUSH0 PUSH0 PUSH1 0x40 DUP4 DUP6 SUB SLT ISZERO PUSH2 0x955 JUMPI PUSH0 PUSH0 REVERT JUMPDEST POP POP DUP1 CALLDATALOAD SWAP3 PUSH1 0x20 SWAP1 SWAP2 ADD CALLDATALOAD SWAP2 POP JUMP JUMPDEST PUSH1 0x20 DUP1 DUP3 MSTORE DUP3 MLOAD DUP3 DUP3 ADD DUP2 SWAP1 MSTORE PUSH0 SWAP2 DUP5 ADD SWAP1 PUSH1 0x40 DUP5 ADD SWAP1 DUP4 JUMPDEST DUP2 DUP2 LT ISZERO PUSH2 0x9A4 JUMPI DUP4 MLOAD PUSH1 0x1 PUSH1 0x1 PUSH1 0xA0 SHL SUB AND DUP4 MSTORE PUSH1 0x20 SWAP4 DUP5 ADD SWAP4 SWAP1 SWAP3 ADD SWAP2 PUSH1 0x1 ADD PUSH2 0x97D JUMP JUMPDEST POP SWAP1 SWAP6 SWAP5 POP POP POP POP POP JUMP INVALID LOG2 PUSH5 0x6970667358 0x22 SLT KECCAK256 XOR PUSH13 0xFF24BF81D2C40266C4870451E9 PUSH8 0x1490C61CBF4E6DBE 0xC2 0xCC DUP2 0xC7 POP 0xC4 CALL 0xC3 PUSH5 0x736F6C6343 STOP ADDMOD SAR STOP CALLER PUSH1 0x80 PUSH1 0x40 MSTORE CALLVALUE DUP1 ISZERO PUSH2 0xF JUMPI PUSH0 PUSH0 REVERT JUMPDEST POP CALLER PUSH1 0x40 MLOAD DUP1 PUSH1 0x40 ADD PUSH1 0x40 MSTORE DUP1 PUSH1 0xF DUP2 MSTORE PUSH1 0x20 ADD PUSH15 0x149959995C9C985B0814995DD85C99 PUSH1 0x8A SHL DUP2 MSTORE POP PUSH1 0x40 MLOAD DUP1 PUSH1 0x40 ADD PUSH1 0x40 MSTORE DUP1 PUSH1 0x3 DUP2 MSTORE PUSH1 0x20 ADD PUSH3 0x292329 PUSH1 0xE9 SHL DUP2 MSTORE POP DUP2 PUSH1 0x3 SWAP1 DUP2 PUSH2 0x64 SWAP2 SWAP1 PUSH2 0x1AB JUMP JUMPDEST POP PUSH1 0x4 PUSH2 0x71 DUP3 DUP3 PUSH2 0x1AB JUMP JUMPDEST POP POP POP PUSH1 0x1 PUSH1 0x1 PUSH1 0xA0 SHL SUB DUP2 AND PUSH2 0xA1 JUMPI PUSH1 0x40 MLOAD PUSH4 0x1E4FBDF7 PUSH1 0xE0 SHL DUP2 MSTORE PUSH0 PUSH1 0x4 DUP3 ADD MSTORE PUSH1 0x24 ADD PUSH1 0x40 MLOAD DUP1 SWAP2 SUB SWAP1 REVERT JUMPDEST PUSH2 0xAA DUP2 PUSH2 0xC2 JUMP JUMPDEST POP PUSH1 0x6 DUP1 SLOAD PUSH1 0x1 PUSH1 0x1 PUSH1 0xA0 SHL SUB NOT AND CALLER OR SWAP1 SSTORE PUSH2 0x265 JUMP JUMPDEST PUSH1 0x5 DUP1 SLOAD PUSH1 0x1 PUSH1 0x1 PUSH1 0xA0 SHL SUB DUP4 DUP2 AND PUSH1 0x1 PUSH1 0x1 PUSH1 0xA0 SHL SUB NOT DUP4 AND DUP2 OR SWAP1 SWAP4 SSTORE PUSH1 0x40 MLOAD SWAP2 AND SWAP2 SWAP1 DUP3 SWAP1 PUSH32 0x8BE0079C531659141344CD1FD0A4F28419497F9722A3DAAFE3B4186F6B6457E0 SWAP1 PUSH0 SWAP1 LOG3 POP POP JUMP JUMPDEST PUSH4 0x4E487B71 PUSH1 0xE0 SHL PUSH0 MSTORE PUSH1 0x41 PUSH1 0x4 MSTORE PUSH1 0x24 PUSH0 REVERT JUMPDEST PUSH1 0x1 DUP2 DUP2 SHR SWAP1 DUP3 AND DUP1 PUSH2 0x13B JUMPI PUSH1 0x7F DUP3 AND SWAP2 POP JUMPDEST PUSH1 0x20 DUP3 LT DUP2 SUB PUSH2 0x159 JUMPI PUSH4 0x4E487B71 PUSH1 0xE0 SHL PUSH0 MSTORE PUSH1 0x22 PUSH1 0x4 MSTORE PUSH1 0x24 PUSH0 REVERT JUMPDEST POP SWAP2 SWAP1 POP JUMP JUMPDEST PUSH1 0x1F DUP3 GT ISZERO PUSH2 0x1A6 JUMPI DUP1 PUSH0 MSTORE PUSH1 0x20 PUSH0 KECCAK256 PUSH1 0x1F DUP5 ADD PUSH1 0x5 SHR DUP2 ADD PUSH1 0x20 DUP6 LT ISZERO PUSH2 0x184 JUMPI POP DUP1 JUMPDEST PUSH1 0x1F DUP5 ADD PUSH1 0x5 SHR DUP3 ADD SWAP2 POP JUMPDEST DUP2 DUP2 LT ISZERO PUSH2 0x1A3 JUMPI PUSH0 DUP2 SSTORE PUSH1 0x1 ADD PUSH2 0x190 JUMP JUMPDEST POP POP JUMPDEST POP POP POP JUMP JUMPDEST DUP2 MLOAD PUSH1 0x1 PUSH1 0x1 PUSH1 0x40 SHL SUB DUP2 GT ISZERO PUSH2 0x1C4 JUMPI PUSH2 0x1C4 PUSH2 0x113 JUMP JUMPDEST PUSH2 0x1D8 DUP2 PUSH2 0x1D2 DUP5 SLOAD PUSH2 0x127 JUMP JUMPDEST DUP5 PUSH2 0x15F JUMP JUMPDEST PUSH1 0x20 PUSH1 0x1F DUP3 GT PUSH1 0x1 DUP2 EQ PUSH2 0x20A JUMPI PUSH0 DUP4 ISZERO PUSH2 0x1F3 JUMPI POP DUP5 DUP3 ADD MLOAD JUMPDEST PUSH0 NOT PUSH1 0x3 DUP6 SWAP1 SHL SHR NOT AND PUSH1 0x1 DUP5 SWAP1 SHL OR DUP5 SSTORE PUSH2 0x1A3 JUMP JUMPDEST PUSH0 DUP5 DUP2 MSTORE PUSH1 0x20 DUP2 KECCAK256 PUSH1 0x1F NOT DUP6 AND SWAP2 JUMPDEST DUP3 DUP2 LT ISZERO PUSH2 0x239 JUMPI DUP8 DUP6 ADD MLOAD DUP3 SSTORE PUSH1 0x20 SWAP5 DUP6 ADD SWAP5 PUSH1 0x1 SWAP1 SWAP3 ADD SWAP2 ADD PUSH2 0x219 JUMP JUMPDEST POP DUP5 DUP3 LT ISZERO PUSH2 0x256 JUMPI DUP7 DUP5 ADD MLOAD PUSH0 NOT PUSH1 0x3 DUP8 SWAP1 SHL PUSH1 0xF8 AND SHR NOT AND DUP2 SSTORE JUMPDEST POP POP POP POP PUSH1 0x1 SWAP1 DUP2 SHL ADD SWAP1 SSTORE POP JUMP JUMPDEST PUSH2 0x99F DUP1 PUSH2 0x272 PUSH0 CODECOPY PUSH0 RETURN INVALID PUSH1 0x80 PUSH1 0x40 MSTORE CALLVALUE DUP1 ISZERO PUSH2 0xF JUMPI PUSH0 PUSH0 REVERT JUMPDEST POP PUSH1 0x4 CALLDATASIZE LT PUSH2 0xF0 JUMPI PUSH0 CALLDATALOAD PUSH1 0xE0 SHR DUP1 PUSH4 0x70A08231 GT PUSH2 0x93 JUMPI DUP1 PUSH4 0xA9059CBB GT PUSH2 0x63 JUMPI DUP1 PUSH4 0xA9059CBB EQ PUSH2 0x1F2 JUMPI DUP1 PUSH4 0xDD62ED3E EQ PUSH2 0x205 JUMPI DUP1 PUSH4 0xF2FDE38B EQ PUSH2 0x23D JUMPI DUP1 PUSH4 0xFCA3B5AA EQ PUSH2 0x250 JUMPI PUSH0 PUSH0 REVERT JUMPDEST DUP1 PUSH4 0x70A08231 EQ PUSH2 0x1A9 JUMPI DUP1 PUSH4 0x715018A6 EQ PUSH2 0x1D1 JUMPI DUP1 PUSH4 0x8DA5CB5B EQ PUSH2 0x1D9 JUMPI DUP1 PUSH4 0x95D89B41 EQ PUSH2 0x1EA JUMPI PUSH0 PUSH0 REVERT JUMPDEST DUP1 PUSH4 0x18160DDD GT PUSH2 0xCE JUMPI DUP1 PUSH4 0x18160DDD EQ PUSH2 0x160 JUMPI DUP1 PUSH4 0x23B872DD EQ PUSH2 0x172 JUMPI DUP1 PUSH4 0x313CE567 EQ PUSH2 0x185 JUMPI DUP1 PUSH4 0x40C10F19 EQ PUSH2 0x194 JUMPI PUSH0 PUSH0 REVERT JUMPDEST DUP1 PUSH4 0x6FDDE03 EQ PUSH2 0xF4 JUMPI DUP1 PUSH4 0x7546172 EQ PUSH2 0x112 JUMPI DUP1 PUSH4 0x95EA7B3 EQ PUSH2 0x13D JUMPI JUMPDEST PUSH0 PUSH0 REVERT JUMPDEST PUSH2 0xFC PUSH2 0x263 JUMP JUMPDEST PUSH1 0x40 MLOAD PUSH2 0x109 SWAP2 SWAP1 PUSH2 0x80F JUMP JUMPDEST PUSH1 0x40 MLOAD DUP1 SWAP2 SUB SWAP1 RETURN JUMPDEST PUSH1 0x6 SLOAD PUSH2 0x125 SWAP1 PUSH1 0x1 PUSH1 0x1 PUSH1 0xA0 SHL SUB AND DUP2 JUMP JUMPDEST PUSH1 0x40 MLOAD PUSH1 0x1 PUSH1 0x1 PUSH1 0xA0 SHL SUB SWAP1 SWAP2 AND DUP2 MSTORE PUSH1 0x20 ADD PUSH2 0x109 JUMP JUMPDEST PUSH2 0x150 PUSH2 0x14B CALLDATASIZE PUSH1 0x4 PUSH2 0x85F JUMP JUMPDEST PUSH2 0x2F3 JUMP JUMPDEST PUSH1 0x40 MLOAD SWAP1 ISZERO ISZERO DUP2 MSTORE PUSH1 0x20 ADD PUSH2 0x109 JUMP JUMPDEST PUSH1 0x2 SLOAD JUMPDEST PUSH1 0x40 MLOAD SWAP1 DUP2 MSTORE PUSH1 0x20 ADD PUSH2 0x109 JUMP JUMPDEST PUSH2 0x150 PUSH2 0x180 CALLDATASIZE PUSH1 0x4 PUSH2 0x887 JUMP JUMPDEST PUSH2 0x30C JUMP JUMPDEST PUSH1 0x40 MLOAD PUSH1 0x12 DUP2 MSTORE PUSH1 0x20 ADD PUSH2 0x109 JUMP JUMPDEST PUSH2 0x1A7 PUSH2 0x1A2 CALLDATASIZE PUSH1 0x4 PUSH2 0x85F JUMP JUMPDEST PUSH2 0x32F JUMP JUMPDEST STOP JUMPDEST PUSH2 0x164 PUSH2 0x1B7 CALLDATASIZE PUSH1 0x4 PUSH2 0x8C1 JUMP JUMPDEST PUSH1 0x1 PUSH1 0x1 PUSH1 0xA0 SHL SUB AND PUSH0 SWAP1 DUP2 MSTORE PUSH1 0x20 DUP2 SWAP1 MSTORE PUSH1 0x40 SWAP1 KECCAK256 SLOAD SWAP1 JUMP JUMPDEST PUSH2 0x1A7 PUSH2 0x395 JUMP JUMPDEST PUSH1 0x5 SLOAD PUSH1 0x1 PUSH1 0x1 PUSH1 0xA0 SHL SUB AND PUSH2 0x125 JUMP JUMPDEST PUSH2 0xFC PUSH2 0x3A8 JUMP JUMPDEST PUSH2 0x150 PUSH2 0x200 CALLDATASIZE PUSH1 0x4 PUSH2 0x85F JUMP JUMPDEST PUSH2 0x3B7 JUMP JUMPDEST PUSH2 0x164 PUSH2 0x213 CALLDATASIZE PUSH1 0x4 PUSH2 0x8E1 JUMP JUMPDEST PUSH1 0x1 PUSH1 0x1 PUSH1 0xA0 SHL SUB SWAP2 DUP3 AND PUSH0 SWAP1 DUP2 MSTORE PUSH1 0x1 PUSH1 0x20 SWAP1 DUP2 MSTORE PUSH1 0x40 DUP1 DUP4 KECCAK256 SWAP4 SWAP1 SWAP5 AND DUP3 MSTORE SWAP2 SWAP1 SWAP2 MSTORE KECCAK256 SLOAD SWAP1 JUMP JUMPDEST PUSH2 0x1A7 PUSH2 0x24B CALLDATASIZE PUSH1 0x4 PUSH2 0x8C1 JUMP JUMPDEST PUSH2 0x3C4 JUMP JUMPDEST PUSH2 0x1A7 PUSH2 0x25E CALLDATASIZE PUSH1 0x4 PUSH2 0x8C1 JUMP JUMPDEST PUSH2 0x401 JUMP JUMPDEST PUSH1 0x60 PUSH1 0x3 DUP1 SLOAD PUSH2 0x272 SWAP1 PUSH2 0x912 JUMP JUMPDEST DUP1 PUSH1 0x1F ADD PUSH1 0x20 DUP1 SWAP2 DIV MUL PUSH1 0x20 ADD PUSH1 0x40 MLOAD SWAP1 DUP2 ADD PUSH1 0x40 MSTORE DUP1 SWAP3 SWAP2 SWAP1 DUP2 DUP2 MSTORE PUSH1 0x20 ADD DUP3 DUP1 SLOAD PUSH2 0x29E SWAP1 PUSH2 0x912 JUMP JUMPDEST DUP1 ISZERO PUSH2 0x2E9 JUMPI DUP1 PUSH1 0x1F LT PUSH2 0x2C0 JUMPI PUSH2 0x100 DUP1 DUP4 SLOAD DIV MUL DUP4 MSTORE SWAP2 PUSH1 0x20 ADD SWAP2 PUSH2 0x2E9 JUMP JUMPDEST DUP3 ADD SWAP2 SWAP1 PUSH0 MSTORE PUSH1 0x20 PUSH0 KECCAK256 SWAP1 JUMPDEST DUP2 SLOAD DUP2 MSTORE SWAP1 PUSH1 0x1 ADD SWAP1 PUSH1 0x20 ADD DUP1 DUP4 GT PUSH2 0x2CC JUMPI DUP3 SWAP1 SUB PUSH1 0x1F AND DUP3 ADD SWAP2 JUMPDEST POP POP POP POP POP SWAP1 POP SWAP1 JUMP JUMPDEST PUSH0 CALLER PUSH2 0x300 DUP2 DUP6 DUP6 PUSH2 0x47A JUMP JUMPDEST PUSH1 0x1 SWAP2 POP POP JUMPDEST SWAP3 SWAP2 POP POP JUMP JUMPDEST PUSH0 CALLER PUSH2 0x319 DUP6 DUP3 DUP6 PUSH2 0x48C JUMP JUMPDEST PUSH2 0x324 DUP6 DUP6 DUP6 PUSH2 0x508 JUMP JUMPDEST POP PUSH1 0x1 SWAP5 SWAP4 POP POP POP POP JUMP JUMPDEST PUSH1 0x6 SLOAD PUSH1 0x1 PUSH1 0x1 PUSH1 0xA0 SHL SUB AND CALLER EQ PUSH2 0x387 JUMPI PUSH1 0x40 MLOAD PUSH3 0x461BCD PUSH1 0xE5 SHL DUP2 MSTORE PUSH1 0x20 PUSH1 0x4 DUP3 ADD MSTORE PUSH1 0x16 PUSH1 0x24 DUP3 ADD MSTORE PUSH22 0x139BDD08185D5D1A1BDC9A5E9959081D1BC81B5A5B9D PUSH1 0x52 SHL PUSH1 0x44 DUP3 ADD MSTORE PUSH1 0x64 ADD JUMPDEST PUSH1 0x40 MLOAD DUP1 SWAP2 SUB SWAP1 REVERT JUMPDEST PUSH2 0x391 DUP3 DUP3 PUSH2 0x565 JUMP JUMPDEST POP POP JUMP JUMPDEST PUSH2 0x39D PUSH2 0x599 JUMP JUMPDEST PUSH2 0x3A6 PUSH0 PUSH2 0x5C6 JUMP JUMPDEST JUMP JUMPDEST PUSH1 0x60 PUSH1 0x4 DUP1 SLOAD PUSH2 0x272 SWAP1 PUSH2 0x912 JUMP JUMPDEST PUSH0 CALLER PUSH2 0x300 DUP2 DUP6 DUP6 PUSH2 0x508 JUMP JUMPDEST PUSH2 0x3CC PUSH2 0x599 JUMP JUMPDEST PUSH1 0x1 PUSH1 0x1 PUSH1 0xA0 SHL SUB DUP2 AND PUSH2 0x3F5 JUMPI PUSH1 0x40 MLOAD PUSH4 0x1E4FBDF7 PUSH1 0xE0 SHL DUP2 MSTORE PUSH0 PUSH1 0x4 DUP3 ADD MSTORE PUSH1 0x24 ADD PUSH2 0x37E JUMP JUMPDEST PUSH2 0x3FE DUP2 PUSH2 0x5C6 JUMP JUMPDEST POP JUMP JUMPDEST PUSH2 0x409 PUSH2 0x599 JUMP JUMPDEST PUSH1 0x1 PUSH1 0x1 PUSH1 0xA0 SHL SUB DUP2 AND PUSH2 0x458 JUMPI PUSH1 0x40 MLOAD PUSH3 0x461BCD PUSH1 0xE5 SHL DUP2 MSTORE PUSH1 0x20 PUSH1 0x4 DUP3 ADD MSTORE PUSH1 0x16 PUSH1 0x24 DUP3 ADD MSTORE PUSH22 0x496E76616C6964206D696E7465722061646472657373 PUSH1 0x50 SHL PUSH1 0x44 DUP3 ADD MSTORE PUSH1 0x64 ADD PUSH2 0x37E JUMP JUMPDEST PUSH1 0x6 DUP1 SLOAD PUSH1 0x1 PUSH1 0x1 PUSH1 0xA0 SHL SUB NOT AND PUSH1 0x1 PUSH1 0x1 PUSH1 0xA0 SHL SUB SWAP3 SWAP1 SWAP3 AND SWAP2 SWAP1 SWAP2 OR SWAP1 SSTORE JUMP JUMPDEST PUSH2 0x487 DUP4 DUP4 DUP4 PUSH1 0x1 PUSH2 0x617 JUMP JUMPDEST POP POP POP JUMP JUMPDEST PUSH1 0x1 PUSH1 0x1 PUSH1 0xA0 SHL SUB DUP4 DUP2 AND PUSH0 SWAP1 DUP2 MSTORE PUSH1 0x1 PUSH1 0x20 SWAP1 DUP2 MSTORE PUSH1 0x40 DUP1 DUP4 KECCAK256 SWAP4 DUP7 AND DUP4 MSTORE SWAP3 SWAP1 MSTORE KECCAK256 SLOAD PUSH0 NOT DUP2 LT ISZERO PUSH2 0x502 JUMPI DUP2 DUP2 LT ISZERO PUSH2 0x4F4 JUMPI PUSH1 0x40 MLOAD PUSH4 0x7DC7A0D9 PUSH1 0xE1 SHL DUP2 MSTORE PUSH1 0x1 PUSH1 0x1 PUSH1 0xA0 SHL SUB DUP5 AND PUSH1 0x4 DUP3 ADD MSTORE PUSH1 0x24 DUP2 ADD DUP3 SWAP1 MSTORE PUSH1 0x44 DUP2 ADD DUP4 SWAP1 MSTORE PUSH1 0x64 ADD PUSH2 0x37E JUMP JUMPDEST PUSH2 0x502 DUP5 DUP5 DUP5 DUP5 SUB PUSH0 PUSH2 0x617 JUMP JUMPDEST POP POP POP POP JUMP JUMPDEST PUSH1 0x1 PUSH1 0x1 PUSH1 0xA0 SHL SUB DUP4 AND PUSH2 0x531 JUMPI PUSH1 0x40 MLOAD PUSH4 0x4B637E8F PUSH1 0xE1 SHL DUP2 MSTORE PUSH0 PUSH1 0x4 DUP3 ADD MSTORE PUSH1 0x24 ADD PUSH2 0x37E JUMP JUMPDEST PUSH1 0x1 PUSH1 0x1 PUSH1 0xA0 SHL SUB DUP3 AND PUSH2 0x55A JUMPI PUSH1 0x40 MLOAD PUSH4 0xEC442F05 PUSH1 0xE0 SHL DUP2 MSTORE PUSH0 PUSH1 0x4 DUP3 ADD MSTORE PUSH1 0x24 ADD PUSH2 0x37E JUMP JUMPDEST PUSH2 0x487 DUP4 DUP4 DUP4 PUSH2 0x6E9 JUMP JUMPDEST PUSH1 0x1 PUSH1 0x1 PUSH1 0xA0 SHL SUB DUP3 AND PUSH2 0x58E JUMPI PUSH1 0x40 MLOAD PUSH4 0xEC442F05 PUSH1 0xE0 SHL DUP2 MSTORE PUSH0 PUSH1 0x4 DUP3 ADD MSTORE PUSH1 0x24 ADD PUSH2 0x37E JUMP JUMPDEST PUSH2 0x391 PUSH0 DUP4 DUP4 PUSH2 0x6E9 JUMP JUMPDEST PUSH1 0x5 SLOAD PUSH1 0x1 PUSH1 0x1 PUSH1 0xA0 SHL SUB AND CALLER EQ PUSH2 0x3A6 JUMPI PUSH1 0x40 MLOAD PUSH4 0x118CDAA7 PUSH1 0xE0 SHL DUP2 MSTORE CALLER PUSH1 0x4 DUP3 ADD MSTORE PUSH1 0x24 ADD PUSH2 0x37E JUMP JUMPDEST PUSH1 0x5 DUP1 SLOAD PUSH1 0x1 PUSH1 0x1 PUSH1 0xA0 SHL SUB DUP4 DUP2 AND PUSH1 0x1 PUSH1 0x1 PUSH1 0xA0 SHL SUB NOT DUP4 AND DUP2 OR SWAP1 SWAP4 SSTORE PUSH1 0x40 MLOAD SWAP2 AND SWAP2 SWAP1 DUP3 SWAP1 PUSH32 0x8BE0079C531659141344CD1FD0A4F28419497F9722A3DAAFE3B4186F6B6457E0 SWAP1 PUSH0 SWAP1 LOG3 POP POP JUMP JUMPDEST PUSH1 0x1 PUSH1 0x1 PUSH1 0xA0 SHL SUB DUP5 AND PUSH2 0x640 JUMPI PUSH1 0x40 MLOAD PUSH4 0xE602DF05 PUSH1 0xE0 SHL DUP2 MSTORE PUSH0 PUSH1 0x4 DUP3 ADD MSTORE PUSH1 0x24 ADD PUSH2 0x37E JUMP JUMPDEST PUSH1 0x1 PUSH1 0x1 PUSH1 0xA0 SHL SUB DUP4 AND PUSH2 0x669 JUMPI PUSH1 0x40 MLOAD PUSH4 0x4A1406B1 PUSH1 0xE1 SHL DUP2 MSTORE PUSH0 PUSH1 0x4 DUP3 ADD MSTORE PUSH1 0x24 ADD PUSH2 0x37E JUMP JUMPDEST PUSH1 0x1 PUSH1 0x1 PUSH1 0xA0 SHL SUB DUP1 DUP6 AND PUSH0 SWAP1 DUP2 MSTORE PUSH1 0x1 PUSH1 0x20 SWAP1 DUP2 MSTORE PUSH1 0x40 DUP1 DUP4 KECCAK256 SWAP4 DUP8 AND DUP4 MSTORE SWAP3 SWAP1 MSTORE KECCAK256 DUP3 SWAP1 SSTORE DUP1 ISZERO PUSH2 0x502 JUMPI DUP3 PUSH1 0x1 PUSH1 0x1 PUSH1 0xA0 SHL SUB AND DUP5 PUSH1 0x1 PUSH1 0x1 PUSH1 0xA0 SHL SUB AND PUSH32 0x8C5BE1E5EBEC7D5BD14F71427D1E84F3DD0314C0F7B2291E5B200AC8C7C3B925 DUP5 PUSH1 0x40 MLOAD PUSH2 0x6DB SWAP2 DUP2 MSTORE PUSH1 0x20 ADD SWAP1 JUMP JUMPDEST PUSH1 0x40 MLOAD DUP1 SWAP2 SUB SWAP1 LOG3 POP POP POP POP JUMP JUMPDEST PUSH1 0x1 PUSH1 0x1 PUSH1 0xA0 SHL SUB DUP4 AND PUSH2 0x713 JUMPI DUP1 PUSH1 0x2 PUSH0 DUP3 DUP3 SLOAD PUSH2 0x708 SWAP2 SWAP1 PUSH2 0x94A JUMP JUMPDEST SWAP1 SWAP2 SSTORE POP PUSH2 0x783 SWAP1 POP JUMP JUMPDEST PUSH1 0x1 PUSH1 0x1 PUSH1 0xA0 SHL SUB DUP4 AND PUSH0 SWAP1 DUP2 MSTORE PUSH1 0x20 DUP2 SWAP1 MSTORE PUSH1 0x40 SWAP1 KECCAK256 SLOAD DUP2 DUP2 LT ISZERO PUSH2 0x765 JUMPI PUSH1 0x40 MLOAD PUSH4 0x391434E3 PUSH1 0xE2 SHL DUP2 MSTORE PUSH1 0x1 PUSH1 0x1 PUSH1 0xA0 SHL SUB DUP6 AND PUSH1 0x4 DUP3 ADD MSTORE PUSH1 0x24 DUP2 ADD DUP3 SWAP1 MSTORE PUSH1 0x44 DUP2 ADD DUP4 SWAP1 MSTORE PUSH1 0x64 ADD PUSH2 0x37E JUMP JUMPDEST PUSH1 0x1 PUSH1 0x1 PUSH1 0xA0 SHL SUB DUP5 AND PUSH0 SWAP1 DUP2 MSTORE PUSH1 0x20 DUP2 SWAP1 MSTORE PUSH1 0x40 SWAP1 KECCAK256 SWAP1 DUP3 SWAP1 SUB SWAP1 SSTORE JUMPDEST PUSH1 0x1 PUSH1 0x1 PUSH1 0xA0 SHL SUB DUP3 AND PUSH2 0x79F JUMPI PUSH1 0x2 DUP1 SLOAD DUP3 SWAP1 SUB SWAP1 SSTORE PUSH2 0x7BD JUMP JUMPDEST PUSH1 0x1 PUSH1 0x1 PUSH1 0xA0 SHL SUB DUP3 AND PUSH0 SWAP1 DUP2 MSTORE PUSH1 0x20 DUP2 SWAP1 MSTORE PUSH1 0x40 SWAP1 KECCAK256 DUP1 SLOAD DUP3 ADD SWAP1 SSTORE JUMPDEST DUP2 PUSH1 0x1 PUSH1 0x1 PUSH1 0xA0 SHL SUB AND DUP4 PUSH1 0x1 PUSH1 0x1 PUSH1 0xA0 SHL SUB AND PUSH32 0xDDF252AD1BE2C89B69C2B068FC378DAA952BA7F163C4A11628F55A4DF523B3EF DUP4 PUSH1 0x40 MLOAD PUSH2 0x802 SWAP2 DUP2 MSTORE PUSH1 0x20 ADD SWAP1 JUMP JUMPDEST PUSH1 0x40 MLOAD DUP1 SWAP2 SUB SWAP1 LOG3 POP POP POP JUMP JUMPDEST PUSH1 0x20 DUP2 MSTORE PUSH0 DUP3 MLOAD DUP1 PUSH1 0x20 DUP5 ADD MSTORE DUP1 PUSH1 0x20 DUP6 ADD PUSH1 0x40 DUP6 ADD MCOPY PUSH0 PUSH1 0x40 DUP3 DUP6 ADD ADD MSTORE PUSH1 0x40 PUSH1 0x1F NOT PUSH1 0x1F DUP4 ADD AND DUP5 ADD ADD SWAP2 POP POP SWAP3 SWAP2 POP POP JUMP JUMPDEST DUP1 CALLDATALOAD PUSH1 0x1 PUSH1 0x1 PUSH1 0xA0 SHL SUB DUP2 AND DUP2 EQ PUSH2 0x85A JUMPI PUSH0 PUSH0 REVERT JUMPDEST SWAP2 SWAP1 POP JUMP JUMPDEST PUSH0 PUSH0 PUSH1 0x40 DUP4 DUP6 SUB SLT ISZERO PUSH2 0x870 JUMPI PUSH0 PUSH0 REVERT JUMPDEST PUSH2 0x879 DUP4 PUSH2 0x844 JUMP JUMPDEST SWAP5 PUSH1 0x20 SWAP4 SWAP1 SWAP4 ADD CALLDATALOAD SWAP4 POP POP POP JUMP JUMPDEST PUSH0 PUSH0 PUSH0 PUSH1 0x60 DUP5 DUP7 SUB SLT ISZERO PUSH2 0x899 JUMPI PUSH0 PUSH0 REVERT JUMPDEST PUSH2 0x8A2 DUP5 PUSH2 0x844 JUMP JUMPDEST SWAP3 POP PUSH2 0x8B0 PUSH1 0x20 DUP6 ADD PUSH2 0x844 JUMP JUMPDEST SWAP3 SWAP6 SWAP3 SWAP5 POP POP POP PUSH1 0x40 SWAP2 SWAP1 SWAP2 ADD CALLDATALOAD SWAP1 JUMP JUMPDEST PUSH0 PUSH1 0x20 DUP3 DUP5 SUB SLT ISZERO PUSH2 0x8D1 JUMPI PUSH0 PUSH0 REVERT JUMPDEST PUSH2 0x8DA DUP3 PUSH2 0x844 JUMP JUMPDEST SWAP4 SWAP3 POP POP POP JUMP JUMPDEST PUSH0 PUSH0 PUSH1 0x40 DUP4 DUP6 SUB SLT ISZERO PUSH2 0x8F2 JUMPI PUSH0 PUSH0 REVERT JUMPDEST PUSH2 0x8FB DUP4 PUSH2 0x844 JUMP JUMPDEST SWAP2 POP PUSH2 0x909 PUSH1 0x20 DUP5 ADD PUSH2 0x844 JUMP JUMPDEST SWAP1 POP SWAP3 POP SWAP3 SWAP1 POP JUMP JUMPDEST PUSH1 0x1 DUP2 DUP2 SHR SWAP1 DUP3 AND DUP1 PUSH2 0x926 JUMPI PUSH1 0x7F DUP3 AND SWAP2 POP JUMPDEST PUSH1 0x20 DUP3 LT DUP2 SUB PUSH2 0x944 JUMPI PUSH4 0x4E487B71 PUSH1 0xE0 SHL PUSH0 MSTORE PUSH1 0x22 PUSH1 0x4 MSTORE PUSH1 0x24 PUSH0 REVERT JUMPDEST POP SWAP2 SWAP1 POP JUMP JUMPDEST DUP1 DUP3 ADD DUP1 DUP3 GT ISZERO PUSH2 0x306 JUMPI PUSH4 0x4E487B71 PUSH1 0xE0 SHL PUSH0 MSTORE PUSH1 0x11 PUSH1 0x4 MSTORE PUSH1 0x24 PUSH0 REVERT INVALID LOG2 PUSH5 0x6970667358 0x22 SLT KECCAK256 0xE2 0xAA STATICCALL 0xDF 0xD0 0x4E BALANCE SWAP16 SWAP12 SWAP10 XOR MLOAD SELFBALANCE 0x2F 0x1F PUSH5 0xF08F4E8600 ADD EXTCODESIZE 0xA5 DUP13 GAS 0xD6 DATALOADN 0x9267 PUSH22 0x6064736F6C634300081D003300000000000000000000 "
				},
				"gasEstimates": {
					"creation": {
						"codeDepositCost": "506600",
						"executionCost": "infinite",
						"totalCost": "infinite"
					},
					"external": {
						"authorizedAddress()": "2381",
						"getRefereeCount(address)": "2591",
						"getReferees(address)": "infinite",
						"hasBeenReferred(address)": "2572",
						"owner()": "2374",
						"processReferral(address,address)": "infinite",
						"refereeReward()": "2306",
						"refereesOf(address,uint256)": "4824",
						"referrerOf(address)": "2644",
						"referrerReward()": "2307",
						"renounceOwnership()": "infinite",
						"rewardToken()": "2424",
						"setAuthorizedAddres(address)": "30443",
						"setRewardAmounts(uint256,uint256)": "48027",
						"transferOwnership(address)": "28395"
					}
				},
				"methodIdentifiers": {
					"authorizedAddress()": "5539d400",
					"getRefereeCount(address)": "2c070d7d",
					"getReferees(address)": "d499bc85",
					"hasBeenReferred(address)": "d62c1164",
					"owner()": "8da5cb5b",
					"processReferral(address,address)": "55bf73be",
					"refereeReward()": "544ef43e",
					"refereesOf(address,uint256)": "27b692f2",
					"referrerOf(address)": "d21cacdf",
					"referrerReward()": "0763f34e",
					"renounceOwnership()": "715018a6",
					"rewardToken()": "f7c618c1",
					"setAuthorizedAddres(address)": "865aa800",
					"setRewardAmounts(uint256,uint256)": "d113ef7c",
					"transferOwnership(address)": "f2fde38b"
				}
			},
			"storageLayout": {
				"storage": [
					{
						"astId": 8,
						"contract": "referralSystem.sol:ReferralRewards",
						"label": "_owner",
						"offset": 0,
						"slot": "0",
						"type": "t_address"
					},
					{
						"astId": 942,
						"contract": "referralSystem.sol:ReferralRewards",
						"label": "rewardToken",
						"offset": 0,
						"slot": "1",
						"type": "t_contract(RewardToken)1297"
					},
					{
						"astId": 944,
						"contract": "referralSystem.sol:ReferralRewards",
						"label": "authorizedAddress",
						"offset": 0,
						"slot": "2",
						"type": "t_address"
					},
					{
						"astId": 951,
						"contract": "referralSystem.sol:ReferralRewards",
						"label": "referrerReward",
						"offset": 0,
						"slot": "3",
						"type": "t_uint256"
					},
					{
						"astId": 958,
						"contract": "referralSystem.sol:ReferralRewards",
						"label": "refereeReward",
						"offset": 0,
						"slot": "4",
						"type": "t_uint256"
					},
					{
						"astId": 962,
						"contract": "referralSystem.sol:ReferralRewards",
						"label": "hasBeenReferred",
						"offset": 0,
						"slot": "5",
						"type": "t_mapping(t_address,t_bool)"
					},
					{
						"astId": 966,
						"contract": "referralSystem.sol:ReferralRewards",
						"label": "referrerOf",
						"offset": 0,
						"slot": "6",
						"type": "t_mapping(t_address,t_address)"
					},
					{
						"astId": 971,
						"contract": "referralSystem.sol:ReferralRewards",
						"label": "refereesOf",
						"offset": 0,
						"slot": "7",
						"type": "t_mapping(t_address,t_array(t_address)dyn_storage)"
					}
				],
				"types": {
					"t_address": {
						"encoding": "inplace",
						"label": "address",
						"numberOfBytes": "20"
					},
					"t_array(t_address)dyn_storage": {
						"base": "t_address",
						"encoding": "dynamic_array",
						"label": "address[]",
						"numberOfBytes": "32"
					},
					"t_bool": {
						"encoding": "inplace",
						"label": "bool",
						"numberOfBytes": "1"
					},
					"t_contract(RewardToken)1297": {
						"encoding": "inplace",
						"label": "contract RewardToken",
						"numberOfBytes": "20"
					},
					"t_mapping(t_address,t_address)": {
						"encoding": "mapping",
						"key": "t_address",
						"label": "mapping(address => address)",
						"numberOfBytes": "32",
						"value": "t_address"
					},
					"t_mapping(t_address,t_array(t_address)dyn_storage)": {
						"encoding": "mapping",
						"key": "t_address",
						"label": "mapping(address => address[])",
						"numberOfBytes": "32",
						"value": "t_array(t_address)dyn_storage"
					},
					"t_mapping(t_address,t_bool)": {
						"encoding": "mapping",
						"key": "t_address",
						"label": "mapping(address => bool)",
						"numberOfBytes": "32",
						"value": "t_bool"
					},
					"t_uint256": {
						"encoding": "inplace",
						"label": "uint256",
						"numberOfBytes": "32"
					}
				}
			},
			"userdoc": {
				"kind": "user",
				"methods": {},
				"version": 1
			}
		}
	}
}