{
	"data": {
		"bytecode": {
			"linkReferences": {},
			"object": "60e06040526103e8608090815261138860a05261271060c052610026906004906003610224565b5060405180606001604052806040518060400160405280600681526020016542726f6e7a6560d01b81525081526020016040518060400160405280600681526020016529b4b63b32b960d11b81525081526020016040518060400160405280600481526020016311dbdb1960e21b81525081525060059060036100aa929190610273565b503480156100b6575f5ffd5b506040516153073803806153078339810160408190526100d591610347565b33806100fa57604051631e4fbdf760e01b81525f600482015260240160405180910390fd5b610103816101d5565b50600180546001600160a01b0319166001600160a01b038316179055604051309061012d906102c3565b6001600160a01b039091168152602001604051809103905ff080158015610156573d5f5f3e3d5ffd5b50600280546001600160a01b0319166001600160a01b03929092169190911790556040513090610185906102d0565b6001600160a01b039091168152602001604051809103905ff0801580156101ae573d5f5f3e3d5ffd5b50600380546001600160a01b0319166001600160a01b0392909216919091179055506104c6565b5f80546001600160a01b038381166001600160a01b0319831681178455604051919092169283917f8be0079c531659141344cd1fd0a4f28419497f9722a3daafe3b4186f6b6457e09190a35050565b828054828255905f5260205f20908101928215610263579160200282015b82811115610263578251829061ffff16905591602001919060010190610242565b5061026f9291506102dd565b5090565b828054828255905f5260205f209081019282156102b7579160200282015b828111156102b757825182906102a7908261040c565b5091602001919060010190610291565b5061026f9291506102f1565b611a2380611d4783390190565b611b9d8061376a83390190565b5b8082111561026f575f81556001016102de565b8082111561026f575f610304828261030d565b506001016102f1565b50805461031990610388565b5f825580601f10610328575050565b601f0160209004905f5260205f209081019061034491906102dd565b50565b5f60208284031215610357575f5ffd5b81516001600160a01b038116811461036d575f5ffd5b9392505050565b634e487b7160e01b5f52604160045260245ffd5b600181811c9082168061039c57607f821691505b6020821081036103ba57634e487b7160e01b5f52602260045260245ffd5b50919050565b601f82111561040757805f5260205f20601f840160051c810160208510156103e55750805b601f840160051c820191505b81811015610404575f81556001016103f1565b50505b505050565b81516001600160401b0381111561042557610425610374565b610439816104338454610388565b846103c0565b6020601f82116001811461046b575f83156104545750848201515b5f19600385901b1c1916600184901b178455610404565b5f84815260208120601f198516915b8281101561049a578785015182556020948501946001909201910161047a565b50848210156104b757868401515f19600387901b60f8161c191681555b50505050600190811b01905550565b611874806104d35f395ff3fe608060405234801561000f575f5ffd5b506004361061011c575f3560e01c80636386c1c7116100a95780639c373dc51161006e5780639c373dc514610283578063a694fc3a1461028b578063f2fde38b1461029e578063f36596da146102b1578063fefd4e4f146102c4575f5ffd5b80636386c1c714610203578063715018a61461024557806372f702f31461024d57806377f648b7146102605780638da5cb5b14610273575f5ffd5b8063496db3b9116100ef578063496db3b9146101765780635997bb37146101965780635dcc93911461019e5780635fcbd285146101a657806361a2e650146101d1575f5ffd5b8063039af9eb146101205780632be11ae2146101465780632e1a7d4d1461015057806331d7a26214610163575b5f5ffd5b61013361012e3660046113a0565b6102d7565b6040519081526020015b60405180910390f35b61014e6102f6565b005b61014e61015e3660046113a0565b6103ea565b6101336101713660046113b7565b61050b565b6101896101843660046113a0565b61051b565b60405161013d919061140b565b610133600a81565b610133600581565b6002546101b9906001600160a01b031681565b6040516001600160a01b03909116815260200161013d565b6101f36101df3660046113b7565b60076020525f908152604090205460ff1681565b604051901515815260200161013d565b6102166102113660046113b7565b610589565b6040805196875260208701959095529385019290925260608401521515608083015260a082015260c00161013d565b61014e6105ea565b6001546101b9906001600160a01b031681565b6003546101b9906001600160a01b031681565b5f546001600160a01b03166101b9565b610133606481565b61014e6102993660046113a0565b6105fd565b61014e6102ac3660046113b7565b6107dc565b6101896102bf3660046113a0565b610819565b6101336102d23660046113b7565b6108bf565b600481815481106102e6575f80fd5b5f91825260209091200154905081565b6102ff336109ce565b335f8181526006602052604081209161031790610a53565b90505f81116103655760405162461bcd60e51b8152602060048201526015602482015274139bc81c995dd85c991cc81d1bc81a185c9d995cdd605a1b60448201526064015b60405180910390fd5b42826001018190555080826003015f8282546103819190611431565b90915550610390905033610ac5565b61039933610c53565b6001546103b0906001600160a01b03163383610d84565b60405181815233907fbc8fb63d817de4fabea2108e9b7eefca87245899f4b357636c26b5cad02ec5b4906020015b60405180910390a25050565b335f908152600660205260409020600581015460ff1661043d5760405162461bcd60e51b815260206004820152600e60248201526d139bc81cdd185ad948199bdd5b9960921b604482015260640161035c565b5f8211801561044d575080548211155b6104995760405162461bcd60e51b815260206004820152601760248201527f496e76616c696420776974686472617720616d6f756e74000000000000000000604482015260640161035c565b6104a2336109ce565b81815f015f8282546104b49190611444565b90915550506001546104d0906001600160a01b03163384610d84565b6104d933610c53565b60405182815233907f7084f5476618d8e60b11ef0d7d3f06914655adb8793e28ff7f018d4c76d505d5906020016103de565b5f61051582610a53565b92915050565b60025460405163c87b56dd60e01b8152600481018390526060916001600160a01b03169063c87b56dd906024015f60405180830381865afa158015610562573d5f5f3e3d5ffd5b505050506040513d5f823e601f3d908101601f19168201604052610515919081019061146b565b6001600160a01b0381165f908152600660205260408120805460028201546003830154600484015460058501548695869586958695869593949293919290919060ff166105d58d610a53565b949d939c50919a509850965090945092505050565b6105f2610de3565b6105fb5f610e0f565b565b5f811161063d5760405162461bcd60e51b815260206004820152600e60248201526d043616e6e6f74207374616b6520360941b604482015260640161035c565b610646336109ce565b60015461065e906001600160a01b0316333084610e5e565b335f908152600660205260408120805483929061067c908490611431565b9091555050335f9081526006602052604090206005015460ff161580156106b25750335f9081526007602052604090205460ff16155b1561079b57335f81815260066020526040808220600501805460ff1916600117905560025490516335313c2160e11b8152600481019390935290916001600160a01b0390911690636a627842906024016020604051808303815f875af115801561071e573d5f5f3e3d5ffd5b505050506040513d601f19601f82011682018060405250810190610742919061151e565b335f8181526007602052604090819020805460ff1916600117905551919250907fa4f2b345db6cbf1b76c079bb299d674f15ccd646b14011497bcc77cb8bcf1ec3906107919084815260200190565b60405180910390a2505b6107a433610c53565b60405181815233907f9e71bc8eea02a63969f509818f2dafb9254532904319f9dbda79b67bd34a5f3d9060200160405180910390a250565b6107e4610de3565b6001600160a01b03811661080d57604051631e4fbdf760e01b81525f600482015260240161035c565b61081681610e0f565b50565b60058181548110610828575f80fd5b905f5260205f20015f91509050805461084090611535565b80601f016020809104026020016040519081016040528092919081815260200182805461086c90611535565b80156108b75780601f1061088e576101008083540402835291602001916108b7565b820191905f5260205f20905b81548152906001019060200180831161089a57829003601f168201915b505050505081565b6001600160a01b0381165f9081526006602052604081206005015460ff1661091f5760405162461bcd60e51b8152602060048201526013602482015272155cd95c881a185cc81b9bdd081cdd185ad959606a1b604482015260640161035c565b600254604051632f745c5960e01b81526001600160a01b0384811660048301525f602483015290911690632f745c5990604401602060405180830381865afa92505050801561098b575060408051601f3d908101601f191682019092526109889181019061151e565b60015b6105155760405162461bcd60e51b81526020600482015260146024820152732ab9b2b9103430b9903737902628103a37b5b2b760611b604482015260640161035c565b6001600160a01b0381165f908152600660205260409020600581015460ff166109fb574260019091015550565b5f816001015442610a0c9190611444565b825490915015801590610a1e57505f81115b15610a48578154610a3090829061156d565b826002015f828254610a429190611431565b90915550505b504260019091015550565b6001600160a01b0381165f90815260066020526040812080548203610a7a57505f92915050565b5f816001015442610a8b9190611444565b9050610a996005606461156d565b82548290610aa990600a9061156d565b610ab3919061156d565b610abd9190611584565b949350505050565b6001600160a01b0381165f908152600660205260408120905b600454811015610c4e5760048181548110610afb57610afb6115a3565b905f5260205f200154826003015410158015610b1b575080826004015411155b15610c4657610b2b816001611431565b6004838101919091556003546040516340c10f1960e01b81526001600160a01b0386811693820193909352602481018490525f92909116906340c10f19906044016020604051808303815f875af1158015610b88573d5f5f3e3d5ffd5b505050506040513d601f19601f82011682018060405250810190610bac919061151e565b90506001600160a01b0384167f867cf698bd702b31fbdf75aaa97c18bfd741b4cfaba7e131b16673cbd4593c60610be4846001611431565b60405190815260200160405180910390a26001600160a01b0384167ffe229a3a5769bcf655431ce362c473bea2e49555eaf9f537e406192a622fab9b82610c2c856001611431565b6040805192835260208301919091520160405180910390a2505b600101610ade565b505050565b6001600160a01b0381165f908152600660205260409020600581015460ff161580610c9657506001600160a01b0382165f9081526007602052604090205460ff16155b15610c9f575050565b600254604051632f745c5960e01b81526001600160a01b0384811660048301525f60248301819052921690632f745c5990604401602060405180830381865afa158015610cee573d5f5f3e3d5ffd5b505050506040513d601f19601f82011682018060405250810190610d12919061151e565b90505f610d1e84610e9d565b600254604051630588253160e21b81529192506001600160a01b03169063162094c490610d5190859085906004016115b7565b5f604051808303815f87803b158015610d68575f5ffd5b505af1158015610d7a573d5f5f3e3d5ffd5b5050505050505050565b6040516001600160a01b03838116602483015260448201839052610c4e91859182169063a9059cbb906064015b604051602081830303815290604052915060e01b6020820180516001600160e01b03838183161783525050505061102a565b5f546001600160a01b031633146105fb5760405163118cdaa760e01b815233600482015260240161035c565b5f80546001600160a01b038381166001600160a01b0319831681178455604051919092169283917f8be0079c531659141344cd1fd0a4f28419497f9722a3daafe3b4186f6b6457e09190a35050565b6040516001600160a01b038481166024830152838116604483015260648201839052610e979186918216906323b872dd90608401610db1565b50505050565b6001600160a01b0381165f90815260066020526040812060048101546060929015801590610ed15750600554600483015411155b610ef757604051806040016040528060048152602001634e6f6e6560e01b815250610faa565b600560018360040154610f0a9190611444565b81548110610f1a57610f1a6115a3565b905f5260205f20018054610f2d90611535565b80601f0160208091040260200160405190810160405280929190818152602001828054610f5990611535565b8015610fa45780601f10610f7b57610100808354040283529160200191610fa4565b820191905f5260205f20905b815481529060010190602001808311610f8757829003601f168201915b50505050505b90505f610fb9835f0154611096565b610fc68460020154611096565b610fd38560030154611096565b84604051602001610fe794939291906115e6565b604051602081830303815290604052905061100181611126565b60405160200161101191906117cd565b6040516020818303038152906040529350505050919050565b5f5f60205f8451602086015f885af180611049576040513d5f823e3d81fd5b50505f513d9150811561106057806001141561106d565b6001600160a01b0384163b155b15610e9757604051635274afe760e01b81526001600160a01b038516600482015260240161035c565b60605f6110a28361114c565b60010190505f8167ffffffffffffffff8111156110c1576110c1611457565b6040519080825280601f01601f1916602001820160405280156110eb576020820181803683370190505b5090508181016020015b5f19016f181899199a1a9b1b9c1cb0b131b232b360811b600a86061a8153600a85049450846110f557509392505050565b6060610515826040518060600160405280604081526020016117ff604091396001611223565b5f8072184f03e93ff9f4daa797ed6e38ed64bf6a1f0160401b831061118a5772184f03e93ff9f4daa797ed6e38ed64bf6a1f0160401b830492506040015b6d04ee2d6d415b85acef810000000083106111b6576d04ee2d6d415b85acef8100000000830492506020015b662386f26fc1000083106111d457662386f26fc10000830492506010015b6305f5e10083106111ec576305f5e100830492506008015b612710831061120057612710830492506004015b60648310611212576064830492506002015b600a83106105155760010192915050565b606083515f03611241575060408051602081019091525f8152611399565b5f8261127157600385516004611257919061156d565b611262906002611431565b61126c9190611584565b611296565b6003855160026112819190611431565b61128b9190611584565b61129690600461156d565b90505f8167ffffffffffffffff8111156112b2576112b2611457565b6040519080825280601f01601f1916602001820160405280156112dc576020820181803683370190505b509050600185016020820187885189016020810180515f82525b82841015611351576003840193508351603f8160121c168701518653600186019550603f81600c1c168701518653600186019550603f8160061c168701518653600186019550603f81168701518653506001850194506112f6565b90525050851561139257600388510660018114611375576002811461138857611390565b603d6001830353603d6002830353611390565b603d60018303535b505b5090925050505b9392505050565b5f602082840312156113b0575f5ffd5b5035919050565b5f602082840312156113c7575f5ffd5b81356001600160a01b0381168114611399575f5ffd5b5f81518084528060208401602086015e5f602082860101526020601f19601f83011685010191505092915050565b602081525f61139960208301846113dd565b634e487b7160e01b5f52601160045260245ffd5b808201808211156105155761051561141d565b818103818111156105155761051561141d565b634e487b7160e01b5f52604160045260245ffd5b5f6020828403121561147b575f5ffd5b815167ffffffffffffffff811115611491575f5ffd5b8201601f810184136114a1575f5ffd5b805167ffffffffffffffff8111156114bb576114bb611457565b604051601f8201601f19908116603f0116810167ffffffffffffffff811182821017156114ea576114ea611457565b604052818152828201602001861015611501575f5ffd5b8160208401602083015e5f91810160200191909152949350505050565b5f6020828403121561152e575f5ffd5b5051919050565b600181811c9082168061154957607f821691505b60208210810361156757634e487b7160e01b5f52602260045260245ffd5b50919050565b80820281158282048414176105155761051561141d565b5f8261159e57634e487b7160e01b5f52601260045260245ffd5b500490565b634e487b7160e01b5f52603260045260245ffd5b828152604060208201525f610abd60408301846113dd565b5f81518060208401855e5f93019283525090919050565b7f7b226e616d65223a20225374616b696e67204c5020546f6b656e222c2022646581527f736372697074696f6e223a2022526570726573656e747320796f757220737461602082015270035b29034b7103a3432903837b7b611161607d1b60408201526e2261747472696275746573223a205b60881b60518201527f7b2274726169745f74797065223a20225374616b656420416d6f756e74222c20606082015269113b30b63ab2911d101160b11b60808201525f6116a8608a8301876115cf565b62089f4b60ea1b81527f7b2274726169745f74797065223a202254696d652d576569676874656420536360038201526f37b932911610113b30b63ab2911d101160811b60238201526117c26117b46117a66117a061176561171361175f6117228260338a018f6115cf565b62089f4b60ea1b815260030190565b7f7b2274726169745f74797065223a202252657761726473204561726e6564222c81526a10113b30b63ab2911d101160a91b6020820152602b0190565b8b6115cf565b7f7b2274726169745f74797065223a202243757272656e742054696572222c20228152683b30b63ab2911d101160b91b602082015260290190565b876115cf565b61227d60f01b815260020190565b615d7d60f01b815260020190565b979650505050505050565b7f646174613a6170706c69636174696f6e2f6a736f6e3b6261736536342c00000081525f611399601d8301846115cf56fe4142434445464748494a4b4c4d4e4f505152535455565758595a6162636465666768696a6b6c6d6e6f707172737475767778797a303132333435363738392b2fa26469706673582212208cfee3ee770c966a1fb936b28ad94cc79e146faf4ea966a75d420c2c6ac4421864736f6c634300081d0033608060405234801561000f575f5ffd5b50604051611a23380380611a2383398101604081905261002e916100b8565b6040518060400160405280601081526020016f29ba30b5b4b733902628102a37b5b2b760811b8152506040518060400160405280600481526020016314d3141560e21b815250815f9081610082919061017d565b50600161008f828261017d565b5050600880546001600160a01b0319166001600160a01b03939093169290921790915550610237565b5f602082840312156100c8575f5ffd5b81516001600160a01b03811681146100de575f5ffd5b9392505050565b634e487b7160e01b5f52604160045260245ffd5b600181811c9082168061010d57607f821691505b60208210810361012b57634e487b7160e01b5f52602260045260245ffd5b50919050565b601f82111561017857805f5260205f20601f840160051c810160208510156101565750805b601f840160051c820191505b81811015610175575f8155600101610162565b50505b505050565b81516001600160401b03811115610196576101966100e5565b6101aa816101a484546100f9565b84610131565b6020601f8211600181146101dc575f83156101c55750848201515b5f19600385901b1c1916600184901b178455610175565b5f84815260208120601f198516915b8281101561020b57878501518255602094850194600190920191016101eb565b508482101561022857868401515f19600387901b60f8161c191681555b50505050600190811b01905550565b6117df806102445f395ff3fe608060405234801561000f575f5ffd5b5060043610610132575f3560e01c806370a08231116100b4578063af24b07b11610079578063af24b07b146102a3578063b88d4fde146102c2578063bd376800146102d5578063c87b56dd146102e8578063e985e9c5146102fb578063ee99205c1461030e575f5ffd5b806370a08231146102335780638462151c1461024657806395d89b41146102665780639bb0f5991461026e578063a22cb46514610290575f5ffd5b806323b872dd116100fa57806323b872dd146101c65780632f745c59146101d957806342842e0e146101fa5780636352211e1461020d5780636a62784214610220575f5ffd5b806301ffc9a71461013657806306fdde031461015e578063081812fc14610173578063095ea7b31461019e578063162094c4146101b3575b5f5ffd5b610149610144366004611281565b610321565b60405190151581526020015b60405180910390f35b61016661034b565b60405161015591906112ca565b6101866101813660046112dc565b6103da565b6040516001600160a01b039091168152602001610155565b6101b16101ac366004611309565b610401565b005b6101b16101c13660046113bc565b610410565b6101b16101d4366004611413565b610471565b6101ec6101e7366004611309565b6104fa565b604051908152602001610155565b6101b1610208366004611413565b610590565b61018661021b3660046112dc565b6105af565b6101ec61022e36600461144d565b6105b9565b6101ec61024136600461144d565b6106e8565b61025961025436600461144d565b61072d565b6040516101559190611466565b610166610796565b61014961027c36600461144d565b600a6020525f908152604090205460ff1681565b6101b161029e3660046114a8565b6107a5565b6101ec6102b136600461144d565b600b6020525f908152604090205481565b6101b16102d03660046114e1565b6107b0565b6101ec6102e336600461144d565b6107c8565b6101666102f63660046112dc565b610841565b610149610309366004611558565b61094c565b600854610186906001600160a01b031681565b5f6001600160e01b03198216632483248360e11b1480610345575061034582610979565b92915050565b60605f805461035990611589565b80601f016020809104026020016040519081016040528092919081815260200182805461038590611589565b80156103d05780601f106103a7576101008083540402835291602001916103d0565b820191905f5260205f20905b8154815290600101906020018083116103b357829003601f168201915b5050505050905090565b5f6103e4826109c8565b505f828152600460205260409020546001600160a01b0316610345565b61040c828233610a00565b5050565b6008546001600160a01b031633146104675760405162461bcd60e51b815260206004820152601560248201527413db9b1e481cdd185ada5b99c818dbdb9d1c9858dd605a1b60448201526064015b60405180910390fd5b61040c8282610a0d565b6001600160a01b03821661049a57604051633250574960e11b81525f600482015260240161045e565b5f6104a6838333610a5c565b9050836001600160a01b0316816001600160a01b0316146104f4576040516364283d7b60e01b81526001600160a01b038086166004830152602482018490528216604482015260640161045e565b50505050565b6001600160a01b0382165f9081526009602052604081205482106105565760405162461bcd60e51b8152602060048201526013602482015272496e646578206f7574206f6620626f756e647360681b604482015260640161045e565b6001600160a01b0383165f90815260096020526040902080548390811061057f5761057f6115c1565b905f5260205f200154905092915050565b6105aa83838360405180602001604052805f8152506107b0565b505050565b5f610345826109c8565b6008545f906001600160a01b0316331461060d5760405162461bcd60e51b815260206004820152601560248201527413db9b1e481cdd185ada5b99c818dbdb9d1c9858dd605a1b604482015260640161045e565b6001600160a01b0382165f908152600a602052604090205460ff16156106755760405162461bcd60e51b815260206004820152601c60248201527f5573657220616c72656164792068617320616e204c5020746f6b656e00000000604482015260640161045e565b600780549081905f610686836115e9565b91905055506106958382610ac5565b6001600160a01b0383165f81815260096020908152604080832080546001818101835591855283852001869055938352600a8252808320805460ff1916909417909355600b90522081905590505b919050565b5f6001600160a01b038216610712576040516322718ad960e21b81525f600482015260240161045e565b506001600160a01b03165f9081526003602052604090205490565b6001600160a01b0381165f9081526009602090815260409182902080548351818402810184019094528084526060939283018282801561078a57602002820191905f5260205f20905b815481526020019060010190808311610776575b50505050509050919050565b60606001805461035990611589565b61040c338383610ade565b6107bb848484610471565b6104f43385858585610b7c565b6001600160a01b0381165f908152600a602052604081205460ff166108265760405162461bcd60e51b81526020600482015260146024820152732ab9b2b9103430b9903737902628103a37b5b2b760611b604482015260640161045e565b506001600160a01b03165f908152600b602052604090205490565b606061084c826109c8565b505f828152600660205260408120805461086590611589565b80601f016020809104026020016040519081016040528092919081815260200182805461089190611589565b80156108dc5780601f106108b3576101008083540402835291602001916108dc565b820191905f5260205f20905b8154815290600101906020018083116108bf57829003601f168201915b505050505090505f6108f860408051602081019091525f815290565b905080515f03610909575092915050565b81511561093b578082604051602001610923929190611618565b60405160208183030381529060405292505050919050565b61094484610ca4565b949350505050565b6001600160a01b039182165f90815260056020908152604080832093909416825291909152205460ff1690565b5f6001600160e01b031982166380ac58cd60e01b14806109a957506001600160e01b03198216635b5e139f60e01b145b8061034557506301ffc9a760e01b6001600160e01b0319831614610345565b5f818152600260205260408120546001600160a01b03168061034557604051637e27328960e01b81526004810184905260240161045e565b6105aa8383836001610d15565b5f828152600660205260409020610a248282611670565b506040518281527ff8e1a15aba9398e019f0b49df1a4fde98ee17ae345cb5f6b5e2c27f5033e8ce79060200160405180910390a15050565b5f5f610a69858585610e19565b90506001600160a01b03811615610a8457610a848185610f0b565b6001600160a01b03851615610944576001600160a01b0385165f90815260096020908152604082208054600181018255908352912001849055949350505050565b61040c828260405180602001604052805f815250610fc5565b6001600160a01b038216610b1057604051630b61174360e31b81526001600160a01b038316600482015260240161045e565b6001600160a01b038381165f81815260056020908152604080832094871680845294825291829020805460ff191686151590811790915591519182527f17307eab39ab6107e8899845ad3d59bd9653f200f220920489ca2b5937696c31910160405180910390a3505050565b6001600160a01b0383163b15610c9d57604051630a85bd0160e11b81526001600160a01b0384169063150b7a0290610bbe90889088908790879060040161172b565b6020604051808303815f875af1925050508015610bf8575060408051601f3d908101601f19168201909252610bf591810190611767565b60015b610c5f573d808015610c25576040519150601f19603f3d011682016040523d82523d5f602084013e610c2a565b606091505b5080515f03610c5757604051633250574960e11b81526001600160a01b038516600482015260240161045e565b805181602001fd5b6001600160e01b03198116630a85bd0160e11b14610c9b57604051633250574960e11b81526001600160a01b038516600482015260240161045e565b505b5050505050565b6060610caf826109c8565b505f610cc560408051602081019091525f815290565b90505f815111610ce35760405180602001604052805f815250610d0e565b80610ced84610fdc565b604051602001610cfe929190611618565b6040516020818303038152906040525b9392505050565b8080610d2957506001600160a01b03821615155b15610dea575f610d38846109c8565b90506001600160a01b03831615801590610d645750826001600160a01b0316816001600160a01b031614155b8015610d775750610d75818461094c565b155b15610da05760405163a9fbf51f60e01b81526001600160a01b038416600482015260240161045e565b8115610de85783856001600160a01b0316826001600160a01b03167f8c5be1e5ebec7d5bd14f71427d1e84f3dd0314c0f7b2291e5b200ac8c7c3b92560405160405180910390a45b505b50505f90815260046020526040902080546001600160a01b0319166001600160a01b0392909216919091179055565b5f828152600260205260408120546001600160a01b0390811690831615610e4557610e4581848661106c565b6001600160a01b03811615610e7f57610e605f855f5f610d15565b6001600160a01b0381165f90815260036020526040902080545f190190555b6001600160a01b03851615610ead576001600160a01b0385165f908152600360205260409020805460010190555b5f8481526002602052604080822080546001600160a01b0319166001600160a01b0389811691821790925591518793918516917fddf252ad1be2c89b69c2b068fc378daa952ba7f163c4a11628f55a4df523b3ef91a4949350505050565b6001600160a01b0382165f908152600960205260408120905b81548110156104f45782828281548110610f4057610f406115c1565b905f5260205f20015403610fbd5781548290610f5e90600190611782565b81548110610f6e57610f6e6115c1565b905f5260205f200154828281548110610f8957610f896115c1565b905f5260205f20018190555081805480610fa557610fa5611795565b600190038181905f5260205f20015f905590556104f4565b600101610f24565b610fcf83836110d0565b6105aa335f858585610b7c565b60605f610fe883611131565b60010190505f8167ffffffffffffffff81111561100757611007611331565b6040519080825280601f01601f191660200182016040528015611031576020820181803683370190505b5090508181016020015b5f19016f181899199a1a9b1b9c1cb0b131b232b360811b600a86061a8153600a850494508461103b57509392505050565b611077838383611208565b6105aa576001600160a01b0383166110a557604051637e27328960e01b81526004810182905260240161045e565b60405163177e802f60e01b81526001600160a01b03831660048201526024810182905260440161045e565b6001600160a01b0382166110f957604051633250574960e11b81525f600482015260240161045e565b5f61110583835f610a5c565b90506001600160a01b038116156105aa576040516339e3563760e11b81525f600482015260240161045e565b5f8072184f03e93ff9f4daa797ed6e38ed64bf6a1f0160401b831061116f5772184f03e93ff9f4daa797ed6e38ed64bf6a1f0160401b830492506040015b6d04ee2d6d415b85acef8100000000831061119b576d04ee2d6d415b85acef8100000000830492506020015b662386f26fc1000083106111b957662386f26fc10000830492506010015b6305f5e10083106111d1576305f5e100830492506008015b61271083106111e557612710830492506004015b606483106111f7576064830492506002015b600a83106103455760010192915050565b5f6001600160a01b038316158015906109445750826001600160a01b0316846001600160a01b031614806112415750611241848461094c565b806109445750505f908152600460205260409020546001600160a01b03908116911614919050565b6001600160e01b03198116811461127e575f5ffd5b50565b5f60208284031215611291575f5ffd5b8135610d0e81611269565b5f81518084528060208401602086015e5f602082860101526020601f19601f83011685010191505092915050565b602081525f610d0e602083018461129c565b5f602082840312156112ec575f5ffd5b5035919050565b80356001600160a01b03811681146106e3575f5ffd5b5f5f6040838503121561131a575f5ffd5b611323836112f3565b946020939093013593505050565b634e487b7160e01b5f52604160045260245ffd5b5f5f67ffffffffffffffff84111561135f5761135f611331565b50604051601f19601f85018116603f0116810181811067ffffffffffffffff8211171561138e5761138e611331565b6040528381529050808284018510156113a5575f5ffd5b838360208301375f60208583010152509392505050565b5f5f604083850312156113cd575f5ffd5b82359150602083013567ffffffffffffffff8111156113ea575f5ffd5b8301601f810185136113fa575f5ffd5b61140985823560208401611345565b9150509250929050565b5f5f5f60608486031215611425575f5ffd5b61142e846112f3565b925061143c602085016112f3565b929592945050506040919091013590565b5f6020828403121561145d575f5ffd5b610d0e826112f3565b602080825282518282018190525f918401906040840190835b8181101561149d57835183526020938401939092019160010161147f565b509095945050505050565b5f5f604083850312156114b9575f5ffd5b6114c2836112f3565b9150602083013580151581146114d6575f5ffd5b809150509250929050565b5f5f5f5f608085870312156114f4575f5ffd5b6114fd856112f3565b935061150b602086016112f3565b925060408501359150606085013567ffffffffffffffff81111561152d575f5ffd5b8501601f8101871361153d575f5ffd5b61154c87823560208401611345565b91505092959194509250565b5f5f60408385031215611569575f5ffd5b611572836112f3565b9150611580602084016112f3565b90509250929050565b600181811c9082168061159d57607f821691505b6020821081036115bb57634e487b7160e01b5f52602260045260245ffd5b50919050565b634e487b7160e01b5f52603260045260245ffd5b634e487b7160e01b5f52601160045260245ffd5b5f600182016115fa576115fa6115d5565b5060010190565b5f81518060208401855e5f93019283525090919050565b5f6109446116268386611601565b84611601565b601f8211156105aa57805f5260205f20601f840160051c810160208510156116515750805b601f840160051c820191505b81811015610c9d575f815560010161165d565b815167ffffffffffffffff81111561168a5761168a611331565b61169e816116988454611589565b8461162c565b6020601f8211600181146116d0575f83156116b95750848201515b5f19600385901b1c1916600184901b178455610c9d565b5f84815260208120601f198516915b828110156116ff57878501518255602094850194600190920191016116df565b508482101561171c57868401515f19600387901b60f8161c191681555b50505050600190811b01905550565b6001600160a01b03858116825284166020820152604081018390526080606082018190525f9061175d9083018461129c565b9695505050505050565b5f60208284031215611777575f5ffd5b8151610d0e81611269565b81810381811115610345576103456115d5565b634e487b7160e01b5f52603160045260245ffdfea26469706673582212200ed50c1cf97c566075b04751b2f91d8163939291222dfa5fc0785836a77a28ad64736f6c634300081d0033600660e08181526542726f6e7a6560d01b6101005260809081526101209182526529b4b63b32b960d11b6101405260a0919091526101a060405260046101609081526311dbdb1960e21b6101805260c05261005e90600a90600361011f565b5034801561006a575f5ffd5b50604051611b9d380380611b9d833981016040819052610089916101dd565b6040518060400160405280601981526020017f5374616b696e6720416368696576656d656e74204261646765000000000000008152506040518060400160405280600381526020016229a0a160e91b815250815f90816100e991906102a2565b5060016100f682826102a2565b5050600880546001600160a01b0319166001600160a01b0393909316929092179091555061035c565b828054828255905f5260205f20908101928215610163579160200282015b82811115610163578251829061015390826102a2565b509160200191906001019061013d565b5061016f929150610173565b5090565b8082111561016f575f610186828261018f565b50600101610173565b50805461019b9061021e565b5f825580601f106101aa575050565b601f0160209004905f5260205f20908101906101c691906101c9565b50565b5b8082111561016f575f81556001016101ca565b5f602082840312156101ed575f5ffd5b81516001600160a01b0381168114610203575f5ffd5b9392505050565b634e487b7160e01b5f52604160045260245ffd5b600181811c9082168061023257607f821691505b60208210810361025057634e487b7160e01b5f52602260045260245ffd5b50919050565b601f82111561029d57805f5260205f20601f840160051c8101602085101561027b5750805b601f840160051c820191505b8181101561029a575f8155600101610287565b50505b505050565b81516001600160401b038111156102bb576102bb61020a565b6102cf816102c9845461021e565b84610256565b6020601f821160018114610301575f83156102ea5750848201515b5f19600385901b1c1916600184901b17845561029a565b5f84815260208120601f198516915b828110156103305787850151825560209485019460019092019101610310565b508482101561034d57868401515f19600387901b60f8161c191681555b50505050600190811b01905550565b611834806103695f395ff3fe608060405234801561000f575f5ffd5b5060043610610106575f3560e01c806370a082311161009e578063c87b56dd1161006e578063c87b56dd14610222578063e985e9c514610235578063ee99205c14610248578063effbc10a1461025b578063f36596da1461027a575f5ffd5b806370a08231146101e157806395d89b41146101f4578063a22cb465146101fc578063b88d4fde1461020f575f5ffd5b806323b872dd116100d957806323b872dd1461018757806340c10f191461019a57806342842e0e146101bb5780636352211e146101ce575f5ffd5b806301ffc9a71461010a57806306fdde0314610132578063081812fc14610147578063095ea7b314610172575b5f5ffd5b61011d6101183660046111e2565b61028d565b60405190151581526020015b60405180910390f35b61013a6102b7565b604051610129919061122b565b61015a61015536600461123d565b610346565b6040516001600160a01b039091168152602001610129565b61018561018036600461126f565b61036d565b005b610185610195366004611297565b61037c565b6101ad6101a836600461126f565b61040a565b604051908152602001610129565b6101856101c9366004611297565b6104ac565b61015a6101dc36600461123d565b6104cb565b6101ad6101ef3660046112d1565b6104d5565b61013a61051a565b61018561020a3660046112ea565b610529565b61018561021d366004611337565b610534565b61013a61023036600461123d565b61054c565b61011d610243366004611414565b610657565b60085461015a906001600160a01b031681565b6101ad61026936600461123d565b60096020525f908152604090205481565b61013a61028836600461123d565b610684565b5f6001600160e01b03198216632483248360e11b14806102b157506102b18261072a565b92915050565b60605f80546102c590611445565b80601f01602080910402602001604051908101604052809291908181526020018280546102f190611445565b801561033c5780601f106103135761010080835404028352916020019161033c565b820191905f5260205f20905b81548152906001019060200180831161031f57829003601f168201915b5050505050905090565b5f61035082610779565b505f828152600460205260409020546001600160a01b03166102b1565b6103788282336107b1565b5050565b6001600160a01b0382166103aa57604051633250574960e11b81525f60048201526024015b60405180910390fd5b5f6103b68383336107be565b9050836001600160a01b0316816001600160a01b031614610404576040516364283d7b60e01b81526001600160a01b03808616600483015260248201849052821660448201526064016103a1565b50505050565b6008545f906001600160a01b0316331461045e5760405162461bcd60e51b815260206004820152601560248201527413db9b1e481cdd185ada5b99c818dbdb9d1c9858dd605a1b60448201526064016103a1565b600780549081905f61046f83611491565b919050555061047e84826108b2565b5f81815260096020526040812084905561049882856108cb565b90506104a482826109fc565b509392505050565b6104c683838360405180602001604052805f815250610534565b505050565b5f6102b182610779565b5f6001600160a01b0382166104ff576040516322718ad960e21b81525f60048201526024016103a1565b506001600160a01b03165f9081526003602052604090205490565b6060600180546102c590611445565b610378338383610a4b565b61053f84848461037c565b6104043385858585610ae9565b606061055782610779565b505f828152600660205260408120805461057090611445565b80601f016020809104026020016040519081016040528092919081815260200182805461059c90611445565b80156105e75780601f106105be576101008083540402835291602001916105e7565b820191905f5260205f20905b8154815290600101906020018083116105ca57829003601f168201915b505050505090505f61060360408051602081019091525f815290565b905080515f03610614575092915050565b81511561064657808260405160200161062e9291906114c0565b60405160208183030381529060405292505050919050565b61064f84610c11565b949350505050565b6001600160a01b039182165f90815260056020908152604080832093909416825291909152205460ff1690565b600a8181548110610693575f80fd5b905f5260205f20015f9150905080546106ab90611445565b80601f01602080910402602001604051908101604052809291908181526020018280546106d790611445565b80156107225780601f106106f957610100808354040283529160200191610722565b820191905f5260205f20905b81548152906001019060200180831161070557829003601f168201915b505050505081565b5f6001600160e01b031982166380ac58cd60e01b148061075a57506001600160e01b03198216635b5e139f60e01b145b806102b157506301ffc9a760e01b6001600160e01b03198316146102b1565b5f818152600260205260408120546001600160a01b0316806102b157604051637e27328960e01b8152600481018490526024016103a1565b6104c68383836001610c81565b5f828152600260205260408120546001600160a01b03908116908316156107ea576107ea818486610d85565b6001600160a01b03811615610824576108055f855f5f610c81565b6001600160a01b0381165f90815260036020526040902080545f190190555b6001600160a01b03851615610852576001600160a01b0385165f908152600360205260409020805460010190555b5f8481526002602052604080822080546001600160a01b0319166001600160a01b0389811691821790925591518793918516917fddf252ad1be2c89b69c2b068fc378daa952ba7f163c4a11628f55a4df523b3ef91a490505b9392505050565b610378828260405180602001604052805f815250610de9565b600a546060905f9083106108fe57604051806040016040528060078152602001662ab735b737bbb760c91b8152506109a1565b600a8381548110610911576109116114d4565b905f5260205f2001805461092490611445565b80601f016020809104026020016040519081016040528092919081815260200182805461095090611445565b801561099b5780601f106109725761010080835404028352916020019161099b565b820191905f5260205f20905b81548152906001019060200180831161097e57829003601f168201915b50505050505b90505f8182836040516020016109b9939291906114e8565b60405160208183030381529060405290506109d381610e00565b6040516020016109e391906115ee565b6040516020818303038152906040529250505092915050565b5f828152600660205260409020610a138282611663565b506040518281527ff8e1a15aba9398e019f0b49df1a4fde98ee17ae345cb5f6b5e2c27f5033e8ce79060200160405180910390a15050565b6001600160a01b038216610a7d57604051630b61174360e31b81526001600160a01b03831660048201526024016103a1565b6001600160a01b038381165f81815260056020908152604080832094871680845294825291829020805460ff191686151590811790915591519182527f17307eab39ab6107e8899845ad3d59bd9653f200f220920489ca2b5937696c31910160405180910390a3505050565b6001600160a01b0383163b15610c0a57604051630a85bd0160e11b81526001600160a01b0384169063150b7a0290610b2b90889088908790879060040161171e565b6020604051808303815f875af1925050508015610b65575060408051601f3d908101601f19168201909252610b629181019061175a565b60015b610bcc573d808015610b92576040519150601f19603f3d011682016040523d82523d5f602084013e610b97565b606091505b5080515f03610bc457604051633250574960e11b81526001600160a01b03851660048201526024016103a1565b805181602001fd5b6001600160e01b03198116630a85bd0160e11b14610c0857604051633250574960e11b81526001600160a01b03851660048201526024016103a1565b505b5050505050565b6060610c1c82610779565b505f610c3260408051602081019091525f815290565b90505f815111610c505760405180602001604052805f8152506108ab565b80610c5a84610e26565b604051602001610c6b9291906114c0565b6040516020818303038152906040529392505050565b8080610c9557506001600160a01b03821615155b15610d56575f610ca484610779565b90506001600160a01b03831615801590610cd05750826001600160a01b0316816001600160a01b031614155b8015610ce35750610ce18184610657565b155b15610d0c5760405163a9fbf51f60e01b81526001600160a01b03841660048201526024016103a1565b8115610d545783856001600160a01b0316826001600160a01b03167f8c5be1e5ebec7d5bd14f71427d1e84f3dd0314c0f7b2291e5b200ac8c7c3b92560405160405180910390a45b505b50505f90815260046020526040902080546001600160a01b0319166001600160a01b0392909216919091179055565b610d90838383610eb6565b6104c6576001600160a01b038316610dbe57604051637e27328960e01b8152600481018290526024016103a1565b60405163177e802f60e01b81526001600160a01b0383166004820152602481018290526044016103a1565b610df38383610f17565b6104c6335f858585610ae9565b60606102b1826040518060600160405280604081526020016117bf604091396001610f78565b60605f610e32836110f3565b60010190505f8167ffffffffffffffff811115610e5157610e51611323565b6040519080825280601f01601f191660200182016040528015610e7b576020820181803683370190505b5090508181016020015b5f19016f181899199a1a9b1b9c1cb0b131b232b360811b600a86061a8153600a8504945084610e8557509392505050565b5f6001600160a01b0383161580159061064f5750826001600160a01b0316846001600160a01b03161480610eef5750610eef8484610657565b8061064f5750505f908152600460205260409020546001600160a01b03908116911614919050565b6001600160a01b038216610f4057604051633250574960e11b81525f60048201526024016103a1565b5f610f4c83835f6107be565b90506001600160a01b038116156104c6576040516339e3563760e11b81525f60048201526024016103a1565b606083515f03610f96575060408051602081019091525f81526108ab565b5f82610fc657600385516004610fac9190611775565b610fb790600261178c565b610fc1919061179f565b610feb565b600385516002610fd6919061178c565b610fe0919061179f565b610feb906004611775565b90505f8167ffffffffffffffff81111561100757611007611323565b6040519080825280601f01601f191660200182016040528015611031576020820181803683370190505b509050600185016020820187885189016020810180515f82525b828410156110a6576003840193508351603f8160121c168701518653600186019550603f81600c1c168701518653600186019550603f8160061c168701518653600186019550603f811687015186535060018501945061104b565b9052505085156110e7576003885106600181146110ca57600281146110dd576110e5565b603d6001830353603d60028303536110e5565b603d60018303535b505b50909695505050505050565b5f8072184f03e93ff9f4daa797ed6e38ed64bf6a1f0160401b83106111315772184f03e93ff9f4daa797ed6e38ed64bf6a1f0160401b830492506040015b6d04ee2d6d415b85acef8100000000831061115d576d04ee2d6d415b85acef8100000000830492506020015b662386f26fc10000831061117b57662386f26fc10000830492506010015b6305f5e1008310611193576305f5e100830492506008015b61271083106111a757612710830492506004015b606483106111b9576064830492506002015b600a83106102b15760010192915050565b6001600160e01b0319811681146111df575f5ffd5b50565b5f602082840312156111f2575f5ffd5b81356108ab816111ca565b5f81518084528060208401602086015e5f602082860101526020601f19601f83011685010191505092915050565b602081525f6108ab60208301846111fd565b5f6020828403121561124d575f5ffd5b5035919050565b80356001600160a01b038116811461126a575f5ffd5b919050565b5f5f60408385031215611280575f5ffd5b61128983611254565b946020939093013593505050565b5f5f5f606084860312156112a9575f5ffd5b6112b284611254565b92506112c060208501611254565b929592945050506040919091013590565b5f602082840312156112e1575f5ffd5b6108ab82611254565b5f5f604083850312156112fb575f5ffd5b61130483611254565b915060208301358015158114611318575f5ffd5b809150509250929050565b634e487b7160e01b5f52604160045260245ffd5b5f5f5f5f6080858703121561134a575f5ffd5b61135385611254565b935061136160208601611254565b925060408501359150606085013567ffffffffffffffff811115611383575f5ffd5b8501601f81018713611393575f5ffd5b803567ffffffffffffffff8111156113ad576113ad611323565b604051601f8201601f19908116603f0116810167ffffffffffffffff811182821017156113dc576113dc611323565b6040528181528282016020018910156113f3575f5ffd5b816020840160208301375f6020838301015280935050505092959194509250565b5f5f60408385031215611425575f5ffd5b61142e83611254565b915061143c60208401611254565b90509250929050565b600181811c9082168061145957607f821691505b60208210810361147757634e487b7160e01b5f52602260045260245ffd5b50919050565b634e487b7160e01b5f52601160045260245ffd5b5f600182016114a2576114a261147d565b5060010190565b5f81518060208401855e5f93019283525090919050565b5f61064f6114ce83866114a9565b846114a9565b634e487b7160e01b5f52603260045260245ffd5b693d913730b6b2911d101160b11b81525f611506600a8301866114a9565b7401020b1b434b2bb32b6b2b73a102130b233b291161605d1b81527f226465736372697074696f6e223a20225468697320626164676520636572746960158201527f6669657320616368696576656d656e74206f6620746865200000000000000000603582015261157a604d8201866114a9565b680103a34b2b9171116160bd1b81527f2261747472696275746573223a205b7b2274726169745f74797065223a20225460098201526f34b2b9111610113b30b63ab2911d101160811b602982015290506115d760398201856114a9565b63227d5d7d60e01b81526004019695505050505050565b7f646174613a6170706c69636174696f6e2f6a736f6e3b6261736536342c00000081525f6108ab601d8301846114a9565b601f8211156104c657805f5260205f20601f840160051c810160208510156116445750805b601f840160051c820191505b81811015610c0a575f8155600101611650565b815167ffffffffffffffff81111561167d5761167d611323565b6116918161168b8454611445565b8461161f565b6020601f8211600181146116c3575f83156116ac5750848201515b5f19600385901b1c1916600184901b178455610c0a565b5f84815260208120601f198516915b828110156116f257878501518255602094850194600190920191016116d2565b508482101561170f57868401515f19600387901b60f8161c191681555b50505050600190811b01905550565b6001600160a01b03858116825284166020820152604081018390526080606082018190525f90611750908301846111fd565b9695505050505050565b5f6020828403121561176a575f5ffd5b81516108ab816111ca565b80820281158282048414176102b1576102b161147d565b808201808211156102b1576102b161147d565b5f826117b957634e487b7160e01b5f52601260045260245ffd5b50049056fe4142434445464748494a4b4c4d4e4f505152535455565758595a6162636465666768696a6b6c6d6e6f707172737475767778797a303132333435363738392b2fa2646970667358221220e1b0a98a6f7cba6c206e3caa1d78a36e8b12813543e4ec7071010fb5d82abadc64736f6c634300081d0033",
			"opcodes": "PUSH1 0xE0 PUSH1 0x40 MSTORE PUSH2 0x3E8 PUSH1 0x80 SWAP1 DUP2 MSTORE PUSH2 0x1388 PUSH1 0xA0 MSTORE PUSH2 0x2710 PUSH1 0xC0 MSTORE PUSH2 0x26 SWAP1 PUSH1 0x4 SWAP1 PUSH1 0x3 PUSH2 0x224 JUMP JUMPDEST POP PUSH1 0x40 MLOAD DUP1 PUSH1 0x60 ADD PUSH1 0x40 MSTORE DUP1 PUSH1 0x40 MLOAD DUP1 PUSH1 0x40 ADD PUSH1 0x40 MSTORE DUP1 PUSH1 0x6 DUP2 MSTORE PUSH1 0x20 ADD PUSH6 0x42726F6E7A65 PUSH1 0xD0 SHL DUP2 MSTORE POP DUP2 MSTORE PUSH1 0x20 ADD PUSH1 0x40 MLOAD DUP1 PUSH1 0x40 ADD PUSH1 0x40 MSTORE DUP1 PUSH1 0x6 DUP2 MSTORE PUSH1 0x20 ADD PUSH6 0x29B4B63B32B9 PUSH1 0xD1 SHL DUP2 MSTORE POP DUP2 MSTORE PUSH1 0x20 ADD PUSH1 0x40 MLOAD DUP1 PUSH1 0x40 ADD PUSH1 0x40 MSTORE DUP1 PUSH1 0x4 DUP2 MSTORE PUSH1 0x20 ADD PUSH4 0x11DBDB19 PUSH1 0xE2 SHL DUP2 MSTORE POP DUP2 MSTORE POP PUSH1 0x5 SWAP1 PUSH1 0x3 PUSH2 0xAA SWAP3 SWAP2 SWAP1 PUSH2 0x273 JUMP JUMPDEST POP CALLVALUE DUP1 ISZERO PUSH2 0xB6 JUMPI PUSH0 PUSH0 REVERT JUMPDEST POP PUSH1 0x40 MLOAD PUSH2 0x5307 CODESIZE SUB DUP1 PUSH2 0x5307 DUP4 CODECOPY DUP2 ADD PUSH1 0x40 DUP2 SWAP1 MSTORE PUSH2 0xD5 SWAP2 PUSH2 0x347 JUMP JUMPDEST CALLER DUP1 PUSH2 0xFA JUMPI PUSH1 0x40 MLOAD PUSH4 0x1E4FBDF7 PUSH1 0xE0 SHL DUP2 MSTORE PUSH0 PUSH1 0x4 DUP3 ADD MSTORE PUSH1 0x24 ADD PUSH1 0x40 MLOAD DUP1 SWAP2 SUB SWAP1 REVERT JUMPDEST PUSH2 0x103 DUP2 PUSH2 0x1D5 JUMP JUMPDEST POP PUSH1 0x1 DUP1 SLOAD PUSH1 0x1 PUSH1 0x1 PUSH1 0xA0 SHL SUB NOT AND PUSH1 0x1 PUSH1 0x1 PUSH1 0xA0 SHL SUB DUP4 AND OR SWAP1 SSTORE PUSH1 0x40 MLOAD ADDRESS SWAP1 PUSH2 0x12D SWAP1 PUSH2 0x2C3 JUMP JUMPDEST PUSH1 0x1 PUSH1 0x1 PUSH1 0xA0 SHL SUB SWAP1 SWAP2 AND DUP2 MSTORE PUSH1 0x20 ADD PUSH1 0x40 MLOAD DUP1 SWAP2 SUB SWAP1 PUSH0 CREATE DUP1 ISZERO DUP1 ISZERO PUSH2 0x156 JUMPI RETURNDATASIZE PUSH0 PUSH0 RETURNDATACOPY RETURNDATASIZE PUSH0 REVERT JUMPDEST POP PUSH1 0x2 DUP1 SLOAD PUSH1 0x1 PUSH1 0x1 PUSH1 0xA0 SHL SUB NOT AND PUSH1 0x1 PUSH1 0x1 PUSH1 0xA0 SHL SUB SWAP3 SWAP1 SWAP3 AND SWAP2 SWAP1 SWAP2 OR SWAP1 SSTORE PUSH1 0x40 MLOAD ADDRESS SWAP1 PUSH2 0x185 SWAP1 PUSH2 0x2D0 JUMP JUMPDEST PUSH1 0x1 PUSH1 0x1 PUSH1 0xA0 SHL SUB SWAP1 SWAP2 AND DUP2 MSTORE PUSH1 0x20 ADD PUSH1 0x40 MLOAD DUP1 SWAP2 SUB SWAP1 PUSH0 CREATE DUP1 ISZERO DUP1 ISZERO PUSH2 0x1AE JUMPI RETURNDATASIZE PUSH0 PUSH0 RETURNDATACOPY RETURNDATASIZE PUSH0 REVERT JUMPDEST POP PUSH1 0x3 DUP1 SLOAD PUSH1 0x1 PUSH1 0x1 PUSH1 0xA0 SHL SUB NOT AND PUSH1 0x1 PUSH1 0x1 PUSH1 0xA0 SHL SUB SWAP3 SWAP1 SWAP3 AND SWAP2 SWAP1 SWAP2 OR SWAP1 SSTORE POP PUSH2 0x4C6 JUMP JUMPDEST PUSH0 DUP1 SLOAD PUSH1 0x1 PUSH1 0x1 PUSH1 0xA0 SHL SUB DUP4 DUP2 AND PUSH1 0x1 PUSH1 0x1 PUSH1 0xA0 SHL SUB NOT DUP4 AND DUP2 OR DUP5 SSTORE PUSH1 0x40 MLOAD SWAP2 SWAP1 SWAP3 AND SWAP3 DUP4 SWAP2 PUSH32 0x8BE0079C531659141344CD1FD0A4F28419497F9722A3DAAFE3B4186F6B6457E0 SWAP2 SWAP1 LOG3 POP POP JUMP JUMPDEST DUP3 DUP1 SLOAD DUP3 DUP3 SSTORE SWAP1 PUSH0 MSTORE PUSH1 0x20 PUSH0 KECCAK256 SWAP1 DUP2 ADD SWAP3 DUP3 ISZERO PUSH2 0x263 JUMPI SWAP2 PUSH1 0x20 MUL DUP3 ADD JUMPDEST DUP3 DUP2 GT ISZERO PUSH2 0x263 JUMPI DUP3 MLOAD DUP3 SWAP1 PUSH2 0xFFFF AND SWAP1 SSTORE SWAP2 PUSH1 0x20 ADD SWAP2 SWAP1 PUSH1 0x1 ADD SWAP1 PUSH2 0x242 JUMP JUMPDEST POP PUSH2 0x26F SWAP3 SWAP2 POP PUSH2 0x2DD JUMP JUMPDEST POP SWAP1 JUMP JUMPDEST DUP3 DUP1 SLOAD DUP3 DUP3 SSTORE SWAP1 PUSH0 MSTORE PUSH1 0x20 PUSH0 KECCAK256 SWAP1 DUP2 ADD SWAP3 DUP3 ISZERO PUSH2 0x2B7 JUMPI SWAP2 PUSH1 0x20 MUL DUP3 ADD JUMPDEST DUP3 DUP2 GT ISZERO PUSH2 0x2B7 JUMPI DUP3 MLOAD DUP3 SWAP1 PUSH2 0x2A7 SWAP1 DUP3 PUSH2 0x40C JUMP JUMPDEST POP SWAP2 PUSH1 0x20 ADD SWAP2 SWAP1 PUSH1 0x1 ADD SWAP1 PUSH2 0x291 JUMP JUMPDEST POP PUSH2 0x26F SWAP3 SWAP2 POP PUSH2 0x2F1 JUMP JUMPDEST PUSH2 0x1A23 DUP1 PUSH2 0x1D47 DUP4 CODECOPY ADD SWAP1 JUMP JUMPDEST PUSH2 0x1B9D DUP1 PUSH2 0x376A DUP4 CODECOPY ADD SWAP1 JUMP JUMPDEST JUMPDEST DUP1 DUP3 GT ISZERO PUSH2 0x26F JUMPI PUSH0 DUP2 SSTORE PUSH1 0x1 ADD PUSH2 0x2DE JUMP JUMPDEST DUP1 DUP3 GT ISZERO PUSH2 0x26F JUMPI PUSH0 PUSH2 0x304 DUP3 DUP3 PUSH2 0x30D JUMP JUMPDEST POP PUSH1 0x1 ADD PUSH2 0x2F1 JUMP JUMPDEST POP DUP1 SLOAD PUSH2 0x319 SWAP1 PUSH2 0x388 JUMP JUMPDEST PUSH0 DUP3 SSTORE DUP1 PUSH1 0x1F LT PUSH2 0x328 JUMPI POP POP JUMP JUMPDEST PUSH1 0x1F ADD PUSH1 0x20 SWAP1 DIV SWAP1 PUSH0 MSTORE PUSH1 0x20 PUSH0 KECCAK256 SWAP1 DUP2 ADD SWAP1 PUSH2 0x344 SWAP2 SWAP1 PUSH2 0x2DD JUMP JUMPDEST POP JUMP JUMPDEST PUSH0 PUSH1 0x20 DUP3 DUP5 SUB SLT ISZERO PUSH2 0x357 JUMPI PUSH0 PUSH0 REVERT JUMPDEST DUP2 MLOAD PUSH1 0x1 PUSH1 0x1 PUSH1 0xA0 SHL SUB DUP2 AND DUP2 EQ PUSH2 0x36D JUMPI PUSH0 PUSH0 REVERT JUMPDEST SWAP4 SWAP3 POP POP POP JUMP JUMPDEST PUSH4 0x4E487B71 PUSH1 0xE0 SHL PUSH0 MSTORE PUSH1 0x41 PUSH1 0x4 MSTORE PUSH1 0x24 PUSH0 REVERT JUMPDEST PUSH1 0x1 DUP2 DUP2 SHR SWAP1 DUP3 AND DUP1 PUSH2 0x39C JUMPI PUSH1 0x7F DUP3 AND SWAP2 POP JUMPDEST PUSH1 0x20 DUP3 LT DUP2 SUB PUSH2 0x3BA JUMPI PUSH4 0x4E487B71 PUSH1 0xE0 SHL PUSH0 MSTORE PUSH1 0x22 PUSH1 0x4 MSTORE PUSH1 0x24 PUSH0 REVERT JUMPDEST POP SWAP2 SWAP1 POP JUMP JUMPDEST PUSH1 0x1F DUP3 GT ISZERO PUSH2 0x407 JUMPI DUP1 PUSH0 MSTORE PUSH1 0x20 PUSH0 KECCAK256 PUSH1 0x1F DUP5 ADD PUSH1 0x5 SHR DUP2 ADD PUSH1 0x20 DUP6 LT ISZERO PUSH2 0x3E5 JUMPI POP DUP1 JUMPDEST PUSH1 0x1F DUP5 ADD PUSH1 0x5 SHR DUP3 ADD SWAP2 POP JUMPDEST DUP2 DUP2 LT ISZERO PUSH2 0x404 JUMPI PUSH0 DUP2 SSTORE PUSH1 0x1 ADD PUSH2 0x3F1 JUMP JUMPDEST POP POP JUMPDEST POP POP POP JUMP JUMPDEST DUP2 MLOAD PUSH1 0x1 PUSH1 0x1 PUSH1 0x40 SHL SUB DUP2 GT ISZERO PUSH2 0x425 JUMPI PUSH2 0x425 PUSH2 0x374 JUMP JUMPDEST PUSH2 0x439 DUP2 PUSH2 0x433 DUP5 SLOAD PUSH2 0x388 JUMP JUMPDEST DUP5 PUSH2 0x3C0 JUMP JUMPDEST PUSH1 0x20 PUSH1 0x1F DUP3 GT PUSH1 0x1 DUP2 EQ PUSH2 0x46B JUMPI PUSH0 DUP4 ISZERO PUSH2 0x454 JUMPI POP DUP5 DUP3 ADD MLOAD JUMPDEST PUSH0 NOT PUSH1 0x3 DUP6 SWAP1 SHL SHR NOT AND PUSH1 0x1 DUP5 SWAP1 SHL OR DUP5 SSTORE PUSH2 0x404 JUMP JUMPDEST PUSH0 DUP5 DUP2 MSTORE PUSH1 0x20 DUP2 KECCAK256 PUSH1 0x1F NOT DUP6 AND SWAP2 JUMPDEST DUP3 DUP2 LT ISZERO PUSH2 0x49A JUMPI DUP8 DUP6 ADD MLOAD DUP3 SSTORE PUSH1 0x20 SWAP5 DUP6 ADD SWAP5 PUSH1 0x1 SWAP1 SWAP3 ADD SWAP2 ADD PUSH2 0x47A JUMP JUMPDEST POP DUP5 DUP3 LT ISZERO PUSH2 0x4B7 JUMPI DUP7 DUP5 ADD MLOAD PUSH0 NOT PUSH1 0x3 DUP8 SWAP1 SHL PUSH1 0xF8 AND SHR NOT AND DUP2 SSTORE JUMPDEST POP POP POP POP PUSH1 0x1 SWAP1 DUP2 SHL ADD SWAP1 SSTORE POP JUMP JUMPDEST PUSH2 0x1874 DUP1 PUSH2 0x4D3 PUSH0 CODECOPY PUSH0 RETURN INVALID PUSH1 0x80 PUSH1 0x40 MSTORE CALLVALUE DUP1 ISZERO PUSH2 0xF JUMPI PUSH0 PUSH0 REVERT JUMPDEST POP PUSH1 0x4 CALLDATASIZE LT PUSH2 0x11C JUMPI PUSH0 CALLDATALOAD PUSH1 0xE0 SHR DUP1 PUSH4 0x6386C1C7 GT PUSH2 0xA9 JUMPI DUP1 PUSH4 0x9C373DC5 GT PUSH2 0x6E JUMPI DUP1 PUSH4 0x9C373DC5 EQ PUSH2 0x283 JUMPI DUP1 PUSH4 0xA694FC3A EQ PUSH2 0x28B JUMPI DUP1 PUSH4 0xF2FDE38B EQ PUSH2 0x29E JUMPI DUP1 PUSH4 0xF36596DA EQ PUSH2 0x2B1 JUMPI DUP1 PUSH4 0xFEFD4E4F EQ PUSH2 0x2C4 JUMPI PUSH0 PUSH0 REVERT JUMPDEST DUP1 PUSH4 0x6386C1C7 EQ PUSH2 0x203 JUMPI DUP1 PUSH4 0x715018A6 EQ PUSH2 0x245 JUMPI DUP1 PUSH4 0x72F702F3 EQ PUSH2 0x24D JUMPI DUP1 PUSH4 0x77F648B7 EQ PUSH2 0x260 JUMPI DUP1 PUSH4 0x8DA5CB5B EQ PUSH2 0x273 JUMPI PUSH0 PUSH0 REVERT JUMPDEST DUP1 PUSH4 0x496DB3B9 GT PUSH2 0xEF JUMPI DUP1 PUSH4 0x496DB3B9 EQ PUSH2 0x176 JUMPI DUP1 PUSH4 0x5997BB37 EQ PUSH2 0x196 JUMPI DUP1 PUSH4 0x5DCC9391 EQ PUSH2 0x19E JUMPI DUP1 PUSH4 0x5FCBD285 EQ PUSH2 0x1A6 JUMPI DUP1 PUSH4 0x61A2E650 EQ PUSH2 0x1D1 JUMPI PUSH0 PUSH0 REVERT JUMPDEST DUP1 PUSH4 0x39AF9EB EQ PUSH2 0x120 JUMPI DUP1 PUSH4 0x2BE11AE2 EQ PUSH2 0x146 JUMPI DUP1 PUSH4 0x2E1A7D4D EQ PUSH2 0x150 JUMPI DUP1 PUSH4 0x31D7A262 EQ PUSH2 0x163 JUMPI JUMPDEST PUSH0 PUSH0 REVERT JUMPDEST PUSH2 0x133 PUSH2 0x12E CALLDATASIZE PUSH1 0x4 PUSH2 0x13A0 JUMP JUMPDEST PUSH2 0x2D7 JUMP JUMPDEST PUSH1 0x40 MLOAD SWAP1 DUP2 MSTORE PUSH1 0x20 ADD JUMPDEST PUSH1 0x40 MLOAD DUP1 SWAP2 SUB SWAP1 RETURN JUMPDEST PUSH2 0x14E PUSH2 0x2F6 JUMP JUMPDEST STOP JUMPDEST PUSH2 0x14E PUSH2 0x15E CALLDATASIZE PUSH1 0x4 PUSH2 0x13A0 JUMP JUMPDEST PUSH2 0x3EA JUMP JUMPDEST PUSH2 0x133 PUSH2 0x171 CALLDATASIZE PUSH1 0x4 PUSH2 0x13B7 JUMP JUMPDEST PUSH2 0x50B JUMP JUMPDEST PUSH2 0x189 PUSH2 0x184 CALLDATASIZE PUSH1 0x4 PUSH2 0x13A0 JUMP JUMPDEST PUSH2 0x51B JUMP JUMPDEST PUSH1 0x40 MLOAD PUSH2 0x13D SWAP2 SWAP1 PUSH2 0x140B JUMP JUMPDEST PUSH2 0x133 PUSH1 0xA DUP2 JUMP JUMPDEST PUSH2 0x133 PUSH1 0x5 DUP2 JUMP JUMPDEST PUSH1 0x2 SLOAD PUSH2 0x1B9 SWAP1 PUSH1 0x1 PUSH1 0x1 PUSH1 0xA0 SHL SUB AND DUP2 JUMP JUMPDEST PUSH1 0x40 MLOAD PUSH1 0x1 PUSH1 0x1 PUSH1 0xA0 SHL SUB SWAP1 SWAP2 AND DUP2 MSTORE PUSH1 0x20 ADD PUSH2 0x13D JUMP JUMPDEST PUSH2 0x1F3 PUSH2 0x1DF CALLDATASIZE PUSH1 0x4 PUSH2 0x13B7 JUMP JUMPDEST PUSH1 0x7 PUSH1 0x20 MSTORE PUSH0 SWAP1 DUP2 MSTORE PUSH1 0x40 SWAP1 KECCAK256 SLOAD PUSH1 0xFF AND DUP2 JUMP JUMPDEST PUSH1 0x40 MLOAD SWAP1 ISZERO ISZERO DUP2 MSTORE PUSH1 0x20 ADD PUSH2 0x13D JUMP JUMPDEST PUSH2 0x216 PUSH2 0x211 CALLDATASIZE PUSH1 0x4 PUSH2 0x13B7 JUMP JUMPDEST PUSH2 0x589 JUMP JUMPDEST PUSH1 0x40 DUP1 MLOAD SWAP7 DUP8 MSTORE PUSH1 0x20 DUP8 ADD SWAP6 SWAP1 SWAP6 MSTORE SWAP4 DUP6 ADD SWAP3 SWAP1 SWAP3 MSTORE PUSH1 0x60 DUP5 ADD MSTORE ISZERO ISZERO PUSH1 0x80 DUP4 ADD MSTORE PUSH1 0xA0 DUP3 ADD MSTORE PUSH1 0xC0 ADD PUSH2 0x13D JUMP JUMPDEST PUSH2 0x14E PUSH2 0x5EA JUMP JUMPDEST PUSH1 0x1 SLOAD PUSH2 0x1B9 SWAP1 PUSH1 0x1 PUSH1 0x1 PUSH1 0xA0 SHL SUB AND DUP2 JUMP JUMPDEST PUSH1 0x3 SLOAD PUSH2 0x1B9 SWAP1 PUSH1 0x1 PUSH1 0x1 PUSH1 0xA0 SHL SUB AND DUP2 JUMP JUMPDEST PUSH0 SLOAD PUSH1 0x1 PUSH1 0x1 PUSH1 0xA0 SHL SUB AND PUSH2 0x1B9 JUMP JUMPDEST PUSH2 0x133 PUSH1 0x64 DUP2 JUMP JUMPDEST PUSH2 0x14E PUSH2 0x299 CALLDATASIZE PUSH1 0x4 PUSH2 0x13A0 JUMP JUMPDEST PUSH2 0x5FD JUMP JUMPDEST PUSH2 0x14E PUSH2 0x2AC CALLDATASIZE PUSH1 0x4 PUSH2 0x13B7 JUMP JUMPDEST PUSH2 0x7DC JUMP JUMPDEST PUSH2 0x189 PUSH2 0x2BF CALLDATASIZE PUSH1 0x4 PUSH2 0x13A0 JUMP JUMPDEST PUSH2 0x819 JUMP JUMPDEST PUSH2 0x133 PUSH2 0x2D2 CALLDATASIZE PUSH1 0x4 PUSH2 0x13B7 JUMP JUMPDEST PUSH2 0x8BF JUMP JUMPDEST PUSH1 0x4 DUP2 DUP2 SLOAD DUP2 LT PUSH2 0x2E6 JUMPI PUSH0 DUP1 REVERT JUMPDEST PUSH0 SWAP2 DUP3 MSTORE PUSH1 0x20 SWAP1 SWAP2 KECCAK256 ADD SLOAD SWAP1 POP DUP2 JUMP JUMPDEST PUSH2 0x2FF CALLER PUSH2 0x9CE JUMP JUMPDEST CALLER PUSH0 DUP2 DUP2 MSTORE PUSH1 0x6 PUSH1 0x20 MSTORE PUSH1 0x40 DUP2 KECCAK256 SWAP2 PUSH2 0x317 SWAP1 PUSH2 0xA53 JUMP JUMPDEST SWAP1 POP PUSH0 DUP2 GT PUSH2 0x365 JUMPI PUSH1 0x40 MLOAD PUSH3 0x461BCD PUSH1 0xE5 SHL DUP2 MSTORE PUSH1 0x20 PUSH1 0x4 DUP3 ADD MSTORE PUSH1 0x15 PUSH1 0x24 DUP3 ADD MSTORE PUSH21 0x139BC81C995DD85C991CC81D1BC81A185C9D995CDD PUSH1 0x5A SHL PUSH1 0x44 DUP3 ADD MSTORE PUSH1 0x64 ADD JUMPDEST PUSH1 0x40 MLOAD DUP1 SWAP2 SUB SWAP1 REVERT JUMPDEST TIMESTAMP DUP3 PUSH1 0x1 ADD DUP2 SWAP1 SSTORE POP DUP1 DUP3 PUSH1 0x3 ADD PUSH0 DUP3 DUP3 SLOAD PUSH2 0x381 SWAP2 SWAP1 PUSH2 0x1431 JUMP JUMPDEST SWAP1 SWAP2 SSTORE POP PUSH2 0x390 SWAP1 POP CALLER PUSH2 0xAC5 JUMP JUMPDEST PUSH2 0x399 CALLER PUSH2 0xC53 JUMP JUMPDEST PUSH1 0x1 SLOAD PUSH2 0x3B0 SWAP1 PUSH1 0x1 PUSH1 0x1 PUSH1 0xA0 SHL SUB AND CALLER DUP4 PUSH2 0xD84 JUMP JUMPDEST PUSH1 0x40 MLOAD DUP2 DUP2 MSTORE CALLER SWAP1 PUSH32 0xBC8FB63D817DE4FABEA2108E9B7EEFCA87245899F4B357636C26B5CAD02EC5B4 SWAP1 PUSH1 0x20 ADD JUMPDEST PUSH1 0x40 MLOAD DUP1 SWAP2 SUB SWAP1 LOG2 POP POP JUMP JUMPDEST CALLER PUSH0 SWAP1 DUP2 MSTORE PUSH1 0x6 PUSH1 0x20 MSTORE PUSH1 0x40 SWAP1 KECCAK256 PUSH1 0x5 DUP2 ADD SLOAD PUSH1 0xFF AND PUSH2 0x43D JUMPI PUSH1 0x40 MLOAD PUSH3 0x461BCD PUSH1 0xE5 SHL DUP2 MSTORE PUSH1 0x20 PUSH1 0x4 DUP3 ADD MSTORE PUSH1 0xE PUSH1 0x24 DUP3 ADD MSTORE PUSH14 0x139BC81CDD185AD948199BDD5B99 PUSH1 0x92 SHL PUSH1 0x44 DUP3 ADD MSTORE PUSH1 0x64 ADD PUSH2 0x35C JUMP JUMPDEST PUSH0 DUP3 GT DUP1 ISZERO PUSH2 0x44D JUMPI POP DUP1 SLOAD DUP3 GT ISZERO JUMPDEST PUSH2 0x499 JUMPI PUSH1 0x40 MLOAD PUSH3 0x461BCD PUSH1 0xE5 SHL DUP2 MSTORE PUSH1 0x20 PUSH1 0x4 DUP3 ADD MSTORE PUSH1 0x17 PUSH1 0x24 DUP3 ADD MSTORE PUSH32 0x496E76616C696420776974686472617720616D6F756E74000000000000000000 PUSH1 0x44 DUP3 ADD MSTORE PUSH1 0x64 ADD PUSH2 0x35C JUMP JUMPDEST PUSH2 0x4A2 CALLER PUSH2 0x9CE JUMP JUMPDEST DUP2 DUP2 PUSH0 ADD PUSH0 DUP3 DUP3 SLOAD PUSH2 0x4B4 SWAP2 SWAP1 PUSH2 0x1444 JUMP JUMPDEST SWAP1 SWAP2 SSTORE POP POP PUSH1 0x1 SLOAD PUSH2 0x4D0 SWAP1 PUSH1 0x1 PUSH1 0x1 PUSH1 0xA0 SHL SUB AND CALLER DUP5 PUSH2 0xD84 JUMP JUMPDEST PUSH2 0x4D9 CALLER PUSH2 0xC53 JUMP JUMPDEST PUSH1 0x40 MLOAD DUP3 DUP2 MSTORE CALLER SWAP1 PUSH32 0x7084F5476618D8E60B11EF0D7D3F06914655ADB8793E28FF7F018D4C76D505D5 SWAP1 PUSH1 0x20 ADD PUSH2 0x3DE JUMP JUMPDEST PUSH0 PUSH2 0x515 DUP3 PUSH2 0xA53 JUMP JUMPDEST SWAP3 SWAP2 POP POP JUMP JUMPDEST PUSH1 0x2 SLOAD PUSH1 0x40 MLOAD PUSH4 0xC87B56DD PUSH1 0xE0 SHL DUP2 MSTORE PUSH1 0x4 DUP2 ADD DUP4 SWAP1 MSTORE PUSH1 0x60 SWAP2 PUSH1 0x1 PUSH1 0x1 PUSH1 0xA0 SHL SUB AND SWAP1 PUSH4 0xC87B56DD SWAP1 PUSH1 0x24 ADD PUSH0 PUSH1 0x40 MLOAD DUP1 DUP4 SUB DUP2 DUP7 GAS STATICCALL ISZERO DUP1 ISZERO PUSH2 0x562 JUMPI RETURNDATASIZE PUSH0 PUSH0 RETURNDATACOPY RETURNDATASIZE PUSH0 REVERT JUMPDEST POP POP POP POP PUSH1 0x40 MLOAD RETURNDATASIZE PUSH0 DUP3 RETURNDATACOPY PUSH1 0x1F RETURNDATASIZE SWAP1 DUP2 ADD PUSH1 0x1F NOT AND DUP3 ADD PUSH1 0x40 MSTORE PUSH2 0x515 SWAP2 SWAP1 DUP2 ADD SWAP1 PUSH2 0x146B JUMP JUMPDEST PUSH1 0x1 PUSH1 0x1 PUSH1 0xA0 SHL SUB DUP2 AND PUSH0 SWAP1 DUP2 MSTORE PUSH1 0x6 PUSH1 0x20 MSTORE PUSH1 0x40 DUP2 KECCAK256 DUP1 SLOAD PUSH1 0x2 DUP3 ADD SLOAD PUSH1 0x3 DUP4 ADD SLOAD PUSH1 0x4 DUP5 ADD SLOAD PUSH1 0x5 DUP6 ADD SLOAD DUP7 SWAP6 DUP7 SWAP6 DUP7 SWAP6 DUP7 SWAP6 DUP7 SWAP6 SWAP4 SWAP5 SWAP3 SWAP4 SWAP2 SWAP3 SWAP1 SWAP2 SWAP1 PUSH1 0xFF AND PUSH2 0x5D5 DUP14 PUSH2 0xA53 JUMP JUMPDEST SWAP5 SWAP14 SWAP4 SWAP13 POP SWAP2 SWAP11 POP SWAP9 POP SWAP7 POP SWAP1 SWAP5 POP SWAP3 POP POP POP JUMP JUMPDEST PUSH2 0x5F2 PUSH2 0xDE3 JUMP JUMPDEST PUSH2 0x5FB PUSH0 PUSH2 0xE0F JUMP JUMPDEST JUMP JUMPDEST PUSH0 DUP2 GT PUSH2 0x63D JUMPI PUSH1 0x40 MLOAD PUSH3 0x461BCD PUSH1 0xE5 SHL DUP2 MSTORE PUSH1 0x20 PUSH1 0x4 DUP3 ADD MSTORE PUSH1 0xE PUSH1 0x24 DUP3 ADD MSTORE PUSH14 0x43616E6E6F74207374616B65203 PUSH1 0x94 SHL PUSH1 0x44 DUP3 ADD MSTORE PUSH1 0x64 ADD PUSH2 0x35C JUMP JUMPDEST PUSH2 0x646 CALLER PUSH2 0x9CE JUMP JUMPDEST PUSH1 0x1 SLOAD PUSH2 0x65E SWAP1 PUSH1 0x1 PUSH1 0x1 PUSH1 0xA0 SHL SUB AND CALLER ADDRESS DUP5 PUSH2 0xE5E JUMP JUMPDEST CALLER PUSH0 SWAP1 DUP2 MSTORE PUSH1 0x6 PUSH1 0x20 MSTORE PUSH1 0x40 DUP2 KECCAK256 DUP1 SLOAD DUP4 SWAP3 SWAP1 PUSH2 0x67C SWAP1 DUP5 SWAP1 PUSH2 0x1431 JUMP JUMPDEST SWAP1 SWAP2 SSTORE POP POP CALLER PUSH0 SWAP1 DUP2 MSTORE PUSH1 0x6 PUSH1 0x20 MSTORE PUSH1 0x40 SWAP1 KECCAK256 PUSH1 0x5 ADD SLOAD PUSH1 0xFF AND ISZERO DUP1 ISZERO PUSH2 0x6B2 JUMPI POP CALLER PUSH0 SWAP1 DUP2 MSTORE PUSH1 0x7 PUSH1 0x20 MSTORE PUSH1 0x40 SWAP1 KECCAK256 SLOAD PUSH1 0xFF AND ISZERO JUMPDEST ISZERO PUSH2 0x79B JUMPI CALLER PUSH0 DUP2 DUP2 MSTORE PUSH1 0x6 PUSH1 0x20 MSTORE PUSH1 0x40 DUP1 DUP3 KECCAK256 PUSH1 0x5 ADD DUP1 SLOAD PUSH1 0xFF NOT AND PUSH1 0x1 OR SWAP1 SSTORE PUSH1 0x2 SLOAD SWAP1 MLOAD PUSH4 0x35313C21 PUSH1 0xE1 SHL DUP2 MSTORE PUSH1 0x4 DUP2 ADD SWAP4 SWAP1 SWAP4 MSTORE SWAP1 SWAP2 PUSH1 0x1 PUSH1 0x1 PUSH1 0xA0 SHL SUB SWAP1 SWAP2 AND SWAP1 PUSH4 0x6A627842 SWAP1 PUSH1 0x24 ADD PUSH1 0x20 PUSH1 0x40 MLOAD DUP1 DUP4 SUB DUP2 PUSH0 DUP8 GAS CALL ISZERO DUP1 ISZERO PUSH2 0x71E JUMPI RETURNDATASIZE PUSH0 PUSH0 RETURNDATACOPY RETURNDATASIZE PUSH0 REVERT JUMPDEST POP POP POP POP PUSH1 0x40 MLOAD RETURNDATASIZE PUSH1 0x1F NOT PUSH1 0x1F DUP3 ADD AND DUP3 ADD DUP1 PUSH1 0x40 MSTORE POP DUP2 ADD SWAP1 PUSH2 0x742 SWAP2 SWAP1 PUSH2 0x151E JUMP JUMPDEST CALLER PUSH0 DUP2 DUP2 MSTORE PUSH1 0x7 PUSH1 0x20 MSTORE PUSH1 0x40 SWAP1 DUP2 SWAP1 KECCAK256 DUP1 SLOAD PUSH1 0xFF NOT AND PUSH1 0x1 OR SWAP1 SSTORE MLOAD SWAP2 SWAP3 POP SWAP1 PUSH32 0xA4F2B345DB6CBF1B76C079BB299D674F15CCD646B14011497BCC77CB8BCF1EC3 SWAP1 PUSH2 0x791 SWAP1 DUP5 DUP2 MSTORE PUSH1 0x20 ADD SWAP1 JUMP JUMPDEST PUSH1 0x40 MLOAD DUP1 SWAP2 SUB SWAP1 LOG2 POP JUMPDEST PUSH2 0x7A4 CALLER PUSH2 0xC53 JUMP JUMPDEST PUSH1 0x40 MLOAD DUP2 DUP2 MSTORE CALLER SWAP1 PUSH32 0x9E71BC8EEA02A63969F509818F2DAFB9254532904319F9DBDA79B67BD34A5F3D SWAP1 PUSH1 0x20 ADD PUSH1 0x40 MLOAD DUP1 SWAP2 SUB SWAP1 LOG2 POP JUMP JUMPDEST PUSH2 0x7E4 PUSH2 0xDE3 JUMP JUMPDEST PUSH1 0x1 PUSH1 0x1 PUSH1 0xA0 SHL SUB DUP2 AND PUSH2 0x80D JUMPI PUSH1 0x40 MLOAD PUSH4 0x1E4FBDF7 PUSH1 0xE0 SHL DUP2 MSTORE PUSH0 PUSH1 0x4 DUP3 ADD MSTORE PUSH1 0x24 ADD PUSH2 0x35C JUMP JUMPDEST PUSH2 0x816 DUP2 PUSH2 0xE0F JUMP JUMPDEST POP JUMP JUMPDEST PUSH1 0x5 DUP2 DUP2 SLOAD DUP2 LT PUSH2 0x828 JUMPI PUSH0 DUP1 REVERT JUMPDEST SWAP1 PUSH0 MSTORE PUSH1 0x20 PUSH0 KECCAK256 ADD PUSH0 SWAP2 POP SWAP1 POP DUP1 SLOAD PUSH2 0x840 SWAP1 PUSH2 0x1535 JUMP JUMPDEST DUP1 PUSH1 0x1F ADD PUSH1 0x20 DUP1 SWAP2 DIV MUL PUSH1 0x20 ADD PUSH1 0x40 MLOAD SWAP1 DUP2 ADD PUSH1 0x40 MSTORE DUP1 SWAP3 SWAP2 SWAP1 DUP2 DUP2 MSTORE PUSH1 0x20 ADD DUP3 DUP1 SLOAD PUSH2 0x86C SWAP1 PUSH2 0x1535 JUMP JUMPDEST DUP1 ISZERO PUSH2 0x8B7 JUMPI DUP1 PUSH1 0x1F LT PUSH2 0x88E JUMPI PUSH2 0x100 DUP1 DUP4 SLOAD DIV MUL DUP4 MSTORE SWAP2 PUSH1 0x20 ADD SWAP2 PUSH2 0x8B7 JUMP JUMPDEST DUP3 ADD SWAP2 SWAP1 PUSH0 MSTORE PUSH1 0x20 PUSH0 KECCAK256 SWAP1 JUMPDEST DUP2 SLOAD DUP2 MSTORE SWAP1 PUSH1 0x1 ADD SWAP1 PUSH1 0x20 ADD DUP1 DUP4 GT PUSH2 0x89A JUMPI DUP3 SWAP1 SUB PUSH1 0x1F AND DUP3 ADD SWAP2 JUMPDEST POP POP POP POP POP DUP2 JUMP JUMPDEST PUSH1 0x1 PUSH1 0x1 PUSH1 0xA0 SHL SUB DUP2 AND PUSH0 SWAP1 DUP2 MSTORE PUSH1 0x6 PUSH1 0x20 MSTORE PUSH1 0x40 DUP2 KECCAK256 PUSH1 0x5 ADD SLOAD PUSH1 0xFF AND PUSH2 0x91F JUMPI PUSH1 0x40 MLOAD PUSH3 0x461BCD PUSH1 0xE5 SHL DUP2 MSTORE PUSH1 0x20 PUSH1 0x4 DUP3 ADD MSTORE PUSH1 0x13 PUSH1 0x24 DUP3 ADD MSTORE PUSH19 0x155CD95C881A185CC81B9BDD081CDD185AD959 PUSH1 0x6A SHL PUSH1 0x44 DUP3 ADD MSTORE PUSH1 0x64 ADD PUSH2 0x35C JUMP JUMPDEST PUSH1 0x2 SLOAD PUSH1 0x40 MLOAD PUSH4 0x2F745C59 PUSH1 0xE0 SHL DUP2 MSTORE PUSH1 0x1 PUSH1 0x1 PUSH1 0xA0 SHL SUB DUP5 DUP2 AND PUSH1 0x4 DUP4 ADD MSTORE PUSH0 PUSH1 0x24 DUP4 ADD MSTORE SWAP1 SWAP2 AND SWAP1 PUSH4 0x2F745C59 SWAP1 PUSH1 0x44 ADD PUSH1 0x20 PUSH1 0x40 MLOAD DUP1 DUP4 SUB DUP2 DUP7 GAS STATICCALL SWAP3 POP POP POP DUP1 ISZERO PUSH2 0x98B JUMPI POP PUSH1 0x40 DUP1 MLOAD PUSH1 0x1F RETURNDATASIZE SWAP1 DUP2 ADD PUSH1 0x1F NOT AND DUP3 ADD SWAP1 SWAP3 MSTORE PUSH2 0x988 SWAP2 DUP2 ADD SWAP1 PUSH2 0x151E JUMP JUMPDEST PUSH1 0x1 JUMPDEST PUSH2 0x515 JUMPI PUSH1 0x40 MLOAD PUSH3 0x461BCD PUSH1 0xE5 SHL DUP2 MSTORE PUSH1 0x20 PUSH1 0x4 DUP3 ADD MSTORE PUSH1 0x14 PUSH1 0x24 DUP3 ADD MSTORE PUSH20 0x2AB9B2B9103430B9903737902628103A37B5B2B7 PUSH1 0x61 SHL PUSH1 0x44 DUP3 ADD MSTORE PUSH1 0x64 ADD PUSH2 0x35C JUMP JUMPDEST PUSH1 0x1 PUSH1 0x1 PUSH1 0xA0 SHL SUB DUP2 AND PUSH0 SWAP1 DUP2 MSTORE PUSH1 0x6 PUSH1 0x20 MSTORE PUSH1 0x40 SWAP1 KECCAK256 PUSH1 0x5 DUP2 ADD SLOAD PUSH1 0xFF AND PUSH2 0x9FB JUMPI TIMESTAMP PUSH1 0x1 SWAP1 SWAP2 ADD SSTORE POP JUMP JUMPDEST PUSH0 DUP2 PUSH1 0x1 ADD SLOAD TIMESTAMP PUSH2 0xA0C SWAP2 SWAP1 PUSH2 0x1444 JUMP JUMPDEST DUP3 SLOAD SWAP1 SWAP2 POP ISZERO DUP1 ISZERO SWAP1 PUSH2 0xA1E JUMPI POP PUSH0 DUP2 GT JUMPDEST ISZERO PUSH2 0xA48 JUMPI DUP2 SLOAD PUSH2 0xA30 SWAP1 DUP3 SWAP1 PUSH2 0x156D JUMP JUMPDEST DUP3 PUSH1 0x2 ADD PUSH0 DUP3 DUP3 SLOAD PUSH2 0xA42 SWAP2 SWAP1 PUSH2 0x1431 JUMP JUMPDEST SWAP1 SWAP2 SSTORE POP POP JUMPDEST POP TIMESTAMP PUSH1 0x1 SWAP1 SWAP2 ADD SSTORE POP JUMP JUMPDEST PUSH1 0x1 PUSH1 0x1 PUSH1 0xA0 SHL SUB DUP2 AND PUSH0 SWAP1 DUP2 MSTORE PUSH1 0x6 PUSH1 0x20 MSTORE PUSH1 0x40 DUP2 KECCAK256 DUP1 SLOAD DUP3 SUB PUSH2 0xA7A JUMPI POP PUSH0 SWAP3 SWAP2 POP POP JUMP JUMPDEST PUSH0 DUP2 PUSH1 0x1 ADD SLOAD TIMESTAMP PUSH2 0xA8B SWAP2 SWAP1 PUSH2 0x1444 JUMP JUMPDEST SWAP1 POP PUSH2 0xA99 PUSH1 0x5 PUSH1 0x64 PUSH2 0x156D JUMP JUMPDEST DUP3 SLOAD DUP3 SWAP1 PUSH2 0xAA9 SWAP1 PUSH1 0xA SWAP1 PUSH2 0x156D JUMP JUMPDEST PUSH2 0xAB3 SWAP2 SWAP1 PUSH2 0x156D JUMP JUMPDEST PUSH2 0xABD SWAP2 SWAP1 PUSH2 0x1584 JUMP JUMPDEST SWAP5 SWAP4 POP POP POP POP JUMP JUMPDEST PUSH1 0x1 PUSH1 0x1 PUSH1 0xA0 SHL SUB DUP2 AND PUSH0 SWAP1 DUP2 MSTORE PUSH1 0x6 PUSH1 0x20 MSTORE PUSH1 0x40 DUP2 KECCAK256 SWAP1 JUMPDEST PUSH1 0x4 SLOAD DUP2 LT ISZERO PUSH2 0xC4E JUMPI PUSH1 0x4 DUP2 DUP2 SLOAD DUP2 LT PUSH2 0xAFB JUMPI PUSH2 0xAFB PUSH2 0x15A3 JUMP JUMPDEST SWAP1 PUSH0 MSTORE PUSH1 0x20 PUSH0 KECCAK256 ADD SLOAD DUP3 PUSH1 0x3 ADD SLOAD LT ISZERO DUP1 ISZERO PUSH2 0xB1B JUMPI POP DUP1 DUP3 PUSH1 0x4 ADD SLOAD GT ISZERO JUMPDEST ISZERO PUSH2 0xC46 JUMPI PUSH2 0xB2B DUP2 PUSH1 0x1 PUSH2 0x1431 JUMP JUMPDEST PUSH1 0x4 DUP4 DUP2 ADD SWAP2 SWAP1 SWAP2 SSTORE PUSH1 0x3 SLOAD PUSH1 0x40 MLOAD PUSH4 0x40C10F19 PUSH1 0xE0 SHL DUP2 MSTORE PUSH1 0x1 PUSH1 0x1 PUSH1 0xA0 SHL SUB DUP7 DUP2 AND SWAP4 DUP3 ADD SWAP4 SWAP1 SWAP4 MSTORE PUSH1 0x24 DUP2 ADD DUP5 SWAP1 MSTORE PUSH0 SWAP3 SWAP1 SWAP2 AND SWAP1 PUSH4 0x40C10F19 SWAP1 PUSH1 0x44 ADD PUSH1 0x20 PUSH1 0x40 MLOAD DUP1 DUP4 SUB DUP2 PUSH0 DUP8 GAS CALL ISZERO DUP1 ISZERO PUSH2 0xB88 JUMPI RETURNDATASIZE PUSH0 PUSH0 RETURNDATACOPY RETURNDATASIZE PUSH0 REVERT JUMPDEST POP POP POP POP PUSH1 0x40 MLOAD RETURNDATASIZE PUSH1 0x1F NOT PUSH1 0x1F DUP3 ADD AND DUP3 ADD DUP1 PUSH1 0x40 MSTORE POP DUP2 ADD SWAP1 PUSH2 0xBAC SWAP2 SWAP1 PUSH2 0x151E JUMP JUMPDEST SWAP1 POP PUSH1 0x1 PUSH1 0x1 PUSH1 0xA0 SHL SUB DUP5 AND PUSH32 0x867CF698BD702B31FBDF75AAA97C18BFD741B4CFABA7E131B16673CBD4593C60 PUSH2 0xBE4 DUP5 PUSH1 0x1 PUSH2 0x1431 JUMP JUMPDEST PUSH1 0x40 MLOAD SWAP1 DUP2 MSTORE PUSH1 0x20 ADD PUSH1 0x40 MLOAD DUP1 SWAP2 SUB SWAP1 LOG2 PUSH1 0x1 PUSH1 0x1 PUSH1 0xA0 SHL SUB DUP5 AND PUSH32 0xFE229A3A5769BCF655431CE362C473BEA2E49555EAF9F537E406192A622FAB9B DUP3 PUSH2 0xC2C DUP6 PUSH1 0x1 PUSH2 0x1431 JUMP JUMPDEST PUSH1 0x40 DUP1 MLOAD SWAP3 DUP4 MSTORE PUSH1 0x20 DUP4 ADD SWAP2 SWAP1 SWAP2 MSTORE ADD PUSH1 0x40 MLOAD DUP1 SWAP2 SUB SWAP1 LOG2 POP JUMPDEST PUSH1 0x1 ADD PUSH2 0xADE JUMP JUMPDEST POP POP POP JUMP JUMPDEST PUSH1 0x1 PUSH1 0x1 PUSH1 0xA0 SHL SUB DUP2 AND PUSH0 SWAP1 DUP2 MSTORE PUSH1 0x6 PUSH1 0x20 MSTORE PUSH1 0x40 SWAP1 KECCAK256 PUSH1 0x5 DUP2 ADD SLOAD PUSH1 0xFF AND ISZERO DUP1 PUSH2 0xC96 JUMPI POP PUSH1 0x1 PUSH1 0x1 PUSH1 0xA0 SHL SUB DUP3 AND PUSH0 SWAP1 DUP2 MSTORE PUSH1 0x7 PUSH1 0x20 MSTORE PUSH1 0x40 SWAP1 KECCAK256 SLOAD PUSH1 0xFF AND ISZERO JUMPDEST ISZERO PUSH2 0xC9F JUMPI POP POP JUMP JUMPDEST PUSH1 0x2 SLOAD PUSH1 0x40 MLOAD PUSH4 0x2F745C59 PUSH1 0xE0 SHL DUP2 MSTORE PUSH1 0x1 PUSH1 0x1 PUSH1 0xA0 SHL SUB DUP5 DUP2 AND PUSH1 0x4 DUP4 ADD MSTORE PUSH0 PUSH1 0x24 DUP4 ADD DUP2 SWAP1 MSTORE SWAP3 AND SWAP1 PUSH4 0x2F745C59 SWAP1 PUSH1 0x44 ADD PUSH1 0x20 PUSH1 0x40 MLOAD DUP1 DUP4 SUB DUP2 DUP7 GAS STATICCALL ISZERO DUP1 ISZERO PUSH2 0xCEE JUMPI RETURNDATASIZE PUSH0 PUSH0 RETURNDATACOPY RETURNDATASIZE PUSH0 REVERT JUMPDEST POP POP POP POP PUSH1 0x40 MLOAD RETURNDATASIZE PUSH1 0x1F NOT PUSH1 0x1F DUP3 ADD AND DUP3 ADD DUP1 PUSH1 0x40 MSTORE POP DUP2 ADD SWAP1 PUSH2 0xD12 SWAP2 SWAP1 PUSH2 0x151E JUMP JUMPDEST SWAP1 POP PUSH0 PUSH2 0xD1E DUP5 PUSH2 0xE9D JUMP JUMPDEST PUSH1 0x2 SLOAD PUSH1 0x40 MLOAD PUSH4 0x5882531 PUSH1 0xE2 SHL DUP2 MSTORE SWAP2 SWAP3 POP PUSH1 0x1 PUSH1 0x1 PUSH1 0xA0 SHL SUB AND SWAP1 PUSH4 0x162094C4 SWAP1 PUSH2 0xD51 SWAP1 DUP6 SWAP1 DUP6 SWAP1 PUSH1 0x4 ADD PUSH2 0x15B7 JUMP JUMPDEST PUSH0 PUSH1 0x40 MLOAD DUP1 DUP4 SUB DUP2 PUSH0 DUP8 DUP1 EXTCODESIZE ISZERO DUP1 ISZERO PUSH2 0xD68 JUMPI PUSH0 PUSH0 REVERT JUMPDEST POP GAS CALL ISZERO DUP1 ISZERO PUSH2 0xD7A JUMPI RETURNDATASIZE PUSH0 PUSH0 RETURNDATACOPY RETURNDATASIZE PUSH0 REVERT JUMPDEST POP POP POP POP POP POP POP POP JUMP JUMPDEST PUSH1 0x40 MLOAD PUSH1 0x1 PUSH1 0x1 PUSH1 0xA0 SHL SUB DUP4 DUP2 AND PUSH1 0x24 DUP4 ADD MSTORE PUSH1 0x44 DUP3 ADD DUP4 SWAP1 MSTORE PUSH2 0xC4E SWAP2 DUP6 SWAP2 DUP3 AND SWAP1 PUSH4 0xA9059CBB SWAP1 PUSH1 0x64 ADD JUMPDEST PUSH1 0x40 MLOAD PUSH1 0x20 DUP2 DUP4 SUB SUB DUP2 MSTORE SWAP1 PUSH1 0x40 MSTORE SWAP2 POP PUSH1 0xE0 SHL PUSH1 0x20 DUP3 ADD DUP1 MLOAD PUSH1 0x1 PUSH1 0x1 PUSH1 0xE0 SHL SUB DUP4 DUP2 DUP4 AND OR DUP4 MSTORE POP POP POP POP PUSH2 0x102A JUMP JUMPDEST PUSH0 SLOAD PUSH1 0x1 PUSH1 0x1 PUSH1 0xA0 SHL SUB AND CALLER EQ PUSH2 0x5FB JUMPI PUSH1 0x40 MLOAD PUSH4 0x118CDAA7 PUSH1 0xE0 SHL DUP2 MSTORE CALLER PUSH1 0x4 DUP3 ADD MSTORE PUSH1 0x24 ADD PUSH2 0x35C JUMP JUMPDEST PUSH0 DUP1 SLOAD PUSH1 0x1 PUSH1 0x1 PUSH1 0xA0 SHL SUB DUP4 DUP2 AND PUSH1 0x1 PUSH1 0x1 PUSH1 0xA0 SHL SUB NOT DUP4 AND DUP2 OR DUP5 SSTORE PUSH1 0x40 MLOAD SWAP2 SWAP1 SWAP3 AND SWAP3 DUP4 SWAP2 PUSH32 0x8BE0079C531659141344CD1FD0A4F28419497F9722A3DAAFE3B4186F6B6457E0 SWAP2 SWAP1 LOG3 POP POP JUMP JUMPDEST PUSH1 0x40 MLOAD PUSH1 0x1 PUSH1 0x1 PUSH1 0xA0 SHL SUB DUP5 DUP2 AND PUSH1 0x24 DUP4 ADD MSTORE DUP4 DUP2 AND PUSH1 0x44 DUP4 ADD MSTORE PUSH1 0x64 DUP3 ADD DUP4 SWAP1 MSTORE PUSH2 0xE97 SWAP2 DUP7 SWAP2 DUP3 AND SWAP1 PUSH4 0x23B872DD SWAP1 PUSH1 0x84 ADD PUSH2 0xDB1 JUMP JUMPDEST POP POP POP POP JUMP JUMPDEST PUSH1 0x1 PUSH1 0x1 PUSH1 0xA0 SHL SUB DUP2 AND PUSH0 SWAP1 DUP2 MSTORE PUSH1 0x6 PUSH1 0x20 MSTORE PUSH1 0x40 DUP2 KECCAK256 PUSH1 0x4 DUP2 ADD SLOAD PUSH1 0x60 SWAP3 SWAP1 ISZERO DUP1 ISZERO SWAP1 PUSH2 0xED1 JUMPI POP PUSH1 0x5 SLOAD PUSH1 0x4 DUP4 ADD SLOAD GT ISZERO JUMPDEST PUSH2 0xEF7 JUMPI PUSH1 0x40 MLOAD DUP1 PUSH1 0x40 ADD PUSH1 0x40 MSTORE DUP1 PUSH1 0x4 DUP2 MSTORE PUSH1 0x20 ADD PUSH4 0x4E6F6E65 PUSH1 0xE0 SHL DUP2 MSTORE POP PUSH2 0xFAA JUMP JUMPDEST PUSH1 0x5 PUSH1 0x1 DUP4 PUSH1 0x4 ADD SLOAD PUSH2 0xF0A SWAP2 SWAP1 PUSH2 0x1444 JUMP JUMPDEST DUP2 SLOAD DUP2 LT PUSH2 0xF1A JUMPI PUSH2 0xF1A PUSH2 0x15A3 JUMP JUMPDEST SWAP1 PUSH0 MSTORE PUSH1 0x20 PUSH0 KECCAK256 ADD DUP1 SLOAD PUSH2 0xF2D SWAP1 PUSH2 0x1535 JUMP JUMPDEST DUP1 PUSH1 0x1F ADD PUSH1 0x20 DUP1 SWAP2 DIV MUL PUSH1 0x20 ADD PUSH1 0x40 MLOAD SWAP1 DUP2 ADD PUSH1 0x40 MSTORE DUP1 SWAP3 SWAP2 SWAP1 DUP2 DUP2 MSTORE PUSH1 0x20 ADD DUP3 DUP1 SLOAD PUSH2 0xF59 SWAP1 PUSH2 0x1535 JUMP JUMPDEST DUP1 ISZERO PUSH2 0xFA4 JUMPI DUP1 PUSH1 0x1F LT PUSH2 0xF7B JUMPI PUSH2 0x100 DUP1 DUP4 SLOAD DIV MUL DUP4 MSTORE SWAP2 PUSH1 0x20 ADD SWAP2 PUSH2 0xFA4 JUMP JUMPDEST DUP3 ADD SWAP2 SWAP1 PUSH0 MSTORE PUSH1 0x20 PUSH0 KECCAK256 SWAP1 JUMPDEST DUP2 SLOAD DUP2 MSTORE SWAP1 PUSH1 0x1 ADD SWAP1 PUSH1 0x20 ADD DUP1 DUP4 GT PUSH2 0xF87 JUMPI DUP3 SWAP1 SUB PUSH1 0x1F AND DUP3 ADD SWAP2 JUMPDEST POP POP POP POP POP JUMPDEST SWAP1 POP PUSH0 PUSH2 0xFB9 DUP4 PUSH0 ADD SLOAD PUSH2 0x1096 JUMP JUMPDEST PUSH2 0xFC6 DUP5 PUSH1 0x2 ADD SLOAD PUSH2 0x1096 JUMP JUMPDEST PUSH2 0xFD3 DUP6 PUSH1 0x3 ADD SLOAD PUSH2 0x1096 JUMP JUMPDEST DUP5 PUSH1 0x40 MLOAD PUSH1 0x20 ADD PUSH2 0xFE7 SWAP5 SWAP4 SWAP3 SWAP2 SWAP1 PUSH2 0x15E6 JUMP JUMPDEST PUSH1 0x40 MLOAD PUSH1 0x20 DUP2 DUP4 SUB SUB DUP2 MSTORE SWAP1 PUSH1 0x40 MSTORE SWAP1 POP PUSH2 0x1001 DUP2 PUSH2 0x1126 JUMP JUMPDEST PUSH1 0x40 MLOAD PUSH1 0x20 ADD PUSH2 0x1011 SWAP2 SWAP1 PUSH2 0x17CD JUMP JUMPDEST PUSH1 0x40 MLOAD PUSH1 0x20 DUP2 DUP4 SUB SUB DUP2 MSTORE SWAP1 PUSH1 0x40 MSTORE SWAP4 POP POP POP POP SWAP2 SWAP1 POP JUMP JUMPDEST PUSH0 PUSH0 PUSH1 0x20 PUSH0 DUP5 MLOAD PUSH1 0x20 DUP7 ADD PUSH0 DUP9 GAS CALL DUP1 PUSH2 0x1049 JUMPI PUSH1 0x40 MLOAD RETURNDATASIZE PUSH0 DUP3 RETURNDATACOPY RETURNDATASIZE DUP2 REVERT JUMPDEST POP POP PUSH0 MLOAD RETURNDATASIZE SWAP2 POP DUP2 ISZERO PUSH2 0x1060 JUMPI DUP1 PUSH1 0x1 EQ ISZERO PUSH2 0x106D JUMP JUMPDEST PUSH1 0x1 PUSH1 0x1 PUSH1 0xA0 SHL SUB DUP5 AND EXTCODESIZE ISZERO JUMPDEST ISZERO PUSH2 0xE97 JUMPI PUSH1 0x40 MLOAD PUSH4 0x5274AFE7 PUSH1 0xE0 SHL DUP2 MSTORE PUSH1 0x1 PUSH1 0x1 PUSH1 0xA0 SHL SUB DUP6 AND PUSH1 0x4 DUP3 ADD MSTORE PUSH1 0x24 ADD PUSH2 0x35C JUMP JUMPDEST PUSH1 0x60 PUSH0 PUSH2 0x10A2 DUP4 PUSH2 0x114C JUMP JUMPDEST PUSH1 0x1 ADD SWAP1 POP PUSH0 DUP2 PUSH8 0xFFFFFFFFFFFFFFFF DUP2 GT ISZERO PUSH2 0x10C1 JUMPI PUSH2 0x10C1 PUSH2 0x1457 JUMP JUMPDEST PUSH1 0x40 MLOAD SWAP1 DUP1 DUP3 MSTORE DUP1 PUSH1 0x1F ADD PUSH1 0x1F NOT AND PUSH1 0x20 ADD DUP3 ADD PUSH1 0x40 MSTORE DUP1 ISZERO PUSH2 0x10EB JUMPI PUSH1 0x20 DUP3 ADD DUP2 DUP1 CALLDATASIZE DUP4 CALLDATACOPY ADD SWAP1 POP JUMPDEST POP SWAP1 POP DUP2 DUP2 ADD PUSH1 0x20 ADD JUMPDEST PUSH0 NOT ADD PUSH16 0x181899199A1A9B1B9C1CB0B131B232B3 PUSH1 0x81 SHL PUSH1 0xA DUP7 MOD BYTE DUP2 MSTORE8 PUSH1 0xA DUP6 DIV SWAP5 POP DUP5 PUSH2 0x10F5 JUMPI POP SWAP4 SWAP3 POP POP POP JUMP JUMPDEST PUSH1 0x60 PUSH2 0x515 DUP3 PUSH1 0x40 MLOAD DUP1 PUSH1 0x60 ADD PUSH1 0x40 MSTORE DUP1 PUSH1 0x40 DUP2 MSTORE PUSH1 0x20 ADD PUSH2 0x17FF PUSH1 0x40 SWAP2 CODECOPY PUSH1 0x1 PUSH2 0x1223 JUMP JUMPDEST PUSH0 DUP1 PUSH19 0x184F03E93FF9F4DAA797ED6E38ED64BF6A1F01 PUSH1 0x40 SHL DUP4 LT PUSH2 0x118A JUMPI PUSH19 0x184F03E93FF9F4DAA797ED6E38ED64BF6A1F01 PUSH1 0x40 SHL DUP4 DIV SWAP3 POP PUSH1 0x40 ADD JUMPDEST PUSH14 0x4EE2D6D415B85ACEF8100000000 DUP4 LT PUSH2 0x11B6 JUMPI PUSH14 0x4EE2D6D415B85ACEF8100000000 DUP4 DIV SWAP3 POP PUSH1 0x20 ADD JUMPDEST PUSH7 0x2386F26FC10000 DUP4 LT PUSH2 0x11D4 JUMPI PUSH7 0x2386F26FC10000 DUP4 DIV SWAP3 POP PUSH1 0x10 ADD JUMPDEST PUSH4 0x5F5E100 DUP4 LT PUSH2 0x11EC JUMPI PUSH4 0x5F5E100 DUP4 DIV SWAP3 POP PUSH1 0x8 ADD JUMPDEST PUSH2 0x2710 DUP4 LT PUSH2 0x1200 JUMPI PUSH2 0x2710 DUP4 DIV SWAP3 POP PUSH1 0x4 ADD JUMPDEST PUSH1 0x64 DUP4 LT PUSH2 0x1212 JUMPI PUSH1 0x64 DUP4 DIV SWAP3 POP PUSH1 0x2 ADD JUMPDEST PUSH1 0xA DUP4 LT PUSH2 0x515 JUMPI PUSH1 0x1 ADD SWAP3 SWAP2 POP POP JUMP JUMPDEST PUSH1 0x60 DUP4 MLOAD PUSH0 SUB PUSH2 0x1241 JUMPI POP PUSH1 0x40 DUP1 MLOAD PUSH1 0x20 DUP2 ADD SWAP1 SWAP2 MSTORE PUSH0 DUP2 MSTORE PUSH2 0x1399 JUMP JUMPDEST PUSH0 DUP3 PUSH2 0x1271 JUMPI PUSH1 0x3 DUP6 MLOAD PUSH1 0x4 PUSH2 0x1257 SWAP2 SWAP1 PUSH2 0x156D JUMP JUMPDEST PUSH2 0x1262 SWAP1 PUSH1 0x2 PUSH2 0x1431 JUMP JUMPDEST PUSH2 0x126C SWAP2 SWAP1 PUSH2 0x1584 JUMP JUMPDEST PUSH2 0x1296 JUMP JUMPDEST PUSH1 0x3 DUP6 MLOAD PUSH1 0x2 PUSH2 0x1281 SWAP2 SWAP1 PUSH2 0x1431 JUMP JUMPDEST PUSH2 0x128B SWAP2 SWAP1 PUSH2 0x1584 JUMP JUMPDEST PUSH2 0x1296 SWAP1 PUSH1 0x4 PUSH2 0x156D JUMP JUMPDEST SWAP1 POP PUSH0 DUP2 PUSH8 0xFFFFFFFFFFFFFFFF DUP2 GT ISZERO PUSH2 0x12B2 JUMPI PUSH2 0x12B2 PUSH2 0x1457 JUMP JUMPDEST PUSH1 0x40 MLOAD SWAP1 DUP1 DUP3 MSTORE DUP1 PUSH1 0x1F ADD PUSH1 0x1F NOT AND PUSH1 0x20 ADD DUP3 ADD PUSH1 0x40 MSTORE DUP1 ISZERO PUSH2 0x12DC JUMPI PUSH1 0x20 DUP3 ADD DUP2 DUP1 CALLDATASIZE DUP4 CALLDATACOPY ADD SWAP1 POP JUMPDEST POP SWAP1 POP PUSH1 0x1 DUP6 ADD PUSH1 0x20 DUP3 ADD DUP8 DUP9 MLOAD DUP10 ADD PUSH1 0x20 DUP2 ADD DUP1 MLOAD PUSH0 DUP3 MSTORE JUMPDEST DUP3 DUP5 LT ISZERO PUSH2 0x1351 JUMPI PUSH1 0x3 DUP5 ADD SWAP4 POP DUP4 MLOAD PUSH1 0x3F DUP2 PUSH1 0x12 SHR AND DUP8 ADD MLOAD DUP7 MSTORE8 PUSH1 0x1 DUP7 ADD SWAP6 POP PUSH1 0x3F DUP2 PUSH1 0xC SHR AND DUP8 ADD MLOAD DUP7 MSTORE8 PUSH1 0x1 DUP7 ADD SWAP6 POP PUSH1 0x3F DUP2 PUSH1 0x6 SHR AND DUP8 ADD MLOAD DUP7 MSTORE8 PUSH1 0x1 DUP7 ADD SWAP6 POP PUSH1 0x3F DUP2 AND DUP8 ADD MLOAD DUP7 MSTORE8 POP PUSH1 0x1 DUP6 ADD SWAP5 POP PUSH2 0x12F6 JUMP JUMPDEST SWAP1 MSTORE POP POP DUP6 ISZERO PUSH2 0x1392 JUMPI PUSH1 0x3 DUP9 MLOAD MOD PUSH1 0x1 DUP2 EQ PUSH2 0x1375 JUMPI PUSH1 0x2 DUP2 EQ PUSH2 0x1388 JUMPI PUSH2 0x1390 JUMP JUMPDEST PUSH1 0x3D PUSH1 0x1 DUP4 SUB MSTORE8 PUSH1 0x3D PUSH1 0x2 DUP4 SUB MSTORE8 PUSH2 0x1390 JUMP JUMPDEST PUSH1 0x3D PUSH1 0x1 DUP4 SUB MSTORE8 JUMPDEST POP JUMPDEST POP SWAP1 SWAP3 POP POP POP JUMPDEST SWAP4 SWAP3 POP POP POP JUMP JUMPDEST PUSH0 PUSH1 0x20 DUP3 DUP5 SUB SLT ISZERO PUSH2 0x13B0 JUMPI PUSH0 PUSH0 REVERT JUMPDEST POP CALLDATALOAD SWAP2 SWAP1 POP JUMP JUMPDEST PUSH0 PUSH1 0x20 DUP3 DUP5 SUB SLT ISZERO PUSH2 0x13C7 JUMPI PUSH0 PUSH0 REVERT JUMPDEST DUP2 CALLDATALOAD PUSH1 0x1 PUSH1 0x1 PUSH1 0xA0 SHL SUB DUP2 AND DUP2 EQ PUSH2 0x1399 JUMPI PUSH0 PUSH0 REVERT JUMPDEST PUSH0 DUP2 MLOAD DUP1 DUP5 MSTORE DUP1 PUSH1 0x20 DUP5 ADD PUSH1 0x20 DUP7 ADD MCOPY PUSH0 PUSH1 0x20 DUP3 DUP7 ADD ADD MSTORE PUSH1 0x20 PUSH1 0x1F NOT PUSH1 0x1F DUP4 ADD AND DUP6 ADD ADD SWAP2 POP POP SWAP3 SWAP2 POP POP JUMP JUMPDEST PUSH1 0x20 DUP2 MSTORE PUSH0 PUSH2 0x1399 PUSH1 0x20 DUP4 ADD DUP5 PUSH2 0x13DD JUMP JUMPDEST PUSH4 0x4E487B71 PUSH1 0xE0 SHL PUSH0 MSTORE PUSH1 0x11 PUSH1 0x4 MSTORE PUSH1 0x24 PUSH0 REVERT JUMPDEST DUP1 DUP3 ADD DUP1 DUP3 GT ISZERO PUSH2 0x515 JUMPI PUSH2 0x515 PUSH2 0x141D JUMP JUMPDEST DUP2 DUP2 SUB DUP2 DUP2 GT ISZERO PUSH2 0x515 JUMPI PUSH2 0x515 PUSH2 0x141D JUMP JUMPDEST PUSH4 0x4E487B71 PUSH1 0xE0 SHL PUSH0 MSTORE PUSH1 0x41 PUSH1 0x4 MSTORE PUSH1 0x24 PUSH0 REVERT JUMPDEST PUSH0 PUSH1 0x20 DUP3 DUP5 SUB SLT ISZERO PUSH2 0x147B JUMPI PUSH0 PUSH0 REVERT JUMPDEST DUP2 MLOAD PUSH8 0xFFFFFFFFFFFFFFFF DUP2 GT ISZERO PUSH2 0x1491 JUMPI PUSH0 PUSH0 REVERT JUMPDEST DUP3 ADD PUSH1 0x1F DUP2 ADD DUP5 SGT PUSH2 0x14A1 JUMPI PUSH0 PUSH0 REVERT JUMPDEST DUP1 MLOAD PUSH8 0xFFFFFFFFFFFFFFFF DUP2 GT ISZERO PUSH2 0x14BB JUMPI PUSH2 0x14BB PUSH2 0x1457 JUMP JUMPDEST PUSH1 0x40 MLOAD PUSH1 0x1F DUP3 ADD PUSH1 0x1F NOT SWAP1 DUP2 AND PUSH1 0x3F ADD AND DUP2 ADD PUSH8 0xFFFFFFFFFFFFFFFF DUP2 GT DUP3 DUP3 LT OR ISZERO PUSH2 0x14EA JUMPI PUSH2 0x14EA PUSH2 0x1457 JUMP JUMPDEST PUSH1 0x40 MSTORE DUP2 DUP2 MSTORE DUP3 DUP3 ADD PUSH1 0x20 ADD DUP7 LT ISZERO PUSH2 0x1501 JUMPI PUSH0 PUSH0 REVERT JUMPDEST DUP2 PUSH1 0x20 DUP5 ADD PUSH1 0x20 DUP4 ADD MCOPY PUSH0 SWAP2 DUP2 ADD PUSH1 0x20 ADD SWAP2 SWAP1 SWAP2 MSTORE SWAP5 SWAP4 POP POP POP POP JUMP JUMPDEST PUSH0 PUSH1 0x20 DUP3 DUP5 SUB SLT ISZERO PUSH2 0x152E JUMPI PUSH0 PUSH0 REVERT JUMPDEST POP MLOAD SWAP2 SWAP1 POP JUMP JUMPDEST PUSH1 0x1 DUP2 DUP2 SHR SWAP1 DUP3 AND DUP1 PUSH2 0x1549 JUMPI PUSH1 0x7F DUP3 AND SWAP2 POP JUMPDEST PUSH1 0x20 DUP3 LT DUP2 SUB PUSH2 0x1567 JUMPI PUSH4 0x4E487B71 PUSH1 0xE0 SHL PUSH0 MSTORE PUSH1 0x22 PUSH1 0x4 MSTORE PUSH1 0x24 PUSH0 REVERT JUMPDEST POP SWAP2 SWAP1 POP JUMP JUMPDEST DUP1 DUP3 MUL DUP2 ISZERO DUP3 DUP3 DIV DUP5 EQ OR PUSH2 0x515 JUMPI PUSH2 0x515 PUSH2 0x141D JUMP JUMPDEST PUSH0 DUP3 PUSH2 0x159E JUMPI PUSH4 0x4E487B71 PUSH1 0xE0 SHL PUSH0 MSTORE PUSH1 0x12 PUSH1 0x4 MSTORE PUSH1 0x24 PUSH0 REVERT JUMPDEST POP DIV SWAP1 JUMP JUMPDEST PUSH4 0x4E487B71 PUSH1 0xE0 SHL PUSH0 MSTORE PUSH1 0x32 PUSH1 0x4 MSTORE PUSH1 0x24 PUSH0 REVERT JUMPDEST DUP3 DUP2 MSTORE PUSH1 0x40 PUSH1 0x20 DUP3 ADD MSTORE PUSH0 PUSH2 0xABD PUSH1 0x40 DUP4 ADD DUP5 PUSH2 0x13DD JUMP JUMPDEST PUSH0 DUP2 MLOAD DUP1 PUSH1 0x20 DUP5 ADD DUP6 MCOPY PUSH0 SWAP4 ADD SWAP3 DUP4 MSTORE POP SWAP1 SWAP2 SWAP1 POP JUMP JUMPDEST PUSH32 0x7B226E616D65223A20225374616B696E67204C5020546F6B656E222C20226465 DUP2 MSTORE PUSH32 0x736372697074696F6E223A2022526570726573656E747320796F757220737461 PUSH1 0x20 DUP3 ADD MSTORE PUSH17 0x35B29034B7103A3432903837B7B611161 PUSH1 0x7D SHL PUSH1 0x40 DUP3 ADD MSTORE PUSH15 0x2261747472696275746573223A205B PUSH1 0x88 SHL PUSH1 0x51 DUP3 ADD MSTORE PUSH32 0x7B2274726169745F74797065223A20225374616B656420416D6F756E74222C20 PUSH1 0x60 DUP3 ADD MSTORE PUSH10 0x113B30B63AB2911D1011 PUSH1 0xB1 SHL PUSH1 0x80 DUP3 ADD MSTORE PUSH0 PUSH2 0x16A8 PUSH1 0x8A DUP4 ADD DUP8 PUSH2 0x15CF JUMP JUMPDEST PUSH3 0x89F4B PUSH1 0xEA SHL DUP2 MSTORE PUSH32 0x7B2274726169745F74797065223A202254696D652D5765696768746564205363 PUSH1 0x3 DUP3 ADD MSTORE PUSH16 0x37B932911610113B30B63AB2911D1011 PUSH1 0x81 SHL PUSH1 0x23 DUP3 ADD MSTORE PUSH2 0x17C2 PUSH2 0x17B4 PUSH2 0x17A6 PUSH2 0x17A0 PUSH2 0x1765 PUSH2 0x1713 PUSH2 0x175F PUSH2 0x1722 DUP3 PUSH1 0x33 DUP11 ADD DUP16 PUSH2 0x15CF JUMP JUMPDEST PUSH3 0x89F4B PUSH1 0xEA SHL DUP2 MSTORE PUSH1 0x3 ADD SWAP1 JUMP JUMPDEST PUSH32 0x7B2274726169745F74797065223A202252657761726473204561726E6564222C DUP2 MSTORE PUSH11 0x10113B30B63AB2911D1011 PUSH1 0xA9 SHL PUSH1 0x20 DUP3 ADD MSTORE PUSH1 0x2B ADD SWAP1 JUMP JUMPDEST DUP12 PUSH2 0x15CF JUMP JUMPDEST PUSH32 0x7B2274726169745F74797065223A202243757272656E742054696572222C2022 DUP2 MSTORE PUSH9 0x3B30B63AB2911D1011 PUSH1 0xB9 SHL PUSH1 0x20 DUP3 ADD MSTORE PUSH1 0x29 ADD SWAP1 JUMP JUMPDEST DUP8 PUSH2 0x15CF JUMP JUMPDEST PUSH2 0x227D PUSH1 0xF0 SHL DUP2 MSTORE PUSH1 0x2 ADD SWAP1 JUMP JUMPDEST PUSH2 0x5D7D PUSH1 0xF0 SHL DUP2 MSTORE PUSH1 0x2 ADD SWAP1 JUMP JUMPDEST SWAP8 SWAP7 POP POP POP POP POP POP POP JUMP JUMPDEST PUSH32 0x646174613A6170706C69636174696F6E2F6A736F6E3B6261736536342C000000 DUP2 MSTORE PUSH0 PUSH2 0x1399 PUSH1 0x1D DUP4 ADD DUP5 PUSH2 0x15CF JUMP INVALID COINBASE TIMESTAMP NUMBER PREVRANDAO GASLIMIT CHAINID SELFBALANCE BASEFEE BLOBHASH BLOBBASEFEE 0x4B 0x4C 0x4D 0x4E 0x4F POP MLOAD MSTORE MSTORE8 SLOAD SSTORE JUMP JUMPI PC MSIZE GAS PUSH2 0x6263 PUSH5 0x6566676869 PUSH11 0x6B6C6D6E6F707172737475 PUSH23 0x7778797A303132333435363738392B2FA2646970667358 0x22 SLT KECCAK256 DUP13 INVALID CALLF 0xEE77 0xC SWAP7 PUSH11 0x1FB936B28AD94CC79E146F 0xAF 0x4E 0xA9 PUSH7 0xA75D420C2C6AC4 TIMESTAMP XOR PUSH5 0x736F6C6343 STOP ADDMOD SAR STOP CALLER PUSH1 0x80 PUSH1 0x40 MSTORE CALLVALUE DUP1 ISZERO PUSH2 0xF JUMPI PUSH0 PUSH0 REVERT JUMPDEST POP PUSH1 0x40 MLOAD PUSH2 0x1A23 CODESIZE SUB DUP1 PUSH2 0x1A23 DUP4 CODECOPY DUP2 ADD PUSH1 0x40 DUP2 SWAP1 MSTORE PUSH2 0x2E SWAP2 PUSH2 0xB8 JUMP JUMPDEST PUSH1 0x40 MLOAD DUP1 PUSH1 0x40 ADD PUSH1 0x40 MSTORE DUP1 PUSH1 0x10 DUP2 MSTORE PUSH1 0x20 ADD PUSH16 0x29BA30B5B4B733902628102A37B5B2B7 PUSH1 0x81 SHL DUP2 MSTORE POP PUSH1 0x40 MLOAD DUP1 PUSH1 0x40 ADD PUSH1 0x40 MSTORE DUP1 PUSH1 0x4 DUP2 MSTORE PUSH1 0x20 ADD PUSH4 0x14D31415 PUSH1 0xE2 SHL DUP2 MSTORE POP DUP2 PUSH0 SWAP1 DUP2 PUSH2 0x82 SWAP2 SWAP1 PUSH2 0x17D JUMP JUMPDEST POP PUSH1 0x1 PUSH2 0x8F DUP3 DUP3 PUSH2 0x17D JUMP JUMPDEST POP POP PUSH1 0x8 DUP1 SLOAD PUSH1 0x1 PUSH1 0x1 PUSH1 0xA0 SHL SUB NOT AND PUSH1 0x1 PUSH1 0x1 PUSH1 0xA0 SHL SUB SWAP4 SWAP1 SWAP4 AND SWAP3 SWAP1 SWAP3 OR SWAP1 SWAP2 SSTORE POP PUSH2 0x237 JUMP JUMPDEST PUSH0 PUSH1 0x20 DUP3 DUP5 SUB SLT ISZERO PUSH2 0xC8 JUMPI PUSH0 PUSH0 REVERT JUMPDEST DUP2 MLOAD PUSH1 0x1 PUSH1 0x1 PUSH1 0xA0 SHL SUB DUP2 AND DUP2 EQ PUSH2 0xDE JUMPI PUSH0 PUSH0 REVERT JUMPDEST SWAP4 SWAP3 POP POP POP JUMP JUMPDEST PUSH4 0x4E487B71 PUSH1 0xE0 SHL PUSH0 MSTORE PUSH1 0x41 PUSH1 0x4 MSTORE PUSH1 0x24 PUSH0 REVERT JUMPDEST PUSH1 0x1 DUP2 DUP2 SHR SWAP1 DUP3 AND DUP1 PUSH2 0x10D JUMPI PUSH1 0x7F DUP3 AND SWAP2 POP JUMPDEST PUSH1 0x20 DUP3 LT DUP2 SUB PUSH2 0x12B JUMPI PUSH4 0x4E487B71 PUSH1 0xE0 SHL PUSH0 MSTORE PUSH1 0x22 PUSH1 0x4 MSTORE PUSH1 0x24 PUSH0 REVERT JUMPDEST POP SWAP2 SWAP1 POP JUMP JUMPDEST PUSH1 0x1F DUP3 GT ISZERO PUSH2 0x178 JUMPI DUP1 PUSH0 MSTORE PUSH1 0x20 PUSH0 KECCAK256 PUSH1 0x1F DUP5 ADD PUSH1 0x5 SHR DUP2 ADD PUSH1 0x20 DUP6 LT ISZERO PUSH2 0x156 JUMPI POP DUP1 JUMPDEST PUSH1 0x1F DUP5 ADD PUSH1 0x5 SHR DUP3 ADD SWAP2 POP JUMPDEST DUP2 DUP2 LT ISZERO PUSH2 0x175 JUMPI PUSH0 DUP2 SSTORE PUSH1 0x1 ADD PUSH2 0x162 JUMP JUMPDEST POP POP JUMPDEST POP POP POP JUMP JUMPDEST DUP2 MLOAD PUSH1 0x1 PUSH1 0x1 PUSH1 0x40 SHL SUB DUP2 GT ISZERO PUSH2 0x196 JUMPI PUSH2 0x196 PUSH2 0xE5 JUMP JUMPDEST PUSH2 0x1AA DUP2 PUSH2 0x1A4 DUP5 SLOAD PUSH2 0xF9 JUMP JUMPDEST DUP5 PUSH2 0x131 JUMP JUMPDEST PUSH1 0x20 PUSH1 0x1F DUP3 GT PUSH1 0x1 DUP2 EQ PUSH2 0x1DC JUMPI PUSH0 DUP4 ISZERO PUSH2 0x1C5 JUMPI POP DUP5 DUP3 ADD MLOAD JUMPDEST PUSH0 NOT PUSH1 0x3 DUP6 SWAP1 SHL SHR NOT AND PUSH1 0x1 DUP5 SWAP1 SHL OR DUP5 SSTORE PUSH2 0x175 JUMP JUMPDEST PUSH0 DUP5 DUP2 MSTORE PUSH1 0x20 DUP2 KECCAK256 PUSH1 0x1F NOT DUP6 AND SWAP2 JUMPDEST DUP3 DUP2 LT ISZERO PUSH2 0x20B JUMPI DUP8 DUP6 ADD MLOAD DUP3 SSTORE PUSH1 0x20 SWAP5 DUP6 ADD SWAP5 PUSH1 0x1 SWAP1 SWAP3 ADD SWAP2 ADD PUSH2 0x1EB JUMP JUMPDEST POP DUP5 DUP3 LT ISZERO PUSH2 0x228 JUMPI DUP7 DUP5 ADD MLOAD PUSH0 NOT PUSH1 0x3 DUP8 SWAP1 SHL PUSH1 0xF8 AND SHR NOT AND DUP2 SSTORE JUMPDEST POP POP POP POP PUSH1 0x1 SWAP1 DUP2 SHL ADD SWAP1 SSTORE POP JUMP JUMPDEST PUSH2 0x17DF DUP1 PUSH2 0x244 PUSH0 CODECOPY PUSH0 RETURN INVALID PUSH1 0x80 PUSH1 0x40 MSTORE CALLVALUE DUP1 ISZERO PUSH2 0xF JUMPI PUSH0 PUSH0 REVERT JUMPDEST POP PUSH1 0x4 CALLDATASIZE LT PUSH2 0x132 JUMPI PUSH0 CALLDATALOAD PUSH1 0xE0 SHR DUP1 PUSH4 0x70A08231 GT PUSH2 0xB4 JUMPI DUP1 PUSH4 0xAF24B07B GT PUSH2 0x79 JUMPI DUP1 PUSH4 0xAF24B07B EQ PUSH2 0x2A3 JUMPI DUP1 PUSH4 0xB88D4FDE EQ PUSH2 0x2C2 JUMPI DUP1 PUSH4 0xBD376800 EQ PUSH2 0x2D5 JUMPI DUP1 PUSH4 0xC87B56DD EQ PUSH2 0x2E8 JUMPI DUP1 PUSH4 0xE985E9C5 EQ PUSH2 0x2FB JUMPI DUP1 PUSH4 0xEE99205C EQ PUSH2 0x30E JUMPI PUSH0 PUSH0 REVERT JUMPDEST DUP1 PUSH4 0x70A08231 EQ PUSH2 0x233 JUMPI DUP1 PUSH4 0x8462151C EQ PUSH2 0x246 JUMPI DUP1 PUSH4 0x95D89B41 EQ PUSH2 0x266 JUMPI DUP1 PUSH4 0x9BB0F599 EQ PUSH2 0x26E JUMPI DUP1 PUSH4 0xA22CB465 EQ PUSH2 0x290 JUMPI PUSH0 PUSH0 REVERT JUMPDEST DUP1 PUSH4 0x23B872DD GT PUSH2 0xFA JUMPI DUP1 PUSH4 0x23B872DD EQ PUSH2 0x1C6 JUMPI DUP1 PUSH4 0x2F745C59 EQ PUSH2 0x1D9 JUMPI DUP1 PUSH4 0x42842E0E EQ PUSH2 0x1FA JUMPI DUP1 PUSH4 0x6352211E EQ PUSH2 0x20D JUMPI DUP1 PUSH4 0x6A627842 EQ PUSH2 0x220 JUMPI PUSH0 PUSH0 REVERT JUMPDEST DUP1 PUSH4 0x1FFC9A7 EQ PUSH2 0x136 JUMPI DUP1 PUSH4 0x6FDDE03 EQ PUSH2 0x15E JUMPI DUP1 PUSH4 0x81812FC EQ PUSH2 0x173 JUMPI DUP1 PUSH4 0x95EA7B3 EQ PUSH2 0x19E JUMPI DUP1 PUSH4 0x162094C4 EQ PUSH2 0x1B3 JUMPI JUMPDEST PUSH0 PUSH0 REVERT JUMPDEST PUSH2 0x149 PUSH2 0x144 CALLDATASIZE PUSH1 0x4 PUSH2 0x1281 JUMP JUMPDEST PUSH2 0x321 JUMP JUMPDEST PUSH1 0x40 MLOAD SWAP1 ISZERO ISZERO DUP2 MSTORE PUSH1 0x20 ADD JUMPDEST PUSH1 0x40 MLOAD DUP1 SWAP2 SUB SWAP1 RETURN JUMPDEST PUSH2 0x166 PUSH2 0x34B JUMP JUMPDEST PUSH1 0x40 MLOAD PUSH2 0x155 SWAP2 SWAP1 PUSH2 0x12CA JUMP JUMPDEST PUSH2 0x186 PUSH2 0x181 CALLDATASIZE PUSH1 0x4 PUSH2 0x12DC JUMP JUMPDEST PUSH2 0x3DA JUMP JUMPDEST PUSH1 0x40 MLOAD PUSH1 0x1 PUSH1 0x1 PUSH1 0xA0 SHL SUB SWAP1 SWAP2 AND DUP2 MSTORE PUSH1 0x20 ADD PUSH2 0x155 JUMP JUMPDEST PUSH2 0x1B1 PUSH2 0x1AC CALLDATASIZE PUSH1 0x4 PUSH2 0x1309 JUMP JUMPDEST PUSH2 0x401 JUMP JUMPDEST STOP JUMPDEST PUSH2 0x1B1 PUSH2 0x1C1 CALLDATASIZE PUSH1 0x4 PUSH2 0x13BC JUMP JUMPDEST PUSH2 0x410 JUMP JUMPDEST PUSH2 0x1B1 PUSH2 0x1D4 CALLDATASIZE PUSH1 0x4 PUSH2 0x1413 JUMP JUMPDEST PUSH2 0x471 JUMP JUMPDEST PUSH2 0x1EC PUSH2 0x1E7 CALLDATASIZE PUSH1 0x4 PUSH2 0x1309 JUMP JUMPDEST PUSH2 0x4FA JUMP JUMPDEST PUSH1 0x40 MLOAD SWAP1 DUP2 MSTORE PUSH1 0x20 ADD PUSH2 0x155 JUMP JUMPDEST PUSH2 0x1B1 PUSH2 0x208 CALLDATASIZE PUSH1 0x4 PUSH2 0x1413 JUMP JUMPDEST PUSH2 0x590 JUMP JUMPDEST PUSH2 0x186 PUSH2 0x21B CALLDATASIZE PUSH1 0x4 PUSH2 0x12DC JUMP JUMPDEST PUSH2 0x5AF JUMP JUMPDEST PUSH2 0x1EC PUSH2 0x22E CALLDATASIZE PUSH1 0x4 PUSH2 0x144D JUMP JUMPDEST PUSH2 0x5B9 JUMP JUMPDEST PUSH2 0x1EC PUSH2 0x241 CALLDATASIZE PUSH1 0x4 PUSH2 0x144D JUMP JUMPDEST PUSH2 0x6E8 JUMP JUMPDEST PUSH2 0x259 PUSH2 0x254 CALLDATASIZE PUSH1 0x4 PUSH2 0x144D JUMP JUMPDEST PUSH2 0x72D JUMP JUMPDEST PUSH1 0x40 MLOAD PUSH2 0x155 SWAP2 SWAP1 PUSH2 0x1466 JUMP JUMPDEST PUSH2 0x166 PUSH2 0x796 JUMP JUMPDEST PUSH2 0x149 PUSH2 0x27C CALLDATASIZE PUSH1 0x4 PUSH2 0x144D JUMP JUMPDEST PUSH1 0xA PUSH1 0x20 MSTORE PUSH0 SWAP1 DUP2 MSTORE PUSH1 0x40 SWAP1 KECCAK256 SLOAD PUSH1 0xFF AND DUP2 JUMP JUMPDEST PUSH2 0x1B1 PUSH2 0x29E CALLDATASIZE PUSH1 0x4 PUSH2 0x14A8 JUMP JUMPDEST PUSH2 0x7A5 JUMP JUMPDEST PUSH2 0x1EC PUSH2 0x2B1 CALLDATASIZE PUSH1 0x4 PUSH2 0x144D JUMP JUMPDEST PUSH1 0xB PUSH1 0x20 MSTORE PUSH0 SWAP1 DUP2 MSTORE PUSH1 0x40 SWAP1 KECCAK256 SLOAD DUP2 JUMP JUMPDEST PUSH2 0x1B1 PUSH2 0x2D0 CALLDATASIZE PUSH1 0x4 PUSH2 0x14E1 JUMP JUMPDEST PUSH2 0x7B0 JUMP JUMPDEST PUSH2 0x1EC PUSH2 0x2E3 CALLDATASIZE PUSH1 0x4 PUSH2 0x144D JUMP JUMPDEST PUSH2 0x7C8 JUMP JUMPDEST PUSH2 0x166 PUSH2 0x2F6 CALLDATASIZE PUSH1 0x4 PUSH2 0x12DC JUMP JUMPDEST PUSH2 0x841 JUMP JUMPDEST PUSH2 0x149 PUSH2 0x309 CALLDATASIZE PUSH1 0x4 PUSH2 0x1558 JUMP JUMPDEST PUSH2 0x94C JUMP JUMPDEST PUSH1 0x8 SLOAD PUSH2 0x186 SWAP1 PUSH1 0x1 PUSH1 0x1 PUSH1 0xA0 SHL SUB AND DUP2 JUMP JUMPDEST PUSH0 PUSH1 0x1 PUSH1 0x1 PUSH1 0xE0 SHL SUB NOT DUP3 AND PUSH4 0x24832483 PUSH1 0xE1 SHL EQ DUP1 PUSH2 0x345 JUMPI POP PUSH2 0x345 DUP3 PUSH2 0x979 JUMP JUMPDEST SWAP3 SWAP2 POP POP JUMP JUMPDEST PUSH1 0x60 PUSH0 DUP1 SLOAD PUSH2 0x359 SWAP1 PUSH2 0x1589 JUMP JUMPDEST DUP1 PUSH1 0x1F ADD PUSH1 0x20 DUP1 SWAP2 DIV MUL PUSH1 0x20 ADD PUSH1 0x40 MLOAD SWAP1 DUP2 ADD PUSH1 0x40 MSTORE DUP1 SWAP3 SWAP2 SWAP1 DUP2 DUP2 MSTORE PUSH1 0x20 ADD DUP3 DUP1 SLOAD PUSH2 0x385 SWAP1 PUSH2 0x1589 JUMP JUMPDEST DUP1 ISZERO PUSH2 0x3D0 JUMPI DUP1 PUSH1 0x1F LT PUSH2 0x3A7 JUMPI PUSH2 0x100 DUP1 DUP4 SLOAD DIV MUL DUP4 MSTORE SWAP2 PUSH1 0x20 ADD SWAP2 PUSH2 0x3D0 JUMP JUMPDEST DUP3 ADD SWAP2 SWAP1 PUSH0 MSTORE PUSH1 0x20 PUSH0 KECCAK256 SWAP1 JUMPDEST DUP2 SLOAD DUP2 MSTORE SWAP1 PUSH1 0x1 ADD SWAP1 PUSH1 0x20 ADD DUP1 DUP4 GT PUSH2 0x3B3 JUMPI DUP3 SWAP1 SUB PUSH1 0x1F AND DUP3 ADD SWAP2 JUMPDEST POP POP POP POP POP SWAP1 POP SWAP1 JUMP JUMPDEST PUSH0 PUSH2 0x3E4 DUP3 PUSH2 0x9C8 JUMP JUMPDEST POP PUSH0 DUP3 DUP2 MSTORE PUSH1 0x4 PUSH1 0x20 MSTORE PUSH1 0x40 SWAP1 KECCAK256 SLOAD PUSH1 0x1 PUSH1 0x1 PUSH1 0xA0 SHL SUB AND PUSH2 0x345 JUMP JUMPDEST PUSH2 0x40C DUP3 DUP3 CALLER PUSH2 0xA00 JUMP JUMPDEST POP POP JUMP JUMPDEST PUSH1 0x8 SLOAD PUSH1 0x1 PUSH1 0x1 PUSH1 0xA0 SHL SUB AND CALLER EQ PUSH2 0x467 JUMPI PUSH1 0x40 MLOAD PUSH3 0x461BCD PUSH1 0xE5 SHL DUP2 MSTORE PUSH1 0x20 PUSH1 0x4 DUP3 ADD MSTORE PUSH1 0x15 PUSH1 0x24 DUP3 ADD MSTORE PUSH21 0x13DB9B1E481CDD185ADA5B99C818DBDB9D1C9858DD PUSH1 0x5A SHL PUSH1 0x44 DUP3 ADD MSTORE PUSH1 0x64 ADD JUMPDEST PUSH1 0x40 MLOAD DUP1 SWAP2 SUB SWAP1 REVERT JUMPDEST PUSH2 0x40C DUP3 DUP3 PUSH2 0xA0D JUMP JUMPDEST PUSH1 0x1 PUSH1 0x1 PUSH1 0xA0 SHL SUB DUP3 AND PUSH2 0x49A JUMPI PUSH1 0x40 MLOAD PUSH4 0x32505749 PUSH1 0xE1 SHL DUP2 MSTORE PUSH0 PUSH1 0x4 DUP3 ADD MSTORE PUSH1 0x24 ADD PUSH2 0x45E JUMP JUMPDEST PUSH0 PUSH2 0x4A6 DUP4 DUP4 CALLER PUSH2 0xA5C JUMP JUMPDEST SWAP1 POP DUP4 PUSH1 0x1 PUSH1 0x1 PUSH1 0xA0 SHL SUB AND DUP2 PUSH1 0x1 PUSH1 0x1 PUSH1 0xA0 SHL SUB AND EQ PUSH2 0x4F4 JUMPI PUSH1 0x40 MLOAD PUSH4 0x64283D7B PUSH1 0xE0 SHL DUP2 MSTORE PUSH1 0x1 PUSH1 0x1 PUSH1 0xA0 SHL SUB DUP1 DUP7 AND PUSH1 0x4 DUP4 ADD MSTORE PUSH1 0x24 DUP3 ADD DUP5 SWAP1 MSTORE DUP3 AND PUSH1 0x44 DUP3 ADD MSTORE PUSH1 0x64 ADD PUSH2 0x45E JUMP JUMPDEST POP POP POP POP JUMP JUMPDEST PUSH1 0x1 PUSH1 0x1 PUSH1 0xA0 SHL SUB DUP3 AND PUSH0 SWAP1 DUP2 MSTORE PUSH1 0x9 PUSH1 0x20 MSTORE PUSH1 0x40 DUP2 KECCAK256 SLOAD DUP3 LT PUSH2 0x556 JUMPI PUSH1 0x40 MLOAD PUSH3 0x461BCD PUSH1 0xE5 SHL DUP2 MSTORE PUSH1 0x20 PUSH1 0x4 DUP3 ADD MSTORE PUSH1 0x13 PUSH1 0x24 DUP3 ADD MSTORE PUSH19 0x496E646578206F7574206F6620626F756E6473 PUSH1 0x68 SHL PUSH1 0x44 DUP3 ADD MSTORE PUSH1 0x64 ADD PUSH2 0x45E JUMP JUMPDEST PUSH1 0x1 PUSH1 0x1 PUSH1 0xA0 SHL SUB DUP4 AND PUSH0 SWAP1 DUP2 MSTORE PUSH1 0x9 PUSH1 0x20 MSTORE PUSH1 0x40 SWAP1 KECCAK256 DUP1 SLOAD DUP4 SWAP1 DUP2 LT PUSH2 0x57F JUMPI PUSH2 0x57F PUSH2 0x15C1 JUMP JUMPDEST SWAP1 PUSH0 MSTORE PUSH1 0x20 PUSH0 KECCAK256 ADD SLOAD SWAP1 POP SWAP3 SWAP2 POP POP JUMP JUMPDEST PUSH2 0x5AA DUP4 DUP4 DUP4 PUSH1 0x40 MLOAD DUP1 PUSH1 0x20 ADD PUSH1 0x40 MSTORE DUP1 PUSH0 DUP2 MSTORE POP PUSH2 0x7B0 JUMP JUMPDEST POP POP POP JUMP JUMPDEST PUSH0 PUSH2 0x345 DUP3 PUSH2 0x9C8 JUMP JUMPDEST PUSH1 0x8 SLOAD PUSH0 SWAP1 PUSH1 0x1 PUSH1 0x1 PUSH1 0xA0 SHL SUB AND CALLER EQ PUSH2 0x60D JUMPI PUSH1 0x40 MLOAD PUSH3 0x461BCD PUSH1 0xE5 SHL DUP2 MSTORE PUSH1 0x20 PUSH1 0x4 DUP3 ADD MSTORE PUSH1 0x15 PUSH1 0x24 DUP3 ADD MSTORE PUSH21 0x13DB9B1E481CDD185ADA5B99C818DBDB9D1C9858DD PUSH1 0x5A SHL PUSH1 0x44 DUP3 ADD MSTORE PUSH1 0x64 ADD PUSH2 0x45E JUMP JUMPDEST PUSH1 0x1 PUSH1 0x1 PUSH1 0xA0 SHL SUB DUP3 AND PUSH0 SWAP1 DUP2 MSTORE PUSH1 0xA PUSH1 0x20 MSTORE PUSH1 0x40 SWAP1 KECCAK256 SLOAD PUSH1 0xFF AND ISZERO PUSH2 0x675 JUMPI PUSH1 0x40 MLOAD PUSH3 0x461BCD PUSH1 0xE5 SHL DUP2 MSTORE PUSH1 0x20 PUSH1 0x4 DUP3 ADD MSTORE PUSH1 0x1C PUSH1 0x24 DUP3 ADD MSTORE PUSH32 0x5573657220616C72656164792068617320616E204C5020746F6B656E00000000 PUSH1 0x44 DUP3 ADD MSTORE PUSH1 0x64 ADD PUSH2 0x45E JUMP JUMPDEST PUSH1 0x7 DUP1 SLOAD SWAP1 DUP2 SWAP1 PUSH0 PUSH2 0x686 DUP4 PUSH2 0x15E9 JUMP JUMPDEST SWAP2 SWAP1 POP SSTORE POP PUSH2 0x695 DUP4 DUP3 PUSH2 0xAC5 JUMP JUMPDEST PUSH1 0x1 PUSH1 0x1 PUSH1 0xA0 SHL SUB DUP4 AND PUSH0 DUP2 DUP2 MSTORE PUSH1 0x9 PUSH1 0x20 SWAP1 DUP2 MSTORE PUSH1 0x40 DUP1 DUP4 KECCAK256 DUP1 SLOAD PUSH1 0x1 DUP2 DUP2 ADD DUP4 SSTORE SWAP2 DUP6 MSTORE DUP4 DUP6 KECCAK256 ADD DUP7 SWAP1 SSTORE SWAP4 DUP4 MSTORE PUSH1 0xA DUP3 MSTORE DUP1 DUP4 KECCAK256 DUP1 SLOAD PUSH1 0xFF NOT AND SWAP1 SWAP5 OR SWAP1 SWAP4 SSTORE PUSH1 0xB SWAP1 MSTORE KECCAK256 DUP2 SWAP1 SSTORE SWAP1 POP JUMPDEST SWAP2 SWAP1 POP JUMP JUMPDEST PUSH0 PUSH1 0x1 PUSH1 0x1 PUSH1 0xA0 SHL SUB DUP3 AND PUSH2 0x712 JUMPI PUSH1 0x40 MLOAD PUSH4 0x22718AD9 PUSH1 0xE2 SHL DUP2 MSTORE PUSH0 PUSH1 0x4 DUP3 ADD MSTORE PUSH1 0x24 ADD PUSH2 0x45E JUMP JUMPDEST POP PUSH1 0x1 PUSH1 0x1 PUSH1 0xA0 SHL SUB AND PUSH0 SWAP1 DUP2 MSTORE PUSH1 0x3 PUSH1 0x20 MSTORE PUSH1 0x40 SWAP1 KECCAK256 SLOAD SWAP1 JUMP JUMPDEST PUSH1 0x1 PUSH1 0x1 PUSH1 0xA0 SHL SUB DUP2 AND PUSH0 SWAP1 DUP2 MSTORE PUSH1 0x9 PUSH1 0x20 SWAP1 DUP2 MSTORE PUSH1 0x40 SWAP2 DUP3 SWAP1 KECCAK256 DUP1 SLOAD DUP4 MLOAD DUP2 DUP5 MUL DUP2 ADD DUP5 ADD SWAP1 SWAP5 MSTORE DUP1 DUP5 MSTORE PUSH1 0x60 SWAP4 SWAP3 DUP4 ADD DUP3 DUP3 DUP1 ISZERO PUSH2 0x78A JUMPI PUSH1 0x20 MUL DUP3 ADD SWAP2 SWAP1 PUSH0 MSTORE PUSH1 0x20 PUSH0 KECCAK256 SWAP1 JUMPDEST DUP2 SLOAD DUP2 MSTORE PUSH1 0x20 ADD SWAP1 PUSH1 0x1 ADD SWAP1 DUP1 DUP4 GT PUSH2 0x776 JUMPI JUMPDEST POP POP POP POP POP SWAP1 POP SWAP2 SWAP1 POP JUMP JUMPDEST PUSH1 0x60 PUSH1 0x1 DUP1 SLOAD PUSH2 0x359 SWAP1 PUSH2 0x1589 JUMP JUMPDEST PUSH2 0x40C CALLER DUP4 DUP4 PUSH2 0xADE JUMP JUMPDEST PUSH2 0x7BB DUP5 DUP5 DUP5 PUSH2 0x471 JUMP JUMPDEST PUSH2 0x4F4 CALLER DUP6 DUP6 DUP6 DUP6 PUSH2 0xB7C JUMP JUMPDEST PUSH1 0x1 PUSH1 0x1 PUSH1 0xA0 SHL SUB DUP2 AND PUSH0 SWAP1 DUP2 MSTORE PUSH1 0xA PUSH1 0x20 MSTORE PUSH1 0x40 DUP2 KECCAK256 SLOAD PUSH1 0xFF AND PUSH2 0x826 JUMPI PUSH1 0x40 MLOAD PUSH3 0x461BCD PUSH1 0xE5 SHL DUP2 MSTORE PUSH1 0x20 PUSH1 0x4 DUP3 ADD MSTORE PUSH1 0x14 PUSH1 0x24 DUP3 ADD MSTORE PUSH20 0x2AB9B2B9103430B9903737902628103A37B5B2B7 PUSH1 0x61 SHL PUSH1 0x44 DUP3 ADD MSTORE PUSH1 0x64 ADD PUSH2 0x45E JUMP JUMPDEST POP PUSH1 0x1 PUSH1 0x1 PUSH1 0xA0 SHL SUB AND PUSH0 SWAP1 DUP2 MSTORE PUSH1 0xB PUSH1 0x20 MSTORE PUSH1 0x40 SWAP1 KECCAK256 SLOAD SWAP1 JUMP JUMPDEST PUSH1 0x60 PUSH2 0x84C DUP3 PUSH2 0x9C8 JUMP JUMPDEST POP PUSH0 DUP3 DUP2 MSTORE PUSH1 0x6 PUSH1 0x20 MSTORE PUSH1 0x40 DUP2 KECCAK256 DUP1 SLOAD PUSH2 0x865 SWAP1 PUSH2 0x1589 JUMP JUMPDEST DUP1 PUSH1 0x1F ADD PUSH1 0x20 DUP1 SWAP2 DIV MUL PUSH1 0x20 ADD PUSH1 0x40 MLOAD SWAP1 DUP2 ADD PUSH1 0x40 MSTORE DUP1 SWAP3 SWAP2 SWAP1 DUP2 DUP2 MSTORE PUSH1 0x20 ADD DUP3 DUP1 SLOAD PUSH2 0x891 SWAP1 PUSH2 0x1589 JUMP JUMPDEST DUP1 ISZERO PUSH2 0x8DC JUMPI DUP1 PUSH1 0x1F LT PUSH2 0x8B3 JUMPI PUSH2 0x100 DUP1 DUP4 SLOAD DIV MUL DUP4 MSTORE SWAP2 PUSH1 0x20 ADD SWAP2 PUSH2 0x8DC JUMP JUMPDEST DUP3 ADD SWAP2 SWAP1 PUSH0 MSTORE PUSH1 0x20 PUSH0 KECCAK256 SWAP1 JUMPDEST DUP2 SLOAD DUP2 MSTORE SWAP1 PUSH1 0x1 ADD SWAP1 PUSH1 0x20 ADD DUP1 DUP4 GT PUSH2 0x8BF JUMPI DUP3 SWAP1 SUB PUSH1 0x1F AND DUP3 ADD SWAP2 JUMPDEST POP POP POP POP POP SWAP1 POP PUSH0 PUSH2 0x8F8 PUSH1 0x40 DUP1 MLOAD PUSH1 0x20 DUP2 ADD SWAP1 SWAP2 MSTORE PUSH0 DUP2 MSTORE SWAP1 JUMP JUMPDEST SWAP1 POP DUP1 MLOAD PUSH0 SUB PUSH2 0x909 JUMPI POP SWAP3 SWAP2 POP POP JUMP JUMPDEST DUP2 MLOAD ISZERO PUSH2 0x93B JUMPI DUP1 DUP3 PUSH1 0x40 MLOAD PUSH1 0x20 ADD PUSH2 0x923 SWAP3 SWAP2 SWAP1 PUSH2 0x1618 JUMP JUMPDEST PUSH1 0x40 MLOAD PUSH1 0x20 DUP2 DUP4 SUB SUB DUP2 MSTORE SWAP1 PUSH1 0x40 MSTORE SWAP3 POP POP POP SWAP2 SWAP1 POP JUMP JUMPDEST PUSH2 0x944 DUP5 PUSH2 0xCA4 JUMP JUMPDEST SWAP5 SWAP4 POP POP POP POP JUMP JUMPDEST PUSH1 0x1 PUSH1 0x1 PUSH1 0xA0 SHL SUB SWAP2 DUP3 AND PUSH0 SWAP1 DUP2 MSTORE PUSH1 0x5 PUSH1 0x20 SWAP1 DUP2 MSTORE PUSH1 0x40 DUP1 DUP4 KECCAK256 SWAP4 SWAP1 SWAP5 AND DUP3 MSTORE SWAP2 SWAP1 SWAP2 MSTORE KECCAK256 SLOAD PUSH1 0xFF AND SWAP1 JUMP JUMPDEST PUSH0 PUSH1 0x1 PUSH1 0x1 PUSH1 0xE0 SHL SUB NOT DUP3 AND PUSH4 0x80AC58CD PUSH1 0xE0 SHL EQ DUP1 PUSH2 0x9A9 JUMPI POP PUSH1 0x1 PUSH1 0x1 PUSH1 0xE0 SHL SUB NOT DUP3 AND PUSH4 0x5B5E139F PUSH1 0xE0 SHL EQ JUMPDEST DUP1 PUSH2 0x345 JUMPI POP PUSH4 0x1FFC9A7 PUSH1 0xE0 SHL PUSH1 0x1 PUSH1 0x1 PUSH1 0xE0 SHL SUB NOT DUP4 AND EQ PUSH2 0x345 JUMP JUMPDEST PUSH0 DUP2 DUP2 MSTORE PUSH1 0x2 PUSH1 0x20 MSTORE PUSH1 0x40 DUP2 KECCAK256 SLOAD PUSH1 0x1 PUSH1 0x1 PUSH1 0xA0 SHL SUB AND DUP1 PUSH2 0x345 JUMPI PUSH1 0x40 MLOAD PUSH4 0x7E273289 PUSH1 0xE0 SHL DUP2 MSTORE PUSH1 0x4 DUP2 ADD DUP5 SWAP1 MSTORE PUSH1 0x24 ADD PUSH2 0x45E JUMP JUMPDEST PUSH2 0x5AA DUP4 DUP4 DUP4 PUSH1 0x1 PUSH2 0xD15 JUMP JUMPDEST PUSH0 DUP3 DUP2 MSTORE PUSH1 0x6 PUSH1 0x20 MSTORE PUSH1 0x40 SWAP1 KECCAK256 PUSH2 0xA24 DUP3 DUP3 PUSH2 0x1670 JUMP JUMPDEST POP PUSH1 0x40 MLOAD DUP3 DUP2 MSTORE PUSH32 0xF8E1A15ABA9398E019F0B49DF1A4FDE98EE17AE345CB5F6B5E2C27F5033E8CE7 SWAP1 PUSH1 0x20 ADD PUSH1 0x40 MLOAD DUP1 SWAP2 SUB SWAP1 LOG1 POP POP JUMP JUMPDEST PUSH0 PUSH0 PUSH2 0xA69 DUP6 DUP6 DUP6 PUSH2 0xE19 JUMP JUMPDEST SWAP1 POP PUSH1 0x1 PUSH1 0x1 PUSH1 0xA0 SHL SUB DUP2 AND ISZERO PUSH2 0xA84 JUMPI PUSH2 0xA84 DUP2 DUP6 PUSH2 0xF0B JUMP JUMPDEST PUSH1 0x1 PUSH1 0x1 PUSH1 0xA0 SHL SUB DUP6 AND ISZERO PUSH2 0x944 JUMPI PUSH1 0x1 PUSH1 0x1 PUSH1 0xA0 SHL SUB DUP6 AND PUSH0 SWAP1 DUP2 MSTORE PUSH1 0x9 PUSH1 0x20 SWAP1 DUP2 MSTORE PUSH1 0x40 DUP3 KECCAK256 DUP1 SLOAD PUSH1 0x1 DUP2 ADD DUP3 SSTORE SWAP1 DUP4 MSTORE SWAP2 KECCAK256 ADD DUP5 SWAP1 SSTORE SWAP5 SWAP4 POP POP POP POP JUMP JUMPDEST PUSH2 0x40C DUP3 DUP3 PUSH1 0x40 MLOAD DUP1 PUSH1 0x20 ADD PUSH1 0x40 MSTORE DUP1 PUSH0 DUP2 MSTORE POP PUSH2 0xFC5 JUMP JUMPDEST PUSH1 0x1 PUSH1 0x1 PUSH1 0xA0 SHL SUB DUP3 AND PUSH2 0xB10 JUMPI PUSH1 0x40 MLOAD PUSH4 0xB611743 PUSH1 0xE3 SHL DUP2 MSTORE PUSH1 0x1 PUSH1 0x1 PUSH1 0xA0 SHL SUB DUP4 AND PUSH1 0x4 DUP3 ADD MSTORE PUSH1 0x24 ADD PUSH2 0x45E JUMP JUMPDEST PUSH1 0x1 PUSH1 0x1 PUSH1 0xA0 SHL SUB DUP4 DUP2 AND PUSH0 DUP2 DUP2 MSTORE PUSH1 0x5 PUSH1 0x20 SWAP1 DUP2 MSTORE PUSH1 0x40 DUP1 DUP4 KECCAK256 SWAP5 DUP8 AND DUP1 DUP5 MSTORE SWAP5 DUP3 MSTORE SWAP2 DUP3 SWAP1 KECCAK256 DUP1 SLOAD PUSH1 0xFF NOT AND DUP7 ISZERO ISZERO SWAP1 DUP2 OR SWAP1 SWAP2 SSTORE SWAP2 MLOAD SWAP2 DUP3 MSTORE PUSH32 0x17307EAB39AB6107E8899845AD3D59BD9653F200F220920489CA2B5937696C31 SWAP2 ADD PUSH1 0x40 MLOAD DUP1 SWAP2 SUB SWAP1 LOG3 POP POP POP JUMP JUMPDEST PUSH1 0x1 PUSH1 0x1 PUSH1 0xA0 SHL SUB DUP4 AND EXTCODESIZE ISZERO PUSH2 0xC9D JUMPI PUSH1 0x40 MLOAD PUSH4 0xA85BD01 PUSH1 0xE1 SHL DUP2 MSTORE PUSH1 0x1 PUSH1 0x1 PUSH1 0xA0 SHL SUB DUP5 AND SWAP1 PUSH4 0x150B7A02 SWAP1 PUSH2 0xBBE SWAP1 DUP9 SWAP1 DUP9 SWAP1 DUP8 SWAP1 DUP8 SWAP1 PUSH1 0x4 ADD PUSH2 0x172B JUMP JUMPDEST PUSH1 0x20 PUSH1 0x40 MLOAD DUP1 DUP4 SUB DUP2 PUSH0 DUP8 GAS CALL SWAP3 POP POP POP DUP1 ISZERO PUSH2 0xBF8 JUMPI POP PUSH1 0x40 DUP1 MLOAD PUSH1 0x1F RETURNDATASIZE SWAP1 DUP2 ADD PUSH1 0x1F NOT AND DUP3 ADD SWAP1 SWAP3 MSTORE PUSH2 0xBF5 SWAP2 DUP2 ADD SWAP1 PUSH2 0x1767 JUMP JUMPDEST PUSH1 0x1 JUMPDEST PUSH2 0xC5F JUMPI RETURNDATASIZE DUP1 DUP1 ISZERO PUSH2 0xC25 JUMPI PUSH1 0x40 MLOAD SWAP2 POP PUSH1 0x1F NOT PUSH1 0x3F RETURNDATASIZE ADD AND DUP3 ADD PUSH1 0x40 MSTORE RETURNDATASIZE DUP3 MSTORE RETURNDATASIZE PUSH0 PUSH1 0x20 DUP5 ADD RETURNDATACOPY PUSH2 0xC2A JUMP JUMPDEST PUSH1 0x60 SWAP2 POP JUMPDEST POP DUP1 MLOAD PUSH0 SUB PUSH2 0xC57 JUMPI PUSH1 0x40 MLOAD PUSH4 0x32505749 PUSH1 0xE1 SHL DUP2 MSTORE PUSH1 0x1 PUSH1 0x1 PUSH1 0xA0 SHL SUB DUP6 AND PUSH1 0x4 DUP3 ADD MSTORE PUSH1 0x24 ADD PUSH2 0x45E JUMP JUMPDEST DUP1 MLOAD DUP2 PUSH1 0x20 ADD REVERT JUMPDEST PUSH1 0x1 PUSH1 0x1 PUSH1 0xE0 SHL SUB NOT DUP2 AND PUSH4 0xA85BD01 PUSH1 0xE1 SHL EQ PUSH2 0xC9B JUMPI PUSH1 0x40 MLOAD PUSH4 0x32505749 PUSH1 0xE1 SHL DUP2 MSTORE PUSH1 0x1 PUSH1 0x1 PUSH1 0xA0 SHL SUB DUP6 AND PUSH1 0x4 DUP3 ADD MSTORE PUSH1 0x24 ADD PUSH2 0x45E JUMP JUMPDEST POP JUMPDEST POP POP POP POP POP JUMP JUMPDEST PUSH1 0x60 PUSH2 0xCAF DUP3 PUSH2 0x9C8 JUMP JUMPDEST POP PUSH0 PUSH2 0xCC5 PUSH1 0x40 DUP1 MLOAD PUSH1 0x20 DUP2 ADD SWAP1 SWAP2 MSTORE PUSH0 DUP2 MSTORE SWAP1 JUMP JUMPDEST SWAP1 POP PUSH0 DUP2 MLOAD GT PUSH2 0xCE3 JUMPI PUSH1 0x40 MLOAD DUP1 PUSH1 0x20 ADD PUSH1 0x40 MSTORE DUP1 PUSH0 DUP2 MSTORE POP PUSH2 0xD0E JUMP JUMPDEST DUP1 PUSH2 0xCED DUP5 PUSH2 0xFDC JUMP JUMPDEST PUSH1 0x40 MLOAD PUSH1 0x20 ADD PUSH2 0xCFE SWAP3 SWAP2 SWAP1 PUSH2 0x1618 JUMP JUMPDEST PUSH1 0x40 MLOAD PUSH1 0x20 DUP2 DUP4 SUB SUB DUP2 MSTORE SWAP1 PUSH1 0x40 MSTORE JUMPDEST SWAP4 SWAP3 POP POP POP JUMP JUMPDEST DUP1 DUP1 PUSH2 0xD29 JUMPI POP PUSH1 0x1 PUSH1 0x1 PUSH1 0xA0 SHL SUB DUP3 AND ISZERO ISZERO JUMPDEST ISZERO PUSH2 0xDEA JUMPI PUSH0 PUSH2 0xD38 DUP5 PUSH2 0x9C8 JUMP JUMPDEST SWAP1 POP PUSH1 0x1 PUSH1 0x1 PUSH1 0xA0 SHL SUB DUP4 AND ISZERO DUP1 ISZERO SWAP1 PUSH2 0xD64 JUMPI POP DUP3 PUSH1 0x1 PUSH1 0x1 PUSH1 0xA0 SHL SUB AND DUP2 PUSH1 0x1 PUSH1 0x1 PUSH1 0xA0 SHL SUB AND EQ ISZERO JUMPDEST DUP1 ISZERO PUSH2 0xD77 JUMPI POP PUSH2 0xD75 DUP2 DUP5 PUSH2 0x94C JUMP JUMPDEST ISZERO JUMPDEST ISZERO PUSH2 0xDA0 JUMPI PUSH1 0x40 MLOAD PUSH4 0xA9FBF51F PUSH1 0xE0 SHL DUP2 MSTORE PUSH1 0x1 PUSH1 0x1 PUSH1 0xA0 SHL SUB DUP5 AND PUSH1 0x4 DUP3 ADD MSTORE PUSH1 0x24 ADD PUSH2 0x45E JUMP JUMPDEST DUP2 ISZERO PUSH2 0xDE8 JUMPI DUP4 DUP6 PUSH1 0x1 PUSH1 0x1 PUSH1 0xA0 SHL SUB AND DUP3 PUSH1 0x1 PUSH1 0x1 PUSH1 0xA0 SHL SUB AND PUSH32 0x8C5BE1E5EBEC7D5BD14F71427D1E84F3DD0314C0F7B2291E5B200AC8C7C3B925 PUSH1 0x40 MLOAD PUSH1 0x40 MLOAD DUP1 SWAP2 SUB SWAP1 LOG4 JUMPDEST POP JUMPDEST POP POP PUSH0 SWAP1 DUP2 MSTORE PUSH1 0x4 PUSH1 0x20 MSTORE PUSH1 0x40 SWAP1 KECCAK256 DUP1 SLOAD PUSH1 0x1 PUSH1 0x1 PUSH1 0xA0 SHL SUB NOT AND PUSH1 0x1 PUSH1 0x1 PUSH1 0xA0 SHL SUB SWAP3 SWAP1 SWAP3 AND SWAP2 SWAP1 SWAP2 OR SWAP1 SSTORE JUMP JUMPDEST PUSH0 DUP3 DUP2 MSTORE PUSH1 0x2 PUSH1 0x20 MSTORE PUSH1 0x40 DUP2 KECCAK256 SLOAD PUSH1 0x1 PUSH1 0x1 PUSH1 0xA0 SHL SUB SWAP1 DUP2 AND SWAP1 DUP4 AND ISZERO PUSH2 0xE45 JUMPI PUSH2 0xE45 DUP2 DUP5 DUP7 PUSH2 0x106C JUMP JUMPDEST PUSH1 0x1 PUSH1 0x1 PUSH1 0xA0 SHL SUB DUP2 AND ISZERO PUSH2 0xE7F JUMPI PUSH2 0xE60 PUSH0 DUP6 PUSH0 PUSH0 PUSH2 0xD15 JUMP JUMPDEST PUSH1 0x1 PUSH1 0x1 PUSH1 0xA0 SHL SUB DUP2 AND PUSH0 SWAP1 DUP2 MSTORE PUSH1 0x3 PUSH1 0x20 MSTORE PUSH1 0x40 SWAP1 KECCAK256 DUP1 SLOAD PUSH0 NOT ADD SWAP1 SSTORE JUMPDEST PUSH1 0x1 PUSH1 0x1 PUSH1 0xA0 SHL SUB DUP6 AND ISZERO PUSH2 0xEAD JUMPI PUSH1 0x1 PUSH1 0x1 PUSH1 0xA0 SHL SUB DUP6 AND PUSH0 SWAP1 DUP2 MSTORE PUSH1 0x3 PUSH1 0x20 MSTORE PUSH1 0x40 SWAP1 KECCAK256 DUP1 SLOAD PUSH1 0x1 ADD SWAP1 SSTORE JUMPDEST PUSH0 DUP5 DUP2 MSTORE PUSH1 0x2 PUSH1 0x20 MSTORE PUSH1 0x40 DUP1 DUP3 KECCAK256 DUP1 SLOAD PUSH1 0x1 PUSH1 0x1 PUSH1 0xA0 SHL SUB NOT AND PUSH1 0x1 PUSH1 0x1 PUSH1 0xA0 SHL SUB DUP10 DUP2 AND SWAP2 DUP3 OR SWAP1 SWAP3 SSTORE SWAP2 MLOAD DUP8 SWAP4 SWAP2 DUP6 AND SWAP2 PUSH32 0xDDF252AD1BE2C89B69C2B068FC378DAA952BA7F163C4A11628F55A4DF523B3EF SWAP2 LOG4 SWAP5 SWAP4 POP POP POP POP JUMP JUMPDEST PUSH1 0x1 PUSH1 0x1 PUSH1 0xA0 SHL SUB DUP3 AND PUSH0 SWAP1 DUP2 MSTORE PUSH1 0x9 PUSH1 0x20 MSTORE PUSH1 0x40 DUP2 KECCAK256 SWAP1 JUMPDEST DUP2 SLOAD DUP2 LT ISZERO PUSH2 0x4F4 JUMPI DUP3 DUP3 DUP3 DUP2 SLOAD DUP2 LT PUSH2 0xF40 JUMPI PUSH2 0xF40 PUSH2 0x15C1 JUMP JUMPDEST SWAP1 PUSH0 MSTORE PUSH1 0x20 PUSH0 KECCAK256 ADD SLOAD SUB PUSH2 0xFBD JUMPI DUP2 SLOAD DUP3 SWAP1 PUSH2 0xF5E SWAP1 PUSH1 0x1 SWAP1 PUSH2 0x1782 JUMP JUMPDEST DUP2 SLOAD DUP2 LT PUSH2 0xF6E JUMPI PUSH2 0xF6E PUSH2 0x15C1 JUMP JUMPDEST SWAP1 PUSH0 MSTORE PUSH1 0x20 PUSH0 KECCAK256 ADD SLOAD DUP3 DUP3 DUP2 SLOAD DUP2 LT PUSH2 0xF89 JUMPI PUSH2 0xF89 PUSH2 0x15C1 JUMP JUMPDEST SWAP1 PUSH0 MSTORE PUSH1 0x20 PUSH0 KECCAK256 ADD DUP2 SWAP1 SSTORE POP DUP2 DUP1 SLOAD DUP1 PUSH2 0xFA5 JUMPI PUSH2 0xFA5 PUSH2 0x1795 JUMP JUMPDEST PUSH1 0x1 SWAP1 SUB DUP2 DUP2 SWAP1 PUSH0 MSTORE PUSH1 0x20 PUSH0 KECCAK256 ADD PUSH0 SWAP1 SSTORE SWAP1 SSTORE PUSH2 0x4F4 JUMP JUMPDEST PUSH1 0x1 ADD PUSH2 0xF24 JUMP JUMPDEST PUSH2 0xFCF DUP4 DUP4 PUSH2 0x10D0 JUMP JUMPDEST PUSH2 0x5AA CALLER PUSH0 DUP6 DUP6 DUP6 PUSH2 0xB7C JUMP JUMPDEST PUSH1 0x60 PUSH0 PUSH2 0xFE8 DUP4 PUSH2 0x1131 JUMP JUMPDEST PUSH1 0x1 ADD SWAP1 POP PUSH0 DUP2 PUSH8 0xFFFFFFFFFFFFFFFF DUP2 GT ISZERO PUSH2 0x1007 JUMPI PUSH2 0x1007 PUSH2 0x1331 JUMP JUMPDEST PUSH1 0x40 MLOAD SWAP1 DUP1 DUP3 MSTORE DUP1 PUSH1 0x1F ADD PUSH1 0x1F NOT AND PUSH1 0x20 ADD DUP3 ADD PUSH1 0x40 MSTORE DUP1 ISZERO PUSH2 0x1031 JUMPI PUSH1 0x20 DUP3 ADD DUP2 DUP1 CALLDATASIZE DUP4 CALLDATACOPY ADD SWAP1 POP JUMPDEST POP SWAP1 POP DUP2 DUP2 ADD PUSH1 0x20 ADD JUMPDEST PUSH0 NOT ADD PUSH16 0x181899199A1A9B1B9C1CB0B131B232B3 PUSH1 0x81 SHL PUSH1 0xA DUP7 MOD BYTE DUP2 MSTORE8 PUSH1 0xA DUP6 DIV SWAP5 POP DUP5 PUSH2 0x103B JUMPI POP SWAP4 SWAP3 POP POP POP JUMP JUMPDEST PUSH2 0x1077 DUP4 DUP4 DUP4 PUSH2 0x1208 JUMP JUMPDEST PUSH2 0x5AA JUMPI PUSH1 0x1 PUSH1 0x1 PUSH1 0xA0 SHL SUB DUP4 AND PUSH2 0x10A5 JUMPI PUSH1 0x40 MLOAD PUSH4 0x7E273289 PUSH1 0xE0 SHL DUP2 MSTORE PUSH1 0x4 DUP2 ADD DUP3 SWAP1 MSTORE PUSH1 0x24 ADD PUSH2 0x45E JUMP JUMPDEST PUSH1 0x40 MLOAD PUSH4 0x177E802F PUSH1 0xE0 SHL DUP2 MSTORE PUSH1 0x1 PUSH1 0x1 PUSH1 0xA0 SHL SUB DUP4 AND PUSH1 0x4 DUP3 ADD MSTORE PUSH1 0x24 DUP2 ADD DUP3 SWAP1 MSTORE PUSH1 0x44 ADD PUSH2 0x45E JUMP JUMPDEST PUSH1 0x1 PUSH1 0x1 PUSH1 0xA0 SHL SUB DUP3 AND PUSH2 0x10F9 JUMPI PUSH1 0x40 MLOAD PUSH4 0x32505749 PUSH1 0xE1 SHL DUP2 MSTORE PUSH0 PUSH1 0x4 DUP3 ADD MSTORE PUSH1 0x24 ADD PUSH2 0x45E JUMP JUMPDEST PUSH0 PUSH2 0x1105 DUP4 DUP4 PUSH0 PUSH2 0xA5C JUMP JUMPDEST SWAP1 POP PUSH1 0x1 PUSH1 0x1 PUSH1 0xA0 SHL SUB DUP2 AND ISZERO PUSH2 0x5AA JUMPI PUSH1 0x40 MLOAD PUSH4 0x39E35637 PUSH1 0xE1 SHL DUP2 MSTORE PUSH0 PUSH1 0x4 DUP3 ADD MSTORE PUSH1 0x24 ADD PUSH2 0x45E JUMP JUMPDEST PUSH0 DUP1 PUSH19 0x184F03E93FF9F4DAA797ED6E38ED64BF6A1F01 PUSH1 0x40 SHL DUP4 LT PUSH2 0x116F JUMPI PUSH19 0x184F03E93FF9F4DAA797ED6E38ED64BF6A1F01 PUSH1 0x40 SHL DUP4 DIV SWAP3 POP PUSH1 0x40 ADD JUMPDEST PUSH14 0x4EE2D6D415B85ACEF8100000000 DUP4 LT PUSH2 0x119B JUMPI PUSH14 0x4EE2D6D415B85ACEF8100000000 DUP4 DIV SWAP3 POP PUSH1 0x20 ADD JUMPDEST PUSH7 0x2386F26FC10000 DUP4 LT PUSH2 0x11B9 JUMPI PUSH7 0x2386F26FC10000 DUP4 DIV SWAP3 POP PUSH1 0x10 ADD JUMPDEST PUSH4 0x5F5E100 DUP4 LT PUSH2 0x11D1 JUMPI PUSH4 0x5F5E100 DUP4 DIV SWAP3 POP PUSH1 0x8 ADD JUMPDEST PUSH2 0x2710 DUP4 LT PUSH2 0x11E5 JUMPI PUSH2 0x2710 DUP4 DIV SWAP3 POP PUSH1 0x4 ADD JUMPDEST PUSH1 0x64 DUP4 LT PUSH2 0x11F7 JUMPI PUSH1 0x64 DUP4 DIV SWAP3 POP PUSH1 0x2 ADD JUMPDEST PUSH1 0xA DUP4 LT PUSH2 0x345 JUMPI PUSH1 0x1 ADD SWAP3 SWAP2 POP POP JUMP JUMPDEST PUSH0 PUSH1 0x1 PUSH1 0x1 PUSH1 0xA0 SHL SUB DUP4 AND ISZERO DUP1 ISZERO SWAP1 PUSH2 0x944 JUMPI POP DUP3 PUSH1 0x1 PUSH1 0x1 PUSH1 0xA0 SHL SUB AND DUP5 PUSH1 0x1 PUSH1 0x1 PUSH1 0xA0 SHL SUB AND EQ DUP1 PUSH2 0x1241 JUMPI POP PUSH2 0x1241 DUP5 DUP5 PUSH2 0x94C JUMP JUMPDEST DUP1 PUSH2 0x944 JUMPI POP POP PUSH0 SWAP1 DUP2 MSTORE PUSH1 0x4 PUSH1 0x20 MSTORE PUSH1 0x40 SWAP1 KECCAK256 SLOAD PUSH1 0x1 PUSH1 0x1 PUSH1 0xA0 SHL SUB SWAP1 DUP2 AND SWAP2 AND EQ SWAP2 SWAP1 POP JUMP JUMPDEST PUSH1 0x1 PUSH1 0x1 PUSH1 0xE0 SHL SUB NOT DUP2 AND DUP2 EQ PUSH2 0x127E JUMPI PUSH0 PUSH0 REVERT JUMPDEST POP JUMP JUMPDEST PUSH0 PUSH1 0x20 DUP3 DUP5 SUB SLT ISZERO PUSH2 0x1291 JUMPI PUSH0 PUSH0 REVERT JUMPDEST DUP2 CALLDATALOAD PUSH2 0xD0E DUP2 PUSH2 0x1269 JUMP JUMPDEST PUSH0 DUP2 MLOAD DUP1 DUP5 MSTORE DUP1 PUSH1 0x20 DUP5 ADD PUSH1 0x20 DUP7 ADD MCOPY PUSH0 PUSH1 0x20 DUP3 DUP7 ADD ADD MSTORE PUSH1 0x20 PUSH1 0x1F NOT PUSH1 0x1F DUP4 ADD AND DUP6 ADD ADD SWAP2 POP POP SWAP3 SWAP2 POP POP JUMP JUMPDEST PUSH1 0x20 DUP2 MSTORE PUSH0 PUSH2 0xD0E PUSH1 0x20 DUP4 ADD DUP5 PUSH2 0x129C JUMP JUMPDEST PUSH0 PUSH1 0x20 DUP3 DUP5 SUB SLT ISZERO PUSH2 0x12EC JUMPI PUSH0 PUSH0 REVERT JUMPDEST POP CALLDATALOAD SWAP2 SWAP1 POP JUMP JUMPDEST DUP1 CALLDATALOAD PUSH1 0x1 PUSH1 0x1 PUSH1 0xA0 SHL SUB DUP2 AND DUP2 EQ PUSH2 0x6E3 JUMPI PUSH0 PUSH0 REVERT JUMPDEST PUSH0 PUSH0 PUSH1 0x40 DUP4 DUP6 SUB SLT ISZERO PUSH2 0x131A JUMPI PUSH0 PUSH0 REVERT JUMPDEST PUSH2 0x1323 DUP4 PUSH2 0x12F3 JUMP JUMPDEST SWAP5 PUSH1 0x20 SWAP4 SWAP1 SWAP4 ADD CALLDATALOAD SWAP4 POP POP POP JUMP JUMPDEST PUSH4 0x4E487B71 PUSH1 0xE0 SHL PUSH0 MSTORE PUSH1 0x41 PUSH1 0x4 MSTORE PUSH1 0x24 PUSH0 REVERT JUMPDEST PUSH0 PUSH0 PUSH8 0xFFFFFFFFFFFFFFFF DUP5 GT ISZERO PUSH2 0x135F JUMPI PUSH2 0x135F PUSH2 0x1331 JUMP JUMPDEST POP PUSH1 0x40 MLOAD PUSH1 0x1F NOT PUSH1 0x1F DUP6 ADD DUP2 AND PUSH1 0x3F ADD AND DUP2 ADD DUP2 DUP2 LT PUSH8 0xFFFFFFFFFFFFFFFF DUP3 GT OR ISZERO PUSH2 0x138E JUMPI PUSH2 0x138E PUSH2 0x1331 JUMP JUMPDEST PUSH1 0x40 MSTORE DUP4 DUP2 MSTORE SWAP1 POP DUP1 DUP3 DUP5 ADD DUP6 LT ISZERO PUSH2 0x13A5 JUMPI PUSH0 PUSH0 REVERT JUMPDEST DUP4 DUP4 PUSH1 0x20 DUP4 ADD CALLDATACOPY PUSH0 PUSH1 0x20 DUP6 DUP4 ADD ADD MSTORE POP SWAP4 SWAP3 POP POP POP JUMP JUMPDEST PUSH0 PUSH0 PUSH1 0x40 DUP4 DUP6 SUB SLT ISZERO PUSH2 0x13CD JUMPI PUSH0 PUSH0 REVERT JUMPDEST DUP3 CALLDATALOAD SWAP2 POP PUSH1 0x20 DUP4 ADD CALLDATALOAD PUSH8 0xFFFFFFFFFFFFFFFF DUP2 GT ISZERO PUSH2 0x13EA JUMPI PUSH0 PUSH0 REVERT JUMPDEST DUP4 ADD PUSH1 0x1F DUP2 ADD DUP6 SGT PUSH2 0x13FA JUMPI PUSH0 PUSH0 REVERT JUMPDEST PUSH2 0x1409 DUP6 DUP3 CALLDATALOAD PUSH1 0x20 DUP5 ADD PUSH2 0x1345 JUMP JUMPDEST SWAP2 POP POP SWAP3 POP SWAP3 SWAP1 POP JUMP JUMPDEST PUSH0 PUSH0 PUSH0 PUSH1 0x60 DUP5 DUP7 SUB SLT ISZERO PUSH2 0x1425 JUMPI PUSH0 PUSH0 REVERT JUMPDEST PUSH2 0x142E DUP5 PUSH2 0x12F3 JUMP JUMPDEST SWAP3 POP PUSH2 0x143C PUSH1 0x20 DUP6 ADD PUSH2 0x12F3 JUMP JUMPDEST SWAP3 SWAP6 SWAP3 SWAP5 POP POP POP PUSH1 0x40 SWAP2 SWAP1 SWAP2 ADD CALLDATALOAD SWAP1 JUMP JUMPDEST PUSH0 PUSH1 0x20 DUP3 DUP5 SUB SLT ISZERO PUSH2 0x145D JUMPI PUSH0 PUSH0 REVERT JUMPDEST PUSH2 0xD0E DUP3 PUSH2 0x12F3 JUMP JUMPDEST PUSH1 0x20 DUP1 DUP3 MSTORE DUP3 MLOAD DUP3 DUP3 ADD DUP2 SWAP1 MSTORE PUSH0 SWAP2 DUP5 ADD SWAP1 PUSH1 0x40 DUP5 ADD SWAP1 DUP4 JUMPDEST DUP2 DUP2 LT ISZERO PUSH2 0x149D JUMPI DUP4 MLOAD DUP4 MSTORE PUSH1 0x20 SWAP4 DUP5 ADD SWAP4 SWAP1 SWAP3 ADD SWAP2 PUSH1 0x1 ADD PUSH2 0x147F JUMP JUMPDEST POP SWAP1 SWAP6 SWAP5 POP POP POP POP POP JUMP JUMPDEST PUSH0 PUSH0 PUSH1 0x40 DUP4 DUP6 SUB SLT ISZERO PUSH2 0x14B9 JUMPI PUSH0 PUSH0 REVERT JUMPDEST PUSH2 0x14C2 DUP4 PUSH2 0x12F3 JUMP JUMPDEST SWAP2 POP PUSH1 0x20 DUP4 ADD CALLDATALOAD DUP1 ISZERO ISZERO DUP2 EQ PUSH2 0x14D6 JUMPI PUSH0 PUSH0 REVERT JUMPDEST DUP1 SWAP2 POP POP SWAP3 POP SWAP3 SWAP1 POP JUMP JUMPDEST PUSH0 PUSH0 PUSH0 PUSH0 PUSH1 0x80 DUP6 DUP8 SUB SLT ISZERO PUSH2 0x14F4 JUMPI PUSH0 PUSH0 REVERT JUMPDEST PUSH2 0x14FD DUP6 PUSH2 0x12F3 JUMP JUMPDEST SWAP4 POP PUSH2 0x150B PUSH1 0x20 DUP7 ADD PUSH2 0x12F3 JUMP JUMPDEST SWAP3 POP PUSH1 0x40 DUP6 ADD CALLDATALOAD SWAP2 POP PUSH1 0x60 DUP6 ADD CALLDATALOAD PUSH8 0xFFFFFFFFFFFFFFFF DUP2 GT ISZERO PUSH2 0x152D JUMPI PUSH0 PUSH0 REVERT JUMPDEST DUP6 ADD PUSH1 0x1F DUP2 ADD DUP8 SGT PUSH2 0x153D JUMPI PUSH0 PUSH0 REVERT JUMPDEST PUSH2 0x154C DUP8 DUP3 CALLDATALOAD PUSH1 0x20 DUP5 ADD PUSH2 0x1345 JUMP JUMPDEST SWAP2 POP POP SWAP3 SWAP6 SWAP2 SWAP5 POP SWAP3 POP JUMP JUMPDEST PUSH0 PUSH0 PUSH1 0x40 DUP4 DUP6 SUB SLT ISZERO PUSH2 0x1569 JUMPI PUSH0 PUSH0 REVERT JUMPDEST PUSH2 0x1572 DUP4 PUSH2 0x12F3 JUMP JUMPDEST SWAP2 POP PUSH2 0x1580 PUSH1 0x20 DUP5 ADD PUSH2 0x12F3 JUMP JUMPDEST SWAP1 POP SWAP3 POP SWAP3 SWAP1 POP JUMP JUMPDEST PUSH1 0x1 DUP2 DUP2 SHR SWAP1 DUP3 AND DUP1 PUSH2 0x159D JUMPI PUSH1 0x7F DUP3 AND SWAP2 POP JUMPDEST PUSH1 0x20 DUP3 LT DUP2 SUB PUSH2 0x15BB JUMPI PUSH4 0x4E487B71 PUSH1 0xE0 SHL PUSH0 MSTORE PUSH1 0x22 PUSH1 0x4 MSTORE PUSH1 0x24 PUSH0 REVERT JUMPDEST POP SWAP2 SWAP1 POP JUMP JUMPDEST PUSH4 0x4E487B71 PUSH1 0xE0 SHL PUSH0 MSTORE PUSH1 0x32 PUSH1 0x4 MSTORE PUSH1 0x24 PUSH0 REVERT JUMPDEST PUSH4 0x4E487B71 PUSH1 0xE0 SHL PUSH0 MSTORE PUSH1 0x11 PUSH1 0x4 MSTORE PUSH1 0x24 PUSH0 REVERT JUMPDEST PUSH0 PUSH1 0x1 DUP3 ADD PUSH2 0x15FA JUMPI PUSH2 0x15FA PUSH2 0x15D5 JUMP JUMPDEST POP PUSH1 0x1 ADD SWAP1 JUMP JUMPDEST PUSH0 DUP2 MLOAD DUP1 PUSH1 0x20 DUP5 ADD DUP6 MCOPY PUSH0 SWAP4 ADD SWAP3 DUP4 MSTORE POP SWAP1 SWAP2 SWAP1 POP JUMP JUMPDEST PUSH0 PUSH2 0x944 PUSH2 0x1626 DUP4 DUP7 PUSH2 0x1601 JUMP JUMPDEST DUP5 PUSH2 0x1601 JUMP JUMPDEST PUSH1 0x1F DUP3 GT ISZERO PUSH2 0x5AA JUMPI DUP1 PUSH0 MSTORE PUSH1 0x20 PUSH0 KECCAK256 PUSH1 0x1F DUP5 ADD PUSH1 0x5 SHR DUP2 ADD PUSH1 0x20 DUP6 LT ISZERO PUSH2 0x1651 JUMPI POP DUP1 JUMPDEST PUSH1 0x1F DUP5 ADD PUSH1 0x5 SHR DUP3 ADD SWAP2 POP JUMPDEST DUP2 DUP2 LT ISZERO PUSH2 0xC9D JUMPI PUSH0 DUP2 SSTORE PUSH1 0x1 ADD PUSH2 0x165D JUMP JUMPDEST DUP2 MLOAD PUSH8 0xFFFFFFFFFFFFFFFF DUP2 GT ISZERO PUSH2 0x168A JUMPI PUSH2 0x168A PUSH2 0x1331 JUMP JUMPDEST PUSH2 0x169E DUP2 PUSH2 0x1698 DUP5 SLOAD PUSH2 0x1589 JUMP JUMPDEST DUP5 PUSH2 0x162C JUMP JUMPDEST PUSH1 0x20 PUSH1 0x1F DUP3 GT PUSH1 0x1 DUP2 EQ PUSH2 0x16D0 JUMPI PUSH0 DUP4 ISZERO PUSH2 0x16B9 JUMPI POP DUP5 DUP3 ADD MLOAD JUMPDEST PUSH0 NOT PUSH1 0x3 DUP6 SWAP1 SHL SHR NOT AND PUSH1 0x1 DUP5 SWAP1 SHL OR DUP5 SSTORE PUSH2 0xC9D JUMP JUMPDEST PUSH0 DUP5 DUP2 MSTORE PUSH1 0x20 DUP2 KECCAK256 PUSH1 0x1F NOT DUP6 AND SWAP2 JUMPDEST DUP3 DUP2 LT ISZERO PUSH2 0x16FF JUMPI DUP8 DUP6 ADD MLOAD DUP3 SSTORE PUSH1 0x20 SWAP5 DUP6 ADD SWAP5 PUSH1 0x1 SWAP1 SWAP3 ADD SWAP2 ADD PUSH2 0x16DF JUMP JUMPDEST POP DUP5 DUP3 LT ISZERO PUSH2 0x171C JUMPI DUP7 DUP5 ADD MLOAD PUSH0 NOT PUSH1 0x3 DUP8 SWAP1 SHL PUSH1 0xF8 AND SHR NOT AND DUP2 SSTORE JUMPDEST POP POP POP POP PUSH1 0x1 SWAP1 DUP2 SHL ADD SWAP1 SSTORE POP JUMP JUMPDEST PUSH1 0x1 PUSH1 0x1 PUSH1 0xA0 SHL SUB DUP6 DUP2 AND DUP3 MSTORE DUP5 AND PUSH1 0x20 DUP3 ADD MSTORE PUSH1 0x40 DUP2 ADD DUP4 SWAP1 MSTORE PUSH1 0x80 PUSH1 0x60 DUP3 ADD DUP2 SWAP1 MSTORE PUSH0 SWAP1 PUSH2 0x175D SWAP1 DUP4 ADD DUP5 PUSH2 0x129C JUMP JUMPDEST SWAP7 SWAP6 POP POP POP POP POP POP JUMP JUMPDEST PUSH0 PUSH1 0x20 DUP3 DUP5 SUB SLT ISZERO PUSH2 0x1777 JUMPI PUSH0 PUSH0 REVERT JUMPDEST DUP2 MLOAD PUSH2 0xD0E DUP2 PUSH2 0x1269 JUMP JUMPDEST DUP2 DUP2 SUB DUP2 DUP2 GT ISZERO PUSH2 0x345 JUMPI PUSH2 0x345 PUSH2 0x15D5 JUMP JUMPDEST PUSH4 0x4E487B71 PUSH1 0xE0 SHL PUSH0 MSTORE PUSH1 0x31 PUSH1 0x4 MSTORE PUSH1 0x24 PUSH0 REVERT INVALID LOG2 PUSH5 0x6970667358 0x22 SLT KECCAK256 0xE 0xD5 0xC SHR EXTDELEGATECALL PUSH29 0x566075B04751B2F91D8163939291222DFA5FC0785836A77A28AD64736F PUSH13 0x634300081D0033600660E08181 MSTORE PUSH6 0x42726F6E7A65 PUSH1 0xD0 SHL PUSH2 0x100 MSTORE PUSH1 0x80 SWAP1 DUP2 MSTORE PUSH2 0x120 SWAP2 DUP3 MSTORE PUSH6 0x29B4B63B32B9 PUSH1 0xD1 SHL PUSH2 0x140 MSTORE PUSH1 0xA0 SWAP2 SWAP1 SWAP2 MSTORE PUSH2 0x1A0 PUSH1 0x40 MSTORE PUSH1 0x4 PUSH2 0x160 SWAP1 DUP2 MSTORE PUSH4 0x11DBDB19 PUSH1 0xE2 SHL PUSH2 0x180 MSTORE PUSH1 0xC0 MSTORE PUSH2 0x5E SWAP1 PUSH1 0xA SWAP1 PUSH1 0x3 PUSH2 0x11F JUMP JUMPDEST POP CALLVALUE DUP1 ISZERO PUSH2 0x6A JUMPI PUSH0 PUSH0 REVERT JUMPDEST POP PUSH1 0x40 MLOAD PUSH2 0x1B9D CODESIZE SUB DUP1 PUSH2 0x1B9D DUP4 CODECOPY DUP2 ADD PUSH1 0x40 DUP2 SWAP1 MSTORE PUSH2 0x89 SWAP2 PUSH2 0x1DD JUMP JUMPDEST PUSH1 0x40 MLOAD DUP1 PUSH1 0x40 ADD PUSH1 0x40 MSTORE DUP1 PUSH1 0x19 DUP2 MSTORE PUSH1 0x20 ADD PUSH32 0x5374616B696E6720416368696576656D656E7420426164676500000000000000 DUP2 MSTORE POP PUSH1 0x40 MLOAD DUP1 PUSH1 0x40 ADD PUSH1 0x40 MSTORE DUP1 PUSH1 0x3 DUP2 MSTORE PUSH1 0x20 ADD PUSH3 0x29A0A1 PUSH1 0xE9 SHL DUP2 MSTORE POP DUP2 PUSH0 SWAP1 DUP2 PUSH2 0xE9 SWAP2 SWAP1 PUSH2 0x2A2 JUMP JUMPDEST POP PUSH1 0x1 PUSH2 0xF6 DUP3 DUP3 PUSH2 0x2A2 JUMP JUMPDEST POP POP PUSH1 0x8 DUP1 SLOAD PUSH1 0x1 PUSH1 0x1 PUSH1 0xA0 SHL SUB NOT AND PUSH1 0x1 PUSH1 0x1 PUSH1 0xA0 SHL SUB SWAP4 SWAP1 SWAP4 AND SWAP3 SWAP1 SWAP3 OR SWAP1 SWAP2 SSTORE POP PUSH2 0x35C JUMP JUMPDEST DUP3 DUP1 SLOAD DUP3 DUP3 SSTORE SWAP1 PUSH0 MSTORE PUSH1 0x20 PUSH0 KECCAK256 SWAP1 DUP2 ADD SWAP3 DUP3 ISZERO PUSH2 0x163 JUMPI SWAP2 PUSH1 0x20 MUL DUP3 ADD JUMPDEST DUP3 DUP2 GT ISZERO PUSH2 0x163 JUMPI DUP3 MLOAD DUP3 SWAP1 PUSH2 0x153 SWAP1 DUP3 PUSH2 0x2A2 JUMP JUMPDEST POP SWAP2 PUSH1 0x20 ADD SWAP2 SWAP1 PUSH1 0x1 ADD SWAP1 PUSH2 0x13D JUMP JUMPDEST POP PUSH2 0x16F SWAP3 SWAP2 POP PUSH2 0x173 JUMP JUMPDEST POP SWAP1 JUMP JUMPDEST DUP1 DUP3 GT ISZERO PUSH2 0x16F JUMPI PUSH0 PUSH2 0x186 DUP3 DUP3 PUSH2 0x18F JUMP JUMPDEST POP PUSH1 0x1 ADD PUSH2 0x173 JUMP JUMPDEST POP DUP1 SLOAD PUSH2 0x19B SWAP1 PUSH2 0x21E JUMP JUMPDEST PUSH0 DUP3 SSTORE DUP1 PUSH1 0x1F LT PUSH2 0x1AA JUMPI POP POP JUMP JUMPDEST PUSH1 0x1F ADD PUSH1 0x20 SWAP1 DIV SWAP1 PUSH0 MSTORE PUSH1 0x20 PUSH0 KECCAK256 SWAP1 DUP2 ADD SWAP1 PUSH2 0x1C6 SWAP2 SWAP1 PUSH2 0x1C9 JUMP JUMPDEST POP JUMP JUMPDEST JUMPDEST DUP1 DUP3 GT ISZERO PUSH2 0x16F JUMPI PUSH0 DUP2 SSTORE PUSH1 0x1 ADD PUSH2 0x1CA JUMP JUMPDEST PUSH0 PUSH1 0x20 DUP3 DUP5 SUB SLT ISZERO PUSH2 0x1ED JUMPI PUSH0 PUSH0 REVERT JUMPDEST DUP2 MLOAD PUSH1 0x1 PUSH1 0x1 PUSH1 0xA0 SHL SUB DUP2 AND DUP2 EQ PUSH2 0x203 JUMPI PUSH0 PUSH0 REVERT JUMPDEST SWAP4 SWAP3 POP POP POP JUMP JUMPDEST PUSH4 0x4E487B71 PUSH1 0xE0 SHL PUSH0 MSTORE PUSH1 0x41 PUSH1 0x4 MSTORE PUSH1 0x24 PUSH0 REVERT JUMPDEST PUSH1 0x1 DUP2 DUP2 SHR SWAP1 DUP3 AND DUP1 PUSH2 0x232 JUMPI PUSH1 0x7F DUP3 AND SWAP2 POP JUMPDEST PUSH1 0x20 DUP3 LT DUP2 SUB PUSH2 0x250 JUMPI PUSH4 0x4E487B71 PUSH1 0xE0 SHL PUSH0 MSTORE PUSH1 0x22 PUSH1 0x4 MSTORE PUSH1 0x24 PUSH0 REVERT JUMPDEST POP SWAP2 SWAP1 POP JUMP JUMPDEST PUSH1 0x1F DUP3 GT ISZERO PUSH2 0x29D JUMPI DUP1 PUSH0 MSTORE PUSH1 0x20 PUSH0 KECCAK256 PUSH1 0x1F DUP5 ADD PUSH1 0x5 SHR DUP2 ADD PUSH1 0x20 DUP6 LT ISZERO PUSH2 0x27B JUMPI POP DUP1 JUMPDEST PUSH1 0x1F DUP5 ADD PUSH1 0x5 SHR DUP3 ADD SWAP2 POP JUMPDEST DUP2 DUP2 LT ISZERO PUSH2 0x29A JUMPI PUSH0 DUP2 SSTORE PUSH1 0x1 ADD PUSH2 0x287 JUMP JUMPDEST POP POP JUMPDEST POP POP POP JUMP JUMPDEST DUP2 MLOAD PUSH1 0x1 PUSH1 0x1 PUSH1 0x40 SHL SUB DUP2 GT ISZERO PUSH2 0x2BB JUMPI PUSH2 0x2BB PUSH2 0x20A JUMP JUMPDEST PUSH2 0x2CF DUP2 PUSH2 0x2C9 DUP5 SLOAD PUSH2 0x21E JUMP JUMPDEST DUP5 PUSH2 0x256 JUMP JUMPDEST PUSH1 0x20 PUSH1 0x1F DUP3 GT PUSH1 0x1 DUP2 EQ PUSH2 0x301 JUMPI PUSH0 DUP4 ISZERO PUSH2 0x2EA JUMPI POP DUP5 DUP3 ADD MLOAD JUMPDEST PUSH0 NOT PUSH1 0x3 DUP6 SWAP1 SHL SHR NOT AND PUSH1 0x1 DUP5 SWAP1 SHL OR DUP5 SSTORE PUSH2 0x29A JUMP JUMPDEST PUSH0 DUP5 DUP2 MSTORE PUSH1 0x20 DUP2 KECCAK256 PUSH1 0x1F NOT DUP6 AND SWAP2 JUMPDEST DUP3 DUP2 LT ISZERO PUSH2 0x330 JUMPI DUP8 DUP6 ADD MLOAD DUP3 SSTORE PUSH1 0x20 SWAP5 DUP6 ADD SWAP5 PUSH1 0x1 SWAP1 SWAP3 ADD SWAP2 ADD PUSH2 0x310 JUMP JUMPDEST POP DUP5 DUP3 LT ISZERO PUSH2 0x34D JUMPI DUP7 DUP5 ADD MLOAD PUSH0 NOT PUSH1 0x3 DUP8 SWAP1 SHL PUSH1 0xF8 AND SHR NOT AND DUP2 SSTORE JUMPDEST POP POP POP POP PUSH1 0x1 SWAP1 DUP2 SHL ADD SWAP1 SSTORE POP JUMP JUMPDEST PUSH2 0x1834 DUP1 PUSH2 0x369 PUSH0 CODECOPY PUSH0 RETURN INVALID PUSH1 0x80 PUSH1 0x40 MSTORE CALLVALUE DUP1 ISZERO PUSH2 0xF JUMPI PUSH0 PUSH0 REVERT JUMPDEST POP PUSH1 0x4 CALLDATASIZE LT PUSH2 0x106 JUMPI PUSH0 CALLDATALOAD PUSH1 0xE0 SHR DUP1 PUSH4 0x70A08231 GT PUSH2 0x9E JUMPI DUP1 PUSH4 0xC87B56DD GT PUSH2 0x6E JUMPI DUP1 PUSH4 0xC87B56DD EQ PUSH2 0x222 JUMPI DUP1 PUSH4 0xE985E9C5 EQ PUSH2 0x235 JUMPI DUP1 PUSH4 0xEE99205C EQ PUSH2 0x248 JUMPI DUP1 PUSH4 0xEFFBC10A EQ PUSH2 0x25B JUMPI DUP1 PUSH4 0xF36596DA EQ PUSH2 0x27A JUMPI PUSH0 PUSH0 REVERT JUMPDEST DUP1 PUSH4 0x70A08231 EQ PUSH2 0x1E1 JUMPI DUP1 PUSH4 0x95D89B41 EQ PUSH2 0x1F4 JUMPI DUP1 PUSH4 0xA22CB465 EQ PUSH2 0x1FC JUMPI DUP1 PUSH4 0xB88D4FDE EQ PUSH2 0x20F JUMPI PUSH0 PUSH0 REVERT JUMPDEST DUP1 PUSH4 0x23B872DD GT PUSH2 0xD9 JUMPI DUP1 PUSH4 0x23B872DD EQ PUSH2 0x187 JUMPI DUP1 PUSH4 0x40C10F19 EQ PUSH2 0x19A JUMPI DUP1 PUSH4 0x42842E0E EQ PUSH2 0x1BB JUMPI DUP1 PUSH4 0x6352211E EQ PUSH2 0x1CE JUMPI PUSH0 PUSH0 REVERT JUMPDEST DUP1 PUSH4 0x1FFC9A7 EQ PUSH2 0x10A JUMPI DUP1 PUSH4 0x6FDDE03 EQ PUSH2 0x132 JUMPI DUP1 PUSH4 0x81812FC EQ PUSH2 0x147 JUMPI DUP1 PUSH4 0x95EA7B3 EQ PUSH2 0x172 JUMPI JUMPDEST PUSH0 PUSH0 REVERT JUMPDEST PUSH2 0x11D PUSH2 0x118 CALLDATASIZE PUSH1 0x4 PUSH2 0x11E2 JUMP JUMPDEST PUSH2 0x28D JUMP JUMPDEST PUSH1 0x40 MLOAD SWAP1 ISZERO ISZERO DUP2 MSTORE PUSH1 0x20 ADD JUMPDEST PUSH1 0x40 MLOAD DUP1 SWAP2 SUB SWAP1 RETURN JUMPDEST PUSH2 0x13A PUSH2 0x2B7 JUMP JUMPDEST PUSH1 0x40 MLOAD PUSH2 0x129 SWAP2 SWAP1 PUSH2 0x122B JUMP JUMPDEST PUSH2 0x15A PUSH2 0x155 CALLDATASIZE PUSH1 0x4 PUSH2 0x123D JUMP JUMPDEST PUSH2 0x346 JUMP JUMPDEST PUSH1 0x40 MLOAD PUSH1 0x1 PUSH1 0x1 PUSH1 0xA0 SHL SUB SWAP1 SWAP2 AND DUP2 MSTORE PUSH1 0x20 ADD PUSH2 0x129 JUMP JUMPDEST PUSH2 0x185 PUSH2 0x180 CALLDATASIZE PUSH1 0x4 PUSH2 0x126F JUMP JUMPDEST PUSH2 0x36D JUMP JUMPDEST STOP JUMPDEST PUSH2 0x185 PUSH2 0x195 CALLDATASIZE PUSH1 0x4 PUSH2 0x1297 JUMP JUMPDEST PUSH2 0x37C JUMP JUMPDEST PUSH2 0x1AD PUSH2 0x1A8 CALLDATASIZE PUSH1 0x4 PUSH2 0x126F JUMP JUMPDEST PUSH2 0x40A JUMP JUMPDEST PUSH1 0x40 MLOAD SWAP1 DUP2 MSTORE PUSH1 0x20 ADD PUSH2 0x129 JUMP JUMPDEST PUSH2 0x185 PUSH2 0x1C9 CALLDATASIZE PUSH1 0x4 PUSH2 0x1297 JUMP JUMPDEST PUSH2 0x4AC JUMP JUMPDEST PUSH2 0x15A PUSH2 0x1DC CALLDATASIZE PUSH1 0x4 PUSH2 0x123D JUMP JUMPDEST PUSH2 0x4CB JUMP JUMPDEST PUSH2 0x1AD PUSH2 0x1EF CALLDATASIZE PUSH1 0x4 PUSH2 0x12D1 JUMP JUMPDEST PUSH2 0x4D5 JUMP JUMPDEST PUSH2 0x13A PUSH2 0x51A JUMP JUMPDEST PUSH2 0x185 PUSH2 0x20A CALLDATASIZE PUSH1 0x4 PUSH2 0x12EA JUMP JUMPDEST PUSH2 0x529 JUMP JUMPDEST PUSH2 0x185 PUSH2 0x21D CALLDATASIZE PUSH1 0x4 PUSH2 0x1337 JUMP JUMPDEST PUSH2 0x534 JUMP JUMPDEST PUSH2 0x13A PUSH2 0x230 CALLDATASIZE PUSH1 0x4 PUSH2 0x123D JUMP JUMPDEST PUSH2 0x54C JUMP JUMPDEST PUSH2 0x11D PUSH2 0x243 CALLDATASIZE PUSH1 0x4 PUSH2 0x1414 JUMP JUMPDEST PUSH2 0x657 JUMP JUMPDEST PUSH1 0x8 SLOAD PUSH2 0x15A SWAP1 PUSH1 0x1 PUSH1 0x1 PUSH1 0xA0 SHL SUB AND DUP2 JUMP JUMPDEST PUSH2 0x1AD PUSH2 0x269 CALLDATASIZE PUSH1 0x4 PUSH2 0x123D JUMP JUMPDEST PUSH1 0x9 PUSH1 0x20 MSTORE PUSH0 SWAP1 DUP2 MSTORE PUSH1 0x40 SWAP1 KECCAK256 SLOAD DUP2 JUMP JUMPDEST PUSH2 0x13A PUSH2 0x288 CALLDATASIZE PUSH1 0x4 PUSH2 0x123D JUMP JUMPDEST PUSH2 0x684 JUMP JUMPDEST PUSH0 PUSH1 0x1 PUSH1 0x1 PUSH1 0xE0 SHL SUB NOT DUP3 AND PUSH4 0x24832483 PUSH1 0xE1 SHL EQ DUP1 PUSH2 0x2B1 JUMPI POP PUSH2 0x2B1 DUP3 PUSH2 0x72A JUMP JUMPDEST SWAP3 SWAP2 POP POP JUMP JUMPDEST PUSH1 0x60 PUSH0 DUP1 SLOAD PUSH2 0x2C5 SWAP1 PUSH2 0x1445 JUMP JUMPDEST DUP1 PUSH1 0x1F ADD PUSH1 0x20 DUP1 SWAP2 DIV MUL PUSH1 0x20 ADD PUSH1 0x40 MLOAD SWAP1 DUP2 ADD PUSH1 0x40 MSTORE DUP1 SWAP3 SWAP2 SWAP1 DUP2 DUP2 MSTORE PUSH1 0x20 ADD DUP3 DUP1 SLOAD PUSH2 0x2F1 SWAP1 PUSH2 0x1445 JUMP JUMPDEST DUP1 ISZERO PUSH2 0x33C JUMPI DUP1 PUSH1 0x1F LT PUSH2 0x313 JUMPI PUSH2 0x100 DUP1 DUP4 SLOAD DIV MUL DUP4 MSTORE SWAP2 PUSH1 0x20 ADD SWAP2 PUSH2 0x33C JUMP JUMPDEST DUP3 ADD SWAP2 SWAP1 PUSH0 MSTORE PUSH1 0x20 PUSH0 KECCAK256 SWAP1 JUMPDEST DUP2 SLOAD DUP2 MSTORE SWAP1 PUSH1 0x1 ADD SWAP1 PUSH1 0x20 ADD DUP1 DUP4 GT PUSH2 0x31F JUMPI DUP3 SWAP1 SUB PUSH1 0x1F AND DUP3 ADD SWAP2 JUMPDEST POP POP POP POP POP SWAP1 POP SWAP1 JUMP JUMPDEST PUSH0 PUSH2 0x350 DUP3 PUSH2 0x779 JUMP JUMPDEST POP PUSH0 DUP3 DUP2 MSTORE PUSH1 0x4 PUSH1 0x20 MSTORE PUSH1 0x40 SWAP1 KECCAK256 SLOAD PUSH1 0x1 PUSH1 0x1 PUSH1 0xA0 SHL SUB AND PUSH2 0x2B1 JUMP JUMPDEST PUSH2 0x378 DUP3 DUP3 CALLER PUSH2 0x7B1 JUMP JUMPDEST POP POP JUMP JUMPDEST PUSH1 0x1 PUSH1 0x1 PUSH1 0xA0 SHL SUB DUP3 AND PUSH2 0x3AA JUMPI PUSH1 0x40 MLOAD PUSH4 0x32505749 PUSH1 0xE1 SHL DUP2 MSTORE PUSH0 PUSH1 0x4 DUP3 ADD MSTORE PUSH1 0x24 ADD JUMPDEST PUSH1 0x40 MLOAD DUP1 SWAP2 SUB SWAP1 REVERT JUMPDEST PUSH0 PUSH2 0x3B6 DUP4 DUP4 CALLER PUSH2 0x7BE JUMP JUMPDEST SWAP1 POP DUP4 PUSH1 0x1 PUSH1 0x1 PUSH1 0xA0 SHL SUB AND DUP2 PUSH1 0x1 PUSH1 0x1 PUSH1 0xA0 SHL SUB AND EQ PUSH2 0x404 JUMPI PUSH1 0x40 MLOAD PUSH4 0x64283D7B PUSH1 0xE0 SHL DUP2 MSTORE PUSH1 0x1 PUSH1 0x1 PUSH1 0xA0 SHL SUB DUP1 DUP7 AND PUSH1 0x4 DUP4 ADD MSTORE PUSH1 0x24 DUP3 ADD DUP5 SWAP1 MSTORE DUP3 AND PUSH1 0x44 DUP3 ADD MSTORE PUSH1 0x64 ADD PUSH2 0x3A1 JUMP JUMPDEST POP POP POP POP JUMP JUMPDEST PUSH1 0x8 SLOAD PUSH0 SWAP1 PUSH1 0x1 PUSH1 0x1 PUSH1 0xA0 SHL SUB AND CALLER EQ PUSH2 0x45E JUMPI PUSH1 0x40 MLOAD PUSH3 0x461BCD PUSH1 0xE5 SHL DUP2 MSTORE PUSH1 0x20 PUSH1 0x4 DUP3 ADD MSTORE PUSH1 0x15 PUSH1 0x24 DUP3 ADD MSTORE PUSH21 0x13DB9B1E481CDD185ADA5B99C818DBDB9D1C9858DD PUSH1 0x5A SHL PUSH1 0x44 DUP3 ADD MSTORE PUSH1 0x64 ADD PUSH2 0x3A1 JUMP JUMPDEST PUSH1 0x7 DUP1 SLOAD SWAP1 DUP2 SWAP1 PUSH0 PUSH2 0x46F DUP4 PUSH2 0x1491 JUMP JUMPDEST SWAP2 SWAP1 POP SSTORE POP PUSH2 0x47E DUP5 DUP3 PUSH2 0x8B2 JUMP JUMPDEST PUSH0 DUP2 DUP2 MSTORE PUSH1 0x9 PUSH1 0x20 MSTORE PUSH1 0x40 DUP2 KECCAK256 DUP5 SWAP1 SSTORE PUSH2 0x498 DUP3 DUP6 PUSH2 0x8CB JUMP JUMPDEST SWAP1 POP PUSH2 0x4A4 DUP3 DUP3 PUSH2 0x9FC JUMP JUMPDEST POP SWAP4 SWAP3 POP POP POP JUMP JUMPDEST PUSH2 0x4C6 DUP4 DUP4 DUP4 PUSH1 0x40 MLOAD DUP1 PUSH1 0x20 ADD PUSH1 0x40 MSTORE DUP1 PUSH0 DUP2 MSTORE POP PUSH2 0x534 JUMP JUMPDEST POP POP POP JUMP JUMPDEST PUSH0 PUSH2 0x2B1 DUP3 PUSH2 0x779 JUMP JUMPDEST PUSH0 PUSH1 0x1 PUSH1 0x1 PUSH1 0xA0 SHL SUB DUP3 AND PUSH2 0x4FF JUMPI PUSH1 0x40 MLOAD PUSH4 0x22718AD9 PUSH1 0xE2 SHL DUP2 MSTORE PUSH0 PUSH1 0x4 DUP3 ADD MSTORE PUSH1 0x24 ADD PUSH2 0x3A1 JUMP JUMPDEST POP PUSH1 0x1 PUSH1 0x1 PUSH1 0xA0 SHL SUB AND PUSH0 SWAP1 DUP2 MSTORE PUSH1 0x3 PUSH1 0x20 MSTORE PUSH1 0x40 SWAP1 KECCAK256 SLOAD SWAP1 JUMP JUMPDEST PUSH1 0x60 PUSH1 0x1 DUP1 SLOAD PUSH2 0x2C5 SWAP1 PUSH2 0x1445 JUMP JUMPDEST PUSH2 0x378 CALLER DUP4 DUP4 PUSH2 0xA4B JUMP JUMPDEST PUSH2 0x53F DUP5 DUP5 DUP5 PUSH2 0x37C JUMP JUMPDEST PUSH2 0x404 CALLER DUP6 DUP6 DUP6 DUP6 PUSH2 0xAE9 JUMP JUMPDEST PUSH1 0x60 PUSH2 0x557 DUP3 PUSH2 0x779 JUMP JUMPDEST POP PUSH0 DUP3 DUP2 MSTORE PUSH1 0x6 PUSH1 0x20 MSTORE PUSH1 0x40 DUP2 KECCAK256 DUP1 SLOAD PUSH2 0x570 SWAP1 PUSH2 0x1445 JUMP JUMPDEST DUP1 PUSH1 0x1F ADD PUSH1 0x20 DUP1 SWAP2 DIV MUL PUSH1 0x20 ADD PUSH1 0x40 MLOAD SWAP1 DUP2 ADD PUSH1 0x40 MSTORE DUP1 SWAP3 SWAP2 SWAP1 DUP2 DUP2 MSTORE PUSH1 0x20 ADD DUP3 DUP1 SLOAD PUSH2 0x59C SWAP1 PUSH2 0x1445 JUMP JUMPDEST DUP1 ISZERO PUSH2 0x5E7 JUMPI DUP1 PUSH1 0x1F LT PUSH2 0x5BE JUMPI PUSH2 0x100 DUP1 DUP4 SLOAD DIV MUL DUP4 MSTORE SWAP2 PUSH1 0x20 ADD SWAP2 PUSH2 0x5E7 JUMP JUMPDEST DUP3 ADD SWAP2 SWAP1 PUSH0 MSTORE PUSH1 0x20 PUSH0 KECCAK256 SWAP1 JUMPDEST DUP2 SLOAD DUP2 MSTORE SWAP1 PUSH1 0x1 ADD SWAP1 PUSH1 0x20 ADD DUP1 DUP4 GT PUSH2 0x5CA JUMPI DUP3 SWAP1 SUB PUSH1 0x1F AND DUP3 ADD SWAP2 JUMPDEST POP POP POP POP POP SWAP1 POP PUSH0 PUSH2 0x603 PUSH1 0x40 DUP1 MLOAD PUSH1 0x20 DUP2 ADD SWAP1 SWAP2 MSTORE PUSH0 DUP2 MSTORE SWAP1 JUMP JUMPDEST SWAP1 POP DUP1 MLOAD PUSH0 SUB PUSH2 0x614 JUMPI POP SWAP3 SWAP2 POP POP JUMP JUMPDEST DUP2 MLOAD ISZERO PUSH2 0x646 JUMPI DUP1 DUP3 PUSH1 0x40 MLOAD PUSH1 0x20 ADD PUSH2 0x62E SWAP3 SWAP2 SWAP1 PUSH2 0x14C0 JUMP JUMPDEST PUSH1 0x40 MLOAD PUSH1 0x20 DUP2 DUP4 SUB SUB DUP2 MSTORE SWAP1 PUSH1 0x40 MSTORE SWAP3 POP POP POP SWAP2 SWAP1 POP JUMP JUMPDEST PUSH2 0x64F DUP5 PUSH2 0xC11 JUMP JUMPDEST SWAP5 SWAP4 POP POP POP POP JUMP JUMPDEST PUSH1 0x1 PUSH1 0x1 PUSH1 0xA0 SHL SUB SWAP2 DUP3 AND PUSH0 SWAP1 DUP2 MSTORE PUSH1 0x5 PUSH1 0x20 SWAP1 DUP2 MSTORE PUSH1 0x40 DUP1 DUP4 KECCAK256 SWAP4 SWAP1 SWAP5 AND DUP3 MSTORE SWAP2 SWAP1 SWAP2 MSTORE KECCAK256 SLOAD PUSH1 0xFF AND SWAP1 JUMP JUMPDEST PUSH1 0xA DUP2 DUP2 SLOAD DUP2 LT PUSH2 0x693 JUMPI PUSH0 DUP1 REVERT JUMPDEST SWAP1 PUSH0 MSTORE PUSH1 0x20 PUSH0 KECCAK256 ADD PUSH0 SWAP2 POP SWAP1 POP DUP1 SLOAD PUSH2 0x6AB SWAP1 PUSH2 0x1445 JUMP JUMPDEST DUP1 PUSH1 0x1F ADD PUSH1 0x20 DUP1 SWAP2 DIV MUL PUSH1 0x20 ADD PUSH1 0x40 MLOAD SWAP1 DUP2 ADD PUSH1 0x40 MSTORE DUP1 SWAP3 SWAP2 SWAP1 DUP2 DUP2 MSTORE PUSH1 0x20 ADD DUP3 DUP1 SLOAD PUSH2 0x6D7 SWAP1 PUSH2 0x1445 JUMP JUMPDEST DUP1 ISZERO PUSH2 0x722 JUMPI DUP1 PUSH1 0x1F LT PUSH2 0x6F9 JUMPI PUSH2 0x100 DUP1 DUP4 SLOAD DIV MUL DUP4 MSTORE SWAP2 PUSH1 0x20 ADD SWAP2 PUSH2 0x722 JUMP JUMPDEST DUP3 ADD SWAP2 SWAP1 PUSH0 MSTORE PUSH1 0x20 PUSH0 KECCAK256 SWAP1 JUMPDEST DUP2 SLOAD DUP2 MSTORE SWAP1 PUSH1 0x1 ADD SWAP1 PUSH1 0x20 ADD DUP1 DUP4 GT PUSH2 0x705 JUMPI DUP3 SWAP1 SUB PUSH1 0x1F AND DUP3 ADD SWAP2 JUMPDEST POP POP POP POP POP DUP2 JUMP JUMPDEST PUSH0 PUSH1 0x1 PUSH1 0x1 PUSH1 0xE0 SHL SUB NOT DUP3 AND PUSH4 0x80AC58CD PUSH1 0xE0 SHL EQ DUP1 PUSH2 0x75A JUMPI POP PUSH1 0x1 PUSH1 0x1 PUSH1 0xE0 SHL SUB NOT DUP3 AND PUSH4 0x5B5E139F PUSH1 0xE0 SHL EQ JUMPDEST DUP1 PUSH2 0x2B1 JUMPI POP PUSH4 0x1FFC9A7 PUSH1 0xE0 SHL PUSH1 0x1 PUSH1 0x1 PUSH1 0xE0 SHL SUB NOT DUP4 AND EQ PUSH2 0x2B1 JUMP JUMPDEST PUSH0 DUP2 DUP2 MSTORE PUSH1 0x2 PUSH1 0x20 MSTORE PUSH1 0x40 DUP2 KECCAK256 SLOAD PUSH1 0x1 PUSH1 0x1 PUSH1 0xA0 SHL SUB AND DUP1 PUSH2 0x2B1 JUMPI PUSH1 0x40 MLOAD PUSH4 0x7E273289 PUSH1 0xE0 SHL DUP2 MSTORE PUSH1 0x4 DUP2 ADD DUP5 SWAP1 MSTORE PUSH1 0x24 ADD PUSH2 0x3A1 JUMP JUMPDEST PUSH2 0x4C6 DUP4 DUP4 DUP4 PUSH1 0x1 PUSH2 0xC81 JUMP JUMPDEST PUSH0 DUP3 DUP2 MSTORE PUSH1 0x2 PUSH1 0x20 MSTORE PUSH1 0x40 DUP2 KECCAK256 SLOAD PUSH1 0x1 PUSH1 0x1 PUSH1 0xA0 SHL SUB SWAP1 DUP2 AND SWAP1 DUP4 AND ISZERO PUSH2 0x7EA JUMPI PUSH2 0x7EA DUP2 DUP5 DUP7 PUSH2 0xD85 JUMP JUMPDEST PUSH1 0x1 PUSH1 0x1 PUSH1 0xA0 SHL SUB DUP2 AND ISZERO PUSH2 0x824 JUMPI PUSH2 0x805 PUSH0 DUP6 PUSH0 PUSH0 PUSH2 0xC81 JUMP JUMPDEST PUSH1 0x1 PUSH1 0x1 PUSH1 0xA0 SHL SUB DUP2 AND PUSH0 SWAP1 DUP2 MSTORE PUSH1 0x3 PUSH1 0x20 MSTORE PUSH1 0x40 SWAP1 KECCAK256 DUP1 SLOAD PUSH0 NOT ADD SWAP1 SSTORE JUMPDEST PUSH1 0x1 PUSH1 0x1 PUSH1 0xA0 SHL SUB DUP6 AND ISZERO PUSH2 0x852 JUMPI PUSH1 0x1 PUSH1 0x1 PUSH1 0xA0 SHL SUB DUP6 AND PUSH0 SWAP1 DUP2 MSTORE PUSH1 0x3 PUSH1 0x20 MSTORE PUSH1 0x40 SWAP1 KECCAK256 DUP1 SLOAD PUSH1 0x1 ADD SWAP1 SSTORE JUMPDEST PUSH0 DUP5 DUP2 MSTORE PUSH1 0x2 PUSH1 0x20 MSTORE PUSH1 0x40 DUP1 DUP3 KECCAK256 DUP1 SLOAD PUSH1 0x1 PUSH1 0x1 PUSH1 0xA0 SHL SUB NOT AND PUSH1 0x1 PUSH1 0x1 PUSH1 0xA0 SHL SUB DUP10 DUP2 AND SWAP2 DUP3 OR SWAP1 SWAP3 SSTORE SWAP2 MLOAD DUP8 SWAP4 SWAP2 DUP6 AND SWAP2 PUSH32 0xDDF252AD1BE2C89B69C2B068FC378DAA952BA7F163C4A11628F55A4DF523B3EF SWAP2 LOG4 SWAP1 POP JUMPDEST SWAP4 SWAP3 POP POP POP JUMP JUMPDEST PUSH2 0x378 DUP3 DUP3 PUSH1 0x40 MLOAD DUP1 PUSH1 0x20 ADD PUSH1 0x40 MSTORE DUP1 PUSH0 DUP2 MSTORE POP PUSH2 0xDE9 JUMP JUMPDEST PUSH1 0xA SLOAD PUSH1 0x60 SWAP1 PUSH0 SWAP1 DUP4 LT PUSH2 0x8FE JUMPI PUSH1 0x40 MLOAD DUP1 PUSH1 0x40 ADD PUSH1 0x40 MSTORE DUP1 PUSH1 0x7 DUP2 MSTORE PUSH1 0x20 ADD PUSH7 0x2AB735B737BBB7 PUSH1 0xC9 SHL DUP2 MSTORE POP PUSH2 0x9A1 JUMP JUMPDEST PUSH1 0xA DUP4 DUP2 SLOAD DUP2 LT PUSH2 0x911 JUMPI PUSH2 0x911 PUSH2 0x14D4 JUMP JUMPDEST SWAP1 PUSH0 MSTORE PUSH1 0x20 PUSH0 KECCAK256 ADD DUP1 SLOAD PUSH2 0x924 SWAP1 PUSH2 0x1445 JUMP JUMPDEST DUP1 PUSH1 0x1F ADD PUSH1 0x20 DUP1 SWAP2 DIV MUL PUSH1 0x20 ADD PUSH1 0x40 MLOAD SWAP1 DUP2 ADD PUSH1 0x40 MSTORE DUP1 SWAP3 SWAP2 SWAP1 DUP2 DUP2 MSTORE PUSH1 0x20 ADD DUP3 DUP1 SLOAD PUSH2 0x950 SWAP1 PUSH2 0x1445 JUMP JUMPDEST DUP1 ISZERO PUSH2 0x99B JUMPI DUP1 PUSH1 0x1F LT PUSH2 0x972 JUMPI PUSH2 0x100 DUP1 DUP4 SLOAD DIV MUL DUP4 MSTORE SWAP2 PUSH1 0x20 ADD SWAP2 PUSH2 0x99B JUMP JUMPDEST DUP3 ADD SWAP2 SWAP1 PUSH0 MSTORE PUSH1 0x20 PUSH0 KECCAK256 SWAP1 JUMPDEST DUP2 SLOAD DUP2 MSTORE SWAP1 PUSH1 0x1 ADD SWAP1 PUSH1 0x20 ADD DUP1 DUP4 GT PUSH2 0x97E JUMPI DUP3 SWAP1 SUB PUSH1 0x1F AND DUP3 ADD SWAP2 JUMPDEST POP POP POP POP POP JUMPDEST SWAP1 POP PUSH0 DUP2 DUP3 DUP4 PUSH1 0x40 MLOAD PUSH1 0x20 ADD PUSH2 0x9B9 SWAP4 SWAP3 SWAP2 SWAP1 PUSH2 0x14E8 JUMP JUMPDEST PUSH1 0x40 MLOAD PUSH1 0x20 DUP2 DUP4 SUB SUB DUP2 MSTORE SWAP1 PUSH1 0x40 MSTORE SWAP1 POP PUSH2 0x9D3 DUP2 PUSH2 0xE00 JUMP JUMPDEST PUSH1 0x40 MLOAD PUSH1 0x20 ADD PUSH2 0x9E3 SWAP2 SWAP1 PUSH2 0x15EE JUMP JUMPDEST PUSH1 0x40 MLOAD PUSH1 0x20 DUP2 DUP4 SUB SUB DUP2 MSTORE SWAP1 PUSH1 0x40 MSTORE SWAP3 POP POP POP SWAP3 SWAP2 POP POP JUMP JUMPDEST PUSH0 DUP3 DUP2 MSTORE PUSH1 0x6 PUSH1 0x20 MSTORE PUSH1 0x40 SWAP1 KECCAK256 PUSH2 0xA13 DUP3 DUP3 PUSH2 0x1663 JUMP JUMPDEST POP PUSH1 0x40 MLOAD DUP3 DUP2 MSTORE PUSH32 0xF8E1A15ABA9398E019F0B49DF1A4FDE98EE17AE345CB5F6B5E2C27F5033E8CE7 SWAP1 PUSH1 0x20 ADD PUSH1 0x40 MLOAD DUP1 SWAP2 SUB SWAP1 LOG1 POP POP JUMP JUMPDEST PUSH1 0x1 PUSH1 0x1 PUSH1 0xA0 SHL SUB DUP3 AND PUSH2 0xA7D JUMPI PUSH1 0x40 MLOAD PUSH4 0xB611743 PUSH1 0xE3 SHL DUP2 MSTORE PUSH1 0x1 PUSH1 0x1 PUSH1 0xA0 SHL SUB DUP4 AND PUSH1 0x4 DUP3 ADD MSTORE PUSH1 0x24 ADD PUSH2 0x3A1 JUMP JUMPDEST PUSH1 0x1 PUSH1 0x1 PUSH1 0xA0 SHL SUB DUP4 DUP2 AND PUSH0 DUP2 DUP2 MSTORE PUSH1 0x5 PUSH1 0x20 SWAP1 DUP2 MSTORE PUSH1 0x40 DUP1 DUP4 KECCAK256 SWAP5 DUP8 AND DUP1 DUP5 MSTORE SWAP5 DUP3 MSTORE SWAP2 DUP3 SWAP1 KECCAK256 DUP1 SLOAD PUSH1 0xFF NOT AND DUP7 ISZERO ISZERO SWAP1 DUP2 OR SWAP1 SWAP2 SSTORE SWAP2 MLOAD SWAP2 DUP3 MSTORE PUSH32 0x17307EAB39AB6107E8899845AD3D59BD9653F200F220920489CA2B5937696C31 SWAP2 ADD PUSH1 0x40 MLOAD DUP1 SWAP2 SUB SWAP1 LOG3 POP POP POP JUMP JUMPDEST PUSH1 0x1 PUSH1 0x1 PUSH1 0xA0 SHL SUB DUP4 AND EXTCODESIZE ISZERO PUSH2 0xC0A JUMPI PUSH1 0x40 MLOAD PUSH4 0xA85BD01 PUSH1 0xE1 SHL DUP2 MSTORE PUSH1 0x1 PUSH1 0x1 PUSH1 0xA0 SHL SUB DUP5 AND SWAP1 PUSH4 0x150B7A02 SWAP1 PUSH2 0xB2B SWAP1 DUP9 SWAP1 DUP9 SWAP1 DUP8 SWAP1 DUP8 SWAP1 PUSH1 0x4 ADD PUSH2 0x171E JUMP JUMPDEST PUSH1 0x20 PUSH1 0x40 MLOAD DUP1 DUP4 SUB DUP2 PUSH0 DUP8 GAS CALL SWAP3 POP POP POP DUP1 ISZERO PUSH2 0xB65 JUMPI POP PUSH1 0x40 DUP1 MLOAD PUSH1 0x1F RETURNDATASIZE SWAP1 DUP2 ADD PUSH1 0x1F NOT AND DUP3 ADD SWAP1 SWAP3 MSTORE PUSH2 0xB62 SWAP2 DUP2 ADD SWAP1 PUSH2 0x175A JUMP JUMPDEST PUSH1 0x1 JUMPDEST PUSH2 0xBCC JUMPI RETURNDATASIZE DUP1 DUP1 ISZERO PUSH2 0xB92 JUMPI PUSH1 0x40 MLOAD SWAP2 POP PUSH1 0x1F NOT PUSH1 0x3F RETURNDATASIZE ADD AND DUP3 ADD PUSH1 0x40 MSTORE RETURNDATASIZE DUP3 MSTORE RETURNDATASIZE PUSH0 PUSH1 0x20 DUP5 ADD RETURNDATACOPY PUSH2 0xB97 JUMP JUMPDEST PUSH1 0x60 SWAP2 POP JUMPDEST POP DUP1 MLOAD PUSH0 SUB PUSH2 0xBC4 JUMPI PUSH1 0x40 MLOAD PUSH4 0x32505749 PUSH1 0xE1 SHL DUP2 MSTORE PUSH1 0x1 PUSH1 0x1 PUSH1 0xA0 SHL SUB DUP6 AND PUSH1 0x4 DUP3 ADD MSTORE PUSH1 0x24 ADD PUSH2 0x3A1 JUMP JUMPDEST DUP1 MLOAD DUP2 PUSH1 0x20 ADD REVERT JUMPDEST PUSH1 0x1 PUSH1 0x1 PUSH1 0xE0 SHL SUB NOT DUP2 AND PUSH4 0xA85BD01 PUSH1 0xE1 SHL EQ PUSH2 0xC08 JUMPI PUSH1 0x40 MLOAD PUSH4 0x32505749 PUSH1 0xE1 SHL DUP2 MSTORE PUSH1 0x1 PUSH1 0x1 PUSH1 0xA0 SHL SUB DUP6 AND PUSH1 0x4 DUP3 ADD MSTORE PUSH1 0x24 ADD PUSH2 0x3A1 JUMP JUMPDEST POP JUMPDEST POP POP POP POP POP JUMP JUMPDEST PUSH1 0x60 PUSH2 0xC1C DUP3 PUSH2 0x779 JUMP JUMPDEST POP PUSH0 PUSH2 0xC32 PUSH1 0x40 DUP1 MLOAD PUSH1 0x20 DUP2 ADD SWAP1 SWAP2 MSTORE PUSH0 DUP2 MSTORE SWAP1 JUMP JUMPDEST SWAP1 POP PUSH0 DUP2 MLOAD GT PUSH2 0xC50 JUMPI PUSH1 0x40 MLOAD DUP1 PUSH1 0x20 ADD PUSH1 0x40 MSTORE DUP1 PUSH0 DUP2 MSTORE POP PUSH2 0x8AB JUMP JUMPDEST DUP1 PUSH2 0xC5A DUP5 PUSH2 0xE26 JUMP JUMPDEST PUSH1 0x40 MLOAD PUSH1 0x20 ADD PUSH2 0xC6B SWAP3 SWAP2 SWAP1 PUSH2 0x14C0 JUMP JUMPDEST PUSH1 0x40 MLOAD PUSH1 0x20 DUP2 DUP4 SUB SUB DUP2 MSTORE SWAP1 PUSH1 0x40 MSTORE SWAP4 SWAP3 POP POP POP JUMP JUMPDEST DUP1 DUP1 PUSH2 0xC95 JUMPI POP PUSH1 0x1 PUSH1 0x1 PUSH1 0xA0 SHL SUB DUP3 AND ISZERO ISZERO JUMPDEST ISZERO PUSH2 0xD56 JUMPI PUSH0 PUSH2 0xCA4 DUP5 PUSH2 0x779 JUMP JUMPDEST SWAP1 POP PUSH1 0x1 PUSH1 0x1 PUSH1 0xA0 SHL SUB DUP4 AND ISZERO DUP1 ISZERO SWAP1 PUSH2 0xCD0 JUMPI POP DUP3 PUSH1 0x1 PUSH1 0x1 PUSH1 0xA0 SHL SUB AND DUP2 PUSH1 0x1 PUSH1 0x1 PUSH1 0xA0 SHL SUB AND EQ ISZERO JUMPDEST DUP1 ISZERO PUSH2 0xCE3 JUMPI POP PUSH2 0xCE1 DUP2 DUP5 PUSH2 0x657 JUMP JUMPDEST ISZERO JUMPDEST ISZERO PUSH2 0xD0C JUMPI PUSH1 0x40 MLOAD PUSH4 0xA9FBF51F PUSH1 0xE0 SHL DUP2 MSTORE PUSH1 0x1 PUSH1 0x1 PUSH1 0xA0 SHL SUB DUP5 AND PUSH1 0x4 DUP3 ADD MSTORE PUSH1 0x24 ADD PUSH2 0x3A1 JUMP JUMPDEST DUP2 ISZERO PUSH2 0xD54 JUMPI DUP4 DUP6 PUSH1 0x1 PUSH1 0x1 PUSH1 0xA0 SHL SUB AND DUP3 PUSH1 0x1 PUSH1 0x1 PUSH1 0xA0 SHL SUB AND PUSH32 0x8C5BE1E5EBEC7D5BD14F71427D1E84F3DD0314C0F7B2291E5B200AC8C7C3B925 PUSH1 0x40 MLOAD PUSH1 0x40 MLOAD DUP1 SWAP2 SUB SWAP1 LOG4 JUMPDEST POP JUMPDEST POP POP PUSH0 SWAP1 DUP2 MSTORE PUSH1 0x4 PUSH1 0x20 MSTORE PUSH1 0x40 SWAP1 KECCAK256 DUP1 SLOAD PUSH1 0x1 PUSH1 0x1 PUSH1 0xA0 SHL SUB NOT AND PUSH1 0x1 PUSH1 0x1 PUSH1 0xA0 SHL SUB SWAP3 SWAP1 SWAP3 AND SWAP2 SWAP1 SWAP2 OR SWAP1 SSTORE JUMP JUMPDEST PUSH2 0xD90 DUP4 DUP4 DUP4 PUSH2 0xEB6 JUMP JUMPDEST PUSH2 0x4C6 JUMPI PUSH1 0x1 PUSH1 0x1 PUSH1 0xA0 SHL SUB DUP4 AND PUSH2 0xDBE JUMPI PUSH1 0x40 MLOAD PUSH4 0x7E273289 PUSH1 0xE0 SHL DUP2 MSTORE PUSH1 0x4 DUP2 ADD DUP3 SWAP1 MSTORE PUSH1 0x24 ADD PUSH2 0x3A1 JUMP JUMPDEST PUSH1 0x40 MLOAD PUSH4 0x177E802F PUSH1 0xE0 SHL DUP2 MSTORE PUSH1 0x1 PUSH1 0x1 PUSH1 0xA0 SHL SUB DUP4 AND PUSH1 0x4 DUP3 ADD MSTORE PUSH1 0x24 DUP2 ADD DUP3 SWAP1 MSTORE PUSH1 0x44 ADD PUSH2 0x3A1 JUMP JUMPDEST PUSH2 0xDF3 DUP4 DUP4 PUSH2 0xF17 JUMP JUMPDEST PUSH2 0x4C6 CALLER PUSH0 DUP6 DUP6 DUP6 PUSH2 0xAE9 JUMP JUMPDEST PUSH1 0x60 PUSH2 0x2B1 DUP3 PUSH1 0x40 MLOAD DUP1 PUSH1 0x60 ADD PUSH1 0x40 MSTORE DUP1 PUSH1 0x40 DUP2 MSTORE PUSH1 0x20 ADD PUSH2 0x17BF PUSH1 0x40 SWAP2 CODECOPY PUSH1 0x1 PUSH2 0xF78 JUMP JUMPDEST PUSH1 0x60 PUSH0 PUSH2 0xE32 DUP4 PUSH2 0x10F3 JUMP JUMPDEST PUSH1 0x1 ADD SWAP1 POP PUSH0 DUP2 PUSH8 0xFFFFFFFFFFFFFFFF DUP2 GT ISZERO PUSH2 0xE51 JUMPI PUSH2 0xE51 PUSH2 0x1323 JUMP JUMPDEST PUSH1 0x40 MLOAD SWAP1 DUP1 DUP3 MSTORE DUP1 PUSH1 0x1F ADD PUSH1 0x1F NOT AND PUSH1 0x20 ADD DUP3 ADD PUSH1 0x40 MSTORE DUP1 ISZERO PUSH2 0xE7B JUMPI PUSH1 0x20 DUP3 ADD DUP2 DUP1 CALLDATASIZE DUP4 CALLDATACOPY ADD SWAP1 POP JUMPDEST POP SWAP1 POP DUP2 DUP2 ADD PUSH1 0x20 ADD JUMPDEST PUSH0 NOT ADD PUSH16 0x181899199A1A9B1B9C1CB0B131B232B3 PUSH1 0x81 SHL PUSH1 0xA DUP7 MOD BYTE DUP2 MSTORE8 PUSH1 0xA DUP6 DIV SWAP5 POP DUP5 PUSH2 0xE85 JUMPI POP SWAP4 SWAP3 POP POP POP JUMP JUMPDEST PUSH0 PUSH1 0x1 PUSH1 0x1 PUSH1 0xA0 SHL SUB DUP4 AND ISZERO DUP1 ISZERO SWAP1 PUSH2 0x64F JUMPI POP DUP3 PUSH1 0x1 PUSH1 0x1 PUSH1 0xA0 SHL SUB AND DUP5 PUSH1 0x1 PUSH1 0x1 PUSH1 0xA0 SHL SUB AND EQ DUP1 PUSH2 0xEEF JUMPI POP PUSH2 0xEEF DUP5 DUP5 PUSH2 0x657 JUMP JUMPDEST DUP1 PUSH2 0x64F JUMPI POP POP PUSH0 SWAP1 DUP2 MSTORE PUSH1 0x4 PUSH1 0x20 MSTORE PUSH1 0x40 SWAP1 KECCAK256 SLOAD PUSH1 0x1 PUSH1 0x1 PUSH1 0xA0 SHL SUB SWAP1 DUP2 AND SWAP2 AND EQ SWAP2 SWAP1 POP JUMP JUMPDEST PUSH1 0x1 PUSH1 0x1 PUSH1 0xA0 SHL SUB DUP3 AND PUSH2 0xF40 JUMPI PUSH1 0x40 MLOAD PUSH4 0x32505749 PUSH1 0xE1 SHL DUP2 MSTORE PUSH0 PUSH1 0x4 DUP3 ADD MSTORE PUSH1 0x24 ADD PUSH2 0x3A1 JUMP JUMPDEST PUSH0 PUSH2 0xF4C DUP4 DUP4 PUSH0 PUSH2 0x7BE JUMP JUMPDEST SWAP1 POP PUSH1 0x1 PUSH1 0x1 PUSH1 0xA0 SHL SUB DUP2 AND ISZERO PUSH2 0x4C6 JUMPI PUSH1 0x40 MLOAD PUSH4 0x39E35637 PUSH1 0xE1 SHL DUP2 MSTORE PUSH0 PUSH1 0x4 DUP3 ADD MSTORE PUSH1 0x24 ADD PUSH2 0x3A1 JUMP JUMPDEST PUSH1 0x60 DUP4 MLOAD PUSH0 SUB PUSH2 0xF96 JUMPI POP PUSH1 0x40 DUP1 MLOAD PUSH1 0x20 DUP2 ADD SWAP1 SWAP2 MSTORE PUSH0 DUP2 MSTORE PUSH2 0x8AB JUMP JUMPDEST PUSH0 DUP3 PUSH2 0xFC6 JUMPI PUSH1 0x3 DUP6 MLOAD PUSH1 0x4 PUSH2 0xFAC SWAP2 SWAP1 PUSH2 0x1775 JUMP JUMPDEST PUSH2 0xFB7 SWAP1 PUSH1 0x2 PUSH2 0x178C JUMP JUMPDEST PUSH2 0xFC1 SWAP2 SWAP1 PUSH2 0x179F JUMP JUMPDEST PUSH2 0xFEB JUMP JUMPDEST PUSH1 0x3 DUP6 MLOAD PUSH1 0x2 PUSH2 0xFD6 SWAP2 SWAP1 PUSH2 0x178C JUMP JUMPDEST PUSH2 0xFE0 SWAP2 SWAP1 PUSH2 0x179F JUMP JUMPDEST PUSH2 0xFEB SWAP1 PUSH1 0x4 PUSH2 0x1775 JUMP JUMPDEST SWAP1 POP PUSH0 DUP2 PUSH8 0xFFFFFFFFFFFFFFFF DUP2 GT ISZERO PUSH2 0x1007 JUMPI PUSH2 0x1007 PUSH2 0x1323 JUMP JUMPDEST PUSH1 0x40 MLOAD SWAP1 DUP1 DUP3 MSTORE DUP1 PUSH1 0x1F ADD PUSH1 0x1F NOT AND PUSH1 0x20 ADD DUP3 ADD PUSH1 0x40 MSTORE DUP1 ISZERO PUSH2 0x1031 JUMPI PUSH1 0x20 DUP3 ADD DUP2 DUP1 CALLDATASIZE DUP4 CALLDATACOPY ADD SWAP1 POP JUMPDEST POP SWAP1 POP PUSH1 0x1 DUP6 ADD PUSH1 0x20 DUP3 ADD DUP8 DUP9 MLOAD DUP10 ADD PUSH1 0x20 DUP2 ADD DUP1 MLOAD PUSH0 DUP3 MSTORE JUMPDEST DUP3 DUP5 LT ISZERO PUSH2 0x10A6 JUMPI PUSH1 0x3 DUP5 ADD SWAP4 POP DUP4 MLOAD PUSH1 0x3F DUP2 PUSH1 0x12 SHR AND DUP8 ADD MLOAD DUP7 MSTORE8 PUSH1 0x1 DUP7 ADD SWAP6 POP PUSH1 0x3F DUP2 PUSH1 0xC SHR AND DUP8 ADD MLOAD DUP7 MSTORE8 PUSH1 0x1 DUP7 ADD SWAP6 POP PUSH1 0x3F DUP2 PUSH1 0x6 SHR AND DUP8 ADD MLOAD DUP7 MSTORE8 PUSH1 0x1 DUP7 ADD SWAP6 POP PUSH1 0x3F DUP2 AND DUP8 ADD MLOAD DUP7 MSTORE8 POP PUSH1 0x1 DUP6 ADD SWAP5 POP PUSH2 0x104B JUMP JUMPDEST SWAP1 MSTORE POP POP DUP6 ISZERO PUSH2 0x10E7 JUMPI PUSH1 0x3 DUP9 MLOAD MOD PUSH1 0x1 DUP2 EQ PUSH2 0x10CA JUMPI PUSH1 0x2 DUP2 EQ PUSH2 0x10DD JUMPI PUSH2 0x10E5 JUMP JUMPDEST PUSH1 0x3D PUSH1 0x1 DUP4 SUB MSTORE8 PUSH1 0x3D PUSH1 0x2 DUP4 SUB MSTORE8 PUSH2 0x10E5 JUMP JUMPDEST PUSH1 0x3D PUSH1 0x1 DUP4 SUB MSTORE8 JUMPDEST POP JUMPDEST POP SWAP1 SWAP7 SWAP6 POP POP POP POP POP POP JUMP JUMPDEST PUSH0 DUP1 PUSH19 0x184F03E93FF9F4DAA797ED6E38ED64BF6A1F01 PUSH1 0x40 SHL DUP4 LT PUSH2 0x1131 JUMPI PUSH19 0x184F03E93FF9F4DAA797ED6E38ED64BF6A1F01 PUSH1 0x40 SHL DUP4 DIV SWAP3 POP PUSH1 0x40 ADD JUMPDEST PUSH14 0x4EE2D6D415B85ACEF8100000000 DUP4 LT PUSH2 0x115D JUMPI PUSH14 0x4EE2D6D415B85ACEF8100000000 DUP4 DIV SWAP3 POP PUSH1 0x20 ADD JUMPDEST PUSH7 0x2386F26FC10000 DUP4 LT PUSH2 0x117B JUMPI PUSH7 0x2386F26FC10000 DUP4 DIV SWAP3 POP PUSH1 0x10 ADD JUMPDEST PUSH4 0x5F5E100 DUP4 LT PUSH2 0x1193 JUMPI PUSH4 0x5F5E100 DUP4 DIV SWAP3 POP PUSH1 0x8 ADD JUMPDEST PUSH2 0x2710 DUP4 LT PUSH2 0x11A7 JUMPI PUSH2 0x2710 DUP4 DIV SWAP3 POP PUSH1 0x4 ADD JUMPDEST PUSH1 0x64 DUP4 LT PUSH2 0x11B9 JUMPI PUSH1 0x64 DUP4 DIV SWAP3 POP PUSH1 0x2 ADD JUMPDEST PUSH1 0xA DUP4 LT PUSH2 0x2B1 JUMPI PUSH1 0x1 ADD SWAP3 SWAP2 POP POP JUMP JUMPDEST PUSH1 0x1 PUSH1 0x1 PUSH1 0xE0 SHL SUB NOT DUP2 AND DUP2 EQ PUSH2 0x11DF JUMPI PUSH0 PUSH0 REVERT JUMPDEST POP JUMP JUMPDEST PUSH0 PUSH1 0x20 DUP3 DUP5 SUB SLT ISZERO PUSH2 0x11F2 JUMPI PUSH0 PUSH0 REVERT JUMPDEST DUP2 CALLDATALOAD PUSH2 0x8AB DUP2 PUSH2 0x11CA JUMP JUMPDEST PUSH0 DUP2 MLOAD DUP1 DUP5 MSTORE DUP1 PUSH1 0x20 DUP5 ADD PUSH1 0x20 DUP7 ADD MCOPY PUSH0 PUSH1 0x20 DUP3 DUP7 ADD ADD MSTORE PUSH1 0x20 PUSH1 0x1F NOT PUSH1 0x1F DUP4 ADD AND DUP6 ADD ADD SWAP2 POP POP SWAP3 SWAP2 POP POP JUMP JUMPDEST PUSH1 0x20 DUP2 MSTORE PUSH0 PUSH2 0x8AB PUSH1 0x20 DUP4 ADD DUP5 PUSH2 0x11FD JUMP JUMPDEST PUSH0 PUSH1 0x20 DUP3 DUP5 SUB SLT ISZERO PUSH2 0x124D JUMPI PUSH0 PUSH0 REVERT JUMPDEST POP CALLDATALOAD SWAP2 SWAP1 POP JUMP JUMPDEST DUP1 CALLDATALOAD PUSH1 0x1 PUSH1 0x1 PUSH1 0xA0 SHL SUB DUP2 AND DUP2 EQ PUSH2 0x126A JUMPI PUSH0 PUSH0 REVERT JUMPDEST SWAP2 SWAP1 POP JUMP JUMPDEST PUSH0 PUSH0 PUSH1 0x40 DUP4 DUP6 SUB SLT ISZERO PUSH2 0x1280 JUMPI PUSH0 PUSH0 REVERT JUMPDEST PUSH2 0x1289 DUP4 PUSH2 0x1254 JUMP JUMPDEST SWAP5 PUSH1 0x20 SWAP4 SWAP1 SWAP4 ADD CALLDATALOAD SWAP4 POP POP POP JUMP JUMPDEST PUSH0 PUSH0 PUSH0 PUSH1 0x60 DUP5 DUP7 SUB SLT ISZERO PUSH2 0x12A9 JUMPI PUSH0 PUSH0 REVERT JUMPDEST PUSH2 0x12B2 DUP5 PUSH2 0x1254 JUMP JUMPDEST SWAP3 POP PUSH2 0x12C0 PUSH1 0x20 DUP6 ADD PUSH2 0x1254 JUMP JUMPDEST SWAP3 SWAP6 SWAP3 SWAP5 POP POP POP PUSH1 0x40 SWAP2 SWAP1 SWAP2 ADD CALLDATALOAD SWAP1 JUMP JUMPDEST PUSH0 PUSH1 0x20 DUP3 DUP5 SUB SLT ISZERO PUSH2 0x12E1 JUMPI PUSH0 PUSH0 REVERT JUMPDEST PUSH2 0x8AB DUP3 PUSH2 0x1254 JUMP JUMPDEST PUSH0 PUSH0 PUSH1 0x40 DUP4 DUP6 SUB SLT ISZERO PUSH2 0x12FB JUMPI PUSH0 PUSH0 REVERT JUMPDEST PUSH2 0x1304 DUP4 PUSH2 0x1254 JUMP JUMPDEST SWAP2 POP PUSH1 0x20 DUP4 ADD CALLDATALOAD DUP1 ISZERO ISZERO DUP2 EQ PUSH2 0x1318 JUMPI PUSH0 PUSH0 REVERT JUMPDEST DUP1 SWAP2 POP POP SWAP3 POP SWAP3 SWAP1 POP JUMP JUMPDEST PUSH4 0x4E487B71 PUSH1 0xE0 SHL PUSH0 MSTORE PUSH1 0x41 PUSH1 0x4 MSTORE PUSH1 0x24 PUSH0 REVERT JUMPDEST PUSH0 PUSH0 PUSH0 PUSH0 PUSH1 0x80 DUP6 DUP8 SUB SLT ISZERO PUSH2 0x134A JUMPI PUSH0 PUSH0 REVERT JUMPDEST PUSH2 0x1353 DUP6 PUSH2 0x1254 JUMP JUMPDEST SWAP4 POP PUSH2 0x1361 PUSH1 0x20 DUP7 ADD PUSH2 0x1254 JUMP JUMPDEST SWAP3 POP PUSH1 0x40 DUP6 ADD CALLDATALOAD SWAP2 POP PUSH1 0x60 DUP6 ADD CALLDATALOAD PUSH8 0xFFFFFFFFFFFFFFFF DUP2 GT ISZERO PUSH2 0x1383 JUMPI PUSH0 PUSH0 REVERT JUMPDEST DUP6 ADD PUSH1 0x1F DUP2 ADD DUP8 SGT PUSH2 0x1393 JUMPI PUSH0 PUSH0 REVERT JUMPDEST DUP1 CALLDATALOAD PUSH8 0xFFFFFFFFFFFFFFFF DUP2 GT ISZERO PUSH2 0x13AD JUMPI PUSH2 0x13AD PUSH2 0x1323 JUMP JUMPDEST PUSH1 0x40 MLOAD PUSH1 0x1F DUP3 ADD PUSH1 0x1F NOT SWAP1 DUP2 AND PUSH1 0x3F ADD AND DUP2 ADD PUSH8 0xFFFFFFFFFFFFFFFF DUP2 GT DUP3 DUP3 LT OR ISZERO PUSH2 0x13DC JUMPI PUSH2 0x13DC PUSH2 0x1323 JUMP JUMPDEST PUSH1 0x40 MSTORE DUP2 DUP2 MSTORE DUP3 DUP3 ADD PUSH1 0x20 ADD DUP10 LT ISZERO PUSH2 0x13F3 JUMPI PUSH0 PUSH0 REVERT JUMPDEST DUP2 PUSH1 0x20 DUP5 ADD PUSH1 0x20 DUP4 ADD CALLDATACOPY PUSH0 PUSH1 0x20 DUP4 DUP4 ADD ADD MSTORE DUP1 SWAP4 POP POP POP POP SWAP3 SWAP6 SWAP2 SWAP5 POP SWAP3 POP JUMP JUMPDEST PUSH0 PUSH0 PUSH1 0x40 DUP4 DUP6 SUB SLT ISZERO PUSH2 0x1425 JUMPI PUSH0 PUSH0 REVERT JUMPDEST PUSH2 0x142E DUP4 PUSH2 0x1254 JUMP JUMPDEST SWAP2 POP PUSH2 0x143C PUSH1 0x20 DUP5 ADD PUSH2 0x1254 JUMP JUMPDEST SWAP1 POP SWAP3 POP SWAP3 SWAP1 POP JUMP JUMPDEST PUSH1 0x1 DUP2 DUP2 SHR SWAP1 DUP3 AND DUP1 PUSH2 0x1459 JUMPI PUSH1 0x7F DUP3 AND SWAP2 POP JUMPDEST PUSH1 0x20 DUP3 LT DUP2 SUB PUSH2 0x1477 JUMPI PUSH4 0x4E487B71 PUSH1 0xE0 SHL PUSH0 MSTORE PUSH1 0x22 PUSH1 0x4 MSTORE PUSH1 0x24 PUSH0 REVERT JUMPDEST POP SWAP2 SWAP1 POP JUMP JUMPDEST PUSH4 0x4E487B71 PUSH1 0xE0 SHL PUSH0 MSTORE PUSH1 0x11 PUSH1 0x4 MSTORE PUSH1 0x24 PUSH0 REVERT JUMPDEST PUSH0 PUSH1 0x1 DUP3 ADD PUSH2 0x14A2 JUMPI PUSH2 0x14A2 PUSH2 0x147D JUMP JUMPDEST POP PUSH1 0x1 ADD SWAP1 JUMP JUMPDEST PUSH0 DUP2 MLOAD DUP1 PUSH1 0x20 DUP5 ADD DUP6 MCOPY PUSH0 SWAP4 ADD SWAP3 DUP4 MSTORE POP SWAP1 SWAP2 SWAP1 POP JUMP JUMPDEST PUSH0 PUSH2 0x64F PUSH2 0x14CE DUP4 DUP7 PUSH2 0x14A9 JUMP JUMPDEST DUP5 PUSH2 0x14A9 JUMP JUMPDEST PUSH4 0x4E487B71 PUSH1 0xE0 SHL PUSH0 MSTORE PUSH1 0x32 PUSH1 0x4 MSTORE PUSH1 0x24 PUSH0 REVERT JUMPDEST PUSH10 0x3D913730B6B2911D1011 PUSH1 0xB1 SHL DUP2 MSTORE PUSH0 PUSH2 0x1506 PUSH1 0xA DUP4 ADD DUP7 PUSH2 0x14A9 JUMP JUMPDEST PUSH21 0x1020B1B434B2BB32B6B2B73A102130B233B291161 PUSH1 0x5D SHL DUP2 MSTORE PUSH32 0x226465736372697074696F6E223A202254686973206261646765206365727469 PUSH1 0x15 DUP3 ADD MSTORE PUSH32 0x6669657320616368696576656D656E74206F6620746865200000000000000000 PUSH1 0x35 DUP3 ADD MSTORE PUSH2 0x157A PUSH1 0x4D DUP3 ADD DUP7 PUSH2 0x14A9 JUMP JUMPDEST PUSH9 0x103A34B2B91711161 PUSH1 0xBD SHL DUP2 MSTORE PUSH32 0x2261747472696275746573223A205B7B2274726169745F74797065223A202254 PUSH1 0x9 DUP3 ADD MSTORE PUSH16 0x34B2B9111610113B30B63AB2911D1011 PUSH1 0x81 SHL PUSH1 0x29 DUP3 ADD MSTORE SWAP1 POP PUSH2 0x15D7 PUSH1 0x39 DUP3 ADD DUP6 PUSH2 0x14A9 JUMP JUMPDEST PUSH4 0x227D5D7D PUSH1 0xE0 SHL DUP2 MSTORE PUSH1 0x4 ADD SWAP7 SWAP6 POP POP POP POP POP POP JUMP JUMPDEST PUSH32 0x646174613A6170706C69636174696F6E2F6A736F6E3B6261736536342C000000 DUP2 MSTORE PUSH0 PUSH2 0x8AB PUSH1 0x1D DUP4 ADD DUP5 PUSH2 0x14A9 JUMP JUMPDEST PUSH1 0x1F DUP3 GT ISZERO PUSH2 0x4C6 JUMPI DUP1 PUSH0 MSTORE PUSH1 0x20 PUSH0 KECCAK256 PUSH1 0x1F DUP5 ADD PUSH1 0x5 SHR DUP2 ADD PUSH1 0x20 DUP6 LT ISZERO PUSH2 0x1644 JUMPI POP DUP1 JUMPDEST PUSH1 0x1F DUP5 ADD PUSH1 0x5 SHR DUP3 ADD SWAP2 POP JUMPDEST DUP2 DUP2 LT ISZERO PUSH2 0xC0A JUMPI PUSH0 DUP2 SSTORE PUSH1 0x1 ADD PUSH2 0x1650 JUMP JUMPDEST DUP2 MLOAD PUSH8 0xFFFFFFFFFFFFFFFF DUP2 GT ISZERO PUSH2 0x167D JUMPI PUSH2 0x167D PUSH2 0x1323 JUMP JUMPDEST PUSH2 0x1691 DUP2 PUSH2 0x168B DUP5 SLOAD PUSH2 0x1445 JUMP JUMPDEST DUP5 PUSH2 0x161F JUMP JUMPDEST PUSH1 0x20 PUSH1 0x1F DUP3 GT PUSH1 0x1 DUP2 EQ PUSH2 0x16C3 JUMPI PUSH0 DUP4 ISZERO PUSH2 0x16AC JUMPI POP DUP5 DUP3 ADD MLOAD JUMPDEST PUSH0 NOT PUSH1 0x3 DUP6 SWAP1 SHL SHR NOT AND PUSH1 0x1 DUP5 SWAP1 SHL OR DUP5 SSTORE PUSH2 0xC0A JUMP JUMPDEST PUSH0 DUP5 DUP2 MSTORE PUSH1 0x20 DUP2 KECCAK256 PUSH1 0x1F NOT DUP6 AND SWAP2 JUMPDEST DUP3 DUP2 LT ISZERO PUSH2 0x16F2 JUMPI DUP8 DUP6 ADD MLOAD DUP3 SSTORE PUSH1 0x20 SWAP5 DUP6 ADD SWAP5 PUSH1 0x1 SWAP1 SWAP3 ADD SWAP2 ADD PUSH2 0x16D2 JUMP JUMPDEST POP DUP5 DUP3 LT ISZERO PUSH2 0x170F JUMPI DUP7 DUP5 ADD MLOAD PUSH0 NOT PUSH1 0x3 DUP8 SWAP1 SHL PUSH1 0xF8 AND SHR NOT AND DUP2 SSTORE JUMPDEST POP POP POP POP PUSH1 0x1 SWAP1 DUP2 SHL ADD SWAP1 SSTORE POP JUMP JUMPDEST PUSH1 0x1 PUSH1 0x1 PUSH1 0xA0 SHL SUB DUP6 DUP2 AND DUP3 MSTORE DUP5 AND PUSH1 0x20 DUP3 ADD MSTORE PUSH1 0x40 DUP2 ADD DUP4 SWAP1 MSTORE PUSH1 0x80 PUSH1 0x60 DUP3 ADD DUP2 SWAP1 MSTORE PUSH0 SWAP1 PUSH2 0x1750 SWAP1 DUP4 ADD DUP5 PUSH2 0x11FD JUMP JUMPDEST SWAP7 SWAP6 POP POP POP POP POP POP JUMP JUMPDEST PUSH0 PUSH1 0x20 DUP3 DUP5 SUB SLT ISZERO PUSH2 0x176A JUMPI PUSH0 PUSH0 REVERT JUMPDEST DUP2 MLOAD PUSH2 0x8AB DUP2 PUSH2 0x11CA JUMP JUMPDEST DUP1 DUP3 MUL DUP2 ISZERO DUP3 DUP3 DIV DUP5 EQ OR PUSH2 0x2B1 JUMPI PUSH2 0x2B1 PUSH2 0x147D JUMP JUMPDEST DUP1 DUP3 ADD DUP1 DUP3 GT ISZERO PUSH2 0x2B1 JUMPI PUSH2 0x2B1 PUSH2 0x147D JUMP JUMPDEST PUSH0 DUP3 PUSH2 0x17B9 JUMPI PUSH4 0x4E487B71 PUSH1 0xE0 SHL PUSH0 MSTORE PUSH1 0x12 PUSH1 0x4 MSTORE PUSH1 0x24 PUSH0 REVERT JUMPDEST POP DIV SWAP1 JUMP INVALID COINBASE TIMESTAMP NUMBER PREVRANDAO GASLIMIT CHAINID SELFBALANCE BASEFEE BLOBHASH BLOBBASEFEE 0x4B 0x4C 0x4D 0x4E 0x4F POP MLOAD MSTORE MSTORE8 SLOAD SSTORE JUMP JUMPI PC MSIZE GAS PUSH2 0x6263 PUSH5 0x6566676869 PUSH11 0x6B6C6D6E6F707172737475 PUSH23 0x7778797A303132333435363738392B2FA2646970667358 0x22 SLT KECCAK256 RJUMPI 0xB0A9 DUP11 PUSH16 0x7CBA6C206E3CAA1D78A36E8B12813543 RETF EOFCREATE 0x70 PUSH18 0x10FB5D82ABADC64736F6C634300081D0033 "
		},
		"gasEstimates": {
			"creation": {
				"codeDepositCost": "1252000",
				"executionCost": "infinite",
				"totalCost": "infinite"
			},
			"external": {
				"REWARD_RATE()": "228",
				"REWARD_RATE_DENOMINATOR()": "205",
				"SECONDS_IN_YEAR()": "250",
				"achievementBadge()": "2425",
				"getUserInfo(address)": "infinite",
				"getUserTokenId(address)": "infinite",
				"harvestRewards()": "infinite",
				"hasLPToken(address)": "2604",
				"lpToken()": "2425",
				"owner()": "2440",
				"pendingRewards(address)": "infinite",
				"renounceOwnership()": "infinite",
				"stake(uint256)": "infinite",
				"stakingToken()": "2403",
				"tierNames(uint256)": "infinite",
				"tiers(uint256)": "4585",
				"transferOwnership(address)": "28360",
				"viewTokenURI(uint256)": "infinite",
				"withdraw(uint256)": "infinite"
			},
			"internal": {
				"_calculatePendingRewards(address)": "infinite",
				"_checkAndUpdateTier(address)": "infinite",
				"_generateLPTokenMetadata(address)": "infinite",
				"_updateLPTokenMetadata(address)": "infinite",
				"_updateRewards(address)": "infinite"
			}
		},
		"methodIdentifiers": {
			"REWARD_RATE()": "5997bb37",
			"REWARD_RATE_DENOMINATOR()": "9c373dc5",
			"SECONDS_IN_YEAR()": "5dcc9391",
			"achievementBadge()": "77f648b7",
			"getUserInfo(address)": "6386c1c7",
			"getUserTokenId(address)": "fefd4e4f",
			"harvestRewards()": "2be11ae2",
			"hasLPToken(address)": "61a2e650",
			"lpToken()": "5fcbd285",
			"owner()": "8da5cb5b",
			"pendingRewards(address)": "31d7a262",
			"renounceOwnership()": "715018a6",
			"stake(uint256)": "a694fc3a",
			"stakingToken()": "72f702f3",
			"tierNames(uint256)": "f36596da",
			"tiers(uint256)": "039af9eb",
			"transferOwnership(address)": "f2fde38b",
			"viewTokenURI(uint256)": "496db3b9",
			"withdraw(uint256)": "2e1a7d4d"
		}
	},
	"abi": [
		{
			"inputs": [
				{
					"internalType": "address",
					"name": "_stakingToken",
					"type": "address"
				}
			],
			"stateMutability": "nonpayable",
			"type": "constructor"
		},
		{
			"inputs": [
				{
					"internalType": "address",
					"name": "owner",
					"type": "address"
				}
			],
			"name": "OwnableInvalidOwner",
			"type": "error"
		},
		{
			"inputs": [
				{
					"internalType": "address",
					"name": "account",
					"type": "address"
				}
			],
			"name": "OwnableUnauthorizedAccount",
			"type": "error"
		},
		{
			"inputs": [
				{
					"internalType": "address",
					"name": "token",
					"type": "address"
				}
			],
			"name": "SafeERC20FailedOperation",
			"type": "error"
		},
		{
			"anonymous": false,
			"inputs": [
				{
					"indexed": true,
					"internalType": "address",
					"name": "user",
					"type": "address"
				},
				{
					"indexed": false,
					"internalType": "uint256",
					"name": "tokenId",
					"type": "uint256"
				},
				{
					"indexed": false,
					"internalType": "uint256",
					"name": "tier",
					"type": "uint256"
				}
			],
			"name": "AchievementBadgeMinted",
			"type": "event"
		},
		{
			"anonymous": false,
			"inputs": [
				{
					"indexed": true,
					"internalType": "address",
					"name": "user",
					"type": "address"
				},
				{
					"indexed": false,
					"internalType": "uint256",
					"name": "tokenId",
					"type": "uint256"
				}
			],
			"name": "LPTokenMinted",
			"type": "event"
		},
		{
			"anonymous": false,
			"inputs": [
				{
					"indexed": true,
					"internalType": "address",
					"name": "previousOwner",
					"type": "address"
				},
				{
					"indexed": true,
					"internalType": "address",
					"name": "newOwner",
					"type": "address"
				}
			],
			"name": "OwnershipTransferred",
			"type": "event"
		},
		{
			"anonymous": false,
			"inputs": [
				{
					"indexed": true,
					"internalType": "address",
					"name": "user",
					"type": "address"
				},
				{
					"indexed": false,
					"internalType": "uint256",
					"name": "amount",
					"type": "uint256"
				}
			],
			"name": "RewardsHarvested",
			"type": "event"
		},
		{
			"anonymous": false,
			"inputs": [
				{
					"indexed": true,
					"internalType": "address",
					"name": "user",
					"type": "address"
				},
				{
					"indexed": false,
					"internalType": "uint256",
					"name": "amount",
					"type": "uint256"
				}
			],
			"name": "Staked",
			"type": "event"
		},
		{
			"anonymous": false,
			"inputs": [
				{
					"indexed": true,
					"internalType": "address",
					"name": "user",
					"type": "address"
				},
				{
					"indexed": false,
					"internalType": "uint256",
					"name": "tier",
					"type": "uint256"
				}
			],
			"name": "TierAchieved",
			"type": "event"
		},
		{
			"anonymous": false,
			"inputs": [
				{
					"indexed": true,
					"internalType": "address",
					"name": "user",
					"type": "address"
				},
				{
					"indexed": false,
					"internalType": "uint256",
					"name": "amount",
					"type": "uint256"
				}
			],
			"name": "Withdrawn",
			"type": "event"
		},
		{
			"inputs": [],
			"name": "REWARD_RATE",
			"outputs": [
				{
					"internalType": "uint256",
					"name": "",
					"type": "uint256"
				}
			],
			"stateMutability": "view",
			"type": "function"
		},
		{
			"inputs": [],
			"name": "REWARD_RATE_DENOMINATOR",
			"outputs": [
				{
					"internalType": "uint256",
					"name": "",
					"type": "uint256"
				}
			],
			"stateMutability": "view",
			"type": "function"
		},
		{
			"inputs": [],
			"name": "SECONDS_IN_YEAR",
			"outputs": [
				{
					"internalType": "uint256",
					"name": "",
					"type": "uint256"
				}
			],
			"stateMutability": "view",
			"type": "function"
		},
		{
			"inputs": [],
			"name": "achievementBadge",
			"outputs": [
				{
					"internalType": "contract AchievementBadge",
					"name": "",
					"type": "address"
				}
			],
			"stateMutability": "view",
			"type": "function"
		},
		{
			"inputs": [
				{
					"internalType": "address",
					"name": "user",
					"type": "address"
				}
			],
			"name": "getUserInfo",
			"outputs": [
				{
					"internalType": "uint256",
					"name": "stakedAmount",
					"type": "uint256"
				},
				{
					"internalType": "uint256",
					"name": "timeWeightedScore",
					"type": "uint256"
				},
				{
					"internalType": "uint256",
					"name": "rewardsEarned",
					"type": "uint256"
				},
				{
					"internalType": "uint256",
					"name": "currentTier",
					"type": "uint256"
				},
				{
					"internalType": "bool",
					"name": "hasStaked",
					"type": "bool"
				},
				{
					"internalType": "uint256",
					"name": "pendingRewardsAmount",
					"type": "uint256"
				}
			],
			"stateMutability": "view",
			"type": "function"
		},
		{
			"inputs": [
				{
					"internalType": "address",
					"name": "user",
					"type": "address"
				}
			],
			"name": "getUserTokenId",
			"outputs": [
				{
					"internalType": "uint256",
					"name": "",
					"type": "uint256"
				}
			],
			"stateMutability": "view",
			"type": "function"
		},
		{
			"inputs": [],
			"name": "harvestRewards",
			"outputs": [],
			"stateMutability": "nonpayable",
			"type": "function"
		},
		{
			"inputs": [
				{
					"internalType": "address",
					"name": "",
					"type": "address"
				}
			],
			"name": "hasLPToken",
			"outputs": [
				{
					"internalType": "bool",
					"name": "",
					"type": "bool"
				}
			],
			"stateMutability": "view",
			"type": "function"
		},
		{
			"inputs": [],
			"name": "lpToken",
			"outputs": [
				{
					"internalType": "contract LPToken",
					"name": "",
					"type": "address"
				}
			],
			"stateMutability": "view",
			"type": "function"
		},
		{
			"inputs": [],
			"name": "owner",
			"outputs": [
				{
					"internalType": "address",
					"name": "",
					"type": "address"
				}
			],
			"stateMutability": "view",
			"type": "function"
		},
		{
			"inputs": [
				{
					"internalType": "address",
					"name": "user",
					"type": "address"
				}
			],
			"name": "pendingRewards",
			"outputs": [
				{
					"internalType": "uint256",
					"name": "",
					"type": "uint256"
				}
			],
			"stateMutability": "view",
			"type": "function"
		},
		{
			"inputs": [],
			"name": "renounceOwnership",
			"outputs": [],
			"stateMutability": "nonpayable",
			"type": "function"
		},
		{
			"inputs": [
				{
					"internalType": "uint256",
					"name": "amount",
					"type": "uint256"
				}
			],
			"name": "stake",
			"outputs": [],
			"stateMutability": "nonpayable",
			"type": "function"
		},
		{
			"inputs": [],
			"name": "stakingToken",
			"outputs": [
				{
					"internalType": "contract IERC20",
					"name": "",
					"type": "address"
				}
			],
			"stateMutability": "view",
			"type": "function"
		},
		{
			"inputs": [
				{
					"internalType": "uint256",
					"name": "",
					"type": "uint256"
				}
			],
			"name": "tierNames",
			"outputs": [
				{
					"internalType": "string",
					"name": "",
					"type": "string"
				}
			],
			"stateMutability": "view",
			"type": "function"
		},
		{
			"inputs": [
				{
					"internalType": "uint256",
					"name": "",
					"type": "uint256"
				}
			],
			"name": "tiers",
			"outputs": [
				{
					"internalType": "uint256",
					"name": "",
					"type": "uint256"
				}
			],
			"stateMutability": "view",
			"type": "function"
		},
		{
			"inputs": [
				{
					"internalType": "address",
					"name": "newOwner",
					"type": "address"
				}
			],
			"name": "transferOwnership",
			"outputs": [],
			"stateMutability": "nonpayable",
			"type": "function"
		},
		{
			"inputs": [
				{
					"internalType": "uint256",
					"name": "tokenId",
					"type": "uint256"
				}
			],
			"name": "viewTokenURI",
			"outputs": [
				{
					"internalType": "string",
					"name": "",
					"type": "string"
				}
			],
			"stateMutability": "view",
			"type": "function"
		},
		{
			"inputs": [
				{
					"internalType": "uint256",
					"name": "amount",
					"type": "uint256"
				}
			],
			"name": "withdraw",
			"outputs": [],
			"stateMutability": "nonpayable",
			"type": "function"
		}
	]
}